:020000040800F2
:1080000000A00020B5C0000805C100085DF100080F
:1080100005C1000805C1000805C1000800000000F6
:1080200000000000000000000000000005C1000882
:1080300005C100080000000005C10008B1F20008F9
:1080400005C1000805C1000805C1000805C10008F8
:1080500005C1000805C1000805C1000805C10008E8
:1080600005C10008A1F2000805C1000805C100080B
:1080700005C10008BDF7000805C1000805C10008DA
:1080800005C1000805C1000805C1000805C10008B8
:1080900051F1000805C1000805C10008A9F2000857
:1080A00005C1000805C1000805C1000805C1000898
:1080B00005C10008B5F2000805C1000805C10008A7
:1080C00005C1000805C1000805C1000805C1000878
:1080D00005C1000805C1000805C1000805C1000868
:1080E00005C1000805C1000805C1000805C1000858
:1080F00005C1000805C1000805C1000805C1000848
:1081000000000000000000000000000005C10008A1
:1081100005C1000805C1000805C1000805C1000827
:1081200005C1000805C1000805C1000805C1000817
:1081300005C1000805C100080000000000000000A3
:1081400005C1000805C1000805C1000800000000C5
:10815000000000000000000000000000000000001F
:10816000000000000000000005C1000805C1000873
:1081700005C1000800000000000000000000000031
:088180000000000005C1000829
:108188000348044B834202D0034B03B1184770479E
:108198006800002068000020000000000548064B29
:1081A8001B1AD90F01EBA301491002D0034B03B1ED
:1081B8001847704768000020680000200000000091
:1081C80010B5064C237843B9FFF7DAFF044B13B117
:1081D8000448AFF300800123237010BD680000201D
:1081E80000000000EC50010808B5044B1BB104491D
:1081F8000448AFF30080BDE80840CFE70000000066
:108208006C000020EC5001082DE9F04F99B000F205
:108218007E631393002300F11E02129318AB0192A0
:108228000DF15F06C3F1110A019A0DF14F0132F801
:10823800023F019200910846012203EA02040AEB78
:1082480000052C4100F8014F5200864292B2F4D149
:108258009DF950209DF952B09DF95B709DF95CE045
:1082680000919DF951109DF955909DF959C0CDF88F
:1082780010E0CDE90A2182EA0105704687EA0B027F
:108288009DF958E09DF953809DF95640039789EA76
:10829800020271468CEA02029DF957E09DF954707A
:1082A800029742409DF95D0006908EEA0202424024
:1082B8000A989DF95A700C9480EA0800604078404A
:1082C8008BEA000089EA00008CEA000005900B9810
:1082D8000D9180EA0800484078408BEA00008CEA5B
:1082E80000008EEA00000790029860409DF95E4009
:1082F80008946240029C48400C9988EA04044C4067
:108308000D994C406A4003997C40654054409DF962
:108318005F20099285EA01020E92DDE904214A40B4
:108328000F92DDE90621784089EA00008CEA000016
:108338004A4008998EEA000041401091099961402D
:10834800119103998D420DD1DDE904158D4209D1B2
:10835800DDE906158D4205D10899884202D10999AF
:108368008C4213D00F99920002EB41020E990A44F5
:10837800109902EBC102119902EB011292B2A2F11B
:1083880010000F280ED96FF009021292019AC3F358
:108398000A031380139B9A427FF446AF129819B0D0
:1083A800BDE8F08F113A0E2A71D8DFE802F06A644E
:1083B8005E58524D48423C37312C26210800C7F1FF
:1083C80001078DF85A70129B0099002B08BF6FF0B7
:1083D8000803012212931046002311F9012F12FB02
:1083E80000F2440013448E429BB2A0B2F5D1CDE70F
:1083F800CCF101038DF85930E5E70D9BC3F101037A
:108408008DF85830DFE7CEF101038DF85730DAE701
:108418000C9BC3F101038DF85630D4E7C9F1010371
:108428008DF85530CFE7029BC3F101038DF8543026
:10843800C9E7089BC3F1010C8DF85EC0C3E7C8F11A
:1084480001038DF85330BEE7CBF101038DF85230AC
:10845800B9E70B9BC3F101038DF85130B3E7069BD5
:10846800C3F101038DF85D30ADE70A9BC3F1010349
:108478008DF85030A7E7049BC3F101038DF85C30F9
:10848800A1E7039BC3F101038DF85B309BE7099BD0
:10849800C3F101038DF85F3095E700BF10B50B46B7
:1084A8000C464FF450724FF4105107F033FA00B1F4
:1084B80010BD2046BDE81040FFF7A6BE10B530221B
:1084C80082B04FF40041044607F066FA421C04D11A
:1084D8000DE0BDF806301B0709D40DF10603012293
:1084E8004FF40041204607F015FA0028F1D002B0F9
:1084F80010BD00BF10B582B00DF10603012248F28D
:108508000D01044607F006FA08B102B010BDBDF827
:10851800062048F20D0142F400422046ADF806203C
:1085280007F03AFA0028F0D107F0DCF90028ECD17E
:108538000DF10603012248F20D01204607F0EAF981
:108548000028E2D1BDF90630002BB8BF6FF00A0051
:10855800DBE700BF002347F6FF7130F813208A429B
:1085680003F1100303D0C02BF7D1002070476FF040
:1085780007007047038847F6FF718B422BD000F144
:108588000E0300F1240C33F8022F8A4223D06345EE
:10859800F9D1038D8B421ED0438D8B421BD0838D26
:1085A8008B4218D000F12E0300F1400C47F6FF7102
:1085B80033F8022F8A420ED09C45F9D100F14E03C0
:1085C80047F6FF715E3033F8022F8A4203D08342A8
:1085D800F9D1002070476FF007007047F0B50546E5
:1085E8009BB00E4603E0BDF806703A070DD40DF1B6
:1085F800060301224FF40041284607F08BF9044690
:108608000028F0D020461BB0F0BD30224FF40041C6
:10861800284607F0C1F9431C07F001070446F1D0CA
:1086280033462022002F3FD14FF48061284607F0BF
:1086380071F904460028E5D106F1400320224FF4E1
:108648008861284607F066F904460028DAD106F161
:10865800800320224FF49061284607F05BF9044616
:108668000028CFD106F1C00320224FF49861284694
:1086780007F050F904460028C4D106F5807320227B
:108688004FF4A061284607F045F904460028B9D1FF
:1086980006F5A07320224FF4A861284607F03AF99E
:1086A8000446002841D0ADE74FF48461284607F01E
:1086B80031F904460028A5D106F1400320224FF4E1
:1086C8008C61284607F026F9044600289AD106F15D
:1086D800800320224FF49461284607F01BF90446D2
:1086E80000288FD106F1C00320224FF49C61284650
:1086F80007F010F90446002884D106F5807320227B
:108708004FF4A461284607F005F9044600287FF4D1
:1087180079AF06F5A07320224FF4AC61284607F024
:10872800F9F8044600287FF46DAF02AB30224FF40D
:10873800B061284607F0EEF8044600287FF462AFDF
:1087480001AB2846012248F20D0107F0E3F8BDF815
:108758000430A6F8E031A6F8E271044600287FF458
:1087680051AF02A8FFF706FF28B9602202A906F553
:10877800C07003F0D3FB47F6FF7236F8143093420B
:1087880004F1100403D0C02CF7D13C463AE76FF04F
:10879800070437E730B583B00C460DF10603012214
:1087A80048F20D01054607F0B5F808B103B030BD31
:1087B800BDF80620A10222F4406201F4406192B2A1
:1087C8000A43284648F20D0107F0E6F803B030BD29
:1087D80000B583B00DF10603012248F20D0107F040
:1087E80099F818B9BDF80600C0F3812003B05DF808
:1087F80004FB00BF30B583B00C460DF1060301221F
:1088080048F20D01054607F085F808B103B030BD00
:10881800BDF80620E10122F4607201F4607192B2A1
:108828000A43284648F20D0107F0B6F803B030BDF8
:1088380000B583B00DF10603012248F20D0107F0DF
:1088480069F818B9BDF80600C0F3C21003B05DF8A6
:1088580004FB00BFD0B5B0F8D431B0F8E0612DED1D
:10886800028B07EE903A1B04B8EE678A48BFDFED2B
:10887800287A91F8240048BF38EE678A0C4602F03F
:1088880093FD9FED1F0B41EC110B01F019FBC6F393
:108898008126304657EC106B02F096FD9FED180BC1
:1088A80041EC110B01F00CFB304653EC102B394610
:1088B80002F01EFF03F0EAF8B4F9023007EE903A2E
:1088C80006EE900AB4F90030F8EEE77A07EE103AAF
:1088D800D8EE267AB8EEC77AC7EE877A17EE900AEE
:1088E80002F084FD08A3D3E9002302F021FC03F081
:1088F800CDF8BDEC028B00EE100AD0BDAFF30080BE
:1089080000000000000000406666666666660A4071
:10891800000080472DE9F84305460C46FFF79AFF0B
:10892800B5F8C03194ED046A07EE903A1A04B8EE2F
:10893800677AB5F8803144BFDFED2D7A37EE677A74
:1089480007EE903A1B0448BFDFED296AF8EE677A14
:1089580010EE109A48BF77EEE67ADFED266AE6EE6B
:10896800077A87EE276A66EE267A17EE900A02F0F3
:108978003DFD064660680F4602F038FD024648464F
:108988009046894602F032FD17A3D3E9002302F08E
:10899800CDFB02460B464046494602F07FFD164B8A
:1089A800002202F0C5FB02460B463046394602F06B
:1089B8009FFE0646A0890F4602F006FD02460B46BA
:1089C8003046394602F0B2FB03F060F894ED027AC3
:1089D80006EE900A86EE870AF3EE097A30EE270A49
:1089E800BDE8F883AFF300806666666666660A408F
:1089F80000008047000080480000F03F2DE9F04F5C
:108A08002DED108B91B00C4610EE909A83461746C8
:108A1800B0F8E2619FEDB4DAB0EE40AAFFF71AFFB2
:108A28005846214610EE108AFFF774FF10EE100A20
:108A3800F0EE409A02F0DAFCA3A3D3E9002302F097
:108A480077FB03F023F808EE100A484602F0CEFC44
:108A58009DA3D3E9002302F06BFB03F017F809EE9E
:108A6800100A29EE099A28EE088A29EE099A94F83C
:108A78009E05B0EE497AA8EE487A06EB4606ABF1B9
:108A8800020BB7EE008AC7EE0A7A04F2DD4539EE2A
:108A9800679A02F089FC9FED8E0B41EC110B01F0F7
:108AA8000FFA51EC100B02F0F1FF0BEE100A94F8DC
:108AB8005F0602F079FC9FED860B41EC110B01F08B
:108AC800FFF951EC100B02F0E1FF0BEE900A94F85D
:108AD800DC0102F069FC9FED7E0B41EC110B01F00B
:108AE800EFF951EC100B02F0D1FFF7EE007A94ED9C
:108AF8000C6AB4F9543094ED0B4A94ED0D5AD4ED48
:108B08000F5AB3EE047AF0EE676AE6EE076A824619
:108B18000EEE903A87EEA6EAB4F956300893B4F907
:108B280052301EEE902AF0EE674AE4EE074A07EE4E
:108B3800103AD31AF8EEC7DA07EE103A089AD4EDCD
:108B48000E6AB4F9583094ED106A0B931EEE901A21
:108B5800B8EEC77A521AF0EE67FAE6EE87FA089985
:108B680007EE102ACEEE24CA591AB4F95A200D92EB
:108B7800D31AF0EE674AE5EE2D4AB8EEC77AF0EE62
:108B8800676AE5EE876A07EE101A24EEAF5AB8EE68
:108B9800C77A65EE265AF0EE676AE6EE076A07EED0
:108BA800103A25EEA66AB8EEC77AD4ED116ABBF87A
:108BB8009631CDED094AE6EE877A19048DED0A5A09
:108BC80066EE277ACDED0C5ACDED0F7A07EE903A86
:108BD800B4F914308DED0E6AB8EE677A44BFDFED54
:108BE800427A37EE677A07EE903AF8EEE77ABBF802
:108BF800923187EE87CA1A0407EE903A48BF9FED74
:108C08003A7AF8EE677A48BF77EEC77A67EE8C7AD9
:108C180017EE900A02F0EAFBF3EE097A02460B46D9
:108C2800CDE9002379EEE79AB4F96436D4ED087AF1
:108C38004046A7EEA98A08EE903A02F0D7FB26A391
:108C4800D3E9002302F072FA80468946E069CDE94B
:108C5800028902F0CBFB42464B4602F01FFCF8EEBD
:108C6800E88A224B002202F063FA68EE887A80468E
:108C780017EE900A894602F0B9FB02460B464046B9
:108C8800494602F00BFC02460B46DDE9000102F002
:108C98004DFA02F0FBFE034650460AEE903A02F007
:108CA800A5FB0FA3D3E9002302F0F8FB04EBC613DE
:108CB80003F5EE73069304F5ED73CDE9040100970F
:108CC80004F15A0A07934CE06666666666127140BC
:108CD80000000000000000406666666666660A409E
:108CE8008DEDB5A0F7C6B03E000080470000F03F0C
:108CF800B4F94C3094ED0B8A06EE903A6FEEACFA6C
:108D0800F8EEE66A37EE667AF7EE006AE7EE086A8A
:108D180066EEAF7A88EEA70A70EE097AF5EE407A29
:108D2800F1EE10FA00F17A81B1EEE70AB5EE400AE9
:108D3800F1EE10FA00F16D81F1EEC07A17EE900AAB
:108D480002F054FBBAA3D3E9002302F0EFF902F0D2
:108D58009DFE009B43F8040B0093079B534500F0CE
:108D680047813BF8023F013507EE903A1B0495F91D
:108D7800C130B8EE677A07EE903A48BF37EE4D7AC1
:108D8800F8EEE77AB7EE00FA87EEAB8A67EE0C7A70
:108D9800F0EE4FFA17EE900A02F028FB95F9003032
:108DA80007EE103AB8EEC77A069BC7EE0B6A33F99E
:108DB800022F069306460F4608EE902AE9EEA6FA19
:108DC80018EE100A02F012FBDDE9022302F066FB3E
:108DD800F8EEE88A984B002202F0AAF968EEAF7A1A
:108DE800804617EE900A894602F000FB02460B46C1
:108DF8004046494602F052FB02460B463046394689
:108E080002F094F902F042FED4ED066A07EE100A69
:108E1800A6EEEA7A3AF8020FC7EE0A8A02F0D4FA06
:108E280002460B46DDE9040102F062FC02F02EFE68
:108E3800D4ED0A6AF0EE4F7AE9EEA67A07EE100A48
:108E480067EE87FAF0EE686AE9EE2F6A2FEEAF7ADE
:108E580027EE2F7A27EE267AB5EE407AF1EE10FA51
:108E680000F1D280B1EEC70AB5EE400AF1EE10FA71
:108E780000F1D980B1EEC0FA18EE900A02F0B6FA05
:108E880094ED0D8A064618EE100A0F4602F0AEFA67
:108E980067A3D3E9002302F001FB02460B4600203A
:108EA800654902F043F980461FEE900A894602F0B0
:108EB8009DFA02460B464046494602F0EFFA68EE34
:108EC8000F7A804617EE900A894602F08FFA02461A
:108ED8000B464046494602F02BF902460B463046FF
:108EE800394602F005FC064619EE100A0F4602F054
:108EF8007DFA02460B463046394602F019F941EC34
:108F0800100B01F077F801F075F849A3D3E90023B5
:108F180051EC100B02F00AF902F0B8FDB4F94E302A
:108F280006EE103A07EE100AB8EEC66AB4EEC76A43
:108F3800F1EE10FA3FF7DCAEB4F9503006EE903A95
:108F4800F8EEE66AF4EEC76AF1EE10FA06DD6FEEA7
:108F58008EFA94ED0C8AF0EE466AD3E6F4EEC7DAA0
:108F6800F1EE10FA3FF7CEAEF8EEEE6AF4EEC76A0D
:108F7800F1EE10FA08DDDDED097A94ED0E8A6FEE58
:108F8800A7FAF0EE6D6ABDE6DDED087AB8EEE76A9D
:108F9800B4EEC76AF1EE10FA06DDDDED0A7A94ED5B
:108FA8000F8A6FEEA7FAADE6DDED0B7AF8EEE75A19
:108FB800F4EEC75AF1EE10FA08DDDDED0C7A94ED07
:108FC800108A6FEEA7FAF0EE466A9BE6DDED0D7AA1
:108FD800F8EEE76AF4EEC76AF1EE10FA0DDDDDEDA2
:108FE8000E7A94ED118A6FEEA7FAF0EE656A89E6BB
:108FF80011B0BDEC108BBDE8F08FDDED0F7A94ED6C
:10900800128A6FEEA7FA7DE6B0EE470A00F0D0FFAD
:109018002AE700F0CDFFF0EE407A8FE6B0EE670A5F
:1090280000F0C6FF82E600F0C3FFB0EE40FA23E787
:1090380066666666661271400000F03F2DE9F04FE3
:109048002DED0A8B89B08B4690468246B0F8E291A6
:10905800DFED8FBAFFF7FEFB5046594610EE105A67
:10906800FFF758FC9BF89E05F0EE408A02F09CF949
:109078009FED830B41EC110B00F022FF51EC100B1C
:1090880002F004FD09EE900A9BF85F0602F08CF9E5
:109098009FED7B0B41EC110B00F012FF51EC100B14
:1090A80002F0F4FCBAF8943107EE903A1904B8EEDD
:1090B800677ABBF9143044BFDFED757A37EE677A0B
:1090C80007EE903AF8EEE77ABAF8903187EE87BA69
:1090D8001A0409EB4909AAF1020A07EE903A48BFB7
:1090E8009FED6B7AF8EE677A0AEE100A48BF77EEC2
:1090F800C77AF7EE00AA67EE8B7AB0EE6A9A17EE97
:10910800900A02F073F9F3EE097ABBF9643678EE47
:10911800E78ADBED087A02462846A7EEA89A1446A5
:109128000D4608EE103A02F061F957A3D3E900237F
:1091380001F0FCFF06460F46DBF81C00CDE904678A
:1091480002F054F932463B4602F0A8F9B8EEC88A54
:10915800504B002201F0ECFF68EE097A064617EE44
:10916800900A0F4602F042F902460B46304639464D
:1091780002F094F90B4602462946204601F0D6FF34
:1091880002F084FC0BEBC913474603F5EE790BF5A7
:10919800ED7809EE100ACDF81C800BF2DD44B846D4
:1091A8000BF15A050BF5CC664F463AF8023F07EE2D
:1091B800903A0134B8EE677A1B0494F9C13048BF7D
:1091C80037EE6B7A07EE903A27EE0B7AF8EEE77AED
:1091D80017EE100AC7EE8ACA02F008F994F90030AF
:1091E800CDE9000107EE903AF8EEE77A37F9023F49
:1091F80087EEA97AB0EE6ACAA8EE87CA08EE103AD6
:109208001CEE900A02F0F2F8DDE9042302F046F9B8
:10921800B8EEC88A1F4B002201F08AFF68EE0C7A6C
:10922800CDE9020117EE900A02F0E0F802460B467B
:10923800DDE9020102F032F90B460246DDE90001E0
:1092480001F074FF02F022FC35F8023FDBED066AFC
:1092580096ED006A07EE103A07EE900AB8EEC77A64
:10926800E6EEC97A079BA6EEC67AAB4267EE877A26
:10927800E8EC017A99D109B0BDEC0A8BBDE8F08F12
:1092880000000000000000406666666666660A40E8
:10929800000080470000F03FB0F8E201704700BFCF
:1092A800BF2813D800F00F0301EB80000F2B0ED856
:1092B800DFE803F034270D0D0D0D0D0D0D0D0D0D0F
:1092C8000D0D273776EEA76AC0ED006A7047D0ED1E
:1092D800016AD0ED027A10ED016A10ED027A76EE9D
:1092E800E77A36EE477AB0EEE75AF0EEC75AB4EEB0
:1092F800E55AF1EE10FAE5DD36EE076A80ED006A10
:10930800704750ED017AD0ED016A77EEA67AB6EE95
:10931800007A67EE877AC0ED007A70474368036089
:10932800704750F8043C0360704700BFB0F94E2006
:10933800B0F84E30B0F94CC0B2F5806FA8BFA3F5B5
:109348000063B0F84C20A8BF9BB2BCF5806FA8BFE3
:10935800A2F500624FEA4313A8BF92B21BB25201B2
:109368000B804A80704700BFB0F85630B0F85020E4
:1093780007EE903AB3F5806FF8EE677A28BF9FED55
:10938800167AB0F8543028BF77EEC77A9FED137A73
:1093980027EE877A07EE903AB3F5806FF8EE677A92
:1093A800B0F8583024BFDFED0C6A77EEE67A06EEA7
:1093B800903AB4EE006AB0F8523081ED017AFAEED4
:1093C800EC6A67EE867A03EB4213C1ED027A8B8171
:1093D800C1ED046A704700BF0000004500008039F5
:1093E800B0F84820B0F84A3003EB42138B8270473C
:1093F800B0F866309FED0B7AC3F3080307EE903A96
:10940800F8EEE77AF4EEC77AF1EE10FAC4BF9FEDF2
:10941800067A77EEC77A9FED057A67EE877AC1ED0F
:10942800067A704700007F43000000440000803C3B
:10943800B0F8463007EE903AB3F5806FF8EE677AE9
:1094480024BF9FED067A77EEC77A9FED057A67EE1F
:10945800877A01F5CD61C1ED007A704700000045BB
:109468000000003BB0F86630C3F3412381F8243094
:10947800704700BFB0F8443007EE903AB3F5806FFC
:10948800F8EE677A24BF9FED057A77EEC77A9FEDED
:10949800047A67EE877AC1ED0A7A704700000045C2
:1094A8000000003810B43B4C9FED3B6ADFED3B5A9F
:1094B8004FF4A002C1E913427823A1F85430B0F860
:1094C8007430A1F85630B0F87830A1F85830B0F8B8
:1094D8007C30A1F85A30B0F86A30B0F8682007EE4E
:1094E800903AB0F86C3002EE903AB0F86E3003EE75
:1094F800103AB0F8703003EE903AB0F8723004EEDB
:10950800103AB0F8763004EE903AB0F87A3005EEBA
:10951800103AB0F87E3007EE103A0123934006EE79
:10952800903AF8EE677AF8EE622AB8EE433AF8EE27
:10953800633AB8EE444AF8EE644AB8EE455AB8EED3
:10954800477AC1ED0B7AC1ED0C2A81ED0D3AC1EDD8
:109558000E3A81ED0F4AC1ED104A81ED115A81EDA5
:10956800127A01F13003F8EEE66A4C3101E0F3ECCF
:10957800017AF4EEC67AF1EE10FAC8BF77EEE57A12
:109588008B4287EEA67A03ED017AF0D15DF8044BA1
:10959800704700BFD8FFECFF00C07F4400000045C3
:1095A8002DE9F04F83462DED048BBBF83230BBF824
:1095B80034209FED7D8AADF54D7D00205D0957096A
:1095C8005E4603F01F0314370446143502F01F02E9
:1095D800143267F30F04009165F30F0003F11401CF
:1095E80036F8363F61F31F4062F31F449FED689BD6
:1095F8005A09CDE9020403F01F0306A914321433F3
:10960800ADF81020ADF8123002AF0BF1420A8946CE
:10961800884636F8020F01F0D7FE044637F8020BE9
:109628000D4601F0C1FEB0EE490AF0EE690A41ECC0
:10963800110B00F045FC204653EC102B294602F094
:1096480057F802F023FA07EE100AC7EE087A5645D3
:10965800E9EC017ADDD1009A02F5CC63D2ED067A05
:10966800D3ED008A4CA7D7E900670CAD414668EEF8
:10967800E78A0BF23E29A84601950BF2BE3B0D4640
:10968800B5EC018AA9F14004C24634F8023F07EE5E
:10969800903AF8EEE77AB0EE687AA7EE887A17EE95
:1096A800100A01F0A3FE02460B463046394602F086
:1096B8001FF802F0EBF9A1454AF8040BE5D109F1CE
:1096C8004009D94508F18008DAD1019DDDED0C7A11
:1096D8000DABCCACB3EC017AB4EE677AF1EE10FACC
:1096E800C8BFF0EE477A9C42F4D19FED307AF4EE91
:1096F800C77AF1EE10FA45D54FF0000A77EEA77A4F
:109708000AF1010AF4EEC77AF1EE10FA5FFA8AFA62
:10971800F4D4504601F048FE41EC180B009B244F4E
:109728009FED1B9B03F15A090026CB46B0EE481A61
:10973800F0EE681AB0EE490AF0EE690A55F8048BA3
:1097480000F0BEFB404659EC108B01F04FFE42463C
:109758004B4601F0A3FE02F099F901F047FE3246AC
:109768003B4601F0E5FC02F071F9A5422BF8020F27
:10977800DCD1009B83F8DCA10DF54D7DBDEC048B9D
:10978800BDE8F08F9FED068B4FF0000AC6E700BFDB
:1097980000000000000000408DEDB5A0F7C6B03E07
:1097A800000000000000000000E0FF440000004747
:1097B8000000E03F038C428C10B5B0F824E05B0950
:1097C8004FF0010C0EEB421E0CFA03FC1FFA8EFE42
:1097D8001FFA8CFC00F17E0201F5EE7100F5FF74B2
:1097E80032F8023F18B2B0F5806FA4BFA3F500634A
:1097F8009BB213FB0CE321F8023FB2F98004B2F8E4
:109808008034B0F5806FA4BFA3F500639BB21CFB46
:1098180003E3A242A1F88031E2D110BD2DE9F04F57
:10982800B0F92A40438D2DED068BB4F5806F834641
:10983800808DADF5437DA4BFA3F500631CB2C0F3D2
:10984800471300F01F000191009301F0ADFD07EEF2
:10985800904A9FED638B0DF10808B8EEE7AA41EC3A
:10986800190B0BF27E3B0DF54279C2463BF8023FDD
:10987800B0EE491AF0EE691AB3F5806F4FEA531447
:1098880028BF403CB0EE480AF0EE680A28BFA4B2F0
:1098980000F016FB009857EC106B01F085FDB0EE58
:1098A800480AF0EE680A41EC110B00F009FB20B2FF
:1098B80055EC104B01F088FD32463B4601F0EEFDB9
:1098C80002F0E4F807EE900A77EE8A7A17EE900A2B
:1098D80001F08CFD22462B4601F00AFF02F0D6F873
:1098E8004AF8040BCA45C1D19DED027A03ABB0EE2C
:1098F800C77AF3EC017AF0EEE77AF4EE477AF1EE04
:1099080010FAC8BFB0EE677A4B45F2D1DFED387A6E
:10991800B4EEE77AF1EE10FA5AD54FF0000B37EEB5
:10992800077A0BF1010BB4EEE77AF1EE10FA5FFA61
:109938008BFBF4D4584601F037FD41EC180B019B22
:109948002C4D9FED279B03F2DD4A00240CE001F02B
:109958004DFD22462B4601F0EBFB02F04FF8C845BF
:1099680040B20AF8010F2AD0B0EE481AF0EE681A91
:10997800B0EE490AF0EE690A58F8046B00F0A0FA54
:10998800304657EC106B01F031FD32463B4601F092
:1099980085FD02F07BF807EE900AF5EEC07AF1EE4D
:1099A80010FAD4D501F022FD22462B4601F0BEFB69
:1099B80002F024F8C84540B20AF8010FD4D1019B3F
:1099C80083F89EB50DF5437DBDEC068BBDE8F08FA1
:1099D8009FED058B4FF0000BB1E700BFAFF30080A0
:1099E800000000000000004000000000000000002F
:1099F800000080420000E03F2DE9F04FB0F92E4012
:109A0800C38D2DED068BB4F5806F8346008EADF5C2
:109A1800437DA4BFA3F500631CB2C0F3471300F055
:109A28001F000191009301F0BFFC07EE904A9FEDE3
:109A3800628B0DF10808B8EEE7AA41EC190B0BF29E
:109A48007E3B0DF54279C2463BF8023FB0EE491A1B
:109A5800F0EE691A03F01F04DB0648BF203CB0EEA5
:109A6800480AF0EE680A48BFA4B200F029FA009844
:109A780057EC106B01F098FCB0EE480AF0EE680A5B
:109A880041EC110B00F01CFA20B255EC104B01F020
:109A98009BFC32463B4601F001FD01F0F7FF07EE63
:109AA800900A77EE8A7A17EE900A01F09FFC224618
:109AB8002B4601F01DFE01F0E9FF4AF8040BCA45E8
:109AC800C2D19DED027A03ABB0EEC77AF3EC017A0E
:109AD800F0EEE77AF4EE477AF1EE10FAC8BFB0EE8E
:109AE800677A4B45F2D1DFED387AB4EEE77AF1EEDA
:109AF80010FA5AD54FF0000B37EE077A0BF1010B2D
:109B0800B4EEE77AF1EE10FA5FFA8BFBF4D458461C
:109B180001F04AFC41EC180B019B2C4D9FED269B54
:109B280003F29E5A00240CE001F060FC22462B460A
:109B380001F0FEFA01F062FFC84540B20AF8010FD1
:109B48002AD0B0EE481AF0EE681AB0EE490AF0EEE4
:109B5800690A58F8046B00F0B3F9304657EC106BFB
:109B680001F044FC32463B4601F098FC01F08EFFC0
:109B780007EE900AF5EEC07AF1EE10FAD4D501F0AE
:109B880035FC22462B4601F0D1FA01F037FFC845D3
:109B980040B20AF8010FD4D1019B83F85FB60DF5E6
:109BA800437DBDEC068BBDE8F08F9FED058B4FF034
:109BB800000BB1E7AFF30080000000000000004098
:109BC8000000000000000000000080420000E03FAC
:109BD8002DE9F843B0F85A30B0F85E20B0F860606C
:109BE80007EE903AB3F5806F2DED028BB8EE678AD9
:109BF80028BFDFED437A044690F85C0028BF38EEB2
:109C0800678A06EB42160D4601F0CEFB9FED3A0B34
:109C180041EC110B00F054F959EC108B18EE100AB6
:109C280001F0E4FB42464B4601F062FD01F02EFFD5
:109C3800B4F8623003F03F0208EE102AB8EEC88A82
:109C4800F3EE0F7AB4EEE78AF1EE10FAC8BFDFED53
:109C58002D7A0746C3F38710C8BF38EE678A01F02C
:109C6800A3FB9FED250B41EC110B00F029F959ECF2
:109C7800108B18EE100A01F0B9FB42464B4601F072
:109C880037FD01F003FFB4F86430286203F03F02A7
:109C980008EE102AB8EEC88AF3EE0F7AB4EEE78A17
:109CA800F1EE10FAC8BFDFED177AC3F38710C8BF0B
:109CB80038EE678A01F078FB9FED0F0B41EC110B32
:109CC80000F0FEF859EC108B18EE100A01F08EFB2C
:109CD8004B46424601F00CFD01F0D8FEBDEC028B6C
:109CE80005F5CC6336B2E8611F60A5F86466BDE887
:109CF800F88300BFAFF300800000000000000040C0
:109D0800000000450000804200F5CD6090ED000A9B
:109D1800704700BF30B54FF6FF730022A1F86C36CC
:109D28007E30134630F8024F03F1010C44B11FFA9C
:109D38008CF3C02BF6D1022A18BF002019D030BDF1
:109D4800B0F88041002CF2D1B0F80043002CEED1DD
:109D5800B0F88054E646541C002DE8D1A1F86C36C2
:109D68001FFA8CF3C02BA2B2E5D0022A01D001223F
:109D7800D8E76FF0020030BD38B5838A5B0640F142
:109D88008680B0F94E20B0F84E300D46B2F5806F9F
:109D9800B0F94C10B0F84C20A4BFA3F500639BB2F7
:109DA800B1F5806FA4BFA2F5006292B25B011BB24D
:109DB800520129462B806A80FFF7D6FAB0F848206E
:109DC800B0F84A309FED337A03EB4213AB82B0F818
:109DD8006630C3F3080207EE902AF8EEE77AB0F887
:109DE8004620F4EEC77AF1EE10FAC4BF9FED2A7A46
:109DF80077EEC77A9FED297A67EE877A07EE102A01
:109E0800B2F5806FC5ED067AB8EE477A24BFDFED6C
:109E1800247A37EE677ADFED237A27EE277A05F57D
:109E2800CD62C3F3412382ED007A85F82430B0F87F
:109E3800443007EE903AB3F5806F28BF9FED187A4B
:109E4800F8EE677A044628BF77EEC77A9FED167A50
:109E580067EE877AC5ED0A7AFFF724FB2946FFF7F4
:109E6800B7FE29462046FFF79BFB29462046FFF709
:109E7800A1FC29462046FFF7D1FC29462046FFF7DA
:109E8800BBFD29462046BDE83840FFF743BF6FF0C9
:109E9800060038BD00007F43000000440000803CFD
:109EA800000000450000003B00000038838A13F0E2
:109EB800400F0CBF6FF00600002070470000000044
:109EC800F8B52DED028B55EC114B57EC106B00F0EB
:109ED800C7F822462B4620462946B0EE408AF0EEC7
:109EE800608A01F075FD78B90022002330463946B2
:109EF80001F03CFDF0B1002200232046294601F084
:109F080035FD40B19FED288BB0EE480AF0EE680AA7
:109F1800BDEC028BF8BD45EC104B00F0A1FF00280A
:109F2800F2D0002200232046294601F029FD00280E
:109F3800EAD02EE0B0EE480AF0EE680A00F090FF92
:109F4800A0B151EC180B0022002301F00FFD0028EE
:109F5800DAD047EC106B00F083FF0028D4D045EC32
:109F6800104B00F07DFF0028CED012E047EC106BBC
:109F780000F076FF0028E4D045EC104B00F070FFAD
:109F88000028DED053EC182B51EC180B01F020FD03
:109F980020B901F0BDFF22230360B5E701F0B8FF47
:109FA80021230360B0E700BF000000000000F03F7D
:109FB80008B52DED028BB0EE408A01F025F8B4EE1D
:109FC800488AF1EE10FA06D6DFED098AB4EEE88A7F
:109FD800F1EE10FA02D4BDEC028B08BD01F098FF37
:109FE80088EEA80ABDEC028B2123036008BD00BFE0
:109FF8000000000038B52DED028B55EC104B00F039
:10A0080039FE22462B4620462946B0EE408AF0EE1D
:10A01800608A01F0DDFC30B9002200232046294681
:10A0280001F0AEFC30B9B0EE480AF0EE680ABDECBB
:10A03800028B38BD01F06CFF002200232121016052
:10A048001046194601F054FB41EC180BB0EE480AD3
:10A05800F0EE680ABDEC028B38BD00BF00000000BE
:10A068002DE9F04F55EC114B25F0004353EA04005D
:10A0780057EC106B93B012D1B3198D4987F40022B5
:10A0880052419842914120D222462B4630463946C9
:10A0980001F04EF841EC100B13B0BDE8F08F854885
:10A0A80027F0004A8245B846314613D908F140489E
:10A0B80008F5801858EA0108E6D123197C4985F487
:10A0C8000022524198459141DED39FED770B13B0A2
:10A0D800BDE8F08FA946224616D08342E6D85046FE
:10A0E80000F0B680B8F1000F16DB002A40F0C580FA
:10A0F800DFF8CCC1634540F0FD83B9F1000FC0F231
:10A10800068547EC106BC7E7002EBDD15345BBD879
:10A1180000F024845046E5E7DFF8A8C1634500F263
:10A12800E383DFF898C1634542D8002A40F01284DF
:10A13800B9F1804F33D0934647EC106B04910290ED
:10A14800009300F099FE0499009B0298002953D0CF
:10A158004FEAD872013A52EA0B0100F0A0800BF1E5
:10A16800FF3B5BEA020B00F0BA839FED4F7B8DED5E
:10A17800067BB3F1844F40F2A7804F4A93424F4B7E
:10A1880040F226849A4500F2DA84B9F1000FC0F251
:10A19800DA84002013B0BDE8F04F00F0A1BE3246CB
:10A1A8003B463046394601F079F941EC100B73E72C
:10A1B8004FEA235CACF2FF3CBCF1140F40F38C84F3
:10A1C800CCF1340C22FA0CFE0EFA0CFC944500F08B
:10A1D8000185002A40F0BE83B9F1804F04910290B6
:10A1E8000093DCD047EC106B00F046FE0499009B0E
:10A1F8000298002953D18B46314A28F040419142B8
:10A2080002D0BAF1000FA3D1B9F1000F07DA53EC6D
:10A21800102B2B49002001F06BFA41EC100BB8F120
:10A22800000FBFF639AF0AF1404A0AF5801A5AEA18
:10A238000B0A40F0768453EC102B1046194600F0B8
:10A2480075FF02460B4601F053FA41EC100B23E769
:10A25800002C7FF42BAF0AF1404303F580133343FE
:10A268003FF433AF154B9A4540F22884B9F1000FFB
:10A27800C0F29F8445EC104B0EE74FF0000B47EC03
:10A28800106B04910290009300F0F6FD0499009B76
:10A2980002980029B0D04FEAD872013A5FE73246F7
:10A2A8003B46CAE7AFF30080000000000000F03F23
:10A2B8000000F0FF0000F07F0000F043FFFFEF3FD9
:10A2C8000000F03FFFFF3F43DB4B08EA0303002297
:10A2D80053B951EC100BD94B01F0E0F841EC100BDD
:10A2E80010EE900A6FF034020315A3F2FF339A18A8
:10A2F800D34B0B92C0F3130040F07F56984246F4BC
:10A30800401640F3CD83CF4B984240F322849FED13
:10A31800B47B8DED087B9FEDB47B8DED047B9FEDC9
:10A32800B07B8DED107B01320B92A6F580160027CD
:10A3380053EC102B92465046DDE90423314600F0D9
:10A34800F5FEB346DDE9042380468946504631468A
:10A35800CDE90CAB00F0ECFE02460B460020BA49F2
:10A3680001F0C6F98C46834663465A46404649463C
:10A37800CDE90EBC01F092F80A460146CDE900127B
:10A38800CDE90212002100917610DDE900AB46F01C
:10A39800005606F500230020D91906460F46024646
:10A3A8000B465046594601F079F802460B4640469E
:10A3B800494600F0BBFEDDE9042380468946304665
:10A3C800394600F0B3FE02460B46DDE90C0100F009
:10A3D800ADFE52465B4601F061F802460B46404628
:10A3E800494600F0A3FEDDE90E2301F057F8DDE948
:10A3F8000267CDE9040132463B463046394601F052
:10A408004DF87BA3D3E9002306460F4601F046F832
:10A4180079A3D3E9002300F08BFE32463B4601F0D6
:10A428003DF877A3D3E9002300F082FE32463B468D
:10A4380001F034F874A3D3E9002300F079FE324622
:10A448003B4601F02BF872A3D3E9002300F070FE1D
:10A4580032463B4601F022F86FA3D3E9002300F00F
:10A4680067FE3246804689463B463046394601F00B
:10A4780015F802460B464046494601F00FF8524689
:10A4880006460F465B46DDE9020100F051FEDDE9B4
:10A49800042301F003F832463B4600F049FE5246D9
:10A4A80006460F465B465046594600F0F7FF674B95
:10A4B80000228046894600F03BFE32463B46CDE905
:10A4C8000C6700F035FE00260F4632463B465046E4
:10A4D800594600F0E3FF5D4B82468B46002230462A
:10A4E800394600F023FE42464B4600F01FFE024666
:10A4F8000B46DDE90C0100F019FEDDE9022300F04E
:10A50800CDFF3246804689463B46DDE9040100F02E
:10A51800C5FF02460B464046494600F009FE804604
:10A52800894642464B465046594600F001FE0026F1
:10A538003BA3D3E9002330460F4600F0AFFF524655
:10A548005B4682468B463046394600F0EFFD0246B0
:10A558000B464046494600F0E9FD33A3D3E9002302
:10A5680000F09CFF02460B463046394616461F4609
:10A578002FA3D3E9002300F091FF02460B46304693
:10A58800394600F0D5FDDDE9102300F0D1FD804605
:10A598000B98894600F018FF424606460F464B4680
:10A5A80050465946CDE902AB00F0C2FDDDE908236B
:10A5B80000F0BEFD32463B4600F0BAFD00203246B0
:10A5C8003B4682468B4600F0B1FDDDE9082300F0EA
:10A5D800ADFDDDE9022300F0A9FD39E0AFF300800D
:10A5E8000000000000000000000000000000F03F34
:10A5F800EF4E454A287ECA3F65DBC9934A86CD3F60
:10A6080001411DA96074D13F4D268F515555D53F45
:10A61800FFAB6FDBB66DDB3F033333333333E33FDD
:10A62800000000E009C7EE3FFD033ADC09C7EE3F32
:10A63800F5015B14E02F3EBE0000F07F00004043B0
:10A648008E98030079B60B000000F03F0000084028
:10A6580002460B464046494600F068FDCDE9020136
:10A668000023CDE900450093DDE9008920464246F4
:10A6780029464B4600F05AFD52465B4600F00EFF55
:10A68800224606460F462B46DDE9020100F006FF8A
:10A6980002460B463046394600F04AFD424604461B
:10A6A8000D464B4650465946CDE9024500F0F6FEA8
:10A6B80006460F46204629463B46324600F038FDFE
:10A6C800BD4B994204460D46884640F3238101F16B
:10A6D8003F4303F5E003034340F05382A2A3D3E9C9
:10A6E8000023DDE9020100F023FD02460B46204667
:10A6F800294614461D4632463B4600F017FD0246E1
:10A708000B462046294601F059F9002840F03982C5
:10A718004FF400734344C3F30A52A84CA2F2FF3229
:10A728001441C3F3130AC2F11402002004EA03011E
:10A738004AF4801A4AFA02FA0B460246B8F1000FA8
:10A7480030463946B8BFCAF1000A00F0EFFC0246AD
:10A758000B4606460F46DDE9020100F0E9FC4FEA28
:10A768000A5B0D46002482A3D3E90023204629462C
:10A7780000F094FE3246804689463B4620462946EC
:10A7880000F0D4FC02460B46DDE9020100F0CEFCE5
:10A7980079A3D3E9002300F081FE02460B46204648
:10A7A800294614461D4676A3D3E9002300F076FE19
:10A7B80002460B462046294600F0BAFC06460F46DC
:10A7C80032463B464046494600F0B2FC42464B46BC
:10A7D80004460D4600F0AAFC02460B4630463946B0
:10A7E80000F0A4FC2246804689462B46204629468E
:10A7F80000F054FE64A3D3E9002306460F4600F098
:10A808004DFE63A3D3E9002300F090FC32463B469B
:10A8180000F044FE60A3D3E9002300F089FC32462F
:10A828003B4600F03BFE5EA3D3E9002300F07EFC2C
:10A8380032463B4600F032FE5BA3D3E9002300F02A
:10A8480077FC32463B4600F029FE02460B4620467E
:10A85800294600F06BFC06460F4632463B4620462A
:10A86800294600F01BFE02460B463046394616467E
:10A878001F4600224FF0804300F058FC02460B466A
:10A888003046394600F034FF424606460F464B46EE
:10A898002046294600F002FE42464B4600F048FC9E
:10A8A80002460B463046394600F040FC22462B460D
:10A8B80000F03CFC0B4602464149002000F036FC03
:10A8C8000B465B44B3F5801FC0F253811946DDE99E
:10A8D800062300F0E3FD41EC100BFFF7DDBB9FED15
:10A8E800347B8DED067B44E44FF0020B002A7FF4A5
:10A8F800C6AC21E4B9F1804F3FF451ACDFF8C8C0D1
:10A90800E1457FF418AC47EC106B13B0BDE8F04F8D
:10A9180000F0B0B9DFF8B4C021F00043634540F25D
:10A92800ED80284B0B4403430AD132463B4600F0E6
:10A93800FDFBDDE9022301F037F800283FF4E8AE1B
:10A94800DDE906010022002301F01AF8003818BFDB
:10A9580001201FE404910290009343E4002C7FF44B
:10A9680093AB7FE4AFF30080FE822B654715973CDD
:10A9780000000000432EE63FEF39FAFE422EE63F84
:10A98800396CA80C615C20BED0A4BE726937663EE3
:10A99800F16BD2C541BDBB3E2CDE25AF6A56113FD7
:10A9A80093BDBE166CC1663F3E5555555555C53FBE
:10A9B800000000000000F0BFFFFF8F400000F0FF24
:10A9C8000000F03F00346F3F0000E03FFFCB9040B5
:10A9D8009A45C0F0E080A44B9A454FF0000200F27F
:10A9E800EC8051EC100BA04B00F0A0FB8CA3D3E93A
:10A9F800002306460F4600F051FD8BA3D3E9002340
:10AA0800804689463046394600F048FD974B8246D5
:10AA18008B4600223046394600F040FD02460B4680
:10AA280083A1D1E9000100F081FB32463B4600F0EA
:10AA380035FD02460B4600208D4900F077FB324673
:10AA4800CDE900013B463046394600F027FD024675
:10AA58000B46DDE9000100F021FD77A3D3E90023CF
:10AA680000F01CFD02460B465046594600F05EFBBE
:10AA780006460F4632463B464046494600F058FBDC
:10AA8800002042464B4682468B4600F04FFB02466A
:10AA98000B463046394600F049FBCDE90201DFE5B7
:10AAA8009FED677B8DED087B9FED677B8DED047BCC
:10AAB8009DED087B00278DED107B39E4B9F1000F7F
:10AAC8009FED5F0BBFF6E8AA05F1004300EE104AC0
:10AAD80000EE903AFFF7E0BA002A7FF43BAFCCF1E2
:10AAE800140C43FA0CFE0EFA0CFC9C4579D0DFF8E6
:10AAF80078C163453FF401ABFFF71ABB5C4A934248
:10AB080000F28580DDE90023934692462AE65649FD
:10AB1800002032463B4600F0EBFD41EC100BFFF7FE
:10AB2800BBBABBF1010F7FF4B7AA10EE901A10EE72
:10AB3800102A01F1004343EC102BFFF7ADBAB9F12D
:10AB4800000F7FF726AB002013B0BDE8F04F00F0F0
:10AB5800D7B99FED3F7B8DED087B9FED3F7B8DED5A
:10AB6800107B9FED3F7B4FF480278DED047BFFF733
:10AB7800DFBB41EC100B504600F04AFA51EC100BC9
:10AB8800A5E6DDE906010022002300F0F9FE003801
:10AB980018BF0120D8E7DDE906010022002300F0F4
:10ABA800EFFE003818BF0120B9F1000FBFF6F2AA76
:10ABB800CAE79FED230BFFF76FBADDE90601002313
:10ABC80000F0DEFE003818BF0120B9F1000FBBDC31
:10ABD800FFF7E0BA9AB10EF0010ECEF1020BFFF7C3
:10ABE8004EBB214A93423FF488AAB9F1804F3FF403
:10ABF800D6AA0EF0010ECEF1020BFFF79DBAB9F1FD
:10AC0800804F3FF4CCAA4FF0020BFFF795BA1B1503
:10AC1800A3F2FE334FF4801242FA03F37AE500BF41
:10AC2800000000604715F73F44DF5DF80BAE543E67
:10AC3800555555555555D53FFE822B654715F73F58
:10AC48000000000000000000000000000000F03FCD
:10AC58000000004003B8E23F06D0CF43EBFD4C3E76
:10AC6800000000000000F83F0000F03F0000D03F67
:10AC78000000E03F2DE9F047774855EC104BA8431A
:10AC880000F0A480002D21462A46234656DD2C15C7
:10AC980000F0D080C2F31302E107A4F2FF3742F4B8
:10ACA800801203D4D90F01EB42025B005200002648
:10ACB80002EBD3727F105B001624B4464FF40011E8
:10ACC8000CEB010090424FEAD3754FEA430303DCD3
:10ACD80000EB010C121A0E44013C05EB42024FEA4C
:10ACE8005101EDD1A04620254FF000400AE03CD0AC
:10ACF800510001EBD371013D0A464FEA43034FEA85
:10AD080050003ED0944508EB000EF0DABEF1000F7B
:10AD18000EEB00080CDBE146A2EB0C019E4588BF58
:10AD280001F1FF314900CC46A3EB0E030444E0E7F0
:10AD3800B8F1000FEFDB0CF10109EDE725F0004059
:10AD480020433DD0002D68D1D90A153A5B0500296A
:10AD5800FAD0CE02144618460A466CD520254FF084
:10AD6800FF31E840641A024394E79E4502D94FEA4E
:10AD78004C01BEE7BEF1000F0EEB000822DB0021FC
:10AD8800D2E7194310D0DFF8D4A0DAE90001DAE9F4
:10AD9800022300F0CBF9DAE9008902460B46404667
:10ADA800494600F0F7FDF8B96508711001F17F51C7
:10ADB80001F5001101EB075345EAC67243EC102B6D
:10ADC800BDE8F087B8F1000FB5DAD8E722462B4680
:10ADD8002046294600F062FB22462B4600F0A8F9DF
:10ADE80041EC100BBDE8F087B4F1FF3FDAE9000150
:10ADF800DAE902232BD000F09BF9DAE90089024650
:10AE08000B464046494600F0BBFD10B3A31C04F1B5
:10AE1800020508BF01366D08C7E722462B462046C3
:10AE2800294600F083F902460B4600F061FC41EC2C
:10AE3800100BC5E7084600235200D502194603F156
:10AE48000103F9D5C3F1200500FA03F389E70136B8
:10AE5800ABE70134A8E700BF0000F07F10530108FA
:10AE680082B08DED000B019840F0004000F5801095
:10AE7800C00F02B0704700BF51EC100B024621F022
:10AE8800004343EC102B704710B52DED028BB0EE4C
:10AE9800408AF0EE608A044601F03AF8B0EE480ABB
:10AEA800F0EE680ABDEC028B046010BD00B50346E5
:10AEB80083B051EC100B7BB1024601F10043CDE9A0
:10AEC8000023DDE9002300F0E9FA41EC100B222011
:10AED80003B05DF804EBD7E702460B46EFE700BF87
:10AEE8009FED010BE2E700BF00000000000000102A
:10AEF8009FED010BDAE700BF000000000000581EBC
:10AF08009FED010BD2E700BF0000000000000070B9
:10AF180000B5002283B078B1084BCDE90023DDE904
:10AF280000010022002300F0E3FB41EC100B22207B
:10AF380003B05DF804EBA7E7014BEEE70000F0BFB4
:10AF48000000F03F38B555EC104B2DED028B224632
:10AF58002B462046294600F0E9F802460B4600F049
:10AF6800C7FB224641EC180B2B462046294600F029
:10AF78002FFDB0EE480AF0EE680A28B9BDEC028B46
:10AF88002120BDE838407FE7BDEC028B38BD00BF0B
:10AF980008B551EC100B2DED028BB0EE408AF0EEA7
:10AFA800608A0022002300F0E1FCB0EE480AF0EECF
:10AFB800680A10B9BDEC028B08BDBDEC028B2220DB
:10AFC800BDE8084060E700BFF8B555EC104B25F028
:10AFD80000470C4B4FF0FF322046394600F0F8FC92
:10AFE80038B9084B204639464FF0FF3200F0D2FC02
:10AFF80010B145EC104BF8BD45EC104B2220BDE8D4
:10B00800F84041E7FFFFEF7FB1EEC00A704700BF8D
:10B0180070B555EC104BC5F30A5206462B4672BB69
:10B0280025F00043234329D03B4B204629460022E4
:10B0380000F034FA394B9E4204460D4652DBC1F308
:10B048000A520B46363A4CF250318E4223DC1644F3
:10B0580040F2FE7296421EDC002E34DC16F1350FEB
:10B0680038DB6FF31E53363643EA065520462C4B21
:10B078002946002200F012FA41EC100B70BD40F294
:10B08800FF718A42DFD122462046294600F050F857
:10B0980041EC100B70BD002D17A1D1E9000107DBB1
:10B0A80015A3D3E9002300F0F9F941EC100B70BDAA
:10B0B80013A1D1E9000110A3D3E9002300F0EEF9B0
:10B0C80041EC100BF3E76FF31E5343EA065545ECCA
:10B0D800104B70BD002D0CA1D1E9000102DA0CA1C2
:10B0E800D1E9000108A3D3E9002300F0D7F941EC26
:10B0F800100B70BDAFF300809C7500883CE4377E70
:10B108009C7500883CE437FE59F3F8C21F6EA50110
:10B1180059F3F8C21F6EA58100005043B03CFFFFF1
:10B128000000903C81F0004102E000BF83F0004342
:10B1380030B54FEA41044FEA430594EA050F08BFCA
:10B1480090EA020F1FBF54EA000C55EA020C7FEA8E
:10B15800645C7FEA655C00F0E2804FEA5454D4EB0B
:10B168005555B8BF6D420CDD2C4480EA020281EAD5
:10B17800030382EA000083EA010180EA020281EA0D
:10B188000303362D88BF30BD11F0004F4FEA01315F
:10B198004FF4801C4CEA113102D0404261EB41016E
:10B1A80013F0004F4FEA03334CEA133302D05242F4
:10B1B80063EB430394EA050F00F0A780A4F10104B0
:10B1C800D5F1200E0DDB02FA0EFC22FA05F28018EA
:10B1D80041F1000103FA0EF2801843FA05F35941D0
:10B1E8000EE0A5F120050EF1200E012A03FA0EFC4F
:10B1F80028BF4CF0020C43FA05F3C01851EBE37179
:10B2080001F0004507D54FF0000EDCF1000C7EEB95
:10B2180000006EEB0101B1F5801F1BD3B1F5001FD3
:10B228000CD349085FEA30004FEA3C0C04F10104F2
:10B238004FEA445212F5800F80F09A80BCF1004F1B
:10B2480008BF5FEA500C50F1000041EB045141EA9D
:10B25800050130BD5FEA4C0C404141EB0101013C66
:10B2680028BFB1F5801FE9D291F0000F04BF014655
:10B278000020B1FA81F308BF2033A3F10B03B3F127
:10B2880020020CDA0C3208DD02F1140CC2F10C02B7
:10B2980001FA0CF021FA02F10CE002F11402D8BF15
:10B2A800C2F1200C01FA02F120FA0CFCDCBF41EAE1
:10B2B8000C019040E41AA2BF01EB0451294330BDB0
:10B2C8006FEA04041F3C1CDA0C340EDC04F114048D
:10B2D800C4F1200220FA04F001FA02F340EA030064
:10B2E80021FA04F345EA030130BDC4F10C04C4F1AA
:10B2F800200220FA02F001FA04F340EA030029468A
:10B3080030BD21FA04F0294630BD94F0000F83F4D3
:10B31800801306BF81F480110134013D4EE77FEAB6
:10B32800645C18BF7FEA655C29D094EA050F08BF02
:10B3380090EA020F05D054EA000C04BF19461046E3
:10B3480030BD91EA030F1EBF0021002030BD5FEA27
:10B35800545C05D14000494128BF41F0004130BD4F
:10B3680014F580043CBF01F5801130BD01F00045A3
:10B3780045F0FE4141F470014FF0000030BD7FEA16
:10B38800645C1ABF194610467FEA655C1CBF0B4611
:10B39800024650EA013406BF52EA033591EA030F28
:10B3A80041F4002130BD00BF90F0000F04BF002120
:10B3B800704730B54FF4806404F132044FF0000553
:10B3C8004FF0000150E700BF90F0000F04BF0021CC
:10B3D800704730B54FF4806404F1320410F0004532
:10B3E80048BF40424FF000013EE700BF42004FEA2D
:10B3F800E2014FEA31014FEA02701FBF12F07F43AA
:10B4080093F07F4F81F06051704732F07F4208BF60
:10B41800704793F07F4F04BF41F40021704730B567
:10B428004FF4607401F0004521F000411CE700BFB3
:10B4380050EA010208BF704730B54FF000050AE036
:10B4480050EA010208BF704730B511F0004502D537
:10B45800404261EB41014FF4806404F132045FEA39
:10B46800915C3FF4D8AE4FF003025FEADC0C18BFE2
:10B4780003325FEADC0C18BF033202EBDC02C2F1D4
:10B48800200300FA03FC20FA02F001FA03FE40EA66
:10B498000E0021FA02F11444BDE600BF70B54FF06A
:10B4A800FF0C4CF4E06C1CEA11541DBF1CEA135548
:10B4B80094EA0C0F95EA0C0F00F0DEF82C4481EAB0
:10B4C800030621EA4C5123EA4C5350EA013518BFD0
:10B4D80052EA033541F4801143F4801338D0A0FBBD
:10B4E80002CE4FF00005E1FB02E506F00042E0FB6A
:10B4F80003E54FF00006E1FB03569CF0000F18BF70
:10B508004EF0010EA4F1FF04B6F5007F64F5407417
:10B5180004D25FEA4E0E6D4146EB060642EAC621AA
:10B5280041EA55514FEAC52040EA5E504FEACE2E17
:10B53800B4F1FD0C88BFBCF5E06F1ED8BEF1004F1A
:10B5480008BF5FEA500E50F1000041EB045170BD96
:10B5580006F0004646EA010140EA020081EA0301DA
:10B56800B4EB5C04C2BFD4EB0C0541EA045170BDD6
:10B5780041F480114FF0000E013C00F3AB8014F150
:10B58800360FDEBF002001F0004170BDC4F1000499
:10B59800203C35DA0C341BDC04F11404C4F120051A
:10B5A80000FA05F320FA04F001FA05F240EA020075
:10B5B80001F0004221F0004110EBD37021FA04F6AB
:10B5C80042EB06015EEA430E08BF20EAD37070BD65
:10B5D800C4F10C04C4F1200500FA04F320FA05F0C4
:10B5E80001FA04F240EA020001F0004110EBD370C6
:10B5F80041F100015EEA430E08BF20EAD37070BD36
:10B60800C4F1200500FA05F24EEA020E20FA04F30E
:10B6180001FA05F243EA020321FA04F001F00041BD
:10B6280021FA04F220EA020000EBD3705EEA430E2E
:10B6380008BF20EAD37070BD94F0000F0FD101F05D
:10B648000046400041EB010111F4801F08BF013C96
:10B65800F7D041EA060195F0000F18BF704703F0D4
:10B668000046520043EB030313F4801F08BF013D5B
:10B67800F7D043EA0603704794EA0C0F0CEA135517
:10B6880018BF95EA0C0F0CD050EA410618BF52EAD1
:10B698004306D1D181EA030101F000414FF00000D7
:10B6A80070BD50EA410606BF1046194652EA4306E5
:10B6B80019D094EA0C0F02D150EA013613D195EA59
:10B6C8000C0F05D152EA03361CBF104619460AD1A1
:10B6D80081EA030101F0004141F0FE4141F47001AB
:10B6E8004FF0000070BD41F0FE4141F4780170BD9B
:10B6F80070B54FF0FF0C4CF4E06C1CEA11541DBF00
:10B708001CEA135594EA0C0F95EA0C0F00F0A7F801
:10B71800A4EB050481EA030E52EA03354FEA01312E
:10B7280000F088804FEA03334FF0805545EA131341
:10B7380043EA12634FEA022245EA111545EA106509
:10B748004FEA00260EF000419D4208BF964244F1A0
:10B75800FD0404F5407402D25B084FEA3202B61ABF
:10B7680065EB03055B084FEA32024FF480104FF493
:10B77800002CB6EB020E75EB030E22BFB61A754607
:10B7880040EA0C005B084FEA3202B6EB020E75EB9A
:10B79800030E22BFB61A754640EA5C005B084FEA02
:10B7A8003202B6EB020E75EB030E22BFB61A7546CF
:10B7B80040EA9C005B084FEA3202B6EB020E75EBDA
:10B7C800030E22BFB61A754640EADC0055EA060E9B
:10B7D80018D04FEA051545EA16754FEA06164FEADE
:10B7E800C30343EA52734FEAC2025FEA1C1CC0D18A
:10B7F80011F4801F0BD141EA00014FF000004FF017
:10B80800004CB6E711F4801F04BF01430020B4F1D7
:10B81800FD0C88BFBCF5E06F3FF6AFAEB5EB030C8F
:10B8280004BFB6EB020C5FEA500C50F1000041EB8C
:10B83800045170BD0EF0004E4EEA113114EB5C0459
:10B84800C2BFD4EB0C0541EA045170BD41F480112C
:10B858004FF0000E013C90E645EA060E8DE60CEA34
:10B86800135594EA0C0F08BF95EA0C0F3FF43BAF51
:10B8780094EA0C0F0AD150EA01347FF434AF95EA08
:10B888000C0F7FF425AF104619462CE795EA0C0FEC
:10B8980006D152EA03353FF4FDAE1046194622E7B9
:10B8A80050EA410618BF52EA43067FF4C5AE50EA93
:10B8B80041047FF40DAF52EA43057FF4EBAE12E783
:10B8C8004FF0FF3C06E000BF4FF0010C02E000BF64
:10B8D8004FF0010C4DF804CD4FEA410C7FEA6C5C47
:10B8E8004FEA430C18BF7FEA6C5C1BD001B050EAEA
:10B8F800410C0CBF52EA430C91EA030F02BF90EAD5
:10B90800020F0020704710F1000F91EA030F58BF93
:10B91800994208BF90422CBFD8176FEAE37040F0F5
:10B92800010070474FEA410C7FEA6C5C02D150EA93
:10B93800013C07D14FEA430C7FEA6C5CD6D152EA4E
:10B94800033CD3D05DF8040B704700BF8446104613
:10B9580062468C461946634600E000BF01B5FFF712
:10B96800B7FF002848BF10F1000F01BD4DF808EDE2
:10B97800FFF7F4FF0CBF012000205DF808FB00BFB3
:10B988004DF808EDFFF7EAFF34BF012000205DF80D
:10B9980008FB00BF4DF808EDFFF7E0FF94BF01205A
:10B9A80000205DF808FB00BF4DF808EDFFF7CEFF5B
:10B9B80094BF012000205DF808FB00BF4DF808ED9A
:10B9C800FFF7C4FF34BF012000205DF808FB00BF6B
:10B9D8004FEA410C7FEA6C5C02D150EA013C0AD183
:10B9E8004FEA430C7FEA6C5C02D152EA033C02D175
:10B9F8004FF0000070474FF0010070474FEA4102D6
:10BA080012F5001215D211D56FF47873B3EB6252A8
:10BA180012D94FEAC12343F0004343EA505311F0CF
:10BA2800004F23FA02F018BF404270474FF0000061
:10BA3800704750EA013005D111F0004008BF6FF09F
:10BA4800004070474FF00000704700BF4A0011D215
:10BA580012F5001211D20DD56FF47873B3EB625260
:10BA68000ED44FEAC12343F0004343EA505323FA6C
:10BA780002F070474FF00000704750EA013002D1E1
:10BA88004FF0FF3070474FF0000070474FEA410217
:10BA9800B2F1E04324BFB3F5001CDCF1FE5C0DD924
:10BAA80001F0004C4FEAC0024CEA5070B2F1004F6E
:10BAB80040EB830008BF20F00100704711F0804F71
:10BAC80021D113F13872BCBF01F00040704741F436
:10BAD80080114FEA5252C2F11802C2F1200C10FA3A
:10BAE8000CF320FA02F018BF40F001004FEAC1231E
:10BAF8004FEAD32303FA0CFC40EA0C0023FA02F3C2
:10BB08004FEA4303CCE77FEA625307D150EA013397
:10BB18001EBF4FF0FE4040F44000704701F0004067
:10BB280040F0FE4040F40000704700BF53B94AB9E6
:10BB3800002908BF00281CBF4FF0FF314FF0FF302D
:10BB480000F06AB9ADF1080C6DE904CE00F006F812
:10BB5800DDF804E0DDE9022304B070472DE9F04781
:10BB6800089D0E4604460F46002B4AD194468C4544
:10BB7800B2FA82F260D942B1C2F12003974020FAAA
:10BB880003F30CFA02FC1F4394404FEA1C4E1FFAC1
:10BB98008CF6B7FBFEF1230C0EFB117743EA074343
:10BBA80001FB06F098420AD91CEB030301F1FF37A9
:10BBB80080F01581984240F21281023963441B1AC1
:10BBC800A4B2B3FBFEF00EFB103344EA034400FBBF
:10BBD80006F6A6420AD91CEB040400F1FF3380F0F4
:10BBE8000081A64240F2FD806444023840EA0140E8
:10BBF800A41B00211DB1D4400023C5E90043BDE8C2
:10BC0800F0878B4205D90DB1C5E90001002108462E
:10BC1800F5E7B3FA83F1002946D1B34202D3824251
:10BC280000F2F580841A66EB030201201746002D06
:10BC3800E5D0C5E90047E2E7002A40F09380A1EB90
:10BC48000C034FEA1C471FFA8CFE0121B3FBF7F6E1
:10BC580007FB1630230C43EA00430EFB06F098421C
:10BC680008D91CEB030306F1FF3802D2984200F210
:10BC7800D08046461B1AA4B2B3FBF7F007FB10337B
:10BC880044EA03440EFB00FEA64508D91CEB040455
:10BC980000F1FF3302D2A64500F2B6801846A4EBA5
:10BCA8000E0440EA0640A5E7C1F120078B4022FABE
:10BCB80007FC4CEA030C06FA01FE20FA07F426FA00
:10BCC80007F344EA0E0400FA01F84FEA1C404FEA71
:10BCD8001449B3FBF0FE1FFA8CF600FB1E3349EA49
:10BCE80003430EFB06F9994502FA01F20BD91CEB46
:10BCF80003030EF1FF3A80F08580994540F2828077
:10BD0800AEF1020E6344A3EB0909A4B2B9FBF0F348
:10BD180000FB139944EA094403FB06F6A64208D936
:10BD28001CEB040403F1FF3068D2A64266D9023B3B
:10BD3800644443EA0E40A41BA0FB02E6B4427346E7
:10BD4800B14652D34FD05DB1B8EB030264EB09049E
:10BD580004FA07F722FA01F31F43CC40C5E900743F
:10BD680000214CE7C2F1200120FA01F30CFA02FC91
:10BD780026FA01F1964033434FEA1C471FFA8CFE1E
:10BD8800B1FBF7F007FB1016190C41EA064100FB5E
:10BD98000EF68E4204FA02F408D91CEB010100F1F8
:10BDA800FF382DD28E422BD902386144891B9BB2B1
:10BDB800B1FBF7F607FB161143EA014306FB0EF148
:10BDC800994208D91CEB030306F1FF3814D29942B3
:10BDD80012D9023E63445B1A46EA004136E7394607
:10BDE800EDE6184602E7F045ADD2BEEB020366EB7E
:10BDF8000C060138B146A6E74646ECE7034698E745
:10BE08004046D3E7D6467EE76444023847E708460B
:10BE18000DE7023E63442DE7704700BF70B50F4B36
:10BE28000F4DAB42A3EB050607D0B610002455F81A
:10BE3800043B01349847A642F9D809F053F9094D53
:10BE4800094B5E1BAB424FEAA60606D0002455F804
:10BE5800043B01349847A642F9D870BD28760108FA
:10BE680028760108287601082C760108830730B562
:10BE780047D0541E002A3ED0CAB2034601E0013C16
:10BE880039D303F8012B9D07F9D1032C2CD9CDB256
:10BE980005EB05250F2C05EB054535D9A4F1100256
:10BEA80022F00F0C03F1100EE6444FEA121C1A465A
:10BEB800C2E90055C2E9025510327245F8D10CF1B9
:10BEC800010214F00C0F03EB021204F00F0C13D054
:10BED800ACF1040323F003030433134442F8045B76
:10BEE8009342FBD10CF003042CB1C9B21C4403F8F3
:10BEF800011BA342FBD130BD64461346002CF4D18C
:10BF0800F9E703461446C0E71A46A446E0E700BF2F
:10BF1800014B1868704700BF00000020844641EAC2
:10BF2800000313F003036DD1403A41D351F8043BA9
:10BF380040F8043B51F8043B40F8043B51F8043BFB
:10BF480040F8043B51F8043B40F8043B51F8043BEB
:10BF580040F8043B51F8043B40F8043B51F8043BDB
:10BF680040F8043B51F8043B40F8043B51F8043BCB
:10BF780040F8043B51F8043B40F8043B51F8043BBB
:10BF880040F8043B51F8043B40F8043B51F8043BAB
:10BF980040F8043B51F8043B40F8043B51F8043B9B
:10BFA80040F8043B51F8043B40F8043B403ABDD20A
:10BFB800303211D351F8043B40F8043B51F8043BAC
:10BFC80040F8043B51F8043B40F8043B51F8043B6B
:10BFD80040F8043B103AEDD20C3205D351F8043B3B
:10BFE80040F8043B043AF9D2043208D0D2071CBF07
:10BFF80011F8013B00F8013B01D30B880380604630
:10C00800704700BF082A13D38B078DD010F00303A5
:10C018008AD0C3F10403D21ADB071CBF11F8013B15
:10C0280000F8013B80D331F8023B20F8023B7BE764
:10C03800043AD9D3013A11F8013B00F8013BF9D28F
:10C048000B7803704B7843708B7883706046704729
:10C05800032A30B415D941EA0004A40784460B46E4
:10C0680004D0541E0FE0043A032A08D91946604642
:10C0780053F8044B5CF8045BA542F4D0F1E7604642
:10C088001946541E7AB1431E0139021901E09A4239
:10C0980009D013F8010F11F801CF6045F7D0A0EBD4
:10C0A8000C0030BC7047002030BC7047DFF834D03B
:10C0B80000F026F80C480D490D4A002302E0D45838
:10C0C800C4500433C4188C42F9D30A4A0A4C0023DA
:10C0D80001E013600432A242FBD3FFF79FFE00F099
:10C0E800D7F8FEE700A0002000000020680000202C
:10C0F800307601086800002050240020FEE7000088
:10C10800034AD2F8883043F47003C2F88830704785
:10C1180000ED00E070B521F4006384B023B16FF046
:10C128000105284604B070BD0C460DF10603012236
:10C1380041F2F411064603F0F5FC051EF1DBBDF8EB
:10C1480006300B49029123F400631C43A4B263BA7E
:10C15800062202A93046ADF80C30ADF8064003F0CF
:10C1680023FD05460F2003F043FD284604B070BDAB
:10C178003A2E11F470B521F4807384B023B16FF0B6
:10C188000105284604B070BD0C460DF106030122D6
:10C1980041F2F411064603F0C5FC051EF1DBBDF8BB
:10C1A80006300B49029123F480731C43A4B263BA8E
:10C1B800062202A93046ADF80C30ADF8064003F06F
:10C1C800F3FC05460F2003F013FD284604B070BDAC
:10C1D8003A2E11F400B583B00DF10603012243F69F
:10C1E800144103F09FFC0028A4BFBDF80600C0F36B
:10C1F800002003B05DF804FB10B582B001AB01224A
:10C2080043F22C41044603F08DFC00280DDB0DF1B0
:10C218000603012243F61441204603F083FC00285C
:10C22800A4BFBDF80600C0F3002002B010BD00BFD7
:10C2380000B5042283B0044B01930DEB020103F017
:10C24800B3FC03B05DF804FB0180000170B51E4625
:10C2580015460B46142242F60261044603F062FCBE
:10C26800002813DB2B464FF4407242F62A61204621
:10C2780003F058FC002809DB3346204640F201321F
:10C28800BDE8704043F22C4103F04CBC70BD00BFC8
:10C298002DE9F04F2DED028B9F4BA04AA04D9A60DF
:10C2A800B1B005F099FA02F0C5FC02F0F7FC03F012
:10C2B80013FD02F01DFB02F065FD02F055FC02F0D3
:10C2C80057FE02F0F1FB02F021FC2A78002303213B
:10C2D800CDE90B31CDE90D330F937AB12B78042BCF
:10C2E80002D02B780A2B09D101238E480B930BA976
:10C2F80006F00EFD0B2002F0DFFE09E001244FF0EE
:10C3080090400BA90B9406F003FD204602F0D4FEE2
:10C318002B780A2B00F0D2822B78052B08D02B78AB
:10C32800092B05D02B78122B02D02B78132B03D195
:10C3380040F67F4002F04AFE06AB039310AB13AC05
:10C3480002932B780B2B00F0E1822B78012B20D065
:10C358002B78022B1DD02B78032B1AD02B78062B89
:10C3680017D02B78072B14D02B780A2B11D02B78C9
:10C378000C2B0ED02B78102B0BD00023CDE91333C8
:10C38800119308220123674802991092129306F02C
:10C39800BFFC6548654E664C0323C0E9006340F264
:10C3A800E733836007F0E6FA03F0B8FC03F00AFE0F
:10C3B80002F0E4F82378062B00F078822378062B25
:10C3C80000F0B3822378032B00F06A822378042BD1
:10C3D80000F0668202F002FA002004F03BFBDFF86E
:10C3E8007081514FDDF808A00026384607F0F0FAB2
:10C3F800002E00F06A817407F3B200F0928105F014
:10C40800C3F8013605F0EAF805F056F905F012F917
:10C4180005F032F901F008FD01F0C6FD642005F0D1
:10C42800FFF9322EE1D1434B00241C70E0B20134F5
:10C4380003F0F6FF082CF9D19FED358B0026DFF8C5
:10C4480014B13D4CDFF810A1B146B0463746364826
:10C4580007F0BEFA9BF80030002B52D105F0DAF94C
:10C46800364B1B78002BA0EB07000CBF4FF4FA7378
:10C478006423984280F01F8105F0CCF9A0EB0900F5
:10C48800132800F2028105F0C5F9801BB0F5FA7F88
:10C4980080F0F58005F0BEF9A0EB0800952800F2C1
:10C4A8009A80274B1B78002B40F0928002F082FF85
:10C4B800244B1B78002B40F082802B78082B4DD022
:10C4C8009AF80030002BC2D005F0A4F91E4B1B6867
:10C4D800C01A0028BBDB00228AF80020114602EBB4
:10C4E80042030132E1542344082A59709970F6D165
:10C4F80002F0F6FF0C4807F06BFA9BF80030002BAF
:10C50800ACD0002311488BF8003006F013F8A5E7EB
:10C51800000000000000000000ED00E000800008BE
:10C528002E05002000040048600200200030004072
:10C538000D05002054000020440200201E020020A7
:10C54800DE010020DC010020E0010020C4040020FE
:10C55800005D01081D020020E4010020B84B1B7893
:10C56800002BADD0B64B00221A70B64B198889B291
:10C57800012938BF0121B1F5FA7F28BF4FF4FA71BC
:10C58800B14B187802EB4203C0B2E054AF480078D0
:10C598002344C0B25870AE4800780132C0B2082AAD
:10C5A8009870EDD1019102F09BFF05F033F90199E4
:10C5B800A84B0144196001238AF8003080E702F093
:10C5C80051FF10B1A44A0023137002F089FF74E7E9
:10C5D80004F090FA6AE705F01DF9804601F0D2FBF5
:10C5E80001F0FCFB04F096FF04F0B2FF05F08AF8B6
:10C5F8009A4A13780133DBB2022B07D9984A137889
:10C60800013303F003031370944A0023137004F0FA
:10C61800A1FA2B7800228DED128B8DF85420002B77
:10C6280066D02B780A2B00F097802B78042B00F02B
:10C63800CD802B78112B00F0D9802B78052B00F0BA
:10C64800E1802B78092B00F0F4802B78082B7FF4FD
:10C6580028AF844B1B788DF8143040F25513109393
:10C6680081480123149306F009F800283FF419AF14
:10C67800039B02997C4805AA05F08AFF11E705F09B
:10C68800C9F8064603F038FD04E705F0C3F881460B
:10C6980001F0CAFB01F088FC04F076FF04F09EFF6D
:10C6A80005F00AF805F04AF804F0C4FF04F0E4FFC6
:10C6B80001F04AFBE7E605F0ADF84FF40041074604
:10C6C8004FF0904006F028FCD6E604F05DFF04F039
:10C6D80085FF04F0F1FF04F0ADFF04F0CDFF01F099
:10C6E800A3FB01F061FC642005F09AF801267CE6C2
:10C6F8005E4A1388C3F307238DF8143013888DF826
:10C708001530584B1B788DF8163040F235131093BE
:10C7180055480323149305F0B1FF00283FF4C1AE38
:10C72800A6E7C3F3C10303EB830308EBC319022491
:10C73800802249465046FFF7F1FB2046002101348C
:10C7480003F0AAFAE4B28021504603F087FA072CD6
:10C7580009F18009ECD152E6444A43481388C3F3EF
:10C7680007238DF8143013888DF8153040F27513AF
:10C7780010930223149305F081FF002840F089806C
:10C788003B4A394813681B0A8DF8143013688DF832
:10C79800153040F2771310930223149305F06EFFBF
:10C7A80000286FD1334A13681B0A8DF814301368B8
:10C7B8008DF8153040F2791310932B480223149307
:10C7C80005F05CFF00283FF46CAE51E72A4A138855
:10C7D800C3F307238DF8143013888DF81530274BD1
:10C7E8001B788DF8163040F2451390E7224A1388DB
:10C7F800C3F307238DF8143013888DF8153040F2F1
:10C808004323D9E740F2471310930323149372B6D6
:10C818001B4B1B6862B65BBAADF81430114B12485B
:10C828001B788DF8163005F029FF00283FF439AE43
:10C838001EE70C4B1B788DF8143040F265130EE799
:10C84800D8010020E6010020DB010020DA010020E9
:10C85800D9010020E0010020DC010020C0010020F7
:10C86800C1010020D0010020C40400203A020020A9
:10C8780020020020F80100203602002035020020A6
:10C888002C020020039B0299294805AA05F080FE86
:10C8980088E7039B0299264805AA05F079FE6FE709
:10C8A80024490122142001F0A9FE93E5214B1B78AD
:10C8B800022B7FF483AD03F0ABF883E540F6FF105D
:10C8C80002F084FB06A803210026202202230390FD
:10C8D80009910127014613AC4FF09040CDE906239A
:10C8E80008960A9706F014FA02F0B0FB10AB1396FC
:10C8F80002936660194640224FF404134FF09040AB
:10C90800CDE91023129706F003FA1AE500231393D2
:10C91800082263604FF40413CDE9102306480299F6
:10C928000123129306F0F4F933E502F049FF49E5D3
:10C93800C40400200A050020000400480A4B10B572
:10C948001880044601F006FC902001F0B3FC012099
:10C9580001F0B0FC200A01F0ADFCE0B201F0AAFC45
:10C96800BDE8104001F052BC5E0000200B4B10B532
:10C978001C8801F0EFFB902001F09CFC44F400447B
:10C98800012001F097FC200A01F094FCE0B201F0CC
:10C9980091FCBDE8104001F039BC00BF5E000020EA
:10C9A80038B501F0D7FB902001F084FCC8B1002015
:10C9B80001F080FCA8B101F0CDFB912001F07AFCD8
:10C9C80078B1012001F028FD0546002001F024FD82
:10C9D8000446EDB201F01AFCE0B240EA052000B2CC
:10C9E80038BD01F013FC002038BD00BF274B1A6882
:10C9F800B2F5A87F00D070471B69022BFBD92449E8
:10CA0800244AB1F801302448097811705BBA0380D0
:10CA18001378012BD9B214D01378022B14D0002329
:10CA28001E4A194603EB430C02EB0C000133082B9A
:10CA380002F80C1041708170F4D1194B01221A7060
:10CA48007047184B1970704700B572B61649174AE7
:10CA5800174B91F800E092F800C018785FFA8EFE44
:10CA68005FFA8CFCC0B262B60C4A002101EB4103AC
:10CA7800013102F803E01344082983F801C09870D3
:10CA8800F4D1074B01221A705DF804FBA8040020BA
:10CA9800A0040020E8010020E60100204402002054
:10CAA800DC010020D8010020DB010020DA01002091
:10CAB800D9010020F8B5204B1A68B2F5F87F00D0EC
:10CAC800F8BD1B69042BFBD91C4B1B7803F0FF0531
:10CAD800002BF5D172B61A4E1A4834781A4F4FF413
:10CAE800005106F00DFAA4F10104B4FA84F46409C3
:10CAF800A0422246134818BF3D604FF4005106F08B
:10CB080005FAD6F8013013B93B6062B6F8BD0F4A92
:10CB18000F4D0C4800241BBA13604FF48051224675
:10CB28003B602C7006F0F2F9064822464FF480412B
:10CB380006F0ECF9E9E700BFA80400205400002043
:10CB4800A0040020000400484002002058000020F3
:10CB58003C02002038B5464C464B2246002105F0E1
:10CB6800A1FD00B138BD04F055FE434D434B18609C
:10CB780000F0BCFA2B781BB12368B3F5807FF1D1A4
:10CB880000F058F900F038FE2B78002BEAD13C4B26
:10CB98001B78182BE6D801A252F823F039CC0008EC
:10CBA80009CC000809CC000809CC00086DCB0008A6
:10CBB80071CC000809CC000809CC000869CC000831
:10CBC80061CC000859CC00086DCB000809CC0008DE
:10CBD80041CC000811CC00086DCB000809CC000836
:10CBE80051CC000849CC000831CC00086DCB0008B6
:10CBF80029CC000821CC000819CC000811CC000869
:10CC0800BDE8384000F0E4BCBDE8384001F036B873
:10CC1800BDE8384000F028BDBDE8384000F032BF1C
:10CC2800BDE83840FFF746BFBDE8384000F05ABCC1
:10CC3800BDE8384000F0E2BEBDE8384000F072B808
:10CC4800BDE8384000F0F4BFBDE8384000F088B8CF
:10CC5800BDE8384000F02EBDBDE8384000F074BC97
:10CC6800BDE83840FFF7C2BEBDE8384000F00AB85A
:10CC7800A8040020A00400201E020020CC010020EF
:10CC88002E05002038B51F4B1A68B2F5A07F00D0DA
:10CC980038BD1B69012BFBD91B4B1B78002BF7D127
:10CCA8001A4D1B4C2B78237004F0B4FD6A78194B8D
:10CCB800A2F10102B2FA82F21860520910214FF073
:10CCC800904006F023F92378134A144940F67F4030
:10CCD80000FB03F3A2FB032309681148DB094B633C
:10CCE800237803F0FF0233B1BDE8384001224FF446
:10CCF800007106F00BB9BDE838404FF4007106F03A
:10CD080005B900BFA804002054000020A00400209A
:10CD1800340200200802002081808080080400205E
:10CD2800000400480B4B1A68B2F5D87F00D0704752
:10CD38001B69002BFBD0084B1B78002BF7D1074B46
:10CD48001A78003A4FF002014FF0904018BF0122C4
:10CD580006F0DCB8A804002054000020A00400203D
:10CD68002F4A1368B3F5107F28D040F2412293422E
:10CD780017D040F24222934223D100B5294B1B78A9
:10CD8800052B89B01ED002226946222001F062FCE0
:10CD9800C0B218B1244805F071FC30BB09B05DF889
:10CDA80004FB224B1B7803F0FF0253B91D4B1B7881
:10CDB800052B2ED01E49212001F020BC1269022A21
:10CDC80006D07047FFF7ECFD40BAADF80000E1E788
:10CDD800164B1B78002BF4D1124B15491B78088889
:10CDE800052B18D0202001F009BC40F24222002077
:10CDF80000210223CDE904014FF0000C02920693B2
:10CE08006A4601AB02A908488DF81CC005F0C0FBB2
:10CE1800C4E7FFF7ABBD40BA80B2FFF78FBD00BFD4
:10CE2800A80400200D050020C404002054000020A0
:10CE3800A00400202DE9F041994D2B68B3F5C07F7F
:10CE480092B03ED0B3F5C17F6FD0B3F5C97F09D09A
:10CE5800B3F5807F03D12B69082B00F0AC8012B0AA
:10CE6800BDE8F0812B69042BF9D18E4B1A78E32A9F
:10CE7800F5D15A78A52AF2D19A78E02AEFD1DE784E
:10CE8800FF2EECD11E2231460AA8FEF7EFFF1E2224
:10CE98000AA9002001F0E4FC0024834B83481C709D
:10CEA8001E222146FEF7E2FF81481E223146FEF788
:10CEB800DDFF804805F0E2FB002840F0DC802B68AD
:10CEC800C6E72B69012BCAD9764A1478072CA046E5
:10CED80003F1FF3328BF4FF0070898452BD80022ED
:10CEE80004214FF090408DF8108006F00FF8002CC8
:10CEF80000F09C806B4F04AE002417F8010F01F07E
:10CF080029FC0134E4B2444506F8010FF5D34FF08B
:10CF180090400122042105F0F9FF664805F0AEFBB8
:10CF280098BB2B68B3F5C17F8FD1624805F0A6FB8B
:10CF380060B92B6889E75FFA83F8002204214FF073
:10CF480090408DF8108005F0E1FFD3E74FF40041E1
:10CF5800594805F0D5FFA0F10100B0FA80F040096A
:10CF680040F2831201230021002600278DF80800D3
:10CF78000A920E938DF83C1004AB02AA0AA94D48F8
:10CF8800CDE90C6705F004FBD3E708F101085FFA67
:10CF980088F240F281100021002600270A900E92A4
:10CFA8008DF83C1002AB04AA0AA94248CDE90C67E7
:10CFB80005F0EEFAB5E73B4F404B414A79783878AF
:10CFC800187001245970B9789970147004F022FC13
:10CFD8003C4B3D49FA783D4E3D4D00F51C50103014
:10CFE80008601A703B4A3B79147033703A4C7B796D
:10CFF8002B703A4ABB7923701278FB79082A17D02C
:10D0080037496BB30022307802EB4203C0B2C854F0
:10D0180028780B44C0B2587020780132C0B2082A70
:10D028009870F0D12F4B01221A7018E7A0466EE7CE
:10D038002D4B1B78022BF5D172B632782B782078DD
:10D04800D5B2DCB2C0B262B62549002202EB420377
:10D058000132CD540B44082A5C709870F6D1E1E790
:10D068001A4603EB430408190133082B0A5542708A
:10D078008270F6D1D6E740F2911304930022002380
:10D08800CDE906230822089201AB6A4404A909489D
:10D0980002948DF82440039405F07AFA0FE700BF54
:10D0A800A8040020A00400200E0500201005002080
:10D0B800EC040020C4040020000800485C020020A2
:10D0C800C8010020DD010020C4010020DB01002090
:10D0D800DA010020DE010020D90100202E05002001
:10D0E80044020020DC010020E801002010B5A44C17
:10D0F8002368B3F5FE6F8AB000F0E080B3F5FF6FE8
:10D1080028D0B3F5887F2FD0B3F5C87F36D0B3F5D4
:10D11800D07F72D040F2A112934276D0B3F5D17F7E
:10D128007DD040F2A312934200F08180B3F5D27F04
:10D1380000F0888040F2A512934200F08980B3F590
:10D14800D37F00F08F80A3F5D373012B40F29B802F
:10D158000AB010BD8B4805F091FA002840F088818C
:10D168002368B3F5887FCFD1864805F087FA002871
:10D1780040F054812368B3F5C87FC8D1814805F0D1
:10D188007DFA002835D0804B8049DA8809785879AB
:10D198008DF80810197E8DF809008DF80A1002B96B
:10D1A8001A89987A8DF80C20110A8DF80B1000B99D
:10D1B800187BDA7A597B93F80EC08DF80D000A4374
:10D1C8004FF000010CBF0B46012308208DF80E30EC
:10D1D80040F29113CDE9061104930DEB000208907B
:10D1E8008DF8241067488DF80FC001AB04A905F02D
:10D1F800CFF92368B3F5D07F8CD123692BB1644B69
:10D208001B78062B01D8634A13705E4805F036FA7E
:10D21800002840F0D5802368B3F5D17F81D12369F8
:10D228002BB15B4B1B78192B01D85B4A13705548FF
:10D2380005F024FA002840F0D8802368B3F5D27F9F
:10D248007FF478AF23691BB1514A544B12781A7096
:10D258004C4805F013FA002879D12368B3F5D37F39
:10D268007FF471AF236973B1494B1B78022B0AD83D
:10D278004B49484A0B701378032B00F00E81137842
:10D28800042B00F00A813F4805F0F8F900283FF424
:10D298005FAF434B40F2A71218788DF804000121C4
:10D2A80000240492089102AB01AA04A935488DF81C
:10D2B8002440CDE9064405F06BF949E72269042AC0
:10D2C8007FF438AF324A1178B0297FF42AAF517809
:10D2D80007297FF41FAF91781D297FF41BAFD278FF
:10D2E8005A2A7FF417AF2F4A2F4B12681B682F4812
:10D2F8000024546340215C63012205F007FE2B489B
:10D3080022464FF4007105F001FE224602214FF03B
:10D31800904005F0FBFD264B1B78092B00F0C480DC
:10D328000023244A049302E0049B01330493049BE2
:10D338009342F9D9BFF34F8F1F49204BCA6802F4B3
:10D34800E0621343CB60BFF34F8F00BFFDE7134B81
:10D35800032200211B788DF8042040F2A510022238
:10D36800CDE906118DF80530049008928DF8241047
:10D3780002AB01AA04A9034805F00AF96DE700BF4A
:10D38800A8040020C4040020100500200E05002079
:10D39800A00400200D0500200C0500200B0500202E
:10D3A8000A05002008040020BC03002000040048EF
:10D3B8002E050020FFE1040000ED00E00400FA055E
:10D3C8003C4B00211A788DF8042040F2A11301206B
:10D3D800CDE90611049308908DF8241002AB01AA38
:10D3E80004A9354805F0D4F815E7344A344B1278C7
:10D3F8001B788DF80420002140F2A3100222CDE909
:10D4080006118DF80530049008928DF8241002ABAF
:10D4180001AA04A9284805F0BBF80EE729482A49BB
:10D428002A4A00782A4B097812781B788DF804006C
:10D43800003918BF0121003A18BF0122003B18BF6C
:10D4480001238DF8051040F2111000218DF80620F7
:10D458000422CDE906118DF80730049008928DF862
:10D46800241002AB6A4404A9134805F091F881E638
:10D47800184A194B0021CDE9022340F2F97008221D
:10D48800CDE90611049008928DF8241001AB6A4486
:10D4980004A9094805F07CF862E610490122142025
:10D4A80001F0ACF823684EE60D482246402105F00D
:10D4B8002DFD35E70D050020C40400205C00002088
:10D4C8000C0500202E0500201E0200201D02002051
:10D4D80054000020000303CC010001010A050020CC
:10D4E80000040048114B1A68B2F5F07F00D070476D
:10D4F8001B69022BFBD90E4B1B78002BF7D110B5FB
:10D508000C4C0D4A23885BBA138004F083F9A37886
:10D518000A4A0B4C40F67F4101FB03F3A2FB0323AD
:10D52800084922680860DB09536310BDA80400207D
:10D5380054000020A0040020380200208180808050
:10D5480008040020F0010020194B1A68B2F5B07FDA
:10D5580000D070471B69012BFBD970B5154B1B78A0
:10D5680003F0FF0403B170BD134D144E2B783370D4
:10D5780004F050F96A78124B012A18600DD0114B4B
:10D5880011481B68A2F10102B2FA82F25C635209E7
:10D59800BDE87040402105F0B9BC34780B4B40F62B
:10D5A8007F4101FB04F4A3FB0434E409E7E700BF6F
:10D5B800A804002054000020A00400201C02002021
:10D5C80018020020080400200004004881808080A0
:10D5D800F8B51E4B1A68B2F5907F00D0F8BD1B69EC
:10D5E800042BFBD91A4B1B7803F0FF05002BF5D150
:10D5F80072B6184E18483478184F202105F080FC70
:10D60800A4F10104B4FA84F46409A0422246124841
:10D6180018BF3D60202105F079FCD6F8013013B918
:10D628003B6062B6F8BD0E4A0E4D0B4800241BBA8B
:10D638001360082122463B602C7005F067FC064801
:10D648002246402105F062FCEBE700BFA804002059
:10D6580054000020A00400200004004840020020DC
:10D66800580000203C0200200F4B1A68B2F50C7FCE
:10D6780007D040F231218A4202D11A69032A0BD01D
:10D6880070471A69032AFBD1084B1B78002BF7D186
:10D698000749302000F0B2BF044B1B78002BEFD1B4
:10D6A8000349312000F0AABFA8040020540000203C
:10D6B800A0040020404AF8B51368B3F5B87F22D01B
:10D6C80040F273118B4203D11369002B4DD1F8BD81
:10D6D800B3F5BC7FFBD11369002BF8D0374A384B20
:10D6E80012781A701B78374A374903EB8300C3EB6B
:10D6F80040230968A2FB0323DB094B6304F08AF883
:10D70800324B1860F8BD1369052BE0D92B4C304A11
:10D7180023885BBA138004F07DF82E4A2E4B1060E4
:10D728001B7803F0FF06002BD1D172B6A5782B48E1
:10D738002B4F202105F0E4FBA5F10105B5FA85F58D
:10D748006D09A8422A464FF02001244818BF3E60C0
:10D7580005F0DCFB2379E17862791B0243EA014397
:10D76800134317D13B6062B6F8BD144A1D4B1278BB
:10D778001A701B78134A1C4903EB8300C3EB402340
:10D788000968A2FB0323DB094B6304F043F8174B3A
:10D798001860F8BD164A174D1360002422460F483A
:10D7A8003B6008212C7005F0B1FB0C482246402153
:10D7B80005F0ACFBD7E700BFA8040020A0040020B8
:10D7C8000002002081808080BC030020F40100203A
:10D7D80038020020EC01002054000020000400481A
:10D7E8004002002028020020080400200402002033
:10D7F800580000203C02002030B57A4B1C68B4F574
:10D80800047F8BB034D040F21122944204D11A69BB
:10D81800082A3ED00BB030BD40F2122294421AD1F1
:10D828001B69082BF6D1704C2378032BF2D86F4D67
:10D838006F4905EBC302013308684968DBB2042B62
:10D8480003C22370E6D120222946022000F0D6FE2A
:10D8580000232370DEE740F21322944212D0B4F57D
:10D86800057F19D11A69082AD4D16149042004E036
:10D878001A69042ACED15E4902200BB0BDE83040B7
:10D8880000F0BCBE1A69002AC4D05949D2B203209C
:10D89800F3E757490120F0E76FF40572A2180B2A45
:10D8A80007D8DFE802F08E6E38060606060606067A
:10D8B800062F40F221229442ACD11B69022BA9D138
:10D8C8004B4B5D781878082D28BF08252A4601A9F2
:10D8D80000F0C0FE00289DD0464804F0CFFE002886
:10D8E80098D000200021CDE906014FF0000C01AAD4
:10D8F8006B4604A93F48049408958DF824C004F0A9
:10D9080047FE87E71A69012A84D93B49013A11F889
:10D91800010CD2B2B1E70A2201A9062000F09AFE52
:10D9280000283FF477AF334804F0A8FE80B140F2F6
:10D938001720082100240025049008912D488DF80F
:10D94800244001AA6B4604A9CDE9064504F020FE4F
:10D95800284804F093FE00283FF45CAF4FF40672A9
:10D96800002000210223CDE9060100240492089337
:10D9780003AA6B4604A91F488DF8244004F008FE4A
:10D9880048E701226946052000F064FE00283FF4BC
:10D9980041AF184804F072FE00283FF43BAF40F254
:10D9A8001620012100240025049008916A4601AB45
:10D9B80004A910488DF82440CDE9064504F0E8FD97
:10D9C80028E701226946002000F044FE00283FF4C1
:10D9D80021AF084804F052FE00283FF41BAF40F284
:10D9E8001520DEE7A80400202F05002030050020C0
:10D9F800A0040020C4040020A104002008B5094B9D
:10DA08001A68B2F5987F00D008BD1B69012BFBD9B5
:10DA1800054B064A1B885BBA138003F0FBFE044BD8
:10DA2800186008BDA8040020A004002038020020C7
:10DA3800F00100202DE9F04D114D88B00C46064646
:10DA480001F120084FF0000A4FF0000B0827284684
:10DA580004F014FE4FF0000C01AB224602A958B1A5
:10DA680028460834CDE904AB029606978DF81CC009
:10DA780004F08EFD4445EAD108B0BDE8F08D00BF42
:10DA8800C4040020644A1368B3F5147F4ED000B56F
:10DA980040F251218B428BB01BD040F252218B4275
:10DAA80062D1136993B15D4B5D491A780878062AEB
:10DAB80000F08E801B78062B00F09880014620230A
:10DAC80002AA122000F002FE00287BD10BB05DF8FC
