:020000040800F2
:1050000000A00020698D0008B98D0008B98D000846
:10501000B98D0008B98D0008B98D000800000000A6
:10502000000000000000000000000000B98D000832
:10503000B98D000800000000B98D0008B98D000886
:10504000B98D0008B98D0008B98D0008B98D000828
:10505000B98D0008B98D0008B98D0008B98D000818
:10506000B98D0008B98D0008B98D0008B98D000808
:10507000B98D0008B98D0008B98D0008B98D0008F8
:10508000B98D0008B98D0008B98D0008B98D0008E8
:10509000B98D0008B98D0008B98D0008B98D0008D8
:1050A000B98D0008B98D0008B98D0008B98D0008C8
:1050B000B98D0008B98D0008B98D000871AE0008DF
:1050C0007DAE0008B98D0008B98D0008B98D0008C3
:1050D000B98D0008B98D0008B98D0008B98D000898
:1050E000B98D0008B98D0008B98D0008B98D000888
:1050F000B98D0008B98D0008B98D0008B98D000878
:10510000000000000000000000000000B98D000851
:10511000B98D0008B98D0008B98D0008B98D000857
:10512000B98D0008B98D0008B98D0008B98D000847
:10513000B98D0008B98D00080000000000000000D3
:10514000B98D0008B98D0008B98D00080000000075
:10515000000000000000000000000000000000004F
:105160000000000000000000B98D0008B98D0008A3
:10517000B98D0008000000000000000000000000E1
:0851800000000000B98D0008D9
:105188000348044B834202D0034B03B118477047CE
:105198006000002060000020000000000548064B69
:1051A8001B1AD90F01EBA301491002D0034B03B11D
:1051B80018477047600000206000002000000000D1
:1051C80010B5064C237843B9FFF7DAFF044B13B147
:1051D8000448AFF300800123237010BD6000002055
:1051E8000000000020D4000808B5044B1BB1044996
:1051F8000448AFF30080BDE80840CFE70000000096
:105208006400002020D400082DE9F04F99B000F286
:105218007E631393002300F11E02129318AB0192D0
:105228000DF15F06C3F1110A019A0DF14F0132F831
:10523800023F019200910846012203EA02040AEBA8
:1052480000052C4100F8014F5200864292B2F4D179
:105258009DF950209DF952B09DF95B709DF95CE075
:1052680000919DF951109DF955909DF959C0CDF8BF
:1052780010E0CDE90A2182EA0105704687EA0B02AF
:105288009DF958E09DF953809DF95640039789EAA6
:10529800020271468CEA02029DF957E09DF95470AA
:1052A800029742409DF95D0006908EEA0202424054
:1052B8000A989DF95A700C9480EA0800604078407A
:1052C8008BEA000089EA00008CEA000005900B9840
:1052D8000D9180EA0800484078408BEA00008CEA8B
:1052E80000008EEA00000790029860409DF95E4039
:1052F80008946240029C48400C9988EA04044C4097
:105308000D994C406A4003997C40654054409DF992
:105318005F20099285EA01020E92DDE904214A40E4
:105328000F92DDE90621784089EA00008CEA000046
:105338004A4008998EEA000041401091099961405D
:10534800119103998D420DD1DDE904158D4209D1E2
:10535800DDE906158D4205D10899884202D10999DF
:105368008C4213D00F99920002EB41020E990A4425
:10537800109902EBC102119902EB011292B2A2F14B
:1053880010000F280ED96FF009021292019AC3F388
:105398000A031380139B9A427FF446AF129819B000
:1053A800BDE8F08F113A0E2A71D8DFE802F06A647E
:1053B8005E58524D48423C37312C26210800C7F12F
:1053C80001078DF85A70129B0099002B08BF6FF0E7
:1053D8000803012212931046002311F9012F12FB32
:1053E80000F2440013448E429BB2A0B2F5D1CDE73F
:1053F800CCF101038DF85930E5E70D9BC3F10103AA
:105408008DF85830DFE7CEF101038DF85730DAE731
:105418000C9BC3F101038DF85630D4E7C9F10103A1
:105428008DF85530CFE7029BC3F101038DF8543056
:10543800C9E7089BC3F1010C8DF85EC0C3E7C8F14A
:1054480001038DF85330BEE7CBF101038DF85230DC
:10545800B9E70B9BC3F101038DF85130B3E7069B05
:10546800C3F101038DF85D30ADE70A9BC3F1010379
:105478008DF85030A7E7049BC3F101038DF85C3029
:10548800A1E7039BC3F101038DF85B309BE7099B00
:10549800C3F101038DF85F3095E700BF10B50B46E7
:1054A8000C464FF450724FF4105105F01FFB00B139
:1054B80010BD2046BDE81040FFF7A6BE10B530224B
:1054C80082B04FF40041044605F09CFA421C04D116
:1054D8000DE0BDF806301B0709D40DF106030122C3
:1054E8004FF40041204605F001FB0028F1D002B03E
:1054F80010BD00BF10B582B00DF10603012248F2BD
:105508000D01044605F0F2FA08B102B010BDBDF86D
:10551800062048F20D0142F400422046ADF806206C
:1055280005F070FA0028F0D105F054FA0028ECD103
:105538000DF10603012248F20D01204605F0D6FAC6
:105548000028E2D1BDF90630002BB8BF6FF00A0081
:10555800DBE700BF002347F6FF7130F813208A42CB
:1055680003F1100303D0C02BF7D1002070476FF070
:1055780007007047038847F6FF718B422BD000F174
:105588000E0300F1240C33F8022F8A4223D063451E
:10559800F9D1038D8B421ED0438D8B421BD0838D56
:1055A8008B4218D000F12E0300F1400C47F6FF7132
:1055B80033F8022F8A420ED09C45F9D100F14E03F0
:1055C80047F6FF715E3033F8022F8A4203D08342D8
:1055D800F9D1002070476FF007007047F0B5054615
:1055E8009BB00E4603E0BDF806703A070DD40DF1E6
:1055F800060301224FF40041284605F077FA0446D5
:105608000028F0D020461BB0F0BD30224FF40041F6
:10561800284605F0F7F9431C07F001070446F1D0C6
:1056280033462022002F3FD14FF48061284605F0F1
:105638005DFA04460028E5D106F1400320224FF424
:105648008861284605F052FA04460028DAD106F1A6
:10565800800320224FF49061284605F047FA04465B
:105668000028CFD106F1C00320224FF498612846C4
:1056780005F03CFA04460028C4D106F580732022C0
:105688004FF4A061284605F031FA04460028B9D144
:1056980006F5A07320224FF4A861284605F026FAE3
:1056A8000446002841D0ADE74FF48461284605F050
:1056B8001DFA04460028A5D106F1400320224FF424
:1056C8008C61284605F012FA044600289AD106F1A2
:1056D800800320224FF49461284605F007FA044617
:1056E80000288FD106F1C00320224FF49C61284680
:1056F80005F0FCF90446002884D106F580732022C1
:105708004FF4A461284605F0F1F9044600287FF417
:1057180079AF06F5A07320224FF4AC61284605F056
:10572800E5F9044600287FF46DAF02AB30224FF450
:10573800B061284605F0DAF9044600287FF462AF24
:1057480001AB2846012248F20D0105F0CFF9BDF85A
:105758000430A6F8E031A6F8E271044600287FF488
:1057680051AF02A8FFF706FF28B9602202A906F583
:10577800C07003F05BFA47F6FF7236F814309342B4
:1057880004F1100403D0C02CF7D13C463AE76FF07F
:10579800070437E730B583B00C460DF10603012244
:1057A80048F20D01054605F0A1F908B103B030BD76
:1057B800BDF80620A10222F4406201F4406192B2D1
:1057C8000A43284648F20D0105F01CF903B030BD24
:1057D80000B583B00DF10603012248F20D0105F072
:1057E80085F918B9BDF80600C0F3812003B05DF84B
:1057F80004FB00BF30B583B00C460DF1060301224F
:1058080048F20D01054605F071F908B103B030BD45
:10581800BDF80620E10122F4607201F4607192B2D1
:105828000A43284648F20D0105F0ECF803B030BDF4
:1058380000B583B00DF10603012248F20D0105F011
:1058480055F918B9BDF80600C0F3C21003B05DF8E9
:1058580004FB00BFD0B5B0F8D431B0F8E0612DED4D
:10586800028B07EE903A1B04B8EE678A48BFDFED5B
:10587800287A91F8240048BF38EE678A0C4602F06F
:1058880093FD9FED1F0B41EC110B01F019FBC6F3C3
:105898008126304657EC106B02F096FD9FED180BF1
:1058A80041EC110B01F00CFB304653EC102B394640
:1058B80002F01EFF03F0EAF8B4F9023007EE903A5E
:1058C80006EE900AB4F90030F8EEE77A07EE103ADF
:1058D800D8EE267AB8EEC77AC7EE877A17EE900A1E
:1058E80002F084FD08A3D3E9002302F021FC03F0B1
:1058F800CDF8BDEC028B00EE100AD0BDAFF30080EE
:1059080000000000000000406666666666660A40A1
:10591800000080472DE9F84305460C46FFF79AFF3B
:10592800B5F8C03194ED046A07EE903A1A04B8EE5F
:10593800677AB5F8803144BFDFED2D7A37EE677AA4
:1059480007EE903A1B0448BFDFED296AF8EE677A44
:1059580010EE109A48BF77EEE67ADFED266AE6EE9B
:10596800077A87EE276A66EE267A17EE900A02F023
:105978003DFD064660680F4602F038FD024648467F
:105988009046894602F032FD17A3D3E9002302F0BE
:10599800CDFB02460B464046494602F07FFD164BBA
:1059A800002202F0C5FB02460B463046394602F09B
:1059B8009FFE0646A0890F4602F006FD02460B46EA
:1059C8003046394602F0B2FB03F060F894ED027AF3
:1059D80006EE900A86EE870AF3EE097A30EE270A79
:1059E800BDE8F883AFF300806666666666660A40BF
:1059F80000008047000080480000F03F2DE9F04F8C
:105A08002DED108B91B00C4610EE909A83461746F8
:105A1800B0F8E2619FEDB4DAB0EE40AAFFF71AFFE2
:105A28005846214610EE108AFFF774FF10EE100A50
:105A3800F0EE409A02F0DAFCA3A3D3E9002302F0C7
:105A480077FB03F023F808EE100A484602F0CEFC74
:105A58009DA3D3E9002302F06BFB03F017F809EECE
:105A6800100A29EE099A28EE088A29EE099A94F86C
:105A78009E05B0EE497AA8EE487A06EB4606ABF1E9
:105A8800020BB7EE008AC7EE0A7A04F2DD4539EE5A
:105A9800679A02F089FC9FED8E0B41EC110B01F027
:105AA8000FFA51EC100B02F0F1FF0BEE100A94F80C
:105AB8005F0602F079FC9FED860B41EC110B01F0BB
:105AC800FFF951EC100B02F0E1FF0BEE900A94F88D
:105AD800DC0102F069FC9FED7E0B41EC110B01F03B
:105AE800EFF951EC100B02F0D1FFF7EE007A94EDCC
:105AF8000C6AB4F9543094ED0B4A94ED0D5AD4ED78
:105B08000F5AB3EE047AF0EE676AE6EE076A824649
:105B18000EEE903A87EEA6EAB4F956300893B4F937
:105B280052301EEE902AF0EE674AE4EE074A07EE7E
:105B3800103AD31AF8EEC7DA07EE103A089AD4EDFD
:105B48000E6AB4F9583094ED106A0B931EEE901A51
:105B5800B8EEC77A521AF0EE67FAE6EE87FA0899B5
:105B680007EE102ACEEE24CA591AB4F95A200D921B
:105B7800D31AF0EE674AE5EE2D4AB8EEC77AF0EE92
:105B8800676AE5EE876A07EE101A24EEAF5AB8EE98
:105B9800C77A65EE265AF0EE676AE6EE076A07EE00
:105BA800103A25EEA66AB8EEC77AD4ED116ABBF8AA
:105BB8009631CDED094AE6EE877A19048DED0A5A39
:105BC80066EE277ACDED0C5ACDED0F7A07EE903AB6
:105BD800B4F914308DED0E6AB8EE677A44BFDFED84
:105BE800427A37EE677A07EE903AF8EEE77ABBF832
:105BF800923187EE87CA1A0407EE903A48BF9FEDA4
:105C08003A7AF8EE677A48BF77EEC77A67EE8C7A09
:105C180017EE900A02F0EAFBF3EE097A02460B4609
:105C2800CDE9002379EEE79AB4F96436D4ED087A21
:105C38004046A7EEA98A08EE903A02F0D7FB26A3C1
:105C4800D3E9002302F072FA80468946E069CDE97B
:105C5800028902F0CBFB42464B4602F01FFCF8EEED
:105C6800E88A224B002202F063FA68EE887A8046BE
:105C780017EE900A894602F0B9FB02460B464046E9
:105C8800494602F00BFC02460B46DDE9000102F032
:105C98004DFA02F0FBFE034650460AEE903A02F037
:105CA800A5FB0FA3D3E9002302F0F8FB04EBC6130E
:105CB80003F5EE73069304F5ED73CDE9040100973F
:105CC80004F15A0A07934CE06666666666127140EC
:105CD80000000000000000406666666666660A40CE
:105CE8008DEDB5A0F7C6B03E000080470000F03F3C
:105CF800B4F94C3094ED0B8A06EE903A6FEEACFA9C
:105D0800F8EEE66A37EE667AF7EE006AE7EE086ABA
:105D180066EEAF7A88EEA70A70EE097AF5EE407A59
:105D2800F1EE10FA00F17A81B1EEE70AB5EE400A19
:105D3800F1EE10FA00F16D81F1EEC07A17EE900ADB
:105D480002F054FBBAA3D3E9002302F0EFF902F002
:105D58009DFE009B43F8040B0093079B534500F0FE
:105D680047813BF8023F013507EE903A1B0495F94D
:105D7800C130B8EE677A07EE903A48BF37EE4D7AF1
:105D8800F8EEE77AB7EE00FA87EEAB8A67EE0C7AA0
:105D9800F0EE4FFA17EE900A02F028FB95F9003062
:105DA80007EE103AB8EEC77A069BC7EE0B6A33F9CE
:105DB800022F069306460F4608EE902AE9EEA6FA49
:105DC80018EE100A02F012FBDDE9022302F066FB6E
:105DD800F8EEE88A984B002202F0AAF968EEAF7A4A
:105DE800804617EE900A894602F000FB02460B46F1
:105DF8004046494602F052FB02460B4630463946B9
:105E080002F094F902F042FED4ED066A07EE100A99
:105E1800A6EEEA7A3AF8020FC7EE0A8A02F0D4FA36
:105E280002460B46DDE9040102F062FC02F02EFE98
:105E3800D4ED0A6AF0EE4F7AE9EEA67A07EE100A78
:105E480067EE87FAF0EE686AE9EE2F6A2FEEAF7A0E
:105E580027EE2F7A27EE267AB5EE407AF1EE10FA81
:105E680000F1D280B1EEC70AB5EE400AF1EE10FAA1
:105E780000F1D980B1EEC0FA18EE900A02F0B6FA35
:105E880094ED0D8A064618EE100A0F4602F0AEFA97
:105E980067A3D3E9002302F001FB02460B4600206A
:105EA800654902F043F980461FEE900A894602F0E0
:105EB8009DFA02460B464046494602F0EFFA68EE64
:105EC8000F7A804617EE900A894602F08FFA02464A
:105ED8000B464046494602F02BF902460B4630462F
:105EE800394602F005FC064619EE100A0F4602F084
:105EF8007DFA02460B463046394602F019F941EC64
:105F0800100B01F077F801F075F849A3D3E90023E5
:105F180051EC100B02F00AF902F0B8FDB4F94E305A
:105F280006EE103A07EE100AB8EEC66AB4EEC76A73
:105F3800F1EE10FA3FF7DCAEB4F9503006EE903AC5
:105F4800F8EEE66AF4EEC76AF1EE10FA06DD6FEED7
:105F58008EFA94ED0C8AF0EE466AD3E6F4EEC7DAD0
:105F6800F1EE10FA3FF7CEAEF8EEEE6AF4EEC76A3D
:105F7800F1EE10FA08DDDDED097A94ED0E8A6FEE88
:105F8800A7FAF0EE6D6ABDE6DDED087AB8EEE76ACD
:105F9800B4EEC76AF1EE10FA06DDDDED0A7A94ED8B
:105FA8000F8A6FEEA7FAADE6DDED0B7AF8EEE75A49
:105FB800F4EEC75AF1EE10FA08DDDDED0C7A94ED37
:105FC800108A6FEEA7FAF0EE466A9BE6DDED0D7AD1
:105FD800F8EEE76AF4EEC76AF1EE10FA0DDDDDEDD2
:105FE8000E7A94ED118A6FEEA7FAF0EE656A89E6EB
:105FF80011B0BDEC108BBDE8F08FDDED0F7A94ED9C
:10600800128A6FEEA7FA7DE6B0EE470A00F0D0FFDD
:106018002AE700F0CDFFF0EE407A8FE6B0EE670A8F
:1060280000F0C6FF82E600F0C3FFB0EE40FA23E7B7
:1060380066666666661271400000F03F2DE9F04F13
:106048002DED0A8B89B08B4690468246B0F8E291D6
:10605800DFED8FBAFFF7FEFB5046594610EE105A97
:10606800FFF758FC9BF89E05F0EE408A02F09CF979
:106078009FED830B41EC110B00F022FF51EC100B4C
:1060880002F004FD09EE900A9BF85F0602F08CF915
:106098009FED7B0B41EC110B00F012FF51EC100B44
:1060A80002F0F4FCBAF8943107EE903A1904B8EE0D
:1060B800677ABBF9143044BFDFED757A37EE677A3B
:1060C80007EE903AF8EEE77ABAF8903187EE87BA99
:1060D8001A0409EB4909AAF1020A07EE903A48BFE7
:1060E8009FED6B7AF8EE677A0AEE100A48BF77EEF2
:1060F800C77AF7EE00AA67EE8B7AB0EE6A9A17EEC7
:10610800900A02F073F9F3EE097ABBF9643678EE77
:10611800E78ADBED087A02462846A7EEA89A1446D5
:106128000D4608EE103A02F061F957A3D3E90023AF
:1061380001F0FCFF06460F46DBF81C00CDE90467BA
:1061480002F054F932463B4602F0A8F9B8EEC88A84
:10615800504B002201F0ECFF68EE097A064617EE74
:10616800900A0F4602F042F902460B46304639467D
:1061780002F094F90B4602462946204601F0D6FF64
:1061880002F084FC0BEBC913474603F5EE790BF5D7
:10619800ED7809EE100ACDF81C800BF2DD44B84604
:1061A8000BF15A050BF5CC664F463AF8023F07EE5D
:1061B800903A0134B8EE677A1B0494F9C13048BFAD
:1061C80037EE6B7A07EE903A27EE0B7AF8EEE77A1D
:1061D80017EE100AC7EE8ACA02F008F994F90030DF
:1061E800CDE9000107EE903AF8EEE77A37F9023F79
:1061F80087EEA97AB0EE6ACAA8EE87CA08EE103A06
:106208001CEE900A02F0F2F8DDE9042302F046F9E8
:10621800B8EEC88A1F4B002201F08AFF68EE0C7A9C
:10622800CDE9020117EE900A02F0E0F802460B46AB
:10623800DDE9020102F032F90B460246DDE9000110
:1062480001F074FF02F022FC35F8023FDBED066A2C
:1062580096ED006A07EE103A07EE900AB8EEC77A94
:10626800E6EEC97A079BA6EEC67AAB4267EE877A56
:10627800E8EC017A99D109B0BDEC0A8BBDE8F08F42
:1062880000000000000000406666666666660A4018
:10629800000080470000F03FB0F8E201704700BFFF
:1062A800BF2813D800F00F0301EB80000F2B0ED886
:1062B800DFE803F034270D0D0D0D0D0D0D0D0D0D3F
:1062C8000D0D273776EEA76AC0ED006A7047D0ED4E
:1062D800016AD0ED027A10ED016A10ED027A76EECD
:1062E800E77A36EE477AB0EEE75AF0EEC75AB4EEE0
:1062F800E55AF1EE10FAE5DD36EE076A80ED006A40
:10630800704750ED017AD0ED016A77EEA67AB6EEC5
:10631800007A67EE877AC0ED007A704743680360B9
:10632800704750F8043C0360704700BFB0F94E2036
:10633800B0F84E30B0F94CC0B2F5806FA8BFA3F5E5
:106348000063B0F84C20A8BF9BB2BCF5806FA8BF13
:10635800A2F500624FEA4313A8BF92B21BB25201E2
:106368000B804A80704700BFB0F85630B0F8502014
:1063780007EE903AB3F5806FF8EE677A28BF9FED85
:10638800167AB0F8543028BF77EEC77A9FED137AA3
:1063980027EE877A07EE903AB3F5806FF8EE677AC2
:1063A800B0F8583024BFDFED0C6A77EEE67A06EED7
:1063B800903AB4EE006AB0F8523081ED017AFAEE04
:1063C800EC6A67EE867A03EB4213C1ED027A8B81A1
:1063D800C1ED046A704700BF000000450000803925
:1063E800B0F84820B0F84A3003EB42138B8270476C
:1063F800B0F866309FED0B7AC3F3080307EE903AC6
:10640800F8EEE77AF4EEC77AF1EE10FAC4BF9FED22
:10641800067A77EEC77A9FED057A67EE877AC1ED3F
:10642800067A704700007F43000000440000803C6B
:10643800B0F8463007EE903AB3F5806FF8EE677A19
:1064480024BF9FED067A77EEC77A9FED057A67EE4F
:10645800877A01F5CD61C1ED007A704700000045EB
:106468000000003BB0F86630C3F3412381F82430C4
:10647800704700BFB0F8443007EE903AB3F5806F2C
:10648800F8EE677A24BF9FED057A77EEC77A9FED1D
:10649800047A67EE877AC1ED0A7A704700000045F2
:1064A8000000003810B43B4C9FED3B6ADFED3B5ACF
:1064B8004FF4A002C1E913427823A1F85430B0F890
:1064C8007430A1F85630B0F87830A1F85830B0F8E8
:1064D8007C30A1F85A30B0F86A30B0F8682007EE7E
:1064E800903AB0F86C3002EE903AB0F86E3003EEA5
:1064F800103AB0F8703003EE903AB0F8723004EE0B
:10650800103AB0F8763004EE903AB0F87A3005EEEA
:10651800103AB0F87E3007EE103A0123934006EEA9
:10652800903AF8EE677AF8EE622AB8EE433AF8EE57
:10653800633AB8EE444AF8EE644AB8EE455AB8EE03
:10654800477AC1ED0B7AC1ED0C2A81ED0D3AC1ED08
:106558000E3A81ED0F4AC1ED104A81ED115A81EDD5
:10656800127A01F13003F8EEE66A4C3101E0F3ECFF
:10657800017AF4EEC67AF1EE10FAC8BF77EEE57A42
:106588008B4287EEA67A03ED017AF0D15DF8044BD1
:10659800704700BFD8FFECFF00C07F4400000045F3
:1065A8002DE9F04F83462DED048BBBF83230BBF854
:1065B80034209FED7D8AADF54D7D00205D0957099A
:1065C8005E4603F01F0314370446143502F01F0219
:1065D800143267F30F04009165F30F0003F11401FF
:1065E80036F8363F61F31F4062F31F449FED689B06
:1065F8005A09CDE9020403F01F0306A91432143323
:10660800ADF81020ADF8123002AF0BF1420A8946FE
:10661800884636F8020F01F0D7FE044637F8020B19
:106628000D4601F0C1FEB0EE490AF0EE690A41ECF0
:10663800110B00F045FC204653EC102B294602F0C4
:1066480057F802F023FA07EE100AC7EE087A564503
:10665800E9EC017ADDD1009A02F5CC63D2ED067A35
:10666800D3ED008A4CA7D7E900670CAD414668EE28
:10667800E78A0BF23E29A84601950BF2BE3B0D4670
:10668800B5EC018AA9F14004C24634F8023F07EE8E
:10669800903AF8EEE77AB0EE687AA7EE887A17EEC5
:1066A800100A01F0A3FE02460B463046394602F0B6
:1066B8001FF802F0EBF9A1454AF8040BE5D109F1FE
:1066C8004009D94508F18008DAD1019DDDED0C7A41
:1066D8000DABCCACB3EC017AB4EE677AF1EE10FAFC
:1066E800C8BFF0EE477A9C42F4D19FED307AF4EEC1
:1066F800C77AF1EE10FA45D54FF0000A77EEA77A7F
:106708000AF1010AF4EEC77AF1EE10FA5FFA8AFA92
:10671800F4D4504601F048FE41EC180B009B244F7E
:106728009FED1B9B03F15A090026CB46B0EE481A91
:10673800F0EE681AB0EE490AF0EE690A55F8048BD3
:1067480000F0BEFB404659EC108B01F04FFE42466C
:106758004B4601F0A3FE02F099F901F047FE3246DC
:106768003B4601F0E5FC02F071F9A5422BF8020F57
:10677800DCD1009B83F8DCA10DF54D7DBDEC048BCD
:10678800BDE8F08F9FED068B4FF0000AC6E700BF0B
:1067980000000000000000408DEDB5A0F7C6B03E37
:1067A800000000000000000000E0FF440000004777
:1067B8000000E03F038C428C10B5B0F824E05B0980
:1067C8004FF0010C0EEB421E0CFA03FC1FFA8EFE72
:1067D8001FFA8CFC00F17E0201F5EE7100F5FF74E2
:1067E80032F8023F18B2B0F5806FA4BFA3F500637A
:1067F8009BB213FB0CE321F8023FB2F98004B2F814
:106808008034B0F5806FA4BFA3F500639BB21CFB76
:1068180003E3A242A1F88031E2D110BD2DE9F04F87
:10682800B0F92A40438D2DED068BB4F5806F834671
:10683800808DADF5437DA4BFA3F500631CB2C0F302
:10684800471300F01F000191009301F0ADFD07EE22
:10685800904A9FED638B0DF10808B8EEE7AA41EC6A
:10686800190B0BF27E3B0DF54279C2463BF8023F0D
:10687800B0EE491AF0EE691AB3F5806F4FEA531477
:1068880028BF403CB0EE480AF0EE680A28BFA4B220
:1068980000F016FB009857EC106B01F085FDB0EE88
:1068A800480AF0EE680A41EC110B00F009FB20B22F
:1068B80055EC104B01F088FD32463B4601F0EEFDE9
:1068C80002F0E4F807EE900A77EE8A7A17EE900A5B
:1068D80001F08CFD22462B4601F00AFF02F0D6F8A3
:1068E8004AF8040BCA45C1D19DED027A03ABB0EE5C
:1068F800C77AF3EC017AF0EEE77AF4EE477AF1EE34
:1069080010FAC8BFB0EE677A4B45F2D1DFED387A9E
:10691800B4EEE77AF1EE10FA5AD54FF0000B37EEE5
:10692800077A0BF1010BB4EEE77AF1EE10FA5FFA91
:106938008BFBF4D4584601F037FD41EC180B019B52
:106948002C4D9FED279B03F2DD4A00240CE001F05B
:106958004DFD22462B4601F0EBFB02F04FF8C845EF
:1069680040B20AF8010F2AD0B0EE481AF0EE681AC1
:10697800B0EE490AF0EE690A58F8046B00F0A0FA84
:10698800304657EC106B01F031FD32463B4601F0C2
:1069980085FD02F07BF807EE900AF5EEC07AF1EE7D
:1069A80010FAD4D501F022FD22462B4601F0BEFB99
:1069B80002F024F8C84540B20AF8010FD4D1019B6F
:1069C80083F89EB50DF5437DBDEC068BBDE8F08FD1
:1069D8009FED058B4FF0000BB1E700BFAFF30080D0
:1069E800000000000000004000000000000000005F
:1069F800000080420000E03F2DE9F04FB0F92E4042
:106A0800C38D2DED068BB4F5806F8346008EADF5F2
:106A1800437DA4BFA3F500631CB2C0F3471300F085
:106A28001F000191009301F0BFFC07EE904A9FED13
:106A3800628B0DF10808B8EEE7AA41EC190B0BF2CE
:106A48007E3B0DF54279C2463BF8023FB0EE491A4B
:106A5800F0EE691A03F01F04DB0648BF203CB0EED5
:106A6800480AF0EE680A48BFA4B200F029FA009874
:106A780057EC106B01F098FCB0EE480AF0EE680A8B
:106A880041EC110B00F01CFA20B255EC104B01F050
:106A98009BFC32463B4601F001FD01F0F7FF07EE93
:106AA800900A77EE8A7A17EE900A01F09FFC224648
:106AB8002B4601F01DFE01F0E9FF4AF8040BCA4518
:106AC800C2D19DED027A03ABB0EEC77AF3EC017A3E
:106AD800F0EEE77AF4EE477AF1EE10FAC8BFB0EEBE
:106AE800677A4B45F2D1DFED387AB4EEE77AF1EE0A
:106AF80010FA5AD54FF0000B37EE077A0BF1010B5D
:106B0800B4EEE77AF1EE10FA5FFA8BFBF4D458464C
:106B180001F04AFC41EC180B019B2C4D9FED269B84
:106B280003F29E5A00240CE001F060FC22462B463A
:106B380001F0FEFA01F062FFC84540B20AF8010F01
:106B48002AD0B0EE481AF0EE681AB0EE490AF0EE14
:106B5800690A58F8046B00F0B3F9304657EC106B2B
:106B680001F044FC32463B4601F098FC01F08EFFF0
:106B780007EE900AF5EEC07AF1EE10FAD4D501F0DE
:106B880035FC22462B4601F0D1FA01F037FFC84503
:106B980040B20AF8010FD4D1019B83F85FB60DF516
:106BA800437DBDEC068BBDE8F08F9FED058B4FF064
:106BB800000BB1E7AFF300800000000000000040C8
:106BC8000000000000000000000080420000E03FDC
:106BD8002DE9F843B0F85A30B0F85E20B0F860609C
:106BE80007EE903AB3F5806F2DED028BB8EE678A09
:106BF80028BFDFED437A044690F85C0028BF38EEE2
:106C0800678A06EB42160D4601F0CEFB9FED3A0B64
:106C180041EC110B00F054F959EC108B18EE100AE6
:106C280001F0E4FB42464B4601F062FD01F02EFF05
:106C3800B4F8623003F03F0208EE102AB8EEC88AB2
:106C4800F3EE0F7AB4EEE78AF1EE10FAC8BFDFED83
:106C58002D7A0746C3F38710C8BF38EE678A01F05C
:106C6800A3FB9FED250B41EC110B00F029F959EC22
:106C7800108B18EE100A01F0B9FB42464B4601F0A2
:106C880037FD01F003FFB4F86430286203F03F02D7
:106C980008EE102AB8EEC88AF3EE0F7AB4EEE78A47
:106CA800F1EE10FAC8BFDFED177AC3F38710C8BF3B
:106CB80038EE678A01F078FB9FED0F0B41EC110B62
:106CC80000F0FEF859EC108B18EE100A01F08EFB5C
:106CD8004B46424601F00CFD01F0D8FEBDEC028B9C
:106CE80005F5CC6336B2E8611F60A5F86466BDE8B7
:106CF800F88300BFAFF300800000000000000040F0
:106D0800000000450000804200F5CD6090ED000ACB
:106D1800704700BF30B54FF6FF730022A1F86C36FC
:106D28007E30134630F8024F03F1010C44B11FFACC
:106D38008CF3C02BF6D1022A18BF002019D030BD21
:106D4800B0F88041002CF2D1B0F80043002CEED10D
:106D5800B0F88054E646541C002DE8D1A1F86C36F2
:106D68001FFA8CF3C02BA2B2E5D0022A01D001226F
:106D7800D8E76FF0020030BD38B5838A5B0640F172
:106D88008680B0F94E20B0F84E300D46B2F5806FCF
:106D9800B0F94C10B0F84C20A4BFA3F500639BB227
:106DA800B1F5806FA4BFA2F5006292B25B011BB27D
:106DB800520129462B806A80FFF7D6FAB0F848209E
:106DC800B0F84A309FED337A03EB4213AB82B0F848
:106DD8006630C3F3080207EE902AF8EEE77AB0F8B7
:106DE8004620F4EEC77AF1EE10FAC4BF9FED2A7A76
:106DF80077EEC77A9FED297A67EE877A07EE102A31
:106E0800B2F5806FC5ED067AB8EE477A24BFDFED9C
:106E1800247A37EE677ADFED237A27EE277A05F5AD
:106E2800CD62C3F3412382ED007A85F82430B0F8AF
:106E3800443007EE903AB3F5806F28BF9FED187A7B
:106E4800F8EE677A044628BF77EEC77A9FED167A80
:106E580067EE877AC5ED0A7AFFF724FB2946FFF724
:106E6800B7FE29462046FFF79BFB29462046FFF739
:106E7800A1FC29462046FFF7D1FC29462046FFF70A
:106E8800BBFD29462046BDE83840FFF743BF6FF0F9
:106E9800060038BD00007F43000000440000803C2D
:106EA800000000450000003B00000038838A13F012
:106EB800400F0CBF6FF00600002070470000000074
:106EC800F8B52DED028B55EC114B57EC106B00F01B
:106ED800C7F822462B4620462946B0EE408AF0EEF7
:106EE800608A01F075FD78B90022002330463946E2
:106EF80001F03CFDF0B1002200232046294601F0B4
:106F080035FD40B19FED288BB0EE480AF0EE680AD7
:106F1800BDEC028BF8BD45EC104B00F0A1FF00283A
:106F2800F2D0002200232046294601F029FD00283E
:106F3800EAD02EE0B0EE480AF0EE680A00F090FFC2
:106F4800A0B151EC180B0022002301F00FFD00281E
:106F5800DAD047EC106B00F083FF0028D4D045EC62
:106F6800104B00F07DFF0028CED012E047EC106BEC
:106F780000F076FF0028E4D045EC104B00F070FFDD
:106F88000028DED053EC182B51EC180B01F020FD33
:106F980020B901F045FE22230360B5E701F040FE69
:106FA80021230360B0E700BF000000000000F03FAD
:106FB80008B52DED028BB0EE408A01F025F8B4EE4D
:106FC800488AF1EE10FA06D6DFED098AB4EEE88AAF
:106FD800F1EE10FA02D4BDEC028B08BD01F020FEE0
:106FE80088EEA80ABDEC028B2123036008BD00BF10
:106FF8000000000038B52DED028B55EC104B00F069
:1070080039FE22462B4620462946B0EE408AF0EE4D
:10701800608A01F0DDFC30B90022002320462946B1
:1070280001F0AEFC30B9B0EE480AF0EE680ABDECEB
:10703800028B38BD01F0F4FD0022002321210160FC
:107048001046194601F054FB41EC180BB0EE480A03
:10705800F0EE680ABDEC028B38BD00BF00000000EE
:107068002DE9F04F55EC114B25F0004353EA04008D
:1070780057EC106B93B012D1B3198D4987F40022E5
:1070880052419842914120D222462B4630463946F9
:1070980001F04EF841EC100B13B0BDE8F08F8548B5
:1070A80027F0004A8245B846314613D908F14048CE
:1070B80008F5801858EA0108E6D123197C4985F4B7
:1070C8000022524198459141DED39FED770B13B0D2
:1070D800BDE8F08FA946224616D08342E6D850462E
:1070E80000F0B680B8F1000F16DB002A40F0C5802A
:1070F800DFF8CCC1634540F0FD83B9F1000FC0F261
:10710800068547EC106BC7E7002EBDD15345BBD8A9
:1071180000F024845046E5E7DFF8A8C1634500F293
:10712800E383DFF898C1634542D8002A40F012840F
:10713800B9F1804F33D0934647EC106B049102901D
:10714800009300F099FE0499009B0298002953D0FF
:107158004FEAD872013A52EA0B0100F0A0800BF115
:10716800FF3B5BEA020B00F0BA839FED4F7B8DED8E
:10717800067BB3F1844F40F2A7804F4A93424F4BAE
:1071880040F226849A4500F2DA84B9F1000FC0F281
:10719800DA84002013B0BDE8F04F00F0A1BE3246FB
:1071A8003B463046394601F079F941EC100B73E75C
:1071B8004FEA235CACF2FF3CBCF1140F40F38C8423
:1071C800CCF1340C22FA0CFE0EFA0CFC944500F0BB
:1071D8000185002A40F0BE83B9F1804F04910290E6
:1071E8000093DCD047EC106B00F046FE0499009B3E
:1071F8000298002953D18B46314A28F040419142E8
:1072080002D0BAF1000FA3D1B9F1000F07DA53EC9D
:10721800102B2B49002001F06BFA41EC100BB8F150
:10722800000FBFF639AF0AF1404A0AF5801A5AEA48
:107238000B0A40F0768453EC102B1046194600F0E8
:1072480075FF02460B4601F053FA41EC100B23E799
:10725800002C7FF42BAF0AF1404303F5801333432E
:107268003FF433AF154B9A4540F22884B9F1000F2B
:10727800C0F29F8445EC104B0EE74FF0000B47EC33
:10728800106B04910290009300F0F6FD0499009BA6
:1072980002980029B0D04FEAD872013A5FE7324627
:1072A8003B46CAE7AFF30080000000000000F03F53
:1072B8000000F0FF0000F07F0000F043FFFFEF3F09
:1072C8000000F03FFFFF3F43DB4B08EA03030022C7
:1072D80053B951EC100BD94B01F0E0F841EC100B0D
:1072E80010EE900A6FF034020315A3F2FF339A18D8
:1072F800D34B0B92C0F3130040F07F56984246F4EC
:10730800401640F3CD83CF4B984240F322849FED43
:10731800B47B8DED087B9FEDB47B8DED047B9FEDF9
:10732800B07B8DED107B01320B92A6F580160027FD
:1073380053EC102B92465046DDE90423314600F009
:10734800F5FEB346DDE904238046894650463146BA
:10735800CDE90CAB00F0ECFE02460B460020BA4922
:1073680001F0C6F98C46834663465A46404649466C
:10737800CDE90EBC01F092F80A460146CDE90012AB
:10738800CDE90212002100917610DDE900AB46F04C
:10739800005606F500230020D91906460F46024676
:1073A8000B465046594601F079F802460B464046CE
:1073B800494600F0BBFEDDE9042380468946304695
:1073C800394600F0B3FE02460B46DDE90C0100F039
:1073D800ADFE52465B4601F061F802460B46404658
:1073E800494600F0A3FEDDE90E2301F057F8DDE978
:1073F8000267CDE9040132463B463046394601F082
:107408004DF87BA3D3E9002306460F4601F046F862
:1074180079A3D3E9002300F08BFE32463B4601F006
:107428003DF877A3D3E9002300F082FE32463B46BD
:1074380001F034F874A3D3E9002300F079FE324652
:107448003B4601F02BF872A3D3E9002300F070FE4D
:1074580032463B4601F022F86FA3D3E9002300F03F
:1074680067FE3246804689463B463046394601F03B
:1074780015F802460B464046494601F00FF85246B9
:1074880006460F465B46DDE9020100F051FEDDE9E4
:10749800042301F003F832463B4600F049FE524609
:1074A80006460F465B465046594600F0F7FF674BC5
:1074B80000228046894600F03BFE32463B46CDE935
:1074C8000C6700F035FE00260F4632463B46504614
:1074D800594600F0E3FF5D4B82468B46002230465A
:1074E800394600F023FE42464B4600F01FFE024696
:1074F8000B46DDE90C0100F019FEDDE9022300F07E
:10750800CDFF3246804689463B46DDE9040100F05E
:10751800C5FF02460B464046494600F009FE804634
:10752800894642464B465046594600F001FE002621
:107538003BA3D3E9002330460F4600F0AFFF524685
:107548005B4682468B463046394600F0EFFD0246E0
:107558000B464046494600F0E9FD33A3D3E9002332
:1075680000F09CFF02460B463046394616461F4639
:107578002FA3D3E9002300F091FF02460B463046C3
:10758800394600F0D5FDDDE9102300F0D1FD804635
:107598000B98894600F018FF424606460F464B46B0
:1075A80050465946CDE902AB00F0C2FDDDE908239B
:1075B80000F0BEFD32463B4600F0BAFD00203246E0
:1075C8003B4682468B4600F0B1FDDDE9082300F01A
:1075D800ADFDDDE9022300F0A9FD39E0AFF300803D
:1075E8000000000000000000000000000000F03F64
:1075F800EF4E454A287ECA3F65DBC9934A86CD3F90
:1076080001411DA96074D13F4D268F515555D53F75
:10761800FFAB6FDBB66DDB3F033333333333E33F0D
:10762800000000E009C7EE3FFD033ADC09C7EE3F62
:10763800F5015B14E02F3EBE0000F07F00004043E0
:107648008E98030079B60B000000F03F0000084058
:1076580002460B464046494600F068FDCDE9020166
:107668000023CDE900450093DDE900892046424624
:1076780029464B4600F05AFD52465B4600F00EFF85
:10768800224606460F462B46DDE9020100F006FFBA
:1076980002460B463046394600F04AFD424604464B
:1076A8000D464B4650465946CDE9024500F0F6FED8
:1076B80006460F46204629463B46324600F038FD2E
:1076C800BD4B994204460D46884640F3238101F19B
:1076D8003F4303F5E003034340F05382A2A3D3E9F9
:1076E8000023DDE9020100F023FD02460B46204697
:1076F800294614461D4632463B4600F017FD024611
:107708000B462046294601F059F9002840F03982F5
:107718004FF400734344C3F30A52A84CA2F2FF3259
:107728001441C3F3130AC2F11402002004EA03014E
:107738004AF4801A4AFA02FA0B460246B8F1000FD8
:1077480030463946B8BFCAF1000A00F0EFFC0246DD
:107758000B4606460F46DDE9020100F0E9FC4FEA58
:107768000A5B0D46002482A3D3E90023204629465C
:1077780000F094FE3246804689463B46204629461C
:1077880000F0D4FC02460B46DDE9020100F0CEFC15
:1077980079A3D3E9002300F081FE02460B46204678
:1077A800294614461D4676A3D3E9002300F076FE49
:1077B80002460B462046294600F0BAFC06460F460C
:1077C80032463B464046494600F0B2FC42464B46EC
:1077D80004460D4600F0AAFC02460B4630463946E0
:1077E80000F0A4FC2246804689462B4620462946BE
:1077F80000F054FE64A3D3E9002306460F4600F0C8
:107808004DFE63A3D3E9002300F090FC32463B46CB
:1078180000F044FE60A3D3E9002300F089FC32465F
:107828003B4600F03BFE5EA3D3E9002300F07EFC5C
:1078380032463B4600F032FE5BA3D3E9002300F05A
:1078480077FC32463B4600F029FE02460B462046AE
:10785800294600F06BFC06460F4632463B4620465A
:10786800294600F01BFE02460B46304639461646AE
:107878001F4600224FF0804300F058FC02460B469A
:107888003046394600F034FF424606460F464B461E
:107898002046294600F002FE42464B4600F048FCCE
:1078A80002460B463046394600F040FC22462B463D
:1078B80000F03CFC0B4602464149002000F036FC33
:1078C8000B465B44B3F5801FC0F253811946DDE9CE
:1078D800062300F0E3FD41EC100BFFF7DDBB9FED45
:1078E800347B8DED067B44E44FF0020B002A7FF4D5
:1078F800C6AC21E4B9F1804F3FF451ACDFF8C8C001
:10790800E1457FF418AC47EC106B13B0BDE8F04FBD
:1079180000F0B0B9DFF8B4C021F00043634540F28D
:10792800ED80284B0B4403430AD132463B4600F016
:10793800FDFBDDE9022301F037F800283FF4E8AE4B
:10794800DDE906010022002301F01AF8003818BF0B
:1079580001201FE404910290009343E4002C7FF47B
:1079680093AB7FE4AFF30080FE822B654715973C0D
:1079780000000000432EE63FEF39FAFE422EE63FB4
:10798800396CA80C615C20BED0A4BE726937663E13
:10799800F16BD2C541BDBB3E2CDE25AF6A56113F07
:1079A80093BDBE166CC1663F3E5555555555C53FEE
:1079B800000000000000F0BFFFFF8F400000F0FF54
:1079C8000000F03F00346F3F0000E03FFFCB9040E5
:1079D8009A45C0F0E080A44B9A454FF0000200F2AF
:1079E800EC8051EC100BA04B00F0A0FB8CA3D3E96A
:1079F800002306460F4600F051FD8BA3D3E9002370
:107A0800804689463046394600F048FD974B824605
:107A18008B4600223046394600F040FD02460B46B0
:107A280083A1D1E9000100F081FB32463B4600F01A
:107A380035FD02460B4600208D4900F077FB3246A3
:107A4800CDE900013B463046394600F027FD0246A5
:107A58000B46DDE9000100F021FD77A3D3E90023FF
:107A680000F01CFD02460B465046594600F05EFBEE
:107A780006460F4632463B464046494600F058FB0C
:107A8800002042464B4682468B4600F04FFB02469A
:107A98000B463046394600F049FBCDE90201DFE5E7
:107AA8009FED677B8DED087B9FED677B8DED047BFC
:107AB8009DED087B00278DED107B39E4B9F1000FAF
:107AC8009FED5F0BBFF6E8AA05F1004300EE104AF0
:107AD80000EE903AFFF7E0BA002A7FF43BAFCCF112
:107AE800140C43FA0CFE0EFA0CFC9C4579D0DFF816
:107AF80078C163453FF401ABFFF71ABB5C4A934278
:107B080000F28580DDE90023934692462AE656492D
:107B1800002032463B4600F0EBFD41EC100BFFF72E
:107B2800BBBABBF1010F7FF4B7AA10EE901A10EEA2
:107B3800102A01F1004343EC102BFFF7ADBAB9F15D
:107B4800000F7FF726AB002013B0BDE8F04F00F020
:107B5800D7B99FED3F7B8DED087B9FED3F7B8DED8A
:107B6800107B9FED3F7B4FF480278DED047BFFF763
:107B7800DFBB41EC100B504600F04AFA51EC100BF9
:107B8800A5E6DDE906010022002300F0F9FE003831
:107B980018BF0120D8E7DDE906010022002300F024
:107BA800EFFE003818BF0120B9F1000FBFF6F2AAA6
:107BB800CAE79FED230BFFF76FBADDE90601002343
:107BC80000F0DEFE003818BF0120B9F1000FBBDC61
:107BD800FFF7E0BA9AB10EF0010ECEF1020BFFF7F3
:107BE8004EBB214A93423FF488AAB9F1804F3FF433
:107BF800D6AA0EF0010ECEF1020BFFF79DBAB9F12D
:107C0800804F3FF4CCAA4FF0020BFFF795BA1B1533
:107C1800A3F2FE334FF4801242FA03F37AE500BF71
:107C2800000000604715F73F44DF5DF80BAE543E97
:107C3800555555555555D53FFE822B654715F73F88
:107C48000000000000000000000000000000F03FFD
:107C58000000004003B8E23F06D0CF43EBFD4C3EA6
:107C6800000000000000F83F0000F03F0000D03F97
:107C78000000E03F2DE9F047774855EC104BA8434A
:107C880000F0A480002D21462A46234656DD2C15F7
:107C980000F0D080C2F31302E107A4F2FF3742F4E8
:107CA800801203D4D90F01EB42025B005200002678
:107CB80002EBD3727F105B001624B4464FF4001118
:107CC8000CEB010090424FEAD3754FEA430303DC03
:107CD80000EB010C121A0E44013C05EB42024FEA7C
:107CE8005101EDD1A04620254FF000400AE03CD0DC
:107CF800510001EBD371013D0A464FEA43034FEAB5
:107D080050003ED0944508EB000EF0DABEF1000FAB
:107D18000EEB00080CDBE146A2EB0C019E4588BF88
:107D280001F1FF314900CC46A3EB0E030444E0E720
:107D3800B8F1000FEFDB0CF10109EDE725F0004089
:107D480020433DD0002D68D1D90A153A5B0500299A
:107D5800FAD0CE02144618460A466CD520254FF0B4
:107D6800FF31E840641A024394E79E4502D94FEA7E
:107D78004C01BEE7BEF1000F0EEB000822DB00212C
:107D8800D2E7194310D0DFF8D4A0DAE90001DAE924
:107D9800022300F0CBF9DAE9008902460B46404697
:107DA800494600F0F7FDF8B96508711001F17F51F7
:107DB80001F5001101EB075345EAC67243EC102B9D
:107DC800BDE8F087B8F1000FB5DAD8E722462B46B0
:107DD8002046294600F062FB22462B4600F0A8F90F
:107DE80041EC100BBDE8F087B4F1FF3FDAE9000180
:107DF800DAE902232BD000F09BF9DAE90089024680
:107E08000B464046494600F0BBFD10B3A31C04F1E5
:107E1800020508BF01366D08C7E722462B462046F3
:107E2800294600F083F902460B4600F061FC41EC5C
:107E3800100BC5E7084600235200D502194603F186
:107E48000103F9D5C3F1200500FA03F389E70136E8
:107E5800ABE70134A8E700BF0000F07F38D4000882
:107E680082B08DED000B019840F0004000F58010C5
:107E7800C00F02B0704700BF51EC100B024621F052
:107E8800004343EC102B704710B52DED028BB0EE7C
:107E9800408AF0EE608A044600F0C2FEB0EE480A5E
:107EA800F0EE680ABDEC028B046010BD00B5034615
:107EB80083B051EC100B7BB1024601F10043CDE9D0
:107EC8000023DDE9002300F0E9FA41EC100B222041
:107ED80003B05DF804EBD7E702460B46EFE700BFB7
:107EE8009FED010BE2E700BF00000000000000105A
:107EF8009FED010BDAE700BF000000000000581EEC
:107F08009FED010BD2E700BF0000000000000070E9
:107F180000B5002283B078B1084BCDE90023DDE934
:107F280000010022002300F0E3FB41EC100B2220AB
:107F380003B05DF804EBA7E7014BEEE70000F0BFE4
:107F48000000F03F38B555EC104B2DED028B224662
:107F58002B462046294600F0E9F802460B4600F079
:107F6800C7FB224641EC180B2B462046294600F059
:107F78002FFDB0EE480AF0EE680A28B9BDEC028B76
:107F88002120BDE838407FE7BDEC028B38BD00BF3B
:107F980008B551EC100B2DED028BB0EE408AF0EED7
:107FA800608A0022002300F0E1FCB0EE480AF0EEFF
:107FB800680A10B9BDEC028B08BDBDEC028B22200B
:107FC800BDE8084060E700BFF8B555EC104B25F058
:107FD80000470C4B4FF0FF322046394600F0F8FCC2
:107FE80038B9084B204639464FF0FF3200F0D2FC32
:107FF80010B145EC104BF8BD45EC104B2220BDE804
:10800800F84041E7FFFFEF7FB1EEC00A704700BFBD
:1080180070B555EC104BC5F30A5206462B4672BB99
:1080280025F00043234329D03B4B20462946002214
:1080380000F034FA394B9E4204460D4652DBC1F338
:108048000A520B46363A4CF250318E4223DC164423
:1080580040F2FE7296421EDC002E34DC16F1350F1B
:1080680038DB6FF31E53363643EA065520462C4B51
:108078002946002200F012FA41EC100B70BD40F2C4
:10808800FF718A42DFD122462046294600F050F887
:1080980041EC100B70BD002D17A1D1E9000107DBE1
:1080A80015A3D3E9002300F0F9F941EC100B70BDDA
:1080B80013A1D1E9000110A3D3E9002300F0EEF9E0
:1080C80041EC100BF3E76FF31E5343EA065545ECFA
:1080D800104B70BD002D0CA1D1E9000102DA0CA1F2
:1080E800D1E9000108A3D3E9002300F0D7F941EC56
:1080F800100B70BDAFF300809C7500883CE4377EA0
:108108009C7500883CE437FE59F3F8C21F6EA50140
:1081180059F3F8C21F6EA58100005043B03CFFFF21
:108128000000903C81F0004102E000BF83F0004372
:1081380030B54FEA41044FEA430594EA050F08BFFA
:1081480090EA020F1FBF54EA000C55EA020C7FEABE
:10815800645C7FEA655C00F0E2804FEA5454D4EB3B
:108168005555B8BF6D420CDD2C4480EA020281EA05
:10817800030382EA000083EA010180EA020281EA3D
:108188000303362D88BF30BD11F0004F4FEA01318F
:108198004FF4801C4CEA113102D0404261EB41019E
:1081A80013F0004F4FEA03334CEA133302D0524224
:1081B80063EB430394EA050F00F0A780A4F10104E0
:1081C800D5F1200E0DDB02FA0EFC22FA05F280181A
:1081D80041F1000103FA0EF2801843FA05F3594100
:1081E8000EE0A5F120050EF1200E012A03FA0EFC7F
:1081F80028BF4CF0020C43FA05F3C01851EBE371A9
:1082080001F0004507D54FF0000EDCF1000C7EEBC5
:1082180000006EEB0101B1F5801F1BD3B1F5001F03
:108228000CD349085FEA30004FEA3C0C04F1010422
:108238004FEA445212F5800F80F09A80BCF1004F4B
:1082480008BF5FEA500C50F1000041EB045141EACD
:10825800050130BD5FEA4C0C404141EB0101013C96
:1082680028BFB1F5801FE9D291F0000F04BF014685
:108278000020B1FA81F308BF2033A3F10B03B3F157
:1082880020020CDA0C3208DD02F1140CC2F10C02E7
:1082980001FA0CF021FA02F10CE002F11402D8BF45
:1082A800C2F1200C01FA02F120FA0CFCDCBF41EA11
:1082B8000C019040E41AA2BF01EB0451294330BDE0
:1082C8006FEA04041F3C1CDA0C340EDC04F11404BD
:1082D800C4F1200220FA04F001FA02F340EA030094
:1082E80021FA04F345EA030130BDC4F10C04C4F1DA
:1082F800200220FA02F001FA04F340EA03002946BA
:1083080030BD21FA04F0294630BD94F0000F83F403
:10831800801306BF81F480110134013D4EE77FEAE6
:10832800645C18BF7FEA655C29D094EA050F08BF32
:1083380090EA020F05D054EA000C04BF1946104613
:1083480030BD91EA030F1EBF0021002030BD5FEA57
:10835800545C05D14000494128BF41F0004130BD7F
:1083680014F580043CBF01F5801130BD01F00045D3
:1083780045F0FE4141F470014FF0000030BD7FEA46
:10838800645C1ABF194610467FEA655C1CBF0B4641
:10839800024650EA013406BF52EA033591EA030F58
:1083A80041F4002130BD00BF90F0000F04BF002150
:1083B800704730B54FF4806404F132044FF0000583
:1083C8004FF0000150E700BF90F0000F04BF0021FC
:1083D800704730B54FF4806404F1320410F0004562
:1083E80048BF40424FF000013EE700BF42004FEA5D
:1083F800E2014FEA31014FEA02701FBF12F07F43DA
:1084080093F07F4F81F06051704732F07F4208BF90
:10841800704793F07F4F04BF41F40021704730B597
:108428004FF4607401F0004521F000411CE700BFE3
:1084380050EA010208BF704730B54FF000050AE066
:1084480050EA010208BF704730B511F0004502D567
:10845800404261EB41014FF4806404F132045FEA69
:10846800915C3FF4D8AE4FF003025FEADC0C18BF12
:1084780003325FEADC0C18BF033202EBDC02C2F104
:10848800200300FA03FC20FA02F001FA03FE40EA96
:108498000E0021FA02F11444BDE600BF70B54FF09A
:1084A800FF0C4CF4E06C1CEA11541DBF1CEA135578
:1084B80094EA0C0F95EA0C0F00F0DEF82C4481EAE0
:1084C800030621EA4C5123EA4C5350EA013518BF00
:1084D80052EA033541F4801143F4801338D0A0FBED
:1084E80002CE4FF00005E1FB02E506F00042E0FB9A
:1084F80003E54FF00006E1FB03569CF0000F18BFA0
:108508004EF0010EA4F1FF04B6F5007F64F5407447
:1085180004D25FEA4E0E6D4146EB060642EAC621DA
:1085280041EA55514FEAC52040EA5E504FEACE2E47
:10853800B4F1FD0C88BFBCF5E06F1ED8BEF1004F4A
:1085480008BF5FEA500E50F1000041EB045170BDC6
:1085580006F0004646EA010140EA020081EA03010A
:10856800B4EB5C04C2BFD4EB0C0541EA045170BD06
:1085780041F480114FF0000E013C00F3AB8014F180
:10858800360FDEBF002001F0004170BDC4F10004C9
:10859800203C35DA0C341BDC04F11404C4F120054A
:1085A80000FA05F320FA04F001FA05F240EA0200A5
:1085B80001F0004221F0004110EBD37021FA04F6DB
:1085C80042EB06015EEA430E08BF20EAD37070BD95
:1085D800C4F10C04C4F1200500FA04F320FA05F0F4
:1085E80001FA04F240EA020001F0004110EBD370F6
:1085F80041F100015EEA430E08BF20EAD37070BD66
:10860800C4F1200500FA05F24EEA020E20FA04F33E
:1086180001FA05F243EA020321FA04F001F00041ED
:1086280021FA04F220EA020000EBD3705EEA430E5E
:1086380008BF20EAD37070BD94F0000F0FD101F08D
:108648000046400041EB010111F4801F08BF013CC6
:10865800F7D041EA060195F0000F18BF704703F004
:108668000046520043EB030313F4801F08BF013D8B
:10867800F7D043EA0603704794EA0C0F0CEA135547
:1086880018BF95EA0C0F0CD050EA410618BF52EA01
:108698004306D1D181EA030101F000414FF0000007
:1086A80070BD50EA410606BF1046194652EA430615
:1086B80019D094EA0C0F02D150EA013613D195EA89
:1086C8000C0F05D152EA03361CBF104619460AD1D1
:1086D80081EA030101F0004141F0FE4141F47001DB
:1086E8004FF0000070BD41F0FE4141F4780170BDCB
:1086F80070B54FF0FF0C4CF4E06C1CEA11541DBF30
:108708001CEA135594EA0C0F95EA0C0F00F0A7F831
:10871800A4EB050481EA030E52EA03354FEA01315E
:1087280000F088804FEA03334FF0805545EA131371
:1087380043EA12634FEA022245EA111545EA106539
:108748004FEA00260EF000419D4208BF964244F1D0
:10875800FD0404F5407402D25B084FEA3202B61AEF
:1087680065EB03055B084FEA32024FF480104FF4C3
:10877800002CB6EB020E75EB030E22BFB61A754637
:1087880040EA0C005B084FEA3202B6EB020E75EBCA
:10879800030E22BFB61A754640EA5C005B084FEA32
:1087A8003202B6EB020E75EB030E22BFB61A7546FF
:1087B80040EA9C005B084FEA3202B6EB020E75EB0A
:1087C800030E22BFB61A754640EADC0055EA060ECB
:1087D80018D04FEA051545EA16754FEA06164FEA0E
:1087E800C30343EA52734FEAC2025FEA1C1CC0D1BA
:1087F80011F4801F0BD141EA00014FF000004FF047
:10880800004CB6E711F4801F04BF01430020B4F107
:10881800FD0C88BFBCF5E06F3FF6AFAEB5EB030CBF
:1088280004BFB6EB020C5FEA500C50F1000041EBBC
:10883800045170BD0EF0004E4EEA113114EB5C0489
:10884800C2BFD4EB0C0541EA045170BD41F480115C
:108858004FF0000E013C90E645EA060E8DE60CEA64
:10886800135594EA0C0F08BF95EA0C0F3FF43BAF81
:1088780094EA0C0F0AD150EA01347FF434AF95EA38
:108888000C0F7FF425AF104619462CE795EA0C0F1C
:1088980006D152EA03353FF4FDAE1046194622E7E9
:1088A80050EA410618BF52EA43067FF4C5AE50EAC3
:1088B80041047FF40DAF52EA43057FF4EBAE12E7B3
:1088C8004FF0FF3C06E000BF4FF0010C02E000BF94
:1088D8004FF0010C4DF804CD4FEA410C7FEA6C5C77
:1088E8004FEA430C18BF7FEA6C5C1BD001B050EA1A
:1088F800410C0CBF52EA430C91EA030F02BF90EA05
:10890800020F0020704710F1000F91EA030F58BFC3
:10891800994208BF90422CBFD8176FEAE37040F025
:10892800010070474FEA410C7FEA6C5C02D150EAC3
:10893800013C07D14FEA430C7FEA6C5CD6D152EA7E
:10894800033CD3D05DF8040B704700BF8446104643
:1089580062468C461946634600E000BF01B5FFF742
:10896800B7FF002848BF10F1000F01BD4DF808ED12
:10897800FFF7F4FF0CBF012000205DF808FB00BFE3
:108988004DF808EDFFF7EAFF34BF012000205DF83D
:1089980008FB00BF4DF808EDFFF7E0FF94BF01208A
:1089A80000205DF808FB00BF4DF808EDFFF7CEFF8B
:1089B80094BF012000205DF808FB00BF4DF808EDCA
:1089C800FFF7C4FF34BF012000205DF808FB00BF9B
:1089D8004FEA410C7FEA6C5C02D150EA013C0AD1B3
:1089E8004FEA430C7FEA6C5C02D152EA033C02D1A5
:1089F8004FF0000070474FF0010070474FEA410206
:108A080012F5001215D211D56FF47873B3EB6252D8
:108A180012D94FEAC12343F0004343EA505311F0FF
:108A2800004F23FA02F018BF404270474FF0000091
:108A3800704750EA013005D111F0004008BF6FF0CF
:108A4800004070474FF00000704700BF4A0011D245
:108A580012F5001211D20DD56FF47873B3EB625290
:108A68000ED44FEAC12343F0004343EA505323FA9C
:108A780002F070474FF00000704750EA013002D111
:108A88004FF0FF3070474FF0000070474FEA410247
:108A9800B2F1E04324BFB3F5001CDCF1FE5C0DD954
:108AA80001F0004C4FEAC0024CEA5070B2F1004F9E
:108AB80040EB830008BF20F00100704711F0804FA1
:108AC80021D113F13872BCBF01F00040704741F466
:108AD80080114FEA5252C2F11802C2F1200C10FA6A
:108AE8000CF320FA02F018BF40F001004FEAC1234E
:108AF8004FEAD32303FA0CFC40EA0C0023FA02F3F2
:108B08004FEA4303CCE77FEA625307D150EA0133C7
:108B18001EBF4FF0FE4040F44000704701F0004097
:108B280040F0FE4040F40000704700BF70B50F4BA6
:108B38000F4DAB42A3EB050607D0B610002455F83D
:108B4800043B01349847A642F9D804F065FC094D66
:108B5800094B5E1BAB424FEAA60606D0002455F827
:108B6800043B01349847A642F9D870BD80D4000868
:108B780080D4000880D4000884D40008830730B566
:108B880047D0541E002A3ED0CAB2034601E0013C39
:108B980039D303F8012B9D07F9D1032C2CD9CDB279
:108BA80005EB05250F2C05EB054535D9A4F1100279
:108BB80022F00F0C03F1100EE6444FEA121C1A467D
:108BC800C2E90055C2E9025510327245F8D10CF1DC
:108BD800010214F00C0F03EB021204F00F0C13D077
:108BE800ACF1040323F003030433134442F8045B99
:108BF8009342FBD10CF003042CB1C9B21C4403F816
:108C0800011BA342FBD130BD64461346002CF4D1AE
:108C1800F9E703461446C0E71A46A446E0E700BF52
:108C2800014B1868704700BF00000020844641EAE5
:108C3800000313F003036DD1403A41D351F8043BCC
:108C480040F8043B51F8043B40F8043B51F8043B1E
:108C580040F8043B51F8043B40F8043B51F8043B0E
:108C680040F8043B51F8043B40F8043B51F8043BFE
:108C780040F8043B51F8043B40F8043B51F8043BEE
:108C880040F8043B51F8043B40F8043B51F8043BDE
:108C980040F8043B51F8043B40F8043B51F8043BCE
:108CA80040F8043B51F8043B40F8043B51F8043BBE
:108CB80040F8043B51F8043B40F8043B403ABDD22D
:108CC800303211D351F8043B40F8043B51F8043BCF
:108CD80040F8043B51F8043B40F8043B51F8043B8E
:108CE80040F8043B103AEDD20C3205D351F8043B5E
:108CF80040F8043B043AF9D2043208D0D2071CBF2A
:108D080011F8013B00F8013B01D30B880380604652
:108D1800704700BF082A13D38B078DD010F00303C8
:108D28008AD0C3F10403D21ADB071CBF11F8013B38
:108D380000F8013B80D331F8023B20F8023B7BE787
:108D4800043AD9D3013A11F8013B00F8013BF9D2B2
:108D58000B7803704B7843708B788370604670474C
:108D6800DFF834D000F026F80C480D490D4A0023EE
:108D780002E0D458C4500433C4188C42F9D30A4AC8
:108D88000A4C002301E013600432A242FBD3FFF730
:108D9800CDFE02F075F8FEE700A0002000000020DC
:108DA8006000002088D4000860000020844C002067
:108DB800FEE70000034AD2F8883043F47003C2F893
:108DC8008830704700ED00E02DE9F04F2DED088B5D
:108DD800B0F84030ADF60C5D044606468B46180BDD
:108DE80003F00F01C3F30315C3F30323069334F809
:108DF800423F07931E3006F14E070AAA8C4634F804
:108E0800023F103203F00F0142F8101CC3F30311A4
:108E180042F80C1CBC42C3F303214FEA133342F857
:108E2800081C42F8043CEAD121AC09AB614609941C
:108E3800984653F8042F072AC4BF103A1A60A34271
:108E4800F7D106F15E0C22AA37F8023F103203F080
:108E58000F0442F8104CC3F3031442F80C4CBC4501
:108E6800C3F303244FEA133342F8084C42F8043C96
:108E7800EAD121AB41AF53F8042F072AC4BF103AF7
:108E88001A609F42F7D101238B4007EE903AF8EE23
:108E9800E78AFFF789FA9FED7AAB42AC06F17E0CC0
:108EA800002241EC190B9FED7EBA019502940BF557
:108EB800805965464346144653F8042F069905938E
:108EC80002FA01FA079ACDE90345924442AA0892A8
:108ED80002EB840822AE2F4637F8023F019AB0EE23
:108EE800491AF0EE691AC3F3051307EE903AB0EE8B
:108EF8004A0AF0EE6A0A56F8043BF8EEE77A93401D
:108F08005344B3EE0F7AF4EEC77A08EE103AF1EE56
:108F180010FAC8BF77EECB7AB8EEC88AA8EEA78A4F
:108F2800FDF7CEFFD9ED956A99ED947ADBED067AD7
:108F380037EE267A55EC104B18EE100A27EEC78A42
:108F4800FFF754FA22462B46FFF7D2FBFFF79EFDA8
:108F580007EE900AB6EE007AE8EE077A17EE900A66
:108F6800FFF744FA0B46024647A1D1E90001FFF793
:108F7800BFFBFFF78BFD029B48F8040B9E42ABD169
:108F8800DDE90345059B099A934205F1400504F183
:108F9800200491D19DED428A43AB0DF60858F3ECBD
:108FA800017AF4EE487AF1EE10FAC8BFB0EE678A9B
:108FB8004345F4D118EE100AFFF718FA34A3D3E9A1
:108FC8000023FFF7DDFC8146002853D030A5D5E902
:108FD80000454FF0000938EE088A09F1010918EE3A
:108FE800100AFFF703FA22462B465FFA89F9FFF7C2
:108FF800C7FC0028EFD14846FFF7D6F941EC180B1B
:109008009FED1F9B0BF1480ACDF804B0254FCB46C6
:10901800C146DDF820800026B0EE481AF0EE681A46
:10902800B0EE490AF0EE690A58F8044BFDF748FF1C
:10903800204655EC104BFFF7D9F922462B46FFF78F
:109048002DFAFFF723FDFFF7D1F932463B46FFF72C
:109058006FF8FFF7FBFCC8452AF8020FDCD1D946A8
:10906800DDF804B08BF84A960DF60C5DBDEC088B64
:10907800BDE8F08F9FED088BC2E700BFAFF300801B
:1090880000000000000000408DEDB5A0F7C6B03E1E
:109098009A999999D9FFDF4000000000000000006C
:1090A800000080420000E03F2DE9F04F83462DED9F
:1090B800088B9BF96D30B0F86E00BBF86C4008EE79
:1090C800103AADF61C4D18EE102A002362F3070380
:1090D8000291010A61F30F23BBF8702064F3174370
:1090E8000DF1140A60F31F6302F00F01CAF8003093
:1090F80001238B4007EE903AC2F3031202F10800F5
:10910800B8EEE7BAFFF750F99FED75AB06AE00254C
:1091180041EC190B0BF1BE0BF2EE00BAB146039607
:10912800A84608F101074D46CDF80490ABF140047C
:10913800F0EE088AB94605E01AF9033008EE103A4D
:1091480009F1010934F8023FB0EE491AF0EE691A44
:10915800C3F3420307EE903AB0EE4A0AF0EE6A0A09
:10916800F8EEE77AB8EEC88AF4EEE87AF1EE10FA8B
:10917800C8BF77EEEB7AABEE278AFDF7A1FE57EC76
:10918800106B18EE100AFFF731F932463B46FFF72D
:10919800AFFAFFF77BFCC9F3401209F00103A345BE
:1091A80045F8040B03EB4203C6D1DDF8049008F13F
:1091B8002008B8F5407F0BF1400B09F1800906D073
:1091C800C8F340131AF9133008EE103AA9E79DEDD9
:1091D800068A039E07ABB0EEC88A0DF61847F3EC73
:1091E800017AF0EEE77AF4EE487AF1EE10FAC8BFA9
:1091F800B0EE678ABB42F2D118EE100AFFF7F6F814
:109208003BA3D3E90023FFF7BBFB8246002864D0C9
:1092180037A5D5E900454FF0000A38EE088A0AF16B
:10922800010A18EE100AFFF7E1F822462B465FFA0A
:109238008AFAFFF7A5FB0028EFD15046FFF7B4F8EC
:1092480041EC180B029BDFF8B0909FED259B03F6CD
:109258004B4B4FF000080CE0FFF7C8F842464B466E
:10926800FEF766FFFFF7CAFBBE4240B20BF8010FDC
:109278002AD0B0EE481AF0EE681AB0EE490AF0EEBD
:10928800690A56F8044BFDF71BFE204655EC104BB7
:10929800FFF7ACF822462B46FFF700F9FFF7F6FB7D
:1092A80007EE900AF5EEC07AF1EE10FAD4D5FFF782
:1092B8009DF842464B46FEF739FFFFF79FFBBE423B
:1092C80040B20BF8010FD4D1029B83F84CAF0DF6D6
:1092D8001C4DBDEC088BBDE8F08F9FED038BB1E70B
:1092E8000000000000000040000000000000000036
:1092F8003333333333B34F400000E03F0000000006
:109308002DE9F04F2DED048BB0F86830ADF6144D13
:109318001C0BB3F5004F0DF10C09019128BF103C4F
:10932800C3F303211D0548BF1039024689F802100E
:109338001806C3F3031148BF1039B2F8700089F852
:10934800011003F00F011B0748BF103964B289F8F8
:10935800004089F80310C0F30320FFF725F89FEDBC
:10936800669B41EC180B0DF1100A0DF190084FF0B7
:10937800000BA8F180070BF1010602E019F9034080
:109388000136B0EE481AF0EE681AB0EE490AF0EE6F
:10939800690AFDF795FD07EE904AF8EEE77A55EC75
:1093A800104B17EE900AFFF721F822462B46FFF7DD
:1093B8009FF9FFF76BFB47F8040BC6F3401206F062
:1093C8000103B84503EB4203D8D108F180080DF535
:1093D800496343450BF1200B04D0CBF3401319F933
:1093E8001340C6E79DED048A05ABB0EEC88A0DF5BB
:1093F8004168F3EC017AF0EEE77AF4EE487AF1EEA0
:1094080010FAC8BFB0EE678A9845F2D118EE100A74
:10941800FEF7ECFF3DA3D3E90023FFF7B1FA83463B
:10942800002864D039A5D5E900454FF0000B38EE87
:10943800088A0BF1010B18EE100AFEF7D7FF224637
:109448002B465FFA8BFBFFF79BFA0028EFD15846B3
:10945800FEF7AAFF41EC180B019B2B4F9FED269BB3
:1094680003F64C7900260CE0FEF7C0FF32463B4677
:10947800FEF75EFEFFF7C2FAD04540B209F8010FC9
:109488002AD0B0EE481AF0EE681AB0EE490AF0EEAB
:10949800690A5AF8044BFDF713FD204655EC104BAA
:1094A800FEF7A4FF22462B46FEF7F8FFFFF7EEFA79
:1094B80007EE900AF5EEC07AF1EE10FAD4D5FEF771
:1094C80095FF32463B46FEF731FEFFF797FAD04547
:1094D80040B209F8010FD4D1019B03F5805383F8FA
:1094E8004DB20DF6144DBDEC048BBDE8F08F9FED29
:1094F800048BB1E7AFF300800000000000000040DB
:1095080000000000000000000000E03F3333333368
:1095180033B34F400B464FF450724FF4105101F0E3
:10952800E3BA00BF10B582B00DF10603012248F27C
:109538000D01044601F0D8FA08B102B010BDBDF81B
:10954800062048F20D0142F400422046ADF80620FC
:1095580001F020FA0028F0D101F004FA0028ECD13B
:109568000DF10603012248F20D01204601F0BCFA74
:109578000028E2D1BDF90630002BB8BF6FF0080013
:10958800DBE700BF30B50546A3B00C4603E0BDF8E5
:10959800062012070BD40DF1060301224FF40041F7
:1095A800284601F0A1FA0028F1D023B030BD3022BE
:1095B8004FF40041284601F0EDF9431CF5D023464D
:1095C8004FF440724FF48061284601F08DFA00286C
:1095D800EBD102AB40224FF4E061284601F084FA57
:1095E8000028E2D101AB2846012248F20D0101F022
:1095F8007BFABDF80650BDF80430A4F8803605F0B3
:109608000105A4F882560028CFD1BDF8083047F6E6
:10961800FF718B4248D00DF116030BA833F8022FC7
:109628008A4241D09842F9D1BDF830308B423BD0C4
:10963800BDF832308B4237D0BDF834308B4233D04E
:109648000DF1360312A847F6FF7133F8022F8A424C
:109658002AD08342F9D10DF156031BA847F6FF71B2
:1096680033F8022F8A421FD09842F9D1BDF87030E2
:109678008B4219D0BDF872308B4215D0BDF87430CA
:109688008B4211D00DF176030DF1860047F6FF717C
:1096980033F8022F8A4207D08342F9D1802202A9E7
:1096A80004F5C060FFF7C2FA002347F6FF7102E035
:1096B8000133182B0AD09A01A25A8A42F8D103F032
:1096C8000102AA42F4D16FF007006EE728466CE762
:1096D8002DE9F04FB0F8663090F96720DFEDE06AC9
:1096E80063F0FF035B015201A3F500532DED028BDC
:1096F8000A804B80B0F864309A0A07EE902AF8EE98
:10970800E77AB3EE0F7AF4EEC77AF1EE10FAC8BF33
:109718009FEDDA7AC3F30903C8BF77EEC77A07EE7D
:10972800103AB8EEC78A9FEDCF7AB4EEC78A0746DB
:10973800F1EE10FA008CC8BF9FEDCB7AB7F86250F3
:10974800BFB000F470400C4667EEA68AC8BF38EE7A
:10975800478AFEF739FEC54B0022FEF79FFEC44B31
:109768000022FEF7E5FCFFF791F9A581B7F8603014
:10977800A382B7F87830C4ED018AB4EE007A43F3D7
:10978800072328EE078A07EE103A97F97830206108
:1097980007EE903AB7F8703084ED028AC3F30133CC
:1097A80084F824304FF6D872B7F87E302264B7F8C0
:1097B8007E20C3F30133C2F30312A4F8442003EB61
:1097C8008303B7F87E105B0012FB03F292B2C1F379
:1097D8000321A4F8442001FB03234FF4C872A4F822
:1097E8004630A4F84820B7F87E0097F97A30B7F8E1
:1097F8007A10B7F87C2000F00F00FAEEED7A05EE4B
:10980800103A08300123834041F3072106EE901AED
:10981800C4ED067A07EE903A97F97C30B7F87410E1
:10982800B7F84000B7F8728042F30722B8EEE66A4C
:1098380005EE903A06EE902AF8EEE55AF8EEE66A5A
:10984800F8EEE77AB8EEC55AC6EE274A894BE363C5
:109858008D05C1F3090348BFA3F580634FEA912240
:1098680048BF9BB2B1F5004F24BF403A92B21EB236
:1098780013441DB285EE274AC8F30903000B1B30B9
:109888004FEA982885EEA75A86EEA76A08EE103A9E
:10989800DFED747A84ED0B4AB8EEC88ABAEEE97A3D
:1098A800B4EEE78AF1EE10FAC8BFDFED6F7AC4EDC7
:1098B8000C4A84ED0D5A84ED0E6A84ED0A7AC8BF0D
:1098C80038EE678AFEF770FD9FED630B41EC110BD4
:1098D800FDF7F6FA5BEC10AB18EE100AFEF786FD02
:1098E80052465B46FEF704FFFFF7D0F807EE908A72
:1098F800F8EEE77AB3EE0F7AF4EEC77AF1EE10FAE3
:10990800C8BF9FED5E7AB7F87090B7F87680C8BF89
:1099180077EEC77A08EE900A9FED577AC9F30310DD
:10992800B7EE008A0830A7EE878AFEF73DFD9FED67
:109938004A0B41EC110BFDF7C3FA4FFA88F007EE1A
:10994800900AF8EEE77A5BEC10AB17EE900AFEF798
:109958004DFD52465B46FEF7CBFEFFF797F82062B7
:10996800C9F30320FEF720FD9FED3B0B41EC110BE3
:10997800FDF7A6FA48F3072007EE900AF8EEE77A13
:1099880059EC108B17EE900AFEF730FD4B46424615
:10999800FEF7AEFEFFF77AF804F5805A28EE888ABB
:1099A800E0612146AAF858623846CAED948A8AEDE1
:1099B800958AAAF85A52FFF707FA3E8C394606F0FC
:1099C8000F03019331F8229FC6F303130293C6F3E2
:1099D800032607F12E0006AA31F8023F103203F0E1
:1099E8000F0542F8105CC3F3031542F80C5C88427B
:1099F800C3F303254FEA133342F8085C42F8043CEA
:109A0800EAD105AA1DAD134653F8041F0729C4BFA0
:109A1800103919609D42F7D107F13E0C1EA99646F0
:109A280030F8023F103103F00F0241F8102CC3F355
:109A3800031241F80C2C8445C3F303224FEA133375
:109A480041F8082C41F8043CEAD172461DAB3DA808
:109A58001AE000BFAFF300800000000000000040E3
:109A6800000080390080FF43000080440000103F60
:109A78000000204017B751B90000003C00008042A8
:109A88000000803D0000004253F8041F0729C4BFAE
:109A9800103919609842F7D107F17E083EABCDE93D
:109AA800043804F24A604146BB4652F8043FB340CA
:109AB8004B449BB286461EAF8C4600933CF8028FFF
:109AC800B8F5004F4FEA9823A3F1400838BF0FFAC2
:109AD80083F8019B28BF0FFA88F808FA03F3039369
:109AE80057F8048B029B08FA03F8009B9844039BE1
:109AF8009844049B2EF8028F9F42DFD1954201F1D2
:109B0800400100F14000D0D121465846DDF81480CC
:109B1800FFF7CAFA21465846FFF7F2FBBBF86A304E
:109B2800BBF8142003F03F0107EE901AF8EEE77A2D
:109B3800B3EE0F7AF4EEC77AF1EE10FAC4BF1FED58
:109B4800317A77EEC77A1FED327AC3F3841167EE64
:109B5800876A07EE101AB8EEC77AB2EE0E6AB4EE4C
:109B6800C67AF1EE10FAC8BF5FED3A7A4FEAD3230E
:109B7800C8BF37EE677A07EE903AF8EEE77AB2EEAA
:109B88000E6AF4EEC67AF1EE10FAC4BF1FED436A0E
:109B980077EEC67A6FEA1212F6EE005AB4EE006A51
:109BA80041F2682302F0800227EE257A67EE867A72
:109BB80084F82520E5184FF0FF32CAED976A8AED40
:109BC800987ACAED997AE25000236A60AA60EA603E
:109BD8002A611E46184640F2FF2E38F8022F00F67A
:109BE800341C471C99B24AB9714524F81C10B8B204
:109BF8001ED0052800F0BA800133EEE706F63817C4
:109C0800D20704EB470706F1010C0FD5734579809D
:109C18001FFA8CF603F1010344D0052EDDD16FF055
:109C280003003FB0BDEC028BBDE8F08F7145E3D176
:109C3800052800F09B808319042B00F39180C0BB9A
:109C4800002E00F0878004F5935804F5935E0127F1
:109C580008F110080EF1120EB7423A461BDA38F82E
:109C680017C04FEA5C190CF01F0C3EF812304FEA8F
:109C7800531AA9EB5311A3EB4A1301319BB2ACEB76
:109C88000303022902F1010203F1010301D8022BA7
:109C980069D9B242E9DB01377B1E9BB29E42DBD811
:109CA800A8BB57E0052EBAD08319042B58DC00282E
:109CB800C9D000F1010904F593581FFA89F908F190
:109CC80006084FF0010E864572461ADA38F81E70FB
:109CD8004FEA571C07F01F0735F812304FEA531A9E
:109CE800ACEB5311A3EB4A1301319BB2FB1A0229C7
:109CF80002F1010203F1010301D8022B33D9824298
:109D0800EADB0EF1010EF145DDD1002E9BD104F501
:109D18009354103405EB400004EB4607E6B129885C
:109D280026464FEA511C01F01F0136F8022F53094D
:109D3800A2EB4313ACEB52129BB20132CB1A022AAC
:109D480003F1010301D8022B0DD9BE42EDD1023532
:109D58008542E4D1002064E702358542FCD1F9E769
:109D68006FF004005DE76FF005005AE76FF002003E
:109D780057E700BF00000000F8B52DED028BB0F8E2
:109D88008066054691F824009FED258B0C46FEF76A
:109D98000BFBB0EE480AF0EE680A41EC110BFDF738
:109DA8008FF8C6F38126304657EC106BFEF7FCFAA5
:109DB800B0EE480AF0EE680A41EC110BFDF780F8A6
:109DC800B5F9541653EC102B08EE101A30463946E4
:109DD800FEF78EFCFEF75AFEB4F9023007EE903A11
:109DE80006EE900AB4F90030B8EEC88AF8EEE77AC1
:109DF80007EE103AD8EE267AB8EEC77AC7EE877A19
:109E080017EE900AFEF7F2FA07A3D3E90023FEF74C
:109E18008FF9FEF73BFEBDEC028B00EE100AF8BD91
:109E280000000000000000406666666666660A403C
:109E38002DE9F84305460C46FFF79EFFB5F9403675
:109E480094ED046ADFED2A6A07EE103AB5F9003698
:109E580007EE903AB8EEC77AF8EEE77A10EE105AA5
:109E6800E7EE067A87EE276A66EE267A17EE900AFC
:109E7800FEF7BCFA064660680F46FEF7B7FA80465A
:109E880028468946FEF7B2FA17A3D3E90023FEF75E
:109E98004DF902460B4640464946FEF7FFFA154B78
:109EA8000022FEF745F902460B4630463946FEF7D2
:109EB8001FFC0646A0890F46FEF786FA02460B46A7
:109EC80030463946FEF732F9FEF7E0FD94ED027AA6
:109ED80006EE900A86EE870AF3EE097A30EE270A34
:109EE800BDE8F883AFF300806666666666660A407A
:109EF800000080480000F03F2DE9F04F2DED0E8B5B
:109F080093B0B0F8823603938A4610EE904A06461C
:109F180090460F90F0EE409AFFF72EFF30465146DC
:109F280010EE105AFFF784FF10EE100AB0EE409AB8
:109F3800FEF75CFA92A3D3E90023FEF7F9F8FEF7DF
:109F4800A5FD08EE100A2046FEF750FA8CA3D3E9C7
:109F58000023FEF7EDF8FEF799FD08EE900A68EE8B
:109F6800A88A28EE088A68EEA88A9AF84C0FB0EEFC
:109F7800687AA8EE487AB7EE008AC7EE297AB0EE7A
:109F880048DA78EEE78AFEF70FFA9FED770B41EC97
:109F9800110BFCF795FF51EC100BFEF777FD0AF556
:109FA80080530AEE100A93F84D020993FEF7FCF964
:109FB8009FED6D0B41EC110BFCF782FF51EC100B80
:109FC800FEF764FD0AEE900A9AF84A06FEF7ECF9E5
:109FD8009FED650B41EC110BFCF772FF51EC100B78
:109FE800FEF754FDDAED0B5A9FED637ABAF9462075
:109FF800B6F91416BAF94430DAED0D6AB6F88046A7
:10A008009AED0C6A0E90F0EE487AE5EE877A6409CC
:10A018000CEE902ABAF9142088EE27CA07EE102A07
:10A0280007EE901AB8EEC77AF8EEE77A1CEE901AA7
:10A0380087EE27BA04F080020C9207EE903ACB1A0A
:10A04800F8EEE7BA07EE903AB6F91016F8EEE77AA6
:10A05800F0EE48DAA6EEA7DA07EE901AF8EEE77AFD
:10A06800B6F9501667EE8B7AE6EE2BDA17EE900A01
:10A078000EEE101AFEF7BAF9099BF3EE097AB3F956
:10A08800583239EE679ADAED087A06462846A7EE7E
:10A09800898A0F460EEE903AFEF7A8F934A3D3E961
:10A0A8000023FEF743F8CDE90A01DAF81C00FEF7B1
:10A0B8009DF9DDE90A23FEF7F1F9F8EEEEEA2F4BF8
:10A0C8000022FEF735F86EEE887ACDE9000117EE2A
:10A0D800900AFEF78BF9DDE90023FEF7DFF9024667
:10A0E8000B4630463946FEF721F8B8EECEEAFEF7C1
:10A0F800CDFC9AF825300C9A10902EEE0BEA93427C
:10A108002DEE8DDA1EEE100A0D9300F0D081FEF7C9
:10A118006DF9099B93ED977AB3F95A3207EE903AA5
:10A12800F8EEE77A064677EE877A0F4667EE887A82
:10A138000AF14A0B17EE900AFEF758F9DDE90023F9
:10A14800FEF7ACF90B46024639463046FDF7EEFFFE
:10A15800FEF79CFC63B211900893CDF800800AF6D4
:10A168004C4700261CE000BF000000000000004033
:10A178006666666666660A40000020420000F03F98
:10A188006666666666127140009BB6F5407F03F10D
:10A19800040300930BF1020B07F1010700F0828121
:10A1A800089AC6F34018002AB1464346039ABCBF32
:10A1B80009F0010388EA03039A4206F10106E3D194
:10A1C8000F9B023BB7EE008A33F9163007EE903A40
:10A1D80097F90133F8EEE77A07EE103A67EE8B7AD3
:10A1E800B8EEC77A17EE900AC7EE2AEAFEF7FEF82D
:10A1F80097F90030CDE9040107EE903AF8EEE77AD6
:10A20800BBF9023687EE8A7A0EEE103AA9EE078A73
:10A218001EEE900AFEF7EAF8DDE90A23FEF73EF99A
:10A22800B8EECEEAAC4B0022FDF782FF6EEE087A5C
:10A23800044617EE900A0D46FEF7D8F802460B467C
:10A2480020462946FEF72AF902460B46DDE90401B5
:10A25800FDF76CFFFEF71AFCDDE90C2307EE900A08
:10A268009342B0EE677A30D0099B4FEA480893EDE5
:10A27800996A08F1FF3309F1030206EE903A002AC1
:10A2880009F102031146F8EEE66AB8BF09F10601C2
:10A298009B10A3EBA103E6EE267A12EA290238BF47
:10A2A8004A4603EBA603A3EBA203C8F1010813FB7C
:10A2B80008F35BB2B0EE677A07EE903A099BF8EEC6
:10A2C800E77AD3ED986AA6EEE77A039B0E98DAED63
:10A2D800066A12AA02EB830353ED027AA6EEE77A26
:10A2E800B7EE008A87EE29EAFEF780F876A3D3E96D
:10A2F8000023FEF7D3F80446BBF800000D46FEF72E
:10A3080063F802460B4620462946FEF7F1F9FEF7A8
:10A31800BDFB9AED0A7AA9EE078A07EE900A28EEA5
:10A32800278AB0EE4E7AA8EE887A68EE087A67EE49
:10A33800887A67EE877A17EE900AFEF757F841ECAD
:10A34800100BFCF757FEFCF755FEDAED0CEA1EEE93
:10A35800900A8DED040BFEF749F804461EEE100A2C
:10A368000D46FEF743F85AA3D3E90023CDE90601C9
:10A3780020462946FEF792F802460B460020564929
:10A38800FDF7D4FE804618EE100A8946FEF72EF82F
:10A3980002460B4640464946FEF780F822462B46C1
:10A3A80080468946DDE90401FEF778F8FEF76EFB82
:10A3B800FEF71CF802460B4640464946FDF7B8FE34
:10A3C80002460B46DDE90601FEF792F9044618EE4F
:10A3D800900A0D46FEF70AF802460B462046294623
:10A3E800FDF7A6FE41EC100BFCF704FEFCF702FE9D
:10A3F80037A3D3E9002351EC100BFDF797FEFEF7C6
:10A4080045FBBAF9423007EE103A07EE900AB8EE6B
:10A41800C77AB4EEE77AF1EE10FA2BDDBAF94030DC
:10A42800DAED0BEA07EE103A28EE0C8AB8EEC77A96
:10A4380077EEC77AB7EE007AA7EEAE7A67EE087ABB
:10A448008EEE277A77EE287A17EE900AFDF7CEFF80
:10A4580041EC100BFCF7CEFDFCF7CCFD1CA3D3E9B7
:10A46800002351EC100BFDF761FEFEF70FFB009B7C
:10A47800186089E6F4EEE7BAF1EE10FAD8DCB8EE27
:10A48800EC7AB4EEE77AF1EE10FA06DD28EE2D8AC2
:10A49800DAED0DEAB0EE6B7ACAE728EE0D8ADAED4E
:10A4A8000EEAC5E713B0BDEC0E8BBDE8F08FFDF7E3
:10A4B8009DFF099BB3F95A3207EE903A0646F8EE2B
:10A4C800E77A0F4632E600BF8DEDB5A0F7C6B03E7D
:10A4D80066666666661271400000F03F70B521F44A
:10A4E800006384B023B16FF00105284604B070BD45
:10A4F8000C460DF10603012241F2F411064600F064
:10A50800BFFA051EF1DBBDF806300B49029123F4B2
:10A5180000631C43A4B263BA062202A93046ADF810
:10A528000C30ADF8064000F0E3FA05460F2000F0C5
:10A53800F5FA284604B070BD3A2E11F470B521F42E
:10A54800807384B023B16FF00105284604B070BD54
:10A558000C460DF10603012241F2F411064600F003
:10A568008FFA051EF1DBBDF806300B49029123F482
:10A5780080731C43A4B263BA062202A93046ADF820
:10A588000C30ADF8064000F0B3FA05460F2000F095
:10A59800C5FA284604B070BD3A2E11F400B583B050
:10A5A8000DF10603012243F6144100F069FA002870
:10A5B800A4BFBDF80600C0F3002003B05DF804FB9B
:10A5C80010B582B001AB012243F22C41044600F0E1
:10A5D80057FA00280DDB0DF10603012243F614415A
:10A5E800204600F04DFA0028A4BFBDF80600C0F3CD
:10A5F800002002B010BD00BF00B5042283B0044B98
:10A6080001930DEB020100F073FA03B05DF804FB4F
:10A618000180000170B51E4615460B46142242F60D
:10A628000261044600F02CFA002813DB2B464FF495
:10A63800407242F62A61204600F022FA002809DB1F
:10A648003346204640F20132BDE8704043F22C41C7
:10A6580000F016BA70BD00BF014801F003BC00BF8E
:10A66800284C0020012919D010B5294B1B78013B33
:10A678000446212B18D8DFE803F0231717171717FC
:10A68800171717171717171717172D32393F1717D7
:10A698001717171717171717171717441D494FF0CC
:10A6A8000073082201F05CBB1B4B00221A700122C8
:10A6B80020461949BDE810404FF0007301F0D0BAA8
:10A6C800154B164800224FF001111A81C3E9000109
:10A6D8000A22EDE700F0CAFA0F4B1870E7E7104BB3
:10A6E8000D49187800F0F8FA2022E1E70C4B0A49E6
:10A6F800187800F04BFBF7E70A4A074B12781A70F4
:10A70800D5E700F00DF9044B40BA18800222CFE7D4
:10A7180054000020DC010020BC010020000303CB12
:10A72800B80100206D4B0020438D9BB2D3F1080384
:10A7380040D010B55348022B027809D0012B55D0D0
:10A74800302A5DD037D8022A6DD0202A44D010BDD7
:10A75800A2F11203012B39D9142A60D0203A122A07
:10A76800F5D801A353F822F057A7000857A7000807
:10A7780057A7000857A7000857A7000857A70008B9
:10A7880057A7000857A7000857A7000857A70008A9
:10A7980057A7000857A7000857A7000857A7000899
:10A7A80057A7000857A7000857A7000857A7000889
:10A7B8001DA800087047312AC9D1042BC7D1C27817
:10A7C80081784078BDE8104000F08EBC2E4C2F4BAD
:10A7D80041782270197010BD032BB8D1B0F8010070
:10A7E80040BABDE8104080B200F05EB8264B102A8F
:10A7F8001A7042D0212AAAD1BDE8104000F072B8E0
:10A80800042BA4D14188407849BABDE8104089B2E8
:10A8180000F05ABCBDE81040407800F09BBC1C4BCF
:10A8280042781A7010BD052B91D14378B02B8ED188
:10A838008378072B8BD1C3781D2B88D103795A2BAA
:10A8480085D1002000F086FC012000F083FC022066
:10A8580000F080FC032000F07DFC052000F0F0FCF7
:10A86800BFF34F8F0B490C4BCA6802F4E0621343E5
:10A87800CB60BFF34F8F00BFFDE7BDE8104000F08D
:10A8880085B900BFDC01002054000020B801002079
:10A898006D4B002000ED00E00400FA05704700BF92
:10A8A80001F0E0BA01F0DEBA00B5844685B00B4885
:10A8B8008DF80EC04FEA1C213223012200938DF837
:10A8C8000C20A0F800C08DF80D10032303AA9021D6
:10A8D800034801F02FF805B05DF804FB560000208E
:10A8E800D04B002000B50C4A118885B041F40041D6
:10A8F800080A32234FF0010C00938DF80D008DF8F3
:10A908000E10032303AA902104488DF80CC001F00F
:10A9180011F805B05DF804FB56000020D04B00206C
:10A9280010B584B0002132248DF80B100C48009427
:10A9380001230DF10B02902100F0FCFF10B1002063
:10A9480004B010BD06480094022303AA902101F028
:10A95800C9F80028F3D1BDF80C00C0BA04B010BD86
:10A96800D04B002000B585B032234FF0060C009381
:10A978000DF10F020123002105488DF80FC000F0EA
:10A98800D9FF003818BF0120404205B05DF804FB2C
:10A99800D04B002010B50B0A002463F3070484B0E1
:10A9A800130A61F30F2463F317440146322362F359
:10A9B8001F64009303AA042349000548039400F088
:10A9C800B9FF002814BF6FF00100002004B010BDCB
:10A9D800D04B002000B585B032234FF0060C009311
:10A9E8000DF10F020123002105488DF80FC000F07A
:10A9F800A1FF003818BF0120404205B05DF804FBF4
:10AA0800D04B0020F0B500230D46090A61F3070377
:10AA1800144665F30F23120A87B062F31743460002
:10AA280064F31F633227059314480097042305AA8B
:10AA3800314600F07FFFE8B96DBA1048009702234D
:10AA480003AA3146ADF80C5000F074FF90B90B48DA
:10AA58000097022304AA314601F044F850B9BDF822
:10AA680010305BBA9BB2A34214BF6FF00100002004
:10AA780007B0F0BD4FF0FF30FAE700BFD04B002021
:10AA88002DE9F04184B0460049BA322715461C46E4
:10AA9800ADF8081013480097022302AA314600F0C7
:10AAA80049FFA8B9CDB1DFF83C8004EB450506E0C5
:10AAB800BDF80C2052BA24F8022BAC420DD00097F6
:10AAC800022303AA3146404601F00CF80028EFD0D3
