:020000040800F2
:1050000000A0002061700008B1700008B1700008B5
:10501000B1700008B1700008B17000080000000015
:10502000000000000000000000000000B170000857
:10503000B170000800000000B1700008B1700008F5
:10504000B1700008B1700008B1700008B1700008BC
:10505000B1700008B1700008B1700008B1700008AC
:10506000B1700008B1700008B1700008B17000089C
:10507000B1700008B1700008B1700008B17000088C
:10508000B1700008B1700008B1700008B17000087C
:10509000B1700008B1700008B1700008B17000086C
:1050A000B1700008B1700008B1700008B17000085C
:1050B000B1700008B1700008B1700008258E0008BA
:1050C000318E0008B1700008B1700008B17000089E
:1050D000B1700008B1700008B1700008B17000082C
:1050E000B1700008B1700008B1700008B17000081C
:1050F000B1700008B1700008B1700008B17000080C
:10510000000000000000000000000000B170000876
:10511000B1700008B1700008B1700008B1700008EB
:10512000B1700008B1700008B1700008B1700008DB
:10513000B1700008B170000800000000000000001D
:10514000B1700008B1700008B170000800000000E4
:10515000000000000000000000000000000000004F
:105160000000000000000000B1700008B1700008ED
:10517000B170000800000000000000000000000006
:0851800000000000B1700008FE
:105188000348044B834202D0034B03B118477047CE
:105198006000002060000020000000000548064B69
:1051A8001B1AD90F01EBA301491002D0034B03B11D
:1051B80018477047600000206000002000000000D1
:1051C80010B5064C237843B9FFF7DAFF044B13B147
:1051D8000448AFF300800123237010BD6000002055
:1051E800000000005CB2000808B5044B1BB104497C
:1051F8000448AFF30080BDE80840CFE70000000096
:10520800640000205CB20008F8B52DED028B55EC67
:10521800114B57EC106B00F0A3F822462B462046A2
:105228002946B0EE408AF0EE608A01F04DFD78B96B
:10523800002200233046394601F014FDF0B1002267
:1052480000232046294601F00DFD40B19FED288B33
:10525800B0EE480AF0EE680ABDEC028BF8BD45ECEA
:10526800104B00F07DFF0028F2D0002200232046DA
:10527800294601F001FD0028EAD02EE0B0EE480AE8
:10528800F0EE680A00F06CFFA0B151EC180B002298
:10529800002301F0E7FC0028DAD047EC106B00F09F
:1052A8005FFF0028D4D045EC104B00F059FF0028D0
:1052B800CED012E047EC106B00F052FF0028E4D08B
:1052C80045EC104B00F04CFF0028DED053EC182BB7
:1052D80051EC180B01F0F8FC20B901F01DFE222357
:1052E8000360B5E701F018FE21230360B0E700BFB3
:1052F800000000000000F03F38B52DED028B55ECA2
:10530800104B00F037FE22462B4620462946B0EEC9
:10531800408AF0EE608A01F0D7FC30B90022002301
:105328002046294601F0A8FC30B9B0EE480AF0EE54
:10533800680ABDEC028B38BD01F0EEFD00220023A7
:10534800212101601046194601F04EFB41EC180B73
:10535800B0EE480AF0EE680ABDEC028B38BD00BF1B
:105368002DE9F04F55EC114B25F0004353EA0400AA
:1053780057EC106B93B012D1B3198D4987F4002202
:1053880052419842914120D222462B463046394616
:1053980001F04AF841EC100B13B0BDE8F08F8548D6
:1053A80027F0004A8245B846314613D908F14048EB
:1053B80008F5801858EA0108E6D123197C4985F4D4
:1053C8000022524198459141DED39FED770B13B0EF
:1053D800BDE8F08FA946224616D08342E6D850464B
:1053E80000F0B680B8F1000F16DB002A40F0C58047
:1053F800DFF8CCC1634540F0FD83B9F1000FC0F27E
:10540800068547EC106BC7E7002EBDD15345BBD8C6
:1054180000F024845046E5E7DFF8A8C1634500F2B0
:10542800E383DFF898C1634542D8002A40F012842C
:10543800B9F1804F33D0934647EC106B049102903A
:10544800009300F099FE0499009B0298002953D01C
:105458004FEAD872013A52EA0B0100F0A0800BF132
:10546800FF3B5BEA020B00F0BA839FED4F7B8DEDAB
:10547800067BB3F1844F40F2A7804F4A93424F4BCB
:1054880040F226849A4500F2DA84B9F1000FC0F29E
:10549800DA84002013B0BDE8F04F00F0A1BE324618
:1054A8003B463046394601F075F941EC100B73E77D
:1054B8004FEA235CACF2FF3CBCF1140F40F38C8440
:1054C800CCF1340C22FA0CFE0EFA0CFC944500F0D8
:1054D8000185002A40F0BE83B9F1804F0491029003
:1054E8000093DCD047EC106B00F046FE0499009B5B
:1054F8000298002953D18B46314A28F04041914205
:1055080002D0BAF1000FA3D1B9F1000F07DA53ECBA
:10551800102B2B49002001F067FA41EC100BB8F171
:10552800000FBFF639AF0AF1404A0AF5801A5AEA65
:105538000B0A40F0768453EC102B1046194600F005
:1055480071FF02460B4601F04FFA41EC100B23E7BE
:10555800002C7FF42BAF0AF1404303F5801333434B
:105568003FF433AF154B9A4540F22884B9F1000F48
:10557800C0F29F8445EC104B0EE74FF0000B47EC50
:10558800106B04910290009300F0F6FD0499009BC3
:1055980002980029B0D04FEAD872013A5FE7324644
:1055A8003B46CAE7AFF30080000000000000F03F70
:1055B8000000F0FF0000F07F0000F043FFFFEF3F26
:1055C8000000F03FFFFF3F43DB4B08EA03030022E4
:1055D80053B951EC100BD94B01F0DCF841EC100B2E
:1055E80010EE900A6FF034020315A3F2FF339A18F5
:1055F800D34B0B92C0F3130040F07F56984246F409
:10560800401640F3CD83CF4B984240F322849FED60
:10561800B47B8DED087B9FEDB47B8DED047B9FED16
:10562800B07B8DED107B01320B92A6F5801600271A
:1056380053EC102B92465046DDE90423314600F026
:10564800F1FEB346DDE904238046894650463146DB
:10565800CDE90CAB00F0E8FE02460B460020BA4943
:1056680001F0C2F98C46834663465A46404649468D
:10567800CDE90EBC01F08EF80A460146CDE90012CC
:10568800CDE90212002100917610DDE900AB46F069
:10569800005606F500230020D91906460F46024693
:1056A8000B465046594601F075F802460B464046EF
:1056B800494600F0B7FEDDE90423804689463046B6
:1056C800394600F0AFFE02460B46DDE90C0100F05A
:1056D800A9FE52465B4601F05DF802460B4640467D
:1056E800494600F09FFEDDE90E2301F053F8DDE99D
:1056F8000267CDE9040132463B463046394601F09F
:1057080049F87BA3D3E9002306460F4601F042F887
:1057180079A3D3E9002300F087FE32463B4601F027
:1057280039F877A3D3E9002300F07EFE32463B46E2
:1057380001F030F874A3D3E9002300F075FE324677
:105748003B4601F027F872A3D3E9002300F06CFE72
:1057580032463B4601F01EF86FA3D3E9002300F060
:1057680063FE3246804689463B463046394601F05C
:1057780011F802460B464046494601F00BF85246DE
:1057880006460F465B46DDE9020100F04DFEDDE905
:10579800042300F0FFFF32463B4600F045FE524628
:1057A80006460F465B465046594600F0F3FF674BE6
:1057B80000228046894600F037FE32463B46CDE956
:1057C8000C6700F031FE00260F4632463B46504635
:1057D800594600F0DFFF5D4B82468B46002230467B
:1057E800394600F01FFE42464B4600F01BFE0246BB
:1057F8000B46DDE90C0100F015FEDDE9022300F09F
:10580800C9FF3246804689463B46DDE9040100F07F
:10581800C1FF02460B464046494600F005FE804659
:10582800894642464B465046594600F0FDFD002643
:105838003BA3D3E9002330460F4600F0ABFF5246A6
:105848005B4682468B463046394600F0EBFD024601
:105858000B464046494600F0E5FD33A3D3E9002353
:1058680000F098FF02460B463046394616461F465A
:105878002FA3D3E9002300F08DFF02460B463046E4
:10588800394600F0D1FDDDE9102300F0CDFD80465A
:105898000B98894600F014FF424606460F464B46D1
:1058A80050465946CDE902AB00F0BEFDDDE90823BC
:1058B80000F0BAFD32463B4600F0B6FD0020324605
:1058C8003B4682468B4600F0ADFDDDE9082300F03B
:1058D800A9FDDDE9022300F0A5FD39E0AFF3008062
:1058E8000000000000000000000000000000F03F81
:1058F800EF4E454A287ECA3F65DBC9934A86CD3FAD
:1059080001411DA96074D13F4D268F515555D53F92
:10591800FFAB6FDBB66DDB3F033333333333E33F2A
:10592800000000E009C7EE3FFD033ADC09C7EE3F7F
:10593800F5015B14E02F3EBE0000F07F00004043FD
:105948008E98030079B60B000000F03F0000084075
:1059580002460B464046494600F064FDCDE9020187
:105968000023CDE900450093DDE900892046424641
:1059780029464B4600F056FD52465B4600F00AFFAA
:10598800224606460F462B46DDE9020100F002FFDB
:1059980002460B463046394600F046FD424604466C
:1059A8000D464B4650465946CDE9024500F0F2FEF9
:1059B80006460F46204629463B46324600F034FD4F
:1059C800BD4B994204460D46884640F3238101F1B8
:1059D8003F4303F5E003034340F05382A2A3D3E916
:1059E8000023DDE9020100F01FFD02460B462046B8
:1059F800294614461D4632463B4600F013FD024632
:105A08000B462046294601F055F9002840F0398216
:105A18004FF400734344C3F30A52A84CA2F2FF3276
:105A28001441C3F3130AC2F11402002004EA03016B
:105A38004AF4801A4AFA02FA0B460246B8F1000FF5
:105A480030463946B8BFCAF1000A00F0EBFC0246FE
:105A58000B4606460F46DDE9020100F0E5FC4FEA79
:105A68000A5B0D46002482A3D3E900232046294679
:105A780000F090FE3246804689463B46204629463D
:105A880000F0D0FC02460B46DDE9020100F0CAFC3A
:105A980079A3D3E9002300F07DFE02460B46204699
:105AA800294614461D4676A3D3E9002300F072FE6A
:105AB80002460B462046294600F0B6FC06460F462D
:105AC80032463B464046494600F0AEFC42464B460D
:105AD80004460D4600F0A6FC02460B463046394601
:105AE80000F0A0FC2246804689462B4620462946DF
:105AF80000F050FE64A3D3E9002306460F4600F0E9
:105B080049FE63A3D3E9002300F08CFC32463B46F0
:105B180000F040FE60A3D3E9002300F085FC324684
:105B28003B4600F037FE5EA3D3E9002300F07AFC81
:105B380032463B4600F02EFE5BA3D3E9002300F07B
:105B480073FC32463B4600F025FE02460B462046D3
:105B5800294600F067FC06460F4632463B4620467B
:105B6800294600F017FE02460B46304639461646CF
:105B78001F4600224FF0804300F054FC02460B46BB
:105B88003046394600F030FF424606460F464B463F
:105B98002046294600F0FEFD42464B4600F044FCF4
:105BA80002460B463046394600F03CFC22462B465E
:105BB80000F038FC0B4602464149002000F032FC58
:105BC8000B465B44B3F5801FC0F253811946DDE9EB
:105BD800062300F0DFFD41EC100BFFF7DDBB9FED66
:105BE800347B8DED067B44E44FF0020B002A7FF4F2
:105BF800C6AC21E4B9F1804F3FF451ACDFF8C8C01E
:105C0800E1457FF418AC47EC106B13B0BDE8F04FDA
:105C180000F0B0B9DFF8B4C021F00043634540F2AA
:105C2800ED80284B0B4403430AD132463B4600F033
:105C3800F9FBDDE9022301F033F800283FF4E8AE70
:105C4800DDE906010022002301F016F8003818BF2C
:105C580001201FE404910290009343E4002C7FF498
:105C680093AB7FE4AFF30080FE822B654715973C2A
:105C780000000000432EE63FEF39FAFE422EE63FD1
:105C8800396CA80C615C20BED0A4BE726937663E30
:105C9800F16BD2C541BDBB3E2CDE25AF6A56113F24
:105CA80093BDBE166CC1663F3E5555555555C53F0B
:105CB800000000000000F0BFFFFF8F400000F0FF71
:105CC8000000F03F00346F3F0000E03FFFCB904002
:105CD8009A45C0F0E080A44B9A454FF0000200F2CC
:105CE800EC8051EC100BA04B00F09CFB8CA3D3E98B
:105CF800002306460F4600F04DFD8BA3D3E9002391
:105D0800804689463046394600F044FD974B824626
:105D18008B4600223046394600F03CFD02460B46D1
:105D280083A1D1E9000100F07DFB32463B4600F03B
:105D380031FD02460B4600208D4900F073FB3246C8
:105D4800CDE900013B463046394600F023FD0246C6
:105D58000B46DDE9000100F01DFD77A3D3E9002320
:105D680000F018FD02460B465046594600F05AFB13
:105D780006460F4632463B464046494600F054FB2D
:105D8800002042464B4682468B4600F04BFB0246BB
:105D98000B463046394600F045FBCDE90201DFE508
:105DA8009FED677B8DED087B9FED677B8DED047B19
:105DB8009DED087B00278DED107B39E4B9F1000FCC
:105DC8009FED5F0BBFF6E8AA05F1004300EE104A0D
:105DD80000EE903AFFF7E0BA002A7FF43BAFCCF12F
:105DE800140C43FA0CFE0EFA0CFC9C4579D0DFF833
:105DF80078C163453FF401ABFFF71ABB5C4A934295
:105E080000F28580DDE90023934692462AE656494A
:105E1800002032463B4600F0E7FD41EC100BFFF74F
:105E2800BBBABBF1010F7FF4B7AA10EE901A10EEBF
:105E3800102A01F1004343EC102BFFF7ADBAB9F17A
:105E4800000F7FF726AB002013B0BDE8F04F00F03D
:105E5800D7B99FED3F7B8DED087B9FED3F7B8DEDA7
:105E6800107B9FED3F7B4FF480278DED047BFFF780
:105E7800DFBB41EC100B504600F046FA51EC100B1A
:105E8800A5E6DDE906010022002300F0F5FE003852
:105E980018BF0120D8E7DDE906010022002300F041
:105EA800EBFE003818BF0120B9F1000FBFF6F2AAC7
:105EB800CAE79FED230BFFF76FBADDE90601002360
:105EC80000F0DAFE003818BF0120B9F1000FBBDC82
:105ED800FFF7E0BA9AB10EF0010ECEF1020BFFF710
:105EE8004EBB214A93423FF488AAB9F1804F3FF450
:105EF800D6AA0EF0010ECEF1020BFFF79DBAB9F14A
:105F0800804F3FF4CCAA4FF0020BFFF795BA1B1550
:105F1800A3F2FE334FF4801242FA03F37AE500BF8E
:105F2800000000604715F73F44DF5DF80BAE543EB4
:105F3800555555555555D53FFE822B654715F73FA5
:105F48000000000000000000000000000000F03F1A
:105F58000000004003B8E23F06D0CF43EBFD4C3EC3
:105F6800000000000000F83F0000F03F0000D03FB4
:105F78000000E03F2DE9F047774855EC104BA84367
:105F880000F0A480002D21462A46234656DD2C1514
:105F980000F0D080C2F31302E107A4F2FF3742F405
:105FA800801203D4D90F01EB42025B005200002695
:105FB80002EBD3727F105B001624B4464FF4001135
:105FC8000CEB010090424FEAD3754FEA430303DC20
:105FD80000EB010C121A0E44013C05EB42024FEA99
:105FE8005101EDD1A04620254FF000400AE03CD0F9
:105FF800510001EBD371013D0A464FEA43034FEAD2
:1060080050003ED0944508EB000EF0DABEF1000FC8
:106018000EEB00080CDBE146A2EB0C019E4588BFA5
:1060280001F1FF314900CC46A3EB0E030444E0E73D
:10603800B8F1000FEFDB0CF10109EDE725F00040A6
:1060480020433DD0002D68D1D90A153A5B050029B7
:10605800FAD0CE02144618460A466CD520254FF0D1
:10606800FF31E840641A024394E79E4502D94FEA9B
:106078004C01BEE7BEF1000F0EEB000822DB002149
:10608800D2E7194310D0DFF8D4A0DAE90001DAE941
:10609800022300F0C7F9DAE9008902460B464046B8
:1060A800494600F0F3FDF8B96508711001F17F5118
:1060B80001F5001101EB075345EAC67243EC102BBA
:1060C800BDE8F087B8F1000FB5DAD8E722462B46CD
:1060D8002046294600F05EFB22462B4600F0A4F934
:1060E80041EC100BBDE8F087B4F1FF3FDAE900019D
:1060F800DAE902232BD000F097F9DAE900890246A1
:106108000B464046494600F0B7FD10B3A31C04F106
:10611800020508BF01366D08C7E722462B46204610
:10612800294600F07FF902460B4600F05DFC41EC81
:10613800100BC5E7084600235200D502194603F1A3
:106148000103F9D5C3F1200500FA03F389E7013605
:10615800ABE70134A8E700BF0000F07F78B2000881
:1061680082B08DED000B019840F0004000F58010E2
:10617800C00F02B0704700BF51EC100B024621F06F
:10618800004343EC102B704710B52DED028BB0EE99
:10619800408AF0EE608A044600F0BEFEB0EE480A7F
:1061A800F0EE680ABDEC028B046010BD00B5034632
:1061B80083B051EC100B7BB1024601F10043CDE9ED
:1061C8000023DDE9002300F0E5FA41EC100B222062
:1061D80003B05DF804EBD7E702460B46EFE700BFD4
:1061E8009FED010BE2E700BF000000000000001077
:1061F8009FED010BDAE700BF000000000000581E09
:106208009FED010BD2E700BF000000000000007006
:1062180000B5002283B078B1084BCDE90023DDE951
:1062280000010022002300F0DFFB41EC100B2220CC
:1062380003B05DF804EBA7E7014BEEE70000F0BF01
:106248000000F03F38B555EC104B2DED028B22467F
:106258002B462046294600F0E5F802460B4600F09A
:10626800C3FB224641EC180B2B462046294600F07A
:106278002BFDB0EE480AF0EE680A28B9BDEC028B97
:106288002120BDE838407FE7BDEC028B38BD00BF58
:1062980008B551EC100B2DED028BB0EE408AF0EEF4
:1062A800608A0022002300F0DDFCB0EE480AF0EE20
:1062B800680A10B9BDEC028B08BDBDEC028B222028
:1062C800BDE8084060E700BFF8B555EC104B25F075
:1062D80000470C4B4FF0FF322046394600F0F4FCE3
:1062E80038B9084B204639464FF0FF3200F0CEFC53
:1062F80010B145EC104BF8BD45EC104B2220BDE821
:10630800F84041E7FFFFEF7F70B555EC104BC5F340
:106318000A5206462B4672BB25F00043234329D078
:106328003B4B20462946002200F034FA394B9E4266
:1063380004460D4652DBC1F30A520B46363A4CF27C
:1063480050318E4223DC164440F2FE7296421EDC27
:10635800002E34DC16F1350F38DB6FF31E5336365A
:1063680043EA065520462C4B2946002200F012FA33
:1063780041EC100B70BD40F2FF718A42DFD122461A
:106388002046294600F050F841EC100B70BD002D56
:1063980017A1D1E9000107DB15A3D3E9002300F019
:1063A800F9F941EC100B70BD13A1D1E9000110A35C
:1063B800D3E9002300F0EEF941EC100BF3E76FF39B
:1063C8001E5343EA065545EC104B70BD002D0CA139
:1063D800D1E9000102DA0CA1D1E9000108A3D3E94F
:1063E800002300F0D7F941EC100B70BDAFF300802B
:1063F8009C7500883CE4377E9C7500883CE437FE39
:1064080059F3F8C21F6EA50159F3F8C21F6EA58192
:1064180000005043B03CFFFF0000903C81F0004179
:1064280002E000BF83F0004330B54FEA41044FEA71
:10643800430594EA050F08BF90EA020F1FBF54EA0C
:10644800000C55EA020C7FEA645C7FEA655C00F0A8
:10645800E2804FEA5454D4EB5555B8BF6D420CDD79
:106468002C4480EA020281EA030382EA000083EAFC
:10647800010180EA020281EA0303362D88BF30BD9C
:1064880011F0004F4FEA01314FF4801C4CEA1131F2
:1064980002D0404261EB410113F0004F4FEA033351
:1064A8004CEA133302D0524263EB430394EA050FDC
:1064B80000F0A780A4F10104D5F1200E0DDB02FA4B
:1064C8000EFC22FA05F2801841F1000103FA0EF2DF
:1064D800801843FA05F359410EE0A5F120050EF1A5
:1064E800200E012A03FA0EFC28BF4CF0020C43FAD6
:1064F80005F3C01851EBE37101F0004507D54FF0E3
:10650800000EDCF1000C7EEB00006EEB0101B1F532
:10651800801F1BD3B1F5001F0CD349085FEA300078
:106528004FEA3C0C04F101044FEA445212F5800F83
:1065380080F09A80BCF1004F08BF5FEA500C50F120
:10654800000041EB045141EA050130BD5FEA4C0C03
:10655800404141EB0101013C28BFB1F5801FE9D260
:1065680091F0000F04BF01460020B1FA81F308BF83
:106578002033A3F10B03B3F120020CDA0C3208DD4F
:1065880002F1140CC2F10C0201FA0CF021FA02F12A
:106598000CE002F11402D8BFC2F1200C01FA02F19A
:1065A80020FA0CFCDCBF41EA0C019040E41AA2BFBF
:1065B80001EB0451294330BD6FEA04041F3C1CDA87
:1065C8000C340EDC04F11404C4F1200220FA04F0A7
:1065D80001FA02F340EA030021FA04F345EA030151
:1065E80030BDC4F10C04C4F1200220FA02F001FA13
:1065F80004F340EA0300294630BD21FA04F0294695
:1066080030BD94F0000F83F4801306BF81F480112D
:106618000134013D4EE77FEA645C18BF7FEA655CA0
:1066280029D094EA050F08BF90EA020F05D054EA72
:10663800000C04BF1946104630BD91EA030F1EBF77
:106648000021002030BD5FEA545C05D1400049417B
:1066580028BF41F0004130BD14F580043CBF01F56E
:10666800801130BD01F0004545F0FE4141F4700154
:106678004FF0000030BD7FEA645C1ABF194610462F
:106688007FEA655C1CBF0B46024650EA013406BF30
:1066980052EA033591EA030F41F4002130BD00BFEF
:1066A80090F0000F04BF0021704730B54FF48064AC
:1066B80004F132044FF000054FF0000150E700BF2D
:1066C80090F0000F04BF0021704730B54FF480648C
:1066D80004F1320410F0004548BF40424FF0000179
:1066E8003EE700BF42004FEAE2014FEA31014FEABC
:1066F80002701FBF12F07F4393F07F4F81F060510B
:10670800704732F07F4208BF704793F07F4F04BF55
:1067180041F40021704730B54FF4607401F0004532
:1067280021F000411CE700BF50EA010208BF704792
:1067380030B54FF000050AE050EA010208BF704783
:1067480030B511F0004502D5404261EB41014FF4EC
:10675800806404F132045FEA915C3FF4D8AE4FF0F4
:1067680003025FEADC0C18BF03325FEADC0C18BFD7
:10677800033202EBDC02C2F1200300FA03FC20FA28
:1067880002F001FA03FE40EA0E0021FA02F1144475
:10679800BDE600BF70B54FF0FF0C4CF4E06C1CEA8E
:1067A80011541DBF1CEA135594EA0C0F95EA0C0FFF
:1067B80000F0DEF82C4481EA030621EA4C5123EA72
:1067C8004C5350EA013518BF52EA033541F48011A1
:1067D80043F4801338D0A0FB02CE4FF00005E1FB54
:1067E80002E506F00042E0FB03E54FF00006E1FB9E
:1067F80003569CF0000F18BF4EF0010EA4F1FF04E1
:10680800B6F5007F64F5407404D25FEA4E0E6D4120
:1068180046EB060642EAC62141EA55514FEAC52031
:1068280040EA5E504FEACE2EB4F1FD0C88BFBCF5AD
:10683800E06F1ED8BEF1004F08BF5FEA500E50F15E
:10684800000041EB045170BD06F0004646EA010124
:1068580040EA020081EA0301B4EB5C04C2BFD4EB56
:106868000C0541EA045170BD41F480114FF0000E4F
:10687800013C00F3AB8014F1360FDEBF002001F0BD
:10688800004170BDC4F10004203C35DA0C341BDC37
:1068980004F11404C4F1200500FA05F320FA04F009
:1068A80001FA05F240EA020001F0004221F000413D
:1068B80010EBD37021FA04F642EB06015EEA430EB0
:1068C80008BF20EAD37070BDC4F10C04C4F12005E0
:1068D80000FA04F320FA05F001FA04F240EA020093
:1068E80001F0004110EBD37041F100015EEA430E64
:1068F80008BF20EAD37070BDC4F1200500FA05F284
:106908004EEA020E20FA04F301FA05F243EA020302
:1069180021FA04F001F0004121FA04F220EA020011
:1069280000EBD3705EEA430E08BF20EAD37070BD57
:1069380094F0000F0FD101F00046400041EB010137
:1069480011F4801F08BF013CF7D041EA060195F019
:10695800000F18BF704703F00046520043EB0303D3
:1069680013F4801F08BF013DF7D043EA06037047C0
:1069780094EA0C0F0CEA135518BF95EA0C0F0CD0CB
:1069880050EA410618BF52EA4306D1D181EA030111
:1069980001F000414FF0000070BD50EA410606BF0B
:1069A8001046194652EA430619D094EA0C0F02D150
:1069B80050EA013613D195EA0C0F05D152EA033695
:1069C8001CBF104619460AD181EA030101F00041B3
:1069D80041F0FE4141F470014FF0000070BD41F0FC
:1069E800FE4141F4780170BD70B54FF0FF0C4CF4D6
:1069F800E06C1CEA11541DBF1CEA135594EA0C0FF5
:106A080095EA0C0F00F0A7F8A4EB050481EA030E41
:106A180052EA03354FEA013100F088804FEA033328
:106A28004FF0805545EA131343EA12634FEA0222F6
:106A380045EA111545EA10654FEA00260EF00041B7
:106A48009D4208BF964244F1FD0404F5407402D209
:106A58005B084FEA3202B61A65EB03055B084FEA9A
:106A680032024FF480104FF4002CB6EB020E75EB97
:106A7800030E22BFB61A754640EA0C005B084FEABF
:106A88003202B6EB020E75EB030E22BFB61A75463C
:106A980040EA5C005B084FEA3202B6EB020E75EB87
:106AA800030E22BFB61A754640EA9C005B084FEAFF
:106AB8003202B6EB020E75EB030E22BFB61A75460C
:106AC80040EADC0055EA060E18D04FEA051545EAFB
:106AD80016754FEA06164FEAC30343EA52734FEAA4
:106AE800C2025FEA1C1CC0D111F4801F0BD141EA1D
:106AF80000014FF000004FF0004CB6E711F4801F82
:106B080004BF01430020B4F1FD0C88BFBCF5E06F61
:106B18003FF6AFAEB5EB030C04BFB6EB020C5FEA71
:106B2800500C50F1000041EB045170BD0EF0004EC6
:106B38004EEA113114EB5C04C2BFD4EB0C0541EAF8
:106B4800045170BD41F480114FF0000E013C90E6F5
:106B580045EA060E8DE60CEA135594EA0C0F08BFB9
:106B680095EA0C0F3FF43BAF94EA0C0F0AD150EAB8
:106B780001347FF434AF95EA0C0F7FF425AF10464B
:106B880019462CE795EA0C0F06D152EA03353FF473
:106B9800FDAE1046194622E750EA410618BF52EAF0
:106BA80043067FF4C5AE50EA41047FF40DAF52EAC4
:106BB80043057FF4EBAE12E74FF0FF3C06E000BF61
:106BC8004FF0010C02E000BF4FF0010C4DF804CD6E
:106BD8004FEA410C7FEA6C5C4FEA430C18BF7FEA2E
:106BE8006C5C1BD001B050EA410C0CBF52EA430C5C
:106BF80091EA030F02BF90EA020F0020704710F1DC
:106C0800000F91EA030F58BF994208BF90422CBF6A
:106C1800D8176FEAE37040F0010070474FEA410C63
:106C28007FEA6C5C02D150EA013C07D14FEA430C81
:106C38007FEA6C5CD6D152EA033CD3D05DF8040BF2
:106C4800704700BF8446104662468C461946634624
:106C580000E000BF01B5FFF7B7FF002848BF10F1FB
:106C6800000F01BD4DF808EDFFF7F4FF0CBF012040
:106C780000205DF808FB00BF4DF808EDFFF7EAFFBC
:106C880034BF012000205DF808FB00BF4DF808ED77
:106C9800FFF7E0FF94BF012000205DF808FB00BF6C
:106CA8004DF808EDFFF7CEFF94BF012000205DF8F6
:106CB80008FB00BF4DF808EDFFF7C4FF34BF012003
:106CC80000205DF808FB00BF4FEA410C7FEA6C5CCE
:106CD80002D150EA013C0AD14FEA430C7FEA6C5CCE
:106CE80002D152EA033C02D14FF0000070474FF046
:106CF800010070474FEA410212F5001215D211D572
:106D08006FF47873B3EB625212D94FEAC12343F0A0
:106D1800004343EA505311F0004F23FA02F018BF22
:106D2800404270474FF00000704750EA013005D1EB
:106D380011F0004008BF6FF0004070474FF00000AE
:106D4800704700BF4A0011D212F5001211D20DD5BA
:106D58006FF47873B3EB62520ED44FEAC12343F059
:106D6800004343EA505323FA02F070474FF0000003
:106D7800704750EA013002D14FF0FF3070474FF0B2
:106D8800000070474FEA4102B2F1E04324BFB3F577
:106D9800001CDCF1FE5C0DD901F0004C4FEAC0028A
:106DA8004CEA5070B2F1004F40EB830008BF20F06E
:106DB8000100704711F0804F21D113F13872BCBF28
:106DC80001F00040704741F480114FEA5252C2F17D
:106DD8001802C2F1200C10FA0CF320FA02F018BFC6
:106DE80040F001004FEAC1234FEAD32303FA0CFC19
:106DF80040EA0C0023FA02F34FEA4303CCE77FEAA8
:106E0800625307D150EA01331EBF4FF0FE4040F4F1
:106E18004000704701F0004040F0FE4040F40000A0
:106E2800704700BF70B50F4B0F4DAB42A3EB050683
:106E380007D0B610002455F8043B01349847A64201
:106E4800F9D804F007FA094D094B5E1BAB424FEA2B
:106E5800A60606D0002455F8043B01349847A642FC
:106E6800F9D870BDC0B20008C0B20008C0B20008AE
:106E7800C4B20008830730B547D0541E002A3ED05C
:106E8800CAB2034601E0013C39D303F8012B9D0740
:106E9800F9D1032C2CD9CDB205EB05250F2C05EB28
:106EA800054535D9A4F1100222F00F0C03F1100E9C
:106EB800E6444FEA121C1A46C2E90055C2E90255D7
:106EC80010327245F8D10CF1010214F00C0F03EBEB
:106ED800021204F00F0C13D0ACF1040323F00303E7
:106EE8000433134442F8045B9342FBD10CF00304CF
:106EF8002CB1C9B21C4403F8011BA342FBD130BD1D
:106F080064461346002CF4D1F9E703461446C0E75B
:106F18001A46A446E0E700BF014B1868704700BF57
:106F280000000020844641EA000313F003036DD1FA
:106F3800403A41D351F8043B40F8043B51F8043B34
:106F480040F8043B51F8043B40F8043B51F8043B3B
:106F580040F8043B51F8043B40F8043B51F8043B2B
:106F680040F8043B51F8043B40F8043B51F8043B1B
:106F780040F8043B51F8043B40F8043B51F8043B0B
:106F880040F8043B51F8043B40F8043B51F8043BFB
:106F980040F8043B51F8043B40F8043B51F8043BEB
:106FA80040F8043B51F8043B40F8043B51F8043BDB
:106FB80040F8043B403ABDD2303211D351F8043B7B
:106FC80040F8043B51F8043B40F8043B51F8043BBB
:106FD80040F8043B51F8043B40F8043B103AEDD22A
:106FE8000C3205D351F8043B40F8043B043AF9D27B
:106FF800043208D0D2071CBF11F8013B00F8013B4E
:1070080001D30B8803806046704700BF082A13D35A
:107018008B078DD010F003038AD0C3F10403D21A72
:10702800DB071CBF11F8013B00F8013B80D331F8A6
:10703800023B20F8023B7BE7043AD9D3013A11F826
:10704800013B00F8013BF9D20B7803704B78437091
:107058008B78837060467047DFF834D000F026F8EC
:107068000C480D490D4A002302E0D458C45004339B
:10707800C4188C42F9D30A4A0A4C002301E0136071
:107088000432A242FBD3FFF7CDFE01F0D3FEFEE7A8
:1070980000A000200000002060000020C8B2000806
:1070A800600000207C2E0020FEE70000034AD2F892
:1070B800883043F47003C2F88830704700ED00E070
:1070C8002DE9F04F2DED088BB0F84030ADF60C5D92
:1070D800044606468B46180B03F00F01C3F303154D
:1070E800C3F30323069334F8423F07931E3006F197
:1070F8004E070AAA8C4634F8023F103203F00F01FB
:1071080042F8101CC3F3031142F80C1CBC42C3F331
:1071180003214FEA133342F8081C42F8043CEAD131
:1071280021AC09AB61460994984653F8042F072A05
:10713800C4BF103A1A60A342F7D106F15E0C22AA26
:1071480037F8023F103203F00F0442F8104CC3F333
:10715800031442F80C4CBC45C3F303244FEA133321
:1071680042F8084C42F8043CEAD121AB41AF53F84D
:10717800042F072AC4BF103A1A609F42F7D101238F
:107188008B4007EE903AF8EEE78AFFF789FA9FED11
:107198007AAB42AC06F17E0C002241EC190B9FED54
:1071A8007EBA019502940BF580596546434614460C
:1071B80053F8042F0699059302FA01FA079ACDE9C4
:1071C8000345924442AA089202EB840822AE2F4655
:1071D80037F8023F019AB0EE491AF0EE691AC3F384
:1071E800051307EE903AB0EE4A0AF0EE6A0A56F82E
:1071F800043BF8EEE77A93405344B3EE0F7AF4EE8B
:10720800C77A08EE103AF1EE10FAC8BF77EECB7ADB
:10721800B8EEC88AA8EEA78AFDF7F6FFD9ED956AF9
:1072280099ED947ADBED067A37EE267A55EC104B19
:1072380018EE100A27EEC78AFFF754FA22462B46A3
:10724800FFF7D2FBFFF79EFD07EE900AB6EE007A35
:10725800E8EE077A17EE900AFFF744FA0B46024663
:1072680047A1D1E90001FFF7BFFBFFF78BFD029BA8
:1072780048F8040B9E42ABD1DDE90345059B099A0A
:10728800934205F1400504F1200491D19DED428A15
:1072980043AB0DF60858F3EC017AF4EE487AF1EEB8
:1072A80010FAC8BFB0EE678A4345F4D118EE100A49
:1072B800FFF718FA34A3D3E90023FFF7DDFC814672
:1072C800002853D030A5D5E900454FF0000938EE25
:1072D800088A09F1010918EE100AFFF703FA224695
:1072E8002B465FFA89F9FFF7C7FC0028EFD148461B
:1072F800FFF7D6F941EC180B9FED1F9B0BF1480ADD
:10730800CDF804B0254FCB46C146DDF820800026D5
:10731800B0EE481AF0EE681AB0EE490AF0EE690AC3
:1073280058F8044BFDF770FF204655EC104BFFF75B
:10733800D9F922462B46FFF72DFAFFF723FDFFF771
:10734800D1F932463B46FFF76FF8FFF7FBFCC8451B
:107358002AF8020FDCD1D946DDF804B08BF84A963A
:107368000DF60C5DBDEC088BBDE8F08F9FED088B2A
:10737800C2E700BFAFF3008000000000000000403B
:107388008DEDB5A0F7C6B03E9A999999D9FFDF401F
:107398000000000000000000000080420000E03F04
:1073A8002DE9F04F83462DED088B9BF96D30B0F831
:1073B8006E00BBF86C4008EE103AADF61C4D18EEA6
:1073C800102A002362F307030291010A61F30F23D5
:1073D800BBF8702064F317430DF1140A60F31F63C0
:1073E80002F00F01CAF8003001238B4007EE903AF3
:1073F800C2F3031202F10800B8EEE7BAFFF750F93A
:107408009FED75AB06AE002541EC190B0BF1BE0BD9
:10741800F2EE00BAB1460396A84608F101074D46B8
:10742800CDF80490ABF14004F0EE088AB94605E0C7
:107438001AF9033008EE103A09F1010934F8023F4D
:10744800B0EE491AF0EE691AC3F3420307EE903A18
:10745800B0EE4A0AF0EE6A0AF8EEE77AB8EEC88AA1
:10746800F4EEE87AF1EE10FAC8BF77EEEB7AABEEFD
:10747800278AFDF7C9FE57EC106B18EE100AFFF7C4
:1074880031F932463B46FFF7AFFAFFF77BFCC9F309
:10749800401209F00103A34545F8040B03EB42032E
:1074A800C6D1DDF8049008F12008B8F5407F0BF14B
:1074B800400B09F1800906D0C8F340131AF91330BC
:1074C80008EE103AA9E79DED068A039E07ABB0EED9
:1074D800C88A0DF61847F3EC017AF0EEE77AF4EE75
:1074E800487AF1EE10FAC8BFB0EE678ABB42F2D113
:1074F80018EE100AFFF7F6F83BA3D3E90023FFF7CD
:10750800BBFB8246002864D037A5D5E900454FF07B
:10751800000A38EE088A0AF1010A18EE100AFFF785
:10752800E1F822462B465FFA8AFAFFF7A5FB002806
:10753800EFD15046FFF7B4F841EC180B029BDFF887
:10754800B0909FED259B03F64B4B4FF000080CE0E5
:10755800FFF7C8F842464B46FEF766FFFFF7CAFB3F
:10756800BE4240B20BF8010F2AD0B0EE481AF0EE36
:10757800681AB0EE490AF0EE690A56F8044BFDF7AE
:1075880043FE204655EC104BFFF7ACF822462B463D
:10759800FFF700F9FFF7F6FB07EE900AF5EEC07A61
:1075A800F1EE10FAD4D5FFF79DF842464B46FEF7A8
:1075B80039FFFFF79FFBBE4240B20BF8010FD4D151
:1075C800029B83F84CAF0DF61C4DBDEC088BBDE853
:1075D800F08F9FED038BB1E7000000000000004032
:1075E80000000000000000003333333333B34F4052
:1075F8000000E03F000000002DE9F04F2DED048B66
:10760800B0F86830ADF6144D1C0BB3F5004F0DF112
:107618000C09019128BF103CC3F303211D0548BF85
:107628001039024689F802101806C3F3031148BF3F
:107638001039B2F8700089F8011003F00F011B0728
:1076480048BF103964B289F8004089F80310C0F3C4
:107658000320FFF725F89FED669B41EC180B0DF111
:10766800100A0DF190084FF0000BA8F180070BF1FC
:10767800010602E019F903400136B0EE481AF0EEAF
:10768800681AB0EE490AF0EE690AFDF7BDFD07EE8B
:10769800904AF8EEE77A55EC104B17EE900AFFF790
:1076A80021F822462B46FFF79FF9FFF76BFB47F8B7
:1076B800040BC6F3401206F00103B84503EB42037E
:1076C800D8D108F180080DF5496343450BF1200B2B
:1076D80004D0CBF3401319F91340C6E79DED048A93
:1076E80005ABB0EEC88A0DF54168F3EC017AF0EE0F
:1076F800E77AF4EE487AF1EE10FAC8BFB0EE678A7E
:107708009845F2D118EE100AFEF7ECFF3DA3D3E935
:107718000023FFF7B1FA8346002864D039A5D5E9DC
:1077280000454FF0000B38EE088A0BF1010B18EEFC
:10773800100AFEF7D7FF22462B465FFA8BFBFFF7AE
:107748009BFA0028EFD15846FEF7AAFF41EC180B28
:10775800019B2B4F9FED269B03F64C7900260CE0EE
:10776800FEF7C0FF32463B46FEF75EFEFFF7C2FA61
:10777800D04540B209F8010F2AD0B0EE481AF0EE11
:10778800681AB0EE490AF0EE690A5AF8044BFDF798
:107798003BFD204655EC104BFEF7A4FF22462B4636
:1077A800FEF7F8FFFFF7EEFA07EE900AF5EEC07A5B
:1077B800F1EE10FAD4D5FEF795FF32463B46FEF7B8
:1077C80031FEFFF797FAD04540B209F8010FD4D13E
:1077D800019B03F5805383F84DB20DF6144DBDECB3
:1077E800048BBDE8F08F9FED048BB1E7AFF3008009
:1077F8000000000000000040000000000000000041
:107808000000E03F3333333333B34F400B464FF47C
:1078180050724FF4105101F04BB800BF10B582B050
:107828000DF10603012248F20D01044601F040F86B
:1078380008B102B010BDBDF8062048F20D0142F4AF
:1078480000422046ADF8062001F066F80028F0D185
:1078580001F016F80028ECD10DF10603012248F2D8
:107868000D01204601F024F80028E2D1BDF90630C8
:10787800002BB8BF6FF00800DBE700BF30B5054646
:10788800A3B00C4603E0BDF8062012070BD40DF197
:10789800060301224FF40041284601F009F80028A8
:1078A800F1D023B030BD30224FF40041284601F01A
:1078B80033F8431CF5D023464FF440724FF48061EF
:1078C800284600F0F5FF0028EBD102AB40224FF428
:1078D800E061284600F0ECFF0028E2D101AB284621
:1078E800012248F20D0100F0E3FFBDF80650BDF893
:1078F8000430A4F8803605F00105A4F88256002863
:10790800CFD1BDF8083047F6FF718B4248D00DF152
:1079180016030BA833F8022F8A4241D09842F9D1B6
:10792800BDF830308B423BD0BDF832308B4237D077
:10793800BDF834308B4233D00DF1360312A847F628
:10794800FF7133F8022F8A422AD08342F9D10DF110
:1079580056031BA847F6FF7133F8022F8A421FD03F
:107968009842F9D1BDF870308B4219D0BDF8723009
:107978008B4215D0BDF874308B4211D00DF17603CF
:107988000DF1860047F6FF7133F8022F8A4207D0BF
:107998008342F9D1802202A904F5C060FFF7C2FA38
:1079A800002347F6FF7102E00133182B0AD09A0131
:1079B800A25A8A42F8D103F00102AA42F4D16FF028
:1079C80007006EE728466CE72DE9F04FB0F86630FF
:1079D80090F96720DFEDE06A63F0FF035B01520175
:1079E800A3F500532DED028B0A804B80B0F864306C
:1079F8009A0A07EE902AF8EEE77AB3EE0F7AF4EED9
:107A0800C77AF1EE10FAC8BF9FEDDA7AC3F309031B
:107A1800C8BF77EEC77A07EE103AB8EEC78A9FED6F
:107A2800CF7AB4EEC78A0746F1EE10FA008CC8BFC9
:107A38009FEDCB7AB7F86250BFB000F470400C46A7
:107A480067EEA68AC8BF38EE478AFEF739FEC54BEF
:107A58000022FEF79FFEC44B0022FEF7E5FCFFF76D
:107A680091F9A581B7F86030A382B7F87830C4EDF2
:107A7800018AB4EE007A43F3072328EE078A07EE5B
:107A8800103A97F97830206107EE903AB7F87030DD
:107A980084ED028AC3F3013384F824304FF6D87298
:107AA800B7F87E302264B7F87E20C3F30133C2F3FF
:107AB8000312A4F8442003EB8303B7F87E105B009D
:107AC80012FB03F292B2C1F30321A4F8442001FB94
:107AD80003234FF4C872A4F84630A4F84820B7F836
:107AE8007E0097F97A30B7F87A10B7F87C2000F062
:107AF8000F00FAEEED7A05EE103A083001238340C4
:107B080041F3072106EE901AC4ED067A07EE903A83
:107B180097F97C30B7F87410B7F84000B7F872805E
:107B280042F30722B8EEE66A05EE903A06EE902A8E
:107B3800F8EEE55AF8EEE66AF8EEE77AB8EEC55AD6
:107B4800C6EE274A894BE3638D05C1F3090348BF95
:107B5800A3F580634FEA912248BF9BB2B1F5004F6D
:107B680024BF403A92B21EB213441DB285EE274A92
:107B7800C8F30903000B1B304FEA982885EEA75A73
:107B880086EEA76A08EE103ADFED747A84ED0B4AA8
:107B9800B8EEC88ABAEEE97AB4EEE78AF1EE10FADE
:107BA800C8BFDFED6F7AC4ED0C4A84ED0D5A84ED41
:107BB8000E6A84ED0A7AC8BF38EE678AFEF770FD50
:107BC8009FED630B41EC110BFDF71EFB5BEC10AB5B
:107BD80018EE100AFEF786FD52465B46FEF704FFD4
:107BE800FFF7D0F807EE908AF8EEE77AB3EE0F7A4F
:107BF800F4EEC77AF1EE10FAC8BF9FED5E7AB7F8D7
:107C08007090B7F87680C8BF77EEC77A08EE900A0A
:107C18009FED577AC9F30310B7EE008A0830A7EE34
:107C2800878AFEF73DFD9FED4A0B41EC110BFDF7EE
:107C3800EBFA4FFA88F007EE900AF8EEE77A5BEC79
:107C480010AB17EE900AFEF74DFD52465B46FEF765
:107C5800CBFEFFF797F82062C9F30320FEF720FD5B
:107C68009FED3B0B41EC110BFDF7CEFA48F30720D3
:107C780007EE900AF8EEE77A59EC108B17EE900AA7
:107C8800FEF730FD4B464246FEF7AEFEFFF77AF8A8
:107C980004F5805A28EE888AE0612146AAF85862DD
:107CA8003846CAED948A8AED958AAAF85A52FFF79F
:107CB80007FA3E8C394606F00F03019331F8229FEC
:107CC800C6F303130293C6F3032607F12E0006AA90
:107CD80031F8023F103203F00F0542F8105CC3F38D
:107CE800031542F80C5C8842C3F303254FEA1333AB
:107CF80042F8085C42F8043CEAD105AA1DAD1346D7
:107D080053F8041F0729C4BF103919609D42F7D1E1
:107D180007F13E0C1EA9964630F8023F103103F0D9
:107D28000F0241F8102CC3F3031241F80C2C8445C0
:107D3800C3F303224FEA133341F8082C41F8043CFB
:107D4800EAD172461DAB3DA81AE000BFAFF3008030
:107D58000000000000000040000080390080FF4360
:107D6800000080440000103F0000204017B751B9C0
:107D78000000003C000080420000803D00000042FE
:107D880053F8041F0729C4BF103919609842F7D166
:107D980007F17E083EABCDE9043804F24A6041465B
:107DA800BB4652F8043FB3404B449BB286461EAFD5
:107DB8008C4600933CF8028FB8F5004F4FEA9823A1
:107DC800A3F1400838BF0FFA83F8019B28BF0FFAC8
:107DD80088F808FA03F3039357F8048B029B08FA10
:107DE80003F8009B9844039B9844049B2EF8028F49
:107DF8009F42DFD1954201F1400100F14000D0D10E
:107E080021465846DDF81480FFF7CAFA214658463D
:107E1800FFF7F2FBBBF86A30BBF8142003F03F0110
:107E280007EE901AF8EEE77AB3EE0F7AF4EEC77A17
:107E3800F1EE10FAC4BF1FED317A77EEC77A1FED65
:107E4800327AC3F3841167EE876A07EE101AB8EE28
:107E5800C77AB2EE0E6AB4EEC67AF1EE10FAC8BF6F
:107E68005FED3A7A4FEAD323C8BF37EE677A07EE59
:107E7800903AF8EEE77AB2EE0E6AF4EEC67AF1EED0
:107E880010FAC4BF1FED436A77EEC67A6FEA121282
:107E9800F6EE005AB4EE006A41F2682302F080025E
:107EA80027EE257A67EE867A84F82520E5184FF0C4
:107EB800FF32CAED976A8AED987ACAED997AE2504C
:107EC80000236A60AA60EA602A611E46184640F2EA
:107ED800FF2E38F8022F00F6341C471C99B24AB915
:107EE800714524F81C10B8B21ED0052800F0BA80DD
:107EF8000133EEE706F63817D20704EB470706F119
:107F0800010C0FD5734579801FFA8CF603F1010334
:107F180044D0052EDDD16FF003003FB0BDEC028BDD
:107F2800BDE8F08F7145E3D1052800F09B808319E7
:107F3800042B00F39180C0BB002E00F0878004F56D
:107F4800935804F5935E012708F110080EF1120EFC
:107F5800B7423A461BDA38F817C04FEA5C190CF0FA
:107F68001F0C3EF812304FEA531AA9EB5311A3EB3A
:107F78004A1301319BB2ACEB0303022902F101025F
:107F880003F1010301D8022B69D9B242E9DB0137B9
:107F98007B1E9BB29E42DBD8A8BB57E0052EBAD009
:107FA8008319042B58DC0028C9D000F1010904F515
:107FB80093581FFA89F908F106084FF0010E864513
:107FC80072461ADA38F81E704FEA571C07F01F0776
:107FD80035F812304FEA531AACEB5311A3EB4A139E
:107FE80001319BB2FB1A022902F1010203F10103DC
:107FF80001D8022B33D98242EADB0EF1010EF1459A
:10800800DDD1002E9BD104F59354103405EB4000CC
:1080180004EB4607E6B1298826464FEA511C01F0D1
:108028001F0136F8022F5309A2EB4313ACEB52128F
:108038009BB20132CB1A022A03F1010301D8022BA9
:108048000DD9BE42EDD102358542E4D1002064E766
:1080580002358542FCD1F9E76FF004005DE76FF067
:1080680005005AE76FF0020057E700BF0000000064
:10807800F8B52DED028BB0F88066054691F824001E
:108088009FED258B0C46FEF70BFBB0EE480AF0EE91
:10809800680A41EC110BFDF7B7F8C6F381263046A4
:1080A80057EC106BFEF7FCFAB0EE480AF0EE680ADF
:1080B80041EC110BFDF7A8F8B5F9541653EC102B49
:1080C80008EE101A30463946FEF78EFCFEF75AFEC7
:1080D800B4F9023007EE903A06EE900AB4F900308F
:1080E800B8EEC88AF8EEE77A07EE103AD8EE267AA4
:1080F800B8EEC77AC7EE877A17EE900AFEF7F2FA5B
:1081080007A3D3E90023FEF78FF9FEF73BFEBDEC8A
:10811800028B00EE100AF8BD0000000000000040CD
:108128006666666666660A402DE9F84305460C46AB
:10813800FFF79EFFB5F9403694ED046ADFED2A6A31
:1081480007EE103AB5F9003607EE903AB8EEC77A5E
:10815800F8EEE77A10EE105AE7EE067A87EE276A0D
:1081680066EE267A17EE900AFEF7BCFA06466068B5
:108178000F46FEF7B7FA804628468946FEF7B2FA58
:1081880017A3D3E90023FEF74DF902460B464046F4
:108198004946FEF7FFFA154B0022FEF745F902465D
:1081A8000B4630463946FEF71FFC0646A0890F46A7
:1081B800FEF786FA02460B4630463946FEF732F994
:1081C800FEF7E0FD94ED027A06EE900A86EE870A45
:1081D800F3EE097A30EE270ABDE8F883AFF30080A2
:1081E8006666666666660A40000080480000F03FE2
:1081F8002DE9F04F2DED0E8B93B0B0F88236039336
:108208008A4610EE904A064690460F90F0EE409A45
:10821800FFF72EFF3046514610EE105AFFF784FF45
:1082280010EE100AB0EE409AFEF75CFA92A3D3E97A
:108238000023FEF7F9F8FEF7A5FD08EE100A204620
:10824800FEF750FA8CA3D3E90023FEF7EDF8FEF70A
:1082580099FD08EE900A68EEA88A28EE088A68EE6A
:10826800A88A9AF84C0FB0EE687AA8EE487AB7EE6A
:10827800008AC7EE297AB0EE48DA78EEE78AFEF788
:108288000FFA9FED770B41EC110BFCF7BDFF51EC9A
:10829800100BFEF777FD0AF580530AEE100A93F8E3
:1082A8004D020993FEF7FCF99FED6D0B41EC110BA4
:1082B800FCF7AAFF51EC100BFEF764FD0AEE900ADA
:1082C8009AF84A06FEF7ECF99FED650B41EC110BA5
:1082D800FCF79AFF51EC100BFEF754FDDAED0B5A40
:1082E8009FED637ABAF94620B6F91416BAF9443004
:1082F800DAED0D6AB6F880469AED0C6A0E90F0EE4B
:10830800487AE5EE877A64090CEE902ABAF91420C7
:1083180088EE27CA07EE102A07EE901AB8EEC77A39
:10832800F8EEE77A1CEE901A87EE27BA04F080027E
:108338000C9207EE903ACB1AF8EEE7BA07EE903AAD
:10834800B6F91016F8EEE77AF0EE48DAA6EEA7DAF4
:1083580007EE901AF8EEE77AB6F9501667EE8B7AC0
:10836800E6EE2BDA17EE900A0EEE101AFEF7BAF9BF
:10837800099BF3EE097AB3F9583239EE679ADAEDC8
:10838800087A06462846A7EE898A0F460EEE903AE6
:10839800FEF7A8F934A3D3E90023FEF743F8CDE9A3
:1083A8000A01DAF81C00FEF79DF9DDE90A23FEF759
:1083B800F1F9F8EEEEEA2F4B0022FEF735F86EEEF3
:1083C800887ACDE9000117EE900AFEF78BF9DDE90E
:1083D8000023FEF7DFF902460B4630463946FEF722
:1083E80021F8B8EECEEAFEF7CDFC9AF825300C9AC3
:1083F80010902EEE0BEA93422DEE8DDA1EEE100A47
:108408000D9300F0D081FEF76DF9099B93ED977AF3
:10841800B3F95A3207EE903AF8EEE77A064677EE65
:10842800877A0F4667EE887A0AF14A0B17EE900AA8
:10843800FEF758F9DDE90023FEF7ACF90B460246D2
:1084480039463046FDF7EEFFFEF79CFC63B211900B
:108458000893CDF800800AF64C4700261CE000BFC0
:1084680000000000000000406666666666660A4016
:10847800000020420000F03F6666666666127140A2
:10848800009BB6F5407F03F1040300930BF1020B48
:1084980007F1010700F08281089AC6F34018002A04
:1084A800B1464346039ABCBF09F0010388EA0303B7
:1084B8009A4206F10106E3D10F9B023BB7EE008A10
:1084C80033F9163007EE903A97F90133F8EEE77A68
:1084D80007EE103A67EE8B7AB8EEC77A17EE900A75
:1084E800C7EE2AEAFEF7FEF897F90030CDE9040155
:1084F80007EE903AF8EEE77ABBF9023687EE8A7A09
:108508000EEE103AA9EE078A1EEE900AFEF7EAF878
:10851800DDE90A23FEF73EF9B8EECEEAAC4B0022BD
:10852800FDF782FF6EEE087A044617EE900A0D46B4
:10853800FEF7D8F802460B4620462946FEF72AF9E8
:1085480002460B46DDE90401FDF76CFFFEF71AFC55
:10855800DDE90C2307EE900A9342B0EE677A30D03B
:10856800099B4FEA480893ED996A08F1FF3309F12E
:10857800030206EE903A002A09F102031146F8EECA
:10858800E66AB8BF09F106019B10A3EBA103E6EE6A
:10859800267A12EA290238BF4A4603EBA603A3EB60
:1085A800A203C8F1010813FB08F35BB2B0EE677AC7
:1085B80007EE903A099BF8EEE77AD3ED986AA6EEB3
:1085C800E77A039B0E98DAED066A12AA02EB830398
:1085D80053ED027AA6EEE77AB7EE008A87EE29EA2B
:1085E800FEF780F876A3D3E90023FEF7D3F8044614
:1085F800BBF800000D46FEF763F802460B4620461E
:108608002946FEF7F1F9FEF7BDFB9AED0A7AA9EEC5
:10861800078A07EE900A28EE278AB0EE4E7AA8EE6F
:10862800887A68EE087A67EE887A67EE877A17EEB6
:10863800900AFEF757F841EC100BFCF75DFEFCF7CB
:108648005BFEDAED0CEA1EEE900A8DED040BFEF7E8
:1086580049F804461EEE100A0D46FEF743F85AA3E1
:10866800D3E90023CDE9060120462946FEF792F812
:1086780002460B4600205649FDF7D4FE804618EE08
:10868800100A8946FEF72EF802460B464046494630
:10869800FEF780F822462B4680468946DDE904012C
:1086A800FEF778F8FEF76EFBFEF71CF802460B465D
:1086B80040464946FDF7B8FE02460B46DDE906018D
:1086C800FEF792F9044618EE900A0D46FEF70AF8EE
:1086D80002460B4620462946FDF7A6FE41EC100B44
:1086E800FCF70AFEFCF708FE37A3D3E9002351EC98
:1086F800100BFDF797FEFEF745FBBAF9423007EE7F
:10870800103A07EE900AB8EEC77AB4EEE77AF1EEBF
:1087180010FA2BDDBAF94030DAED0BEA07EE103A21
:1087280028EE0C8AB8EEC77A77EEC77AB7EE007AE9
:10873800A7EEAE7A67EE087A8EEE277A77EE287A79
:1087480017EE900AFDF7CEFF41EC100BFCF7D4FDB5
:10875800FCF7D2FD1CA3D3E9002351EC100BFDF765
:1087680061FEFEF70FFB009B186089E6F4EEE7BA9E
:10877800F1EE10FAD8DCB8EEEC7AB4EEE77AF1EE66
:1087880010FA06DD28EE2D8ADAED0DEAB0EE6B7AE6
:10879800CAE728EE0D8ADAED0EEAC5E713B0BDEC9C
:1087A8000E8BBDE8F08FFDF79DFF099BB3F95A3298
:1087B80007EE903A0646F8EEE77A0F4632E600BF33
:1087C8008DEDB5A0F7C6B03E666666666612714066
:1087D8000000F03F164B70B51E686429F36A28BF85
:1087E800642103FB0111134B0328A3FB0131044649
:1087F80015464FEA511307D133640D480C2102F096
:10880800C7FB0D4B1D5570BD810030B97363084817
:1088180002F0BEFB084B1D5570BD04290CBFB363A5
:10882800F363034802F0B4FB034B1D5570BD00BF52
:10883800380800201F85EB517009002010B584B05E
:10884800002132248DF80B100C48009401230DF1FF
:108858000B02902100F08CFF10B1002004B010BD75
:1088680006480094022303AA902101F059F8002831
:10887800F3D1BDF80C00C0BA04B010BD98080020B0
:1088880000B585B032234FF0060C00930DF10F02AE
:108898000123002105488DF80FC000F069FF00385A
:1088A80018BF0120404205B05DF804FB980800207D
:1088B8002DE9F04184B0460049BA322715461C46D6
:1088C800ADF8081013480097022302AA314600F0B9
:1088D8004FFFA8B9CDB1DFF83C8004EB450506E0B1
:1088E800BDF80C2052BA24F8022BAC420DD00097E8
:1088F800022303AA3146404601F012F80028EFD0BF
:108908004FF0FF3004B0BDE8F081002004B0BDE8AE
:10891800F08100BF9808002010B50B0A002463F30B
:10892800070484B0130A61F30F2463F31744014664
:10893800322362F31F64009303AA04234900054805
:10894800039400F015FF002814BF6FF00100002009
:1089580004B010BD9808002008B506493320FEF77A
:1089680055FF00B108BDBDE8084003490148FFF7BD
:108978002BB800BFB8010020F81B002010B5134C1D
:10898800012333202370FEF749FF00281BDB104921
:108998003320FEF773FF002815DB0E490C48FFF75C
:1089A80067FB0C490A48FFF7BFFBF2EE000A70EEBE
:1089B800600A094A9FED090A06490548FFF718FCAD
:1089C8000223237010BDFF23237010BD742E0020D6
:1089D80074150020F81B0020740900203333733FFE
:1089E80003462F2B084614D80C4A6FF0010C0CEBE9
:1089F800431C9444002301313CF8022F120A00F86A
:108A08001320BCF8002001F813200133102BF3D1F8
:108A1800704720220021FEF72DBA00BF74150020F0
:108A280002462F2A08461AD800B50F4B9FED0F7A39
:108A380003EB821C01310022FCEC017A67EE877A95
:108A4800FDEEE77A17EE903AC3F3072E00F812E02E
:108A580001F812300132102AEED15DF804FB202211
:108A68000021FEF707BA00BF740900200000C842C1
:108A78002E4B30B59A6942F400629A619A698FB0B8
:108A880002F400620092009A5A6942F400325A6174
:108A98005B694FF47060022103F400330025CDE9CF
:108AA800020101930322062302A94FF09040CDE969
:108AB8000452019C069300F08DFB1D4B1D4A1B6858
:108AC8001D4C1E49A2FB03239B0C013BC4E9001368
:108AD80040F2E73280232046C4E90252A361C4E988
:108AE800045502F0BFFA60232A4607A92046CDE9BB
:108AF8000735CDE90955CDE90B550D9502F026FB53
:108B080007A90422204602F021FB07A908222046D3
:108B180002F01CFB0C2207A9204602F017FB226872
:108B2800536C43F4004353640FB030BD001002404F
:108B38005000002083DE1B4338080020002C014031
:108B4800012925D010B5274B1B78013B0446212B62
:108B580012D8DFE803F02A111111111111111111A6
:108B68001111111111113439401111111111111173
:108B780011111111111111231B4B00221A7001221E
:108B880020461949BDE810404FF0007300F086BF39
:108B980016494FF00073082201F000B8FFF74EFEA7
:108BA800114B40BA18800222EAE70F4B1048002206
:108BB8004FF001111A81C3E900010A22E0E70D4ACA
:108BC800094B12781A70DAE70B4B07491878FFF748
:108BD80007FF2022D4E7084B03491878FFF720FF46
:108BE800F7E700BF5400002048090020680900206A
:108BF800000303CB742E002044090020438D9BB250
:108C0800D3F1080142D030B5774A0229137885B0EC
:108C18000CD001296AD0302B00F0848037D8022B81
:108C280000F0A480202B46D005B030BDA3F112017E
:108C380001293AD9203B122BF6D801A151F823F08B
:108C4800318C0008318C0008318C0008318C000808
:108C5800318C0008318C0008318C0008318C0008F8
:108C6800318C0008318C0008318C0008318C0008E8
:108C7800318C0008318C0008318C0008318C0008D8
:108C8800318C0008318C0008598D00087047312B51
:108C9800CAD10429C8D150789178D2780328C3D88A
:108CA80005B0BDE83040FFF795BD504850495278AF
:108CB80003700A70B8E70329B6D1B2F801C04D4C69
:108CC8009CFA9CFC3223009301200B46CCF307212D
:108CD8008DF80C008DF80D1003AAA4F800C090219F
:108CE80045488DF80EC000F043FD9DE73F4A102B24
:108CF800137074D0212B97D13E4A8DF80C10B2F81E
:108D080000C04CF4004C4FEA1C20322300938DF82D
:108D18000D00032303AA902137488DF80EC000F0F8
:108D280027FD81E704297FF47FAF51785388032911
:108D38003FF67AAF002B3FF477AF3049304A0868E6
:108D48005BBA9BB2B2FBF3F3013BC362CB606BE748
:108D58005478032C3FF668AF284814BFA1000C21B3
:108D680002F018F9274B00221A555DE705297FF410
:108D78005BAF5378B02B7FF457AF9378072B7FF412
:108D880053AFD3781D2B7FF44FAF13795A2B7FF451
:108D98004BAF1C4C1948002102F0FCF800250421B7
:108DA8001648257002F0F6F808211448657002F09C
:108DB800F1F80C211148A57002F0ECF80520E570D7
:108DC80000F05CF9BFF34F8F0F49104BCA6802F4EB
:108DD800E0621343CB60BFF34F8F00BFFDE705B0E0
:108DE800BDE83040FFF7CABD6809002054000020E4
:108DF8004409002056000020980800203808002068
:108E080040420F007009002000ED00E00400FA0560
:108E1800704700BF00F044BF00F042BF014800F0B7
:108E280053BF00BFF0080020014801F0EDB800BFB3
:108E3800F008002080B5654B654A9A6090B000F054
:108E480005F90021202207A8FEF714F801221023B3
:108E580000240225CDE90A2306A84FF460135D4ECD
:108E680006950D950F93CDE90244CDE9044401948C
:108E780001F0CAFA0F232946019301A84FF4806331
:108E8800CDE903430295059401F0A8FD73695248A2
:108E9800DFF8649143F4802373617369089403F4E1
:108EA800802303250193C0220427122306A9CDE9B4
:108EB8000623CDE90957019B00F08CF94FF4406275
:108EC80006A9122344480A97444FCDE90623CDE961
:108ED800084500F07FF9424B3B60384640F2E733E3
:108EE800C7E9015301F05CFA3E4D3F4B4FF00108D2
:108EF800C5E9003928468423C5E90238C5E9044490
:108F0800C5E9074400F0DAFBF36943F40013F361A1
:108F1800F36903F40013414622461F200693069B7B
:108F280000F0D0F81F2000F009F941462246202021
:108F380000F0C8F8202000F001F92C482C4BC0F8AC
:108F48000490C0E902480360C0E90444C0E907444A
:108F580000F0B4FBF369DFF89C90DFF8A08043F4DD
:108F68008003F361F36903F480030093009BFFF728
:108F78007FFDFFF7F1FC284600F092FE384601F02D
:108F88003DFA1C4E002516F8013B5C1EE4B213B1F5
:108F980006F8014C34B10135042DF4D1012000F05C
:108FA8006DF8EBE7032D4FEA8501404608D10C2107
:108FB80001F0F0FF012089F8034000F05FF8DDE7D9
:108FC80001F0E8FF013506F8014CDCE700ED00E0B0
:108FD80000500008001002400004004888080020E3
:108FE80000300040F008002000540040980800209D
:108FF80000580040700900200E09002038080020A1
:10900800704700BF38B50E4A0E4B127805461868EF
:109018004FF47A73B3FBF2F3B0FBF3F000F09CF873
:1090280008B90F2D01D9012038BD0446024629464A
:109038004FF0FF3000F046F8034B20461D6038BD66
:1090480058000020500000205C000020074A08B5A6
:10905800136843F010031360032000F021F80F2079
:10906800FFF7D0FFFFF7CCFF002008BD002002402B
:10907800014B1868704700BF782E002038B50446A9
:10908800FFF7F6FF631C054602D0044B1B781C440F
:10909800FFF7EEFF401BA042FAD338BD580000206E
:1090A8000749CA6803024FF6FF0003F4E063024071
:1090B800134343F0BF6343F40033CB60704700BFF2
:1090C80000ED00E01B4BDB68C3F3022300B5C3F1DE
:1090D800070EBEF1040F03F1040C28BF4FF0040E75
:1090E800BCF1060F1CD9A3F1030C4FF0FF3303FAB0
:1090F8000CF322EA03024FF0FF3303FA0EF321EADE
:10910800030303FA0CF313431B010028DBB20ADB49
:1091180000F1604000F5614080F800335DF804FB21
:1091280000229446E7E7044A00F00F000244137651
:109138005DF804FB00ED00E0FCEC00E0002807DB34
:109148004109044A00F01F000123834042F82130FE
:10915800704700BF00E100E00138B0F1807F01D323
:109168000120704710B44FF0E023074C58614FF0CE
:10917800F00C84F823C00022072110469A615DF89C
:10918800044B1961704700BF00ED00E090F8212002
:10919800022A03D004228263012070470268116802
:1091A80021F00E0110B5C46B1160116821F00101A6
:1091B8001160016C01228A40416B62604FF4807C2F
:1091C800A0F820C001B18847002010BD90F8210008
:1091D800704700BF2DE9F04F0C6885B0002C00F0F7
:1091E800828000234FF0010B0BFA03FE1EEA040AEB
:1091F80075D04D6805F0030C5A0003260CF1FF38B2
:1092080006FA02F7B8F1010F6FEA07076ED9BCF149
:10921800030F40F0BF800CFA02F2D0F800C00CEA4D
:1092280007073A4315F4403F026058D05F4FBA69C8
:1092380042F00102BA61BA6902F001020392039A8C
:1092480023F0030202F1804202F5803203F0030C9E
:1092580097684FEA8C0C0F2606FA0CFEB0F1904F77
:1092680027EA0E0717D0524EB04200F08580514EC3
:10927800B04200F08880DFF844E1704575D0DFF82F
:1092880040E170450CBF4FF0040E4FF0050E0EFA8A
:109298000CFC47EA0C079760474A9268EE026FEAAF
:1092A8000A07454E54BF3A404AEA0202B260F268E1
:1092B800AE02414E54BF3A404AEA0202F260726876
:1092C800AE033D4E54BF3A404AEA02027260326829
:1092D800ED03394D54BF3A404AEA02022A6001338D
:1092E80034FA03F280D105B0BDE8F08FD0F80890C9
:1092F800CE6809EA070906FA02F848EA0908C0F838
:109308000880D0F804808E6828EA0E08C5F3001E8D
:109318000EFA03FE4EEA080EC0F804E0D0F80C80FE
:1093280006FA02FE08EA07084EEA080EBCF1020F28
:10933800C0F80CE07FF46FAF0E694FEAD30803F072
:10934800070E00EB88084FEA8E0E06FA0EF6D8F8DC
:10935800209001960F2606FA0EFE019E29EA0E09B4
:1093680046EA090EC8F820E055E74FF0030E0EFA5A
:109378000CFC47EA0C078EE74FF0010E0EFA0CFCC6
:1093880047EA0C0787E74FF0020E0EFA0CFC47EA93
:109398000C0780E7D0F80C808E6808EA070806FA00
:1093A80002FE4EEA080EC0F80CE034E70010024056
:1093B800000400480008004800040140000C004870
:1093C80000100048F8B503689C6914F0100C0546B5
:1093D80041D0164610220F46DA619C6914F0200429
:1093E80079D1781C4DD19A699106FCD52022DA6191
:1093F8009A6944F0040CD4054FF001002FD45705A6
:109408003AD54FF48061D9614CF0080C960504D523
:109418004FF400724CF0020CDA619A69910744BF6C
:1094280000229A629A69D20703D49A6942F001022B
:109438009A615A6829490A405A606B6C002243EACB
:109448000C0320216B6485F8402085F8411085F8CD
:1094580042200120F8BD9A69D4056046CFD54FF463
:109468008071D96151054CF0010CCFD54FF4806162
:10947800D9614CF0080CC9E79405C9D40028CCD1AF
:10948800F8BDFFF7F5FD801BB8422B6804D81FB163
:109498009A699206A5D5A9E7586895F8422099696E
:1094A8000C04D2B20BD5410409D4202A07D05A683B
:1094B80042F480425A60FFF7DBFD2B6806469A6942
:1094C80092068AD4FFF7D4FD831B192B2B68F6D993
:1094D8009A6920248CE7002488E700BF00E800FE92
:1094E80070B5036804460D46164605E0FFF76AFFA7
:1094F80000BB6A1C08D123689B699B073246294632
:109508002046F3D5002070BDFFF7B2FD801BA842AE
:10951800236801D8002DEFD19A6912F00202EBD12D
:10952800636C84F8402020210B43636484F8411065
:1095380084F84220012070BD2DE9F843DDF8209021
:109548001E46054603688846174605E0FFF73AFFBA
:1095580068BB731C0ED12B689C6938EA04040CBFE5
:1095680001230023BB424A4631462846EED000205C
:10957800BDE8F883FFF77CFDA0EB0900B0422B683B
:1095880001D8002EE8D19A6938EA02020CBF0122FC
:109598000022BA42E0D16B6C002243F02003202164
:1095A8006B6485F8402085F8411085F84220012039
:1095B800DEE700BF03689B699B0629D470B50546A2
:1095C8000C4616460DE0FFF753FD801BA0422968A4
:1095D80000D81CB98B6913F020030DD08B699B064A
:1095E80008D4324621462846FFF7ECFE0028EAD088
:1095F800012070BD002070BD6A6C85F840302021C4
:109608000A436A64012085F8411085F84230F0E782
:109618000020704703689B6970B5044658070D46DB
:10962800164637D4324629462046FFF7CBFE236834
:10963800E8B99A69910623D59A699A6912F01002D5
:109648001DD0202110250422DD616264D9615A6889
:10965800184D2A405A6084F8411084F8400084F874
:109668004200FFF705FD23689B69012070BD9B69D7
:109678009A06F6D4FFF7FCFC23689B69F5E7626459
:10968800FFF7F6FC801B8542226805D325B1936954
:109698005B07C7D5002070BD936913F00403F6D1AA
:1096A800616C84F8403020200143616484F84100F3
:1096B8009369DAE700E800FE704700BF002854D03D
:1096C80010B590F84130044603F0FF02002B47D054
:1096D8002368242284F841201968626821F0010176
:1096E80022F0706219601A619A68E16822F40042F7
:1096F80001299A60A26809D042F4044202299A60BA
:1097080007D15A6842F400625A6006E042F4004207
:109718009A605A6822F400625A605968226941F0D6
:10972800007141F4004159606169D8680A43A16930
:1097380020F4004042EA0122E169D860206ADA6038
:1097480001431960196841F00101196000222023C2
:10975800626484F84130226384F84220104610BDC8
:1097680080F84020FFF7A8FFB2E70120704700BF4C
:109778002DE9F047994690F8413082B0202B0A9E97
:1097880040F0908090F84030012B044600F08A8029
:109798004FF0010A80F840A00F469046FFF768FC9A
:1097A80052460546009019234FF400412046FFF722
:1097B800C3FE002872D1212384F84130102384F895
:1097C80042306064A4F82A90638D2268C4F824802B
:1097D8009BB2FF2B6063C7F3090767D8638D9BB201
:1097E8002385002B40F08D8053684A490B403B434A
:1097F80043F0007343F400535360638D9BB22A46D1
:1098080031462046002B38D0FFF76AFE002845D1A4
:10981800616A236811F8012B9A62638D228D616257
:10982800013B9BB26385638D013A92B29BB222855C
:10983800002BE2D0002AE0D1802100953346204653
:10984800FFF77AFEFF2148BB638DDFF8D0C022689E
:109858009BB28B42604647D95368218503EA0C03C3
:109868003B4343F0FF7343F480335360638D9BB2F3
:109878002A4631462046002BC6D1FFF79BFE68B921
:109888002368254D2021D9615A682A405A6084F8F6
:10989800411084F8400084F8420000E0012002B042
:1098A800BDE8F087022002B0BDE8F087FF232385DA
:1098B800FE214FF47F034FF0807018F801CBC2F8F7
:1098C80028C02185618DDFF84CC0C4F82480013997
:1098D80089B2618551683B4301EA0C010B4303439C
:1098E80043F40053536088E7638D51689BB2238526
:1098F800DBB247EA034301400B4343F00073536074
:109908007BE7013B99B24B1CDBB21B044FF00070A4
:10991800D3E700BF009800FC00E800FE009C00FCB4
:109928002DE9F047984690F8413082B0202B0A9EE6
:1099380040F0918090F84030012B044600F08B8075
:109948004FF0010A80F840A00F469146FFF790FBC0
:1099580019230546009052464FF400412046FFF770
:10996800EBFD002873D1222384F84130102384F8BA
:1099780042306064A4F82A80638D2268C4F8249079
:109988009BB2FF2B6063C7F3090768D8638D404813
:1099980051689BB22385DBB247EA034301400B437E
:1099A80043F0007343F410535360638D9BB22A460F
:1099B80031462046002B39D0FFF72CFE002846D12F
:1099C8002268636A526A1A70638D228D616A013B4C
:1099D8009BB26385638D013A92B201319BB2616299
:1099E8002285002BE1D0002ADFD180210095334663
:1099F8002046FFF7A1FDFF2148BB638DDFF898C023
:109A080022689BB28B42604635D95368218503EAA8
:109A18000C033B4343F0FF7343F480335360638D7F
:109A28009BB22A4631462046002BC5D1FFF7C2FD1E
:109A380068B92368174D2021D9615A682A405A60AD
:109A480084F8411084F8400084F8420000E00120C6
:109A580002B0BDE8F087022002B0BDE8F087536885
:109A68000B49A4F828A00B403B4343F0807343F410
:109A78009233536099E7638D51689BB22385DBB2BB
:109A880047EA034301400B4343F0007353608CE7FC
:109A9800009800FC00E800FE009C00FC70B504463D
:109AA80090F8410000F02800282884B002D0012056
:109AB80004B070BD002938D0002A36D0256894F843
:109AC8004100286820F0FA00286094F84000012836
:109AD8002FD094F841004FF0010C2A2884F840C098
:109AE80029D0292084F84100202084F84200002051
:109AF8006064686820F4004068606285608DE36295
:109B08006162A969AB69234A6263DA03208503D5D8
:109B18000B0744BF0823EB61002084F840002B6842
:109B280043F0FA032B6004B070BD4FF40073636414
:109B3800BDE70220BCE794F841002E6800F0280039
:109B4800282814BF6FF0F4006FF0440030402860FC
:109B580028680004C5D5286820F400402860E06B18
:109B68000028BED00C4D4563CDE902230191FFF7D3
:109B78000DFBDDE90112039B08B92568B1E7E06B2D
:109B88000191456BCDE90223A847DDE90223256849
:109B98000199A6E771A20008699E000830B504463D
:109BA80090F8410000F02800282885B002D0012054
:109BB80005B030BD002938D0002A36D0256894F881
:109BC8004100286820F0FC00286094F84000012833
:109BD80054D094F841004FF0010C292884F840C073
:109BE80027D02A2084F84100202084F84200002051
:109BF8006064686820F4004068606285608DE36294
:109C08006162A969AB69244A6263DA03208503D4D7
:109C18000B0744BF0823EB61002084F840002B6841
:109C280043F0FC032B6005B030BD4FF40073636450
:109C3800BDE794F8410000F028002828286814BFE0
:109C48006FF0F20C6FF0420C00EA0C0028602868F4
:109C58004004C6D5286820F480402860A06B0028FE
:109C6800BFD00E4D4563CDE902230191FFF78EFA6F
:109C7800DDE90112039B18B92568B2E7022097E7CE
:109C8800A06B0191456BCDE90223A847DDE90223CA
:109C980025680199A5E700BF71A20008699E000820
:109CA80090F84130202B01D0022070470268054906
:109CB800282380F841301368416343F0B80300203B
:109CC8001360704771A200080268436B91691268BB
:109CD80003B11847704700BF016808B50B68002238
:109CE80080F842205A040CD50B6823F480430B609B
:109CF80090F84130292B0ED090F841302A2B22D0F1
:109D080008BD1B04F4D50B6823F400430B6090F8DE
:109D18004130292BF0D12822212380F841200363E8
:109D280090F841300A6803F02803282B14BF6FF01D
:109D3800F2036FF04203134000220B6080F84020CA
:109D4800FFF766F808BD2822222380F84120036324
:109D580090F841300A6803F02803282B14BF6FF0ED
:109D6800F4036FF04403134000220B6080F8402096
:109D7800FEF744FF08BD00BF90F8412002F028021A
:109D8800282AF8B50468034605D008210022E161B5
:109D980080F84020F8BDA169C768A269A568E6688F
:109DA800120C022FC1F3004102F0FE0216D182EA22
:109DB800D51C1CF00607C5F309020DD1856C0135C9
:109DC8008564856C022DE5D108258764E56180F8F6
:109DD8004070FEF7B5FEF8BD06F0FE02256825F0D6
:109DE800B8052560002483F84040FEF7A9FEF8BDB9
:109DF8000022202310B5184CC4624263026380F825
:109E0800413080F842204A07036812D5426A5B6AEB
:109E18001370436A028D01334362D2B1438D013B13
:109E28009BB24385416C0368013A41F00401028505
:109E3800416490F8412090F841201A68102422F0DB
:109E4800FE0200211A60DC6180F84010FEF7E2FF94
:109E580010BD0368EDE700BF0000FFFF704700BFBB
:109E6800406A08B5836B0BB100225A63C36B0BB110
:109E780000225A6390F84130602B4FF0000305D060
:109E8800036380F84030FEF7C7FF08BD202280F842
:109E9800412080F840300363FFF7E0FF08BD00BFB2
:109EA80010B50446554A94F84130002084F8420021
:109EB800E2626085626C1143A3F12802022A2368DA
:109EC800616462D894F8411094F8412001F02801A7
:109ED800282902F0280214BFF6214621282A1A68E8
:109EE8000CBFC9436FF0F6010A40282044491A60A4
:109EF80084F84100A06B226B616318B1112A14D059
:109F0800212A12D0E06B18B1122A24D0222A22D09A
:109F180094F84130602B4FF0000365D0236384F838
:109F280040302046FEF778FF10BD1A68510456D419
:109F3800FFF74CF90128EBD0A06B324A42630023AB
:109F480084F84030FFF722F90028EDD0A06BBDE877
:109F58001040436B18471A68120403D51A6822F494
:109F680000421A60FFF732F90128D1D0E06B254A88
:109F78004263002384F84030FFF708F90028D3D063
:109F8800E06BBDE81040436B184794F8412094F803
:109F980041201A6822F0FE021A609A69920748BFA7
:109FA80098629A69D10703D49A6942F001029A61CA
:109FB80094F84120602A10D0202284F841209A6920
:109FC80092060AD59A69D00605D51022DA61626C24
:109FD80042F0040262642022DA6100218AE71A68EA
:109FE80022F480421A60A3E7202284F8412084F8F2
:109FF800403023632046FFF731FF10BD0000FFFF0C
:10A0080071A20008699E000803689A69196810B46B
:10A01800D40529D50C0606D4416C11F00B0F1FD1BD
:10A028005DF8044B7047416C41F0010141644FF405
:10A0380080745105DC6121D5416C4FF4806441F096
:10A04800080192054164DC61E6D5426C4FF4007169
:10A0580042F002024264D961416C11F00B0FDFD06B
:10A068005DF8044BFFF71CBF540502D50906E3D47D
:10A07800D2E79405D0D50906E7D4CDE79205E4D414
:10A08800CAE700BF70B5036804460D461968C06A80
:10A0980094F841202026213ADE61092A0ED8DFE80B
:10A0A80002F077050D0D0D0D0DAA770594F84120E6
:10A0B8001A6822F0FC021A60222222635A68684E4B
:10A0C80042F400425A605A6832405A609A699207CC
:10A0D80044BF00229A629A69D60703D49A6942F06B
:10A0E80001029A614A043BD51A6822F480421A6038
:10A0F800A26B1AB11268526892B262856A070AD5D1
:10A108005A6A636A1A70636A01336362238D25F0A1
:10A118000405002B68D1638D9BB21BB1636C43F0BF
:10A1280004036364EB0601D5CE063AD4002384F811
:10A138004230666C6363002E68D1E36A494DAB42D6
:10A1480018D194F8413084F84060222B4FF0200356
:10A1580084F841302046266376D0FEF759FE70BD5C
:10A168000E04CBD51A6822F400421A60E26B002A6A
:10A17800C0D1C3E72046FFF7AFFD2023E56284F88E
:10A18800406084F8413020462663FEF743FE70BDE8
:10A1980094F841201A6822F0FA021A6021222263F8
:10A1A8008CE7638D9BB2002B3ED194F84130282B6D
:10A1B8004DD094F841202368292A4FF01002DA6123
:10A1C800B4D110F5803FB1D09A69910744BF0022FD
:10A1D8009A629A69D20703D49A6942F001029A6195
:10A1E8002046FFF779FDA1E7013B2385638D013BFD
:10A1F8009BB263858FE794F8412094F841201A6850
:10A2080022F0FE021A600022226357E7616C2046A2
:10A21800FFF746FE94F84130282BA0D12946204666
:10A22800BDE87040FFF7E4BD23681022DA61636C73
:10A2380043F00403636430F080737FF477AF616C9C
:10A248002046FFF72DFE71E7FEF7D8FC70BDB0F190
:10A25800007FAED129462046FFF7CAFD66E700BF5A
:10A2680000E800FE0000FFFF38B590F840C0C56A5E
:10A27800BCF1010F67D04FF0010C11F0200F04461C
:10A288000B4680F840C002D012F0200F51D1D806FA
:10A2980015D5D10613D5628D92B2002A55D194F8FE
:10A2A8004120282A74D094F841202368292A4FF0A5
:10A2B8001002DA615CD0002084F8400038BD5907EC
:10A2C80019D4190701D5100739D49907F3D593077D
:10A2D800F1D5638D9BB2002B46D0616A236811F8D3
:10A2E800012B9A62638D228D6162013B9BB2013A18
:10A2F80063852285DFE75007E3D5638D9BB26BB199
:10A308002268636A526A1A70638D616A228D013B02
:10A318000131013A9BB2616222856385638D9BB2EC
:10A32800002BC8D115F5803FC5D02046FFF7D4FCD7
:10A33800C1E7FFF7A7FE002084F84000BEE72046EB
:10A34800FFF71AFDB7E7022038BD23681022DA614B
:10A35800636C43F00403636435F08073ABD1616CC4
:10A368002046FFF79DFDA6E735F08073A3D1DCE713
:10A3780015F5803F9FD09A69950744BF00229A62DD
:10A388009A69D007D1D49A6942F001029A61CCE760
:10A39800B5F1007F87D119462046FFF729FD8AE7E6
:10A3A80028B338B5D0E90031826804464CF6CC4071
:10A3B800186045F25550186059609A60FEF758FECB
:10A3C80023680546DA6851070AD0FEF751FE401B9C
:10A3D80027282368F6D9DA685207F3D0032038BD56
:10A3E8001969E268914204D01A61002038BD012041
:10A3F80070474AF6AA221A60F7E700BF03684AF6D0
:10A40800AA2200201A607047002800F0BB822DE9BC
:10A41800F0430368D90783B004464BD5AC494A6872
:10A4280002F00C02042A00F05D814A6802F00C0276
:10A43800082A00F05381D4E90132B3F5803F15D0E2
:10A44800002B00F08981B3F5A02F00F03682A04BD5
:10A45800196821F480311960196821F48021196084
:10A46800D96A21F00F010A43DA6209E098490B68BA
:10A4780043F480330B60CB6A23F00F031343CB62A2
:10A48800FEF7F6FD924F05464FF40038012605E029
:10A49800FEF7EEFD401B642800F25A8198FAA8F3F3
:10A4A8003A6898FAA8F3B3FA83F306FA03F3134267
:10A4B800EED023689F073FD5854A516811F00C0FED
:10A4C80000F0CB80516801F00C01082900F0C18030
:10A4D8002269002A00F09481012595FAA5F3B3FAC0
:10A4E80083F303F1845303F584139B00784F1D60B5
:10A4F800FEF7BEFD4FF00208064605E0FEF7B8FD80
:10A50800801B022800F2248198FAA8F33A6898FA86
:10A51800A8F3B3FA83F305FA03F31342EED03968CC
:10A52800F82292FAA2F26369B2FA82F2934021F019
:10A53800F80213433B6023681D0729D4580753D5F5
:10A54800634BDA69D10000F1C180DA6942F08052C8
:10A55800DA61DB6903F080530193019B01255D4EAD
:10A568003368DA0540F1E480E368012B00F06C8180
:10A57800002B00F01781052B554B1A6A00F0A981B2
:10A5880022F001021A621A6A22F004021A6260E1D9
:10A59800A269002A74D0012696FAA6F24E4BDFF87B
:10A5A8003081B2FA82F213449B0002251E60FEF746
:10A5B8005FFD074605E0FEF75BFDC01B022800F2C1
:10A5C800C78095FAA5F395FAA5F395FAA5F3D8F8F7
:10A5D800242095FAA5F3B3FA83F306FA03F313429A
:10A5E800E9D023685807ABD4E36973B3384D6A6878
:10A5F80002F00C02082A00F04F81022B4FF0807302
:10A6080000F06F8193FAA3F3B3FA83F303F1845351
:10A6180003F584139B0000221A60FEF729FD4FF012
:10A6280000770446012605E0FEF722FD001B0228FC
:10A6380000F28E8097FAA7F32A6897FAA7F3B3FA7D
:10A6480083F306FA03F31342EED1002003B0BDE80A
:10A65800F0835268D6033FF53BAF022292FAA2F18B
:10A668001B49086892FAA2F20121B2FA82F201FAB1
:10A6780002F202424BD022698A4248D00120E5E723
:10A68800012797FAA7F1144BDFF84480B1FA81F15A
:10A698000B449B0002251A60FEF7EAFC064604E01C
:10A6A800FEF7E6FC801B022852D895FAA5F395FA26
:10A6B800A5F395FAA5F3D8F8242095FAA5F3B3FAEB
:10A6C80083F307FA03F31342EAD18AE7002546E742
:10A6D8000010024000700040208190104A68D203A8
:10A6E8007FF5A9AE4FF4003292FAA2F1A6490868A4
:10A6F80092FAA2F20121B2FA82F201FA02F20242BD
:10A708003FF4D8AE6268002A7FF4D4AEB6E79E4D17
:10A71800F821286891FAA1F16269B1FA81F120F073
:10A72800F8008A4002432A601D077FF507AF2FE72C
:10A73800336843F480733360FEF79AFC0746336846
:10A74800DB053FF511AFFEF793FCC01B6428F6D973
:10A75800032003B0BDE8F0838B4D2B6823F48033CE
:10A768002B602B6823F480232B60EB6A23F00F0304
:10A778001343EB62FEF77CFC4FF4003806460127D2
:10A7880004E0FEF775FC801B6428E1D898FAA8F36A
:10A798002A6898FAA8F3B3FA83F307FA03F3134283
:10A7A800EFD186E6784E336A23F001033362336AC9
:10A7B80023F004033362FEF75BFC4FF002090746FF
:10A7C8004FF0010806E0FEF753FC41F28833C01B46
:10A7D8009842BDD899FAA9F399FAA9F3326A99FA75
:10A7E800A9F3B3FA83F308FA03F31342EBD1002D6C
:10A7F8003FF4FAAE644AD36923F08053D361F3E699
:10A80800012696FAA6F3B3FA83F303F1845303F50A
:10A8180084139B005C4F1A60FEF72AFC4FF0020875
:10A82800054604E0FEF724FC401B022890D898FA5D
:10A83800A8F33A6898FAA8F3B3FA83F306FA03F38D
:10A848001342EFD1236877E64F4A136A43F00103B6
:10A858001362FEF70DFCDFF8308106464FF002095F
:10A86800012707E0FEF704FC41F28833801B984279
:10A878003FF66EAF99FAA9F399FAA9F3D8F8202010
:10A8880099FAA9F3B3FA83F307FA03F31342E9D069
:10A89800002D3FF4A9AEADE7012B3FF4EFAE6B6896
:10A8A800226A03F4803191427FF4E8AE606A03F4CF
:10A8B8007013181A18BF0120C8E603F18043A3F5E6
:10A8C8003C33196841F480211960196841F48031DA
:10A8D800C5E542F004021A621A6A42F001021A62DD
:10A8E800B7E793FAA3F3B3FA83F303F1845303F5B9
:10A8F80084139B0000221A60FEF7BAFB4FF0007821
:10A908000646012705E0FEF7B3FB801B02283FF649
:10A918001FAF98FAA8F32A6898FAA8F3B3FA83F352
:10A9280007FA03F31342EED1D4E908136A680B431C
:10A9380022F4741213436B604FF0807393FAA3F3FD
:10A94800B3FA83F303F1845303F584139B000E4E8B
:10A958001F60FEF78DFB4FF000770446012505E0E8
:10A96800FEF786FB001B02283FF6F2AE97FAA7F324
:10A97800326897FAA7F3B3FA83F305FA03F313429D
:10A98800EED062E601207047001002400E4A53687C
:10A9980003F00C01082901D00C487047C3F3834128
:10A9A8000B48D26A405CDB0309D50A49074B02F021
:10A9B8000F028A5CB3FBF2F303FB00F07047064B0F
:10A9C80003FB00F0704700BF0010024000127A003D
:10A9D800A8B2000898B2000800093D00002800F05D
:10A9E8008D80504A136803F007038B422DE9F0412C
:10A9F8000D4604460CD2136823F007030B4313607B
:10AA0800136803F007038B4202D00120BDE8F081F0
:10AA18002368980706D54449A0684A6822F0F002DE
:10AA280002434A60D9072CD56268012A68D0022AF5
:10AA38000CBF4FF00073022393FAA3F13A49086858
:10AA480093FAA3F30121B3FA83F301FA03F3034260
:10AA5800DBD0354E736823F0030313437360FEF7AE
:10AA680007FB41F28838074604E0FEF701FBC01BEC
:10AA7800404554D87368626803F00C03B3EB820F47
:10AA8800F3D1284A136803F00703AB4209D91368C6
:10AA980023F007032B431360136803F00703AB424B
:10AAA800B3D123685A0706D51F49E0684A6822F4DB
:10AAB800E06202434A601B0707D51B4A21695368B5
:10AAC80023F4605343EAC1035360FFF75FFF164B5B
