:020000040800F2
:1080000000A0002085870008D5870008D1A60008B9
:10801000D5870008D5870008D58700080000000034
:10802000000000000000000000000000D5870008EC
:10803000D587000800000000D587000821A80008A7
:10804000D5870008D5870008D5870008D5870008A0
:10805000D5870008D5870008D5870008D587000890
:10806000D587000811A80008D5870008D587000823
:10807000D587000805AD0008D5870008D58700081A
:10808000D5870008D5870008D5870008D587000860
:10809000C5A60008D5870008D587000819A80008DC
:1080A000D5870008D5870008D5870008D587000840
:1080B000D587000825A80008D5870008D5870008BF
:1080C000D5870008D5870008D5870008D587000820
:1080D000D5870008D5870008D5870008D587000810
:1080E000D5870008D5870008D5870008D587000800
:1080F000D5870008D5870008D5870008D5870008F0
:10810000000000000000000000000000D58700080B
:10811000D5870008D5870008D5870008D5870008CF
:10812000D5870008D5870008D5870008D5870008BF
:10813000D5870008D5870008000000000000000077
:10814000D5870008D5870008D58700080000000003
:10815000000000000000000000000000000000001F
:108160000000000000000000D5870008D587000847
:10817000D58700080000000000000000000000009B
:0881800000000000D587000893
:108188000348044B834202D0034B03B1184770479E
:108198001400002014000020000000000548064BD1
:1081A8001B1AD90F01EBA301491002D0034B03B1ED
:1081B8001847704714000020140000200000000039
:1081C80010B5064C237843B9FFF7DAFF044B13B117
:1081D8000448AFF300800123237010BD180000206D
:1081E80000000000D400010808B5044B1BB1044985
:1081F8000448AFF30080BDE80840CFE70000000066
:108208001C000020D400010853B94AB9002908BF4E
:1082180000281CBF4FF0FF314FF0FF3000F06AB963
:10822800ADF1080C6DE904CE00F006F8DDF804E0C5
:10823800DDE9022304B070472DE9F047089D0E469A
:1082480004460F46002B4AD194468C45B2FA82F276
:1082580060D942B1C2F12003974020FA03F30CFA27
:1082680002FC1F4394404FEA1C4E1FFA8CF6B7FBE2
:10827800FEF1230C0EFB117743EA074301FB06F0DE
:1082880098420AD91CEB030301F1FF3780F01581EE
:10829800984240F21281023963441B1AA4B2B3FB1C
:1082A800FEF00EFB103344EA034400FB06F6A64238
:1082B8000AD91CEB040400F1FF3380F00081A642C8
:1082C80040F2FD806444023840EA0140A41B0021CA
:1082D8001DB1D4400023C5E90043BDE8F0878B42B7
:1082E80005D90DB1C5E9000100210846F5E7B3FA43
:1082F80083F1002946D1B34202D3824200F2F580CD
:10830800841A66EB030201201746002DE5D0C5E963
:108318000047E2E7002A40F09380A1EB0C034FEA04
:108328001C471FFA8CFE0121B3FBF7F607FB16303A
:10833800230C43EA00430EFB06F0984208D91CEBD5
:10834800030306F1FF3802D2984200F2D080464675
:108358001B1AA4B2B3FBF7F007FB103344EA03443B
:108368000EFB00FEA64508D91CEB040400F1FF3300
:1083780002D2A64500F2B6801846A4EB0E0440EAE5
:108388000640A5E7C1F120078B4022FA07FC4CEA1A
:10839800030C06FA01FE20FA07F426FA07F344EA6A
:1083A8000E0400FA01F84FEA1C404FEA1449B3FBE7
:1083B800F0FE1FFA8CF600FB1E3349EA03430EFB5E
:1083C80006F9994502FA01F20BD91CEB03030EF1E9
:1083D800FF3A80F08580994540F28280AEF1020E26
:1083E8006344A3EB0909A4B2B9FBF0F300FB1399AA
:1083F80044EA094403FB06F6A64208D91CEB040428
:1084080003F1FF3068D2A64266D9023B644443EACE
:108418000E40A41BA0FB02E6B4427346B14652D3F9
:108428004FD05DB1B8EB030264EB090404FA07F717
:1084380022FA01F31F43CC40C5E9007400214CE740
:10844800C2F1200120FA01F30CFA02FC26FA01F12C
:10845800964033434FEA1C471FFA8CFEB1FBF7F0F6
:1084680007FB1016190C41EA064100FB0EF68E4276
:1084780004FA02F408D91CEB010100F1FF382DD2EF
:108488008E422BD902386144891B9BB2B1FBF7F6A7
:1084980007FB161143EA014306FB0EF1994208D97E
:1084A8001CEB030306F1FF3814D2994212D9023E9D
:1084B80063445B1A46EA004136E73946EDE618465A
:1084C80002E7F045ADD2BEEB020366EB0C060138BD
:1084D800B146A6E74646ECE7034698E74046D3E7A9
:1084E800D6467EE76444023847E708460DE7023E71
:1084F80063442DE7704700BF70B50F4B0F4DAB427B
:10850800A3EB050607D0B610002455F8043B013448
:108518009847A642F9D807F0D9FD094D094B5E1BCB
:10852800AB424FEAA60606D0002455F8043B0134B6
:108538009847A642F9D870BD9C1E01089C1E0108E8
:108548009C1E0108A01E0108830730B547D0541EA1
:10855800002A3ED0CAB2034601E0013C39D303F8F1
:10856800012B9D07F9D1032C2CD9CDB205EB05259C
:108578000F2C05EB054535D9A4F1100222F00F0C9C
:1085880003F1100EE6444FEA121C1A46C2E90055E0
:10859800C2E9025510327245F8D10CF1010214F00B
:1085A8000C0F03EB021204F00F0C13D0ACF1040310
:1085B80023F003030433134442F8045B9342FBD1D2
:1085C8000CF003042CB1C9B21C4403F8011BA342EC
:1085D800FBD130BD64461346002CF4D1F9E70346BD
:1085E8001446C0E71A46A446E0E700BF844641EABD
:1085F800000313F003036DD1403A41D351F8043B13
:1086080040F8043B51F8043B40F8043B51F8043B64
:1086180040F8043B51F8043B40F8043B51F8043B54
:1086280040F8043B51F8043B40F8043B51F8043B44
:1086380040F8043B51F8043B40F8043B51F8043B34
:1086480040F8043B51F8043B40F8043B51F8043B24
:1086580040F8043B51F8043B40F8043B51F8043B14
:1086680040F8043B51F8043B40F8043B51F8043B04
:1086780040F8043B51F8043B40F8043B403ABDD273
:10868800303211D351F8043B40F8043B51F8043B15
:1086980040F8043B51F8043B40F8043B51F8043BD4
:1086A80040F8043B103AEDD20C3205D351F8043BA4
:1086B80040F8043B043AF9D2043208D0D2071CBF70
:1086C80011F8013B00F8013B01D30B880380604699
:1086D800704700BF082A13D38B078DD010F003030F
:1086E8008AD0C3F10403D21ADB071CBF11F8013B7F
:1086F80000F8013B80D331F8023B20F8023B7BE7CE
:10870800043AD9D3013A11F8013B00F8013BF9D2F8
:108718000B7803704B7843708B7883706046704792
:10872800032A30B415D941EA0004A40784460B464D
:1087380004D0541E0FE0043A032A08D919466046AB
:1087480053F8044B5CF8045BA542F4D0F1E76046AB
:108758001946541E7AB1431E0139021901E09A42A2
:1087680009D013F8010F11F801CF6045F7D0A0EB3D
:108778000C0030BC7047002030BC7047DFF834D0A4
:1087880000F026F80C480D490D4A002302E0D458A1
:10879800C4500433C4188C42F9D30A4A0A4C002343
:1087A80001E013600432A242FBD3FFF7A5FE00F0FC
:1087B8001BF8FEE700A000200000002014000020A5
:1087C800A41E0108180000208C040020FEE7000009
:1087D800034AD2F8883043F47003C2F888307047EF
:1087E80000ED00E0000000002DE9F04F2DED028BB8
:1087F800A94BAA4AAA4D9A60B1B003F0E1FF01F073
:10880800FBFC01F02DFD02F0F1FA01F053FB01F041
:108818009BFD01F08BFC01F065FE01F027FC01F0E7
:1088280057FC2A7800230321CDE90B31CDE90D331C
:108838000F937AB12B78042B02D02B780A2B09D10D
:10884800012398480B930BA905F056FA0B2001F069
:10885800EDFE09E001244FF090400BA90B9405F0C0
:108868004BFA204601F0E2FE2B780A2B00F07382C7
:108878002B78052B00F06A822B78092B00F0668292
:1088880006AB039310AB13AC02932B780B2B00F0C1
:108898008A822B78012B0FD02B78022B0CD02B78C7
:1088A800032B09D02B78062B06D02B78072B03D067
:1088B8002B780A2B40F086827B497C4FDFF8208298
:1088C8000323C7E90013384640F2E733BB6006F0DC
:1088D80045F802F0ADFA02F0FFFB01F0DDF901F016
:1088E8005FFA002003F034F9DDF808A000263846C6
:1088F80006F062F8002E00F06D817207F3B200F006
:10890800958103F037FE013603F05EFE03F0C8FEE2
:1089180003F086FE03F0A4FE01F02EF801F0E6F85D
:10892800642003F071FF322EE1D1614B00241C70EA
:10893800E0B2013402F000FE082CF9D19FED548B0F
:108948000026DFF8A0B15B4CDFF89CA1B146B04629
:108958003746564806F030F89BF80030002B50D1C7
:1089680003F04CFF544B1B78002BA0EB07000CBF07
:108978004FF4FA736423984280F0228103F03EFF9B
:10898800A0EB0900132800F2078103F037FF801BD2
:10899800B0F5FA7F80F0FA8003F030FFA0EB080012
:1089A800952800F2A380454B1B78002B6AD101F073
:1089B800A5FF434B1B78002B5BD12B78082B27D0C6
:1089C8009AF80030002BC4D003F018FF3D4B1B6809
:1089D800C01A0028BDDB00228AF80020114602EBED
:1089E80042030132E1542344082A59709970F6D1A0
:1089F80002F01AF82D4805F0DFFF9BF80030002B35
:108A0800AED0002330488BF8003004F087FDA7E78C
:108A18002E4B1B78002BD3D02C4B00221A702C4BDA
:108A2800198889B2012938BF0121B1F5FA7F28BF19
:108A38004FF4FA71274B187802EB4203C0B2E054A6
:108A4800254800782344C0B2587024480078013281
:108A5800C0B2082A9870EDD1019101F0E5FF03F04A
:108A6800CDFE0199174B0144196001238AF80030A3
:108A7800A6E701F09BFF10B1114A0023137001F023
:108A8800D3FF9AE703F0B4F891E700BFAFF3008093
:108A9800000000000000000000ED00E00080000879
:108AA800950300200004004800300040C800002062
:108AB80004000020AC0000208600002052000020A6
:108AC80050000020540000202C0300204C000020FF
:108AD8005A0000204F0000204E0000204D000020CA
:108AE800F40B0108850000205800002003F086FEE2
:108AF800804600F0F1FE00F019FF03F001FD03F0DD
:108B08001DFD03F0F3FDB64A13780133DBB2022BE7
:108B180007D9B44A1378013303F003031370B04A3A
:108B28000023137003F094F82B7800228DED128B3C
:108B38008DF85420002B60D02B780A2B00F0918000
:108B48002B78042B00F0C6802B78052B00F0D28000
:108B58002B78092B00F0E5802B78082B7FF423AFC6
:108B6800A14B1B788DF8143040F2551310939F4891
:108B78000123149304F076FD00283FF414AF039BFF
:108B880002999A4805AA04F0F7FC0CE703F036FEB0
:108B9800064602F03BFBFFE603F030FE814600F09C
:108BA800EBFE00F0A3FF03F0E5FC03F00DFD03F07E
:108BB80077FD03F0B7FD03F033FD03F051FDE4E664
:108BC80003F01CFE4FF4004107464FF0904005F0BB
:108BD80097F9D3E603F0CEFC03F0F6FC03F060FD52
:108BE80003F01EFD03F03CFD00F0C6FE00F07EFF22
:108BF800642003F009FE012679E67D4A1388C3F351
:108C080007238DF8143013888DF81530764B1B78B0
:108C18008DF8163040F235131093744803231493DB
:108C280004F020FD00283FF4BEAEA8E7C3F3C1035B
:108C380003EB830308EBC3190224802249465046FC
:108C4800FFF7D4FC20460021013402F0AFF8E4B26B
:108C58008021504602F08CF8072C09F18009ECD1EC
:108C68004FE6634A61481388C3F307238DF814302D
:108C780013888DF8153040F275131093022314935E
:108C880004F0F0FC00285AD15A4A584813681B0AC5
:108C98008DF8143013688DF8153040F2771310935F
:108CA8000223149304F0DEFC002841D1524A4F48B5
:108CB80013681B0A8DF8143013688DF8153040F2CC
:108CC800791310930223149304F0CCFC00283FF48A
:108CD8006AAE54E7494A1388C3F307238DF8143062
:108CE80013888DF81530464B1B788DF8163040F2F6
:108CF800451391E740F2471310930323149372B678
:108D0800404B1B6862B65BBAADF81430364B374837
:108D18001B788DF8163004F0A5FC00283FF443AE0C
:108D28002DE7314B1B788DF8143040F265131DE7A1
:108D3800039B02992D4805AA04F01EFCB6E7039B85
:108D480002992A4805AA04F017FC9DE740F67F40DF
:108D580001F0F6FB94E540F6FF1001F0F1FB06A8E0
:108D680003210026202202230390099101270146AE
:108D780013AC4FF09040CDE9062308960A9704F00B
:108D8800BBFF01F01DFC10AB1396029366601946F9
:108D980040224FF404134FF09040CDE9102312976E
:108DA80004F0AAFF71E500231393082263604FF4CF
:108DB8000413CDE91023144802990123129304F0F7
:108DC8009BFF79E50023CDE9133311930822012392
:108DD8000D4802991092129304F08EFF6CE500BFC3
:108DE8003400002035000020440000202C0300201F
:108DF800A2000020880000206C0000209E000020B7
:108E08009D0000209400002000040048274B1A68A9
:108E1800B2F5A87F00D070471B69022BFBD9244903
:108E2800244AB1F801302448097811705BBA0380EC
:108E38001378012BD9B214D01378022B14D0002345
:108E48001E4A194603EB430C02EB0C000133082BB6
:108E580002F80C1041708170F4D1194B01221A707C
:108E68007047184B1970704700B572B61649174A03
:108E7800174B91F800E092F800C018785FFA8EFE60
:108E88005FFA8CFCC0B262B60C4A002101EB4103C8
:108E9800013102F803E01344082983F801C09870EF
:108EA800F4D1074B01221A705DF804FB100300206F
:108EB800080300205C0000205A000020AC000020BD
:108EC800500000204C0000204F0000204E000020E1
:108ED8004D00002038B5274C274B2246002104F0CE
:108EE800D5FB00B138BD03F089FC244D244B186034
:108EF80000F0F6F92B781BB12368B3F5807FF1D128
:108F080000F092F82B78002BECD11E4B1B780A2B23
:108F1800E8D801A252F823F0558F00084D8F0008B9
:108F28004D8F00084D8F0008ED8E0008758F0008E2
:108F38004D8F00084D8F00086D8F0008658F000861
:108F48005D8F0008BDE8384000F0BCBBBDE8384084
:108F580000F0A6BCBDE8384000F000BCBDE83840D1
:108F680000F06CBBBDE83840FFF750BFBDE83840A3
:108F780000F00AB810030020080300208600002033
:108F8800400000209503002038B51F4B1A68B2F541
:108F9800A07F00D038BD1B69012BFBD91B4B1B7868
:108FA800002BF7D11A4D1B4C2B78237003F026FCAD
:108FB8006A78194BA2F10102B2FA82F218605209DA
:108FC80010214FF0904004F095FF2378134A14497C
:108FD80040F67F4000FB03F3A2FB03230968114816
:108FE800DB094B63237803F0FF0233B1BDE8384057
:108FF80001224FF4007104F07DBFBDE838404FF402
:10900800007104F077BF00BF1003002004000020A7
:10901800080300209C0000207C00002081808080C4
:1090280070020020000400482DE9F041994D2B689A
:10903800B3F5C07F92B03ED0B3F5C17F6FD0B3F522
:10904800C97F09D0B3F5807F03D12B69082B00F0C5
:10905800AC8012B0BDE8F0812B69042BF9D18E4B9E
:109068001A78E32AF5D15A78A52AF2D19A78E02A13
:10907800EFD1DE78FF2EECD11D2231460AA8FFF78A
:1090880063FA1D220AA9002000F0CCFE0024834BBD
:1090980083481C701D222146FFF756FA81481D227D
:1090A8003146FFF751FA804804F0DCFA002840F016
:1090B800DC802B68C6E72B69012BCAD9764A14785D
:1090C800072CA04603F1FF3328BF4FF00708984547
:1090D8002BD8002204214FF090408DF8108004F026
:1090E80009FF002C00F09C806B4F04AE002417F899
:1090F800010F00F011FE0134E4B2444506F8010FF7
:10910800F5D34FF090400122042104F0F3FE6648A5
:1091180004F0A8FA98BB2B68B3F5C17F8FD16248D9
:1091280004F0A0FA60B92B6889E75FFA83F8002297
:1091380004214FF090408DF8108004F0DBFED3E757
:109148004FF40041594804F0CFFEA0F10100B0FAF5
:1091580080F0400940F283120123002100260027F5
:109168008DF808000A920E938DF83C1004AB02AA01
:109178000AA94D48CDE90C6704F0FEF9D3E708F1D8
:1091880001085FFA88F240F28110002100260027CA
:109198000A900E928DF83C1002AB04AA0AA9424824
:1091A800CDE90C6704F0E8F9B5E73B4F404B414A7D
:1091B80079783878187001245970B97899701470D2
:1091C80003F01CFB3C4B3D49FA783D4E3D4D00F504
:1091D8001C50103008601A703B4A3B791470337089
:1091E8003A4C7B792B703A4ABB7923701278FB7919
:1091F800082A17D037496BB30022307802EB4203B4
:10920800C0B2C85428780B44C0B2587020780132D4
:10921800C0B2082A9870F0D12F4B01221A7018E7B3
:10922800A0466EE72D4B1B78022BF5D172B632782B
:109238002B782078D5B2DCB2C0B262B625490022BC
:1092480002EB42030132CD540B44082A5C7098703B
:10925800F6D1E1E71A4603EB430408190133082B5A
:109268000A5542708270F6D1D6E740F29113049302
:1092780000220023CDE906230822089201AB6A44A4
:1092880004A9094802948DF82440039404F074F961
:109298000FE700BF1003002008030020740300201C
:1092A80078030020540300202C0300200008004805
:1092B800C40000203C00002051000020380000209D
:1092C8004F0000204E000020520000204D000020DA
:1092D80095030020AC000020500000205C00002016
:1092E80010B59C4C2368B3F5FE6F8AB000F0BA80C5
:1092F800B3F5FF6F1CD0B3F5887F23D0B3F5C87FD3
:109308002AD0B3F5D07F66D040F2A11293426AD03A
:10931800B3F5D17F71D040F2A312934275D0B3F563
:10932800D27F7BD040F2A51293427DD00AB010BD07
:10933800894804F097F9002840F056812368B3F56E
:10934800887FDBD1844804F08DF9002840F0228121
:109358002368B3F5C87FD4D17F4804F083F9002887
:1093680035D07E4B7E49DA88097858798DF808100F
:10937800197E8DF809008DF80A1002B91A89987AB1
:109388008DF80C20110A8DF80B1000B9187BDA7AC9
:10939800597B93F80EC08DF80D000A434FF0000179
:1093A8000CBF0B46012308208DF80E3040F29113B4
:1093B800CDE9061104930DEB000208908DF82410F6
:1093C80065488DF80FC001AB04A904F0D5F82368EF
:1093D800B3F5D07F98D123692BB1624B1B78042B4E
:1093E80001D8614A13705C4804F03CF9002840F049
:1093F8009B802368B3F5D17F8DD123692BB1594B5D
:109408001B780C2B01D8594A1370534804F02AF9D9
:10941800002870D12368B3F5D27F83D123691BB1AB
:10942800504A534B12781A704B4804F01BF9002825
:109438003FF47CAF4E4B00211B788DF8053003209C
:1094480040F2A512CDE9061102248DF80400049219
:109458008DF8241002AB01AA04A93F48089404F02F
:109468008BF863E72269042A7FF45CAF3D4A1178E0
:10947800B0297FF450AF517807297FF445AF917830
:109488001D297FF441AFD2785A2A7FF43DAF394A7B
:10949800394B12681B6839480024546340215C63C7
:1094A800012204F027FD354822464FF4007104F0EC
:1094B80021FD224602214FF0904004F01BFD304B65
:1094C8001B78092B00F0A68000232E4A049302E0A3
:1094D800049B01330493049B9342F9D9BFF34F8F44
:1094E80029492A4BCA6802F4E0621343CB60BFF3F0
:1094F8004F8F00BFFDE7264A1C4B12781B788DF86A
:109508000420002140F2A3100222CDE906118DF8B3
:109518000530049008928DF8241002AB01AA04A922
:109528000D4804F029F875E70F4B00211A788DF8DB
:10953800042040F2A1130120CDE9061104930890FC
:109548008DF8241002AB01AA04A9034804F014F80A
:109558004FE700BF100300202C03002078030020F1
:109568007403002008030020730300207203002006
:10957800710300207002002024020020000400482B
:1095880095030020FFE1040000ED00E00400FA0567
:109598000C00002022482349234A0078234B0978ED
:1095A80012781B788DF80400003918BF0121003AA1
:1095B80018BF0122003B18BF01238DF8051040F2A7
:1095C800111000218DF806200422CDE906118DF82E
:1095D8000730049008928DF8241002AB6A4404A95D
:1095E800134803F0C9FFB3E6124A4FF00113CDE95F
:1095F8000223002140F2F9700822CDE906110490F7
:1096080008928DF8241001AB6A4404A9084803F0B5
:10961800B3FF93E608482246402104F06BFC53E769
:10962800950300208600002085000020040000200B
:109638002C030020000303CC00040048194B1A68CF
:10964800B2F5B07F00D070471B69012BFBD970B50C
:10965800154B1B7803F0FF0403B170BD134D144E76
:109668002B78337003F0CAF86A78124B012A186015
:109678000DD0114B11481B68A2F10102B2FA82F217
:109688005C635209BDE87040402104F033BC347873
:109698000B4B40F67F4101FB04F4A3FB0434E409BF
:1096A800E7E700BF100300200400002008030020A3
:1096B8008400002080000020700200200004004880
:1096C80081808080F8B51E4B1A68B2F5907F00D073
:1096D800F8BD1B69042BFBD91A4B1B7803F0FF0557
:1096E800002BF5D172B6184E18483478184F20213F
:1096F80004F0FAFBA4F10104B4FA84F46409A0426A
:109708002246124818BF3D60202104F0F3FBD6F82A
:10971800013013B93B6062B6F8BD0E4A0E4D0B48D6
:1097280000241BBA1360082122463B602C7004F009
:10973800E1FB06482246402104F0DCFBEBE700BFD2
:109748001003002004000020080300200004004843
:10975800A800002008000020A4000020404AF8B516
:109768001368B3F5B87F22D040F273118B4203D14E
:109778001369002B4DD1F8BDB3F5BC7FFBD113693C
:10978800002BF8D0374A384B12781A701B78374AB2
:10979800374903EB8300C3EB40230968A2FB03238B
:1097A800DB094B6303F02AF8324B1860F8BD1369E4
:1097B800052BE0D92B4C304A23885BBA138003F081
:1097C8001DF82E4A2E4B10601B7803F0FF06002B65
:1097D800D1D172B6A5782B482B4F202104F084FBF9
:1097E800A5F10105B5FA85F56D09A8422A464FF09D
:1097F8002001244818BF3E6004F07CFB2379E178FF
:1098080062791B0243EA0143134317D13B6062B6F6
:10981800F8BD144A1D4B12781A701B78134A1C495C
:1098280003EB8300C3EB40230968A2FB0323DB0996
:109838004B6302F0E3FF174B1860F8BD164A174D4B
:109848001360002422460F483B6008212C7004F066
:1098580051FB0C482246402104F04CFBD7E700BFDF
:1098680010030020080300207400002081808080FD
:109878002402002068000020A000002060000020D2
:109888000400002000040048A800002090000020E8
:10989800700200207800002008000020A4000020AA
:1098A80008B5094B1A68B2F5987F00D008BD1B6946
:1098B800012BFBD9054B064A1B885BBA138002F0C3
:1098C8009DFF044B186008BD10030020080300200A
:1098D800A00000206400002008B50F4B1B78042B63
:1098E80000D008BD0D4803F0C5F90C48022103F06B
:1098F80075FA48B1094803F04DFA0948082104F0FF
:10990800F3FA084B187008BD044803F0FFFA064B39
:1099180080B21880EEE700BF95030020D800002031
:10992800000400489D0000209E00002008B50E4B52
:109938001A784AB11A78052A06D01A78092A03D063
:109948001B78082B00D008BD0848082104F0CCFA81
:10995800074BB0FA80F01A784009824208BF054ADE
:10996800187008BF107008BD950300200004004857
:109978000D00002044000020534B1B7803B17047B2
:109988002DE9F04303F0FF0483B0224602214FF093
:10999800904004F0AFFA0194019BB3F5207F06D202
:1099A800019B01330193019BB3F5207FF8D347480E
:1099B80003F060F94548022103F010FA00284AD064
:1099C800434E01233370434D404803F0E3F92B889D
:1099D8009BB2B3F5DF7F03D3002201232A803370C3
:1099E800337803F0FF04002B50D13B4F97F80080E9
:1099F800B8F1000F1FD1DFF8EC90D9F80030002B38
:109A080046D102F0FBFE3549354B0A88C9F80000FB
:109A18001A800A882B889BB292B2023B9A420EDACD
:109A280001243C70224602214FF0904003B0BDE86B
:109A3800F04304F05FBA2B4B28491C60E9E70A8819
:109A48002B889BB292B202339A4239DC3C78003CB4
:109A580018BF0124E6E71D4803F058FA40F6E973F9
:109A6800A0F110029A42ABD84FF4E17202FB00F069
:109A78001D4B1A49164E00F2FF70A3FB0023C01AB3
:109A880003EB5003C3F3CF230B809CE70022CAE704
:109A980002F0B4FED9F800301049C01A40F6B833C5
:109AA8009842B6D90E4B0A881B8892B205339A425F
:109AB800AFDD0123424602214FF090403370B5E7F5
:109AC80000233B70AEE700BF95030020D8000020BC
:109AD80086000020A0000020A4030020A20000208F
:109AE8009E030020A0030020010110002DE9F84387
:109AF800604B1B780A2B01D0BDE8F8835E4803F061
:109B0800B9F85D48022103F069F9044600284AD0F3
:109B18005A4E012333705A4D574803F03BF92B88AE
:109B28009BB2B3F5967F29D8337803F0FF04002B56
:109B38005FD1544F97F80090B9F1000F23D1DFF8A7
:109B48005081D8F80030002B5BD102F057FE4E4907
:109B58004E4B0A88C8F800001A800A882B889BB2E6
:109B680092B2023B9A4212DA01243C702246022148
:109B7800BDE8F8434FF0904004F0BCB9002201233F
:109B88002A803370D0E7424B3F491C60E5E70A88DA
:109B98002B889BB292B202339A424DDC3C78003C4F
:109BA80018BF0124E2E7344803F0B0F940F6E9733E
:109BB800A0F110029A42ABD883B2742B3FD940F679
:109BC800C67293423ED8334A05B22346171D32F96E
:109BD8002310A94202EB830603DC37F92340AC4289
:109BE80032DA0133202BF2D100232749234E0B8090
:109BF80091E7BDE8F843002202214FF0904004F0BD
:109C080079B902F0FBFDD8F800301F49C01A40F6B8
:109C1800B8339842A1D91D4B0A881B8892B20533E4
:109C28009A429ADD012333704A460221BDE8F8437F
:109C38004FF0904004F05EB900233B7096E74FF474
:109C4800A073D2E72346D0E7B6F90250B6F906303A
:109C5800641A5B1B401A03FB00F004EBD4735B101F
:109C68000028B8BF5B42034493FBF4F32B449BB238
:109C7800BBE700BF95030020D80000208600002025
:109C8800A00000209C030020A200002096030020D2
:109C980098030020040301081C4B30B55A691C4D79
:109CA80042F480225A615B6989B003F480234FF43F
:109CB80040601121CDE90201002401931448019A62
:109CC8000494032302A9CDE9053404F015F81048DB
:109CD80001224FF4806104F00DF94FF4FA6400E0BA
:109CE80084B14FF48061284604F0FEF8013C012855
:109CF800A4B2F5D1064801224FF4006104F0FAF845
:109D080009B030BD034B01221A70F3E7001002407E
:109D180000040048A50300202DE9F04100241F4E4F
:109D280082B080460725274648FA05F212F001025C
:109D380018BF01224FF40041304604F0DBF800223E
:109D48000421304604F0D6F80097009B132B05D861
:109D5800009B01330093009B132BF9D901220421A6
:109D6800304604F0C7F84FF48071304604F0BCF870
:109D780064000128E4B201D144F001040197019B79
:109D8800132B05D8019B01330193019B132BF9D9A0
:109D9800013DC9D2204602B0BDE8F0810004004868
:109DA800F0B51E4D87B00024012204214FF09040E9
:109DB800CDE90044CDE90244049404F09BF8012263
:109DC8002846042104F096F801270323042669464F
:109DD8004FF0904003930096CDE9017403F08CFF97
:109DE80069462846009603F087FF4FF40046694607
:109DF8002846009603F080FF4FF4807200236946DE
:109E08002846CDE90023029703F076FF0448009620
:109E18006946029403F070FF07B0F0BD00040048E3
:109E2800000800485AB32DE9F043DFF8588085B0A0
:109E380081460E461546322706E02D1BA144ADB2D9
:109E48001FFA89F92644B5B109F01F04C4F12004AA
:109E5800A4B2AC4228BF2C46CDE9014700960223A4
:109E68004A46A021404604F0D9FA0028E5D000204F
:109E780005B0BDE8F083012005B0BDE8F0830120FE
:109E8800704700BF2801002000B585B08446322302
:109E9800CDE90123009102236246A021044804F081
:109EA800BDFBB0FA80F0400905B05DF804FB00BFC7
:109EB800280100202DE9F047DFF85C81514FDFF8D9
:109EC8005C9188B00A254FF0FF0A00260121404620
:109ED80004F00AF80221B0FA80F44046640904F05C
:109EE80003F808B944F002041021384603F0FCFFD7
:109EF80008B944F004048021384603F0F5FF08B996
:109F080044F008044FF40051484603F0EDFF08B947
:109F180044F0100454450CD10136F6B2032E0AD091
:109F2800022002F071FC6B1E13F0FF0503D0A2465D
:109F3800CCE70126F4E7344B0B2C1C7004D8334BC8
:109F48001C7008B0BDE8F0871F2C1DD02F49304B7E
:109F58002C480C240C70012240211A7003F0CAFF0F
:109F6800284800224FF4007103F0C4FF254800225E
:109F7800402103F0BFFF002202214FF0904008B0BB
:109F8800BDE8F04703F0B6BF1D2269460020FFF781
:109F98007BFF18B11F4B009A9A421DD01B491C4BDE
:109FA80018480C240C70012240211A7003F0A2FFFB
:109FB800144800224FF4007103F09CFF114800225E
:109FC800402103F097FF002202214FF0904003F058
:109FD80091FF08B0BDE8F0879DF80430052BDDD16E
:109FE800684601F05DF89DF81C308342D6D19DF893
:109FF8001A20013AD2B20B2AD0D8044B1A7008B0F2
:10A00800BDE8F087000400480C00002095030020FC
:10A0180086000020435452550014004800080048A8
:10A028000E4A0F48D16930B441F48001D161D26938
:10A038000C4C0D4982B002F480020192019D00236C
:10A048000122C0E90041C0E90232C0E90433C0E995
:10A058000633036202B030BC04F092B8001002402C
:10A0680028010020005800402A231000144B1549ED
:10A078005A6930B542F001025A615B69124C83B0EB
:10A0880003F0010301930025802301981022204644
:10A09800C4E90253C4E90012C4E90455C4E90655E9
:10A0A80003F05EFD2A4603210D2003F0F5FC0D2088
:10A0B80003F02EFD054B63625C6503B030BD00BF45
:10A0C80000100240300002407C010020C001002046
:10A0D800134A1448916930B441F4805191619269EE
:10A0E800114982B002F4805201924FF48272C0E9A1
:10A0F8000012019D4FF4007200234FF4E064202108
:10A1080082610722C0E90234C0E90433C0E90713B9
:10A11800C0E90933C26202B030BC05F013BA00BF0F
:10A1280000100240C0010020003001402F4BF0B564
:10A13800DA692F4C42F00072DA61DB6991B003F002
:10A148000073009302274FF4C0510126CDE901178F
:10A15800009801A9032209234FF09040CDE903623A
:10A16800059303F0C9FD234A04230025C4E900230D
:10A178004FF080734FF44022C4E902534FF4801328
:10A18800C4E904234FF00123A36120464FF48073F0
:10A19800A38303F0CBF806A92046CDE90B55CDE9FA
:10A1A8000655CDE908550D960A950E9603F03EF929
:10A1B800204603F0B3F93946204603F0EBFA4FF492
:10A1C8000441204603F0E6FA2A463146142003F0FB
:10A1D80063FC142003F09CFC2A463146162003F049
:10A1E8005BFC162003F094FC11B0F0BD0010024097
:10A1F8002C0300200064004030B5A1B000242022C8
:10A20800002107A8FEF7A0F921463C2210A8CDE9B5
:10A218000144CDE903440594FEF796F90122102381
:10A22800CDE90A2302254FF4601306A80F9306957B
:10A238000D9504F0CFFB0F23019329464FF480635B
:10A2480001A8CDE903430295059404F0ADFE60230F
:10A2580010A8CDE91744109304F054FF21B030BD85
:10A2680070B500258CB0CDE90655CDE90855324CBE
:10A278000A95A36943F00103A361A36903F00103ED
:10A288000093009B636943F400336361636903F4DB
:10A2980000330193019B636943F48023636163691D
:10A2A80003F480230293029B636943F48003636190
:10A2B800636903F480032A4603934FF400414FF087
:10A2C8009040039B012603F015FE4FF4004306A9B6
:10A2D8004FF09040CDE90636CDE9085503F00CFD66
:10A2E8000322002306A915480896CDE9062303F0A2
:10A2F80003FD06A912489023069303F0FDFCE369C9
:10A3080043F08053E361E36903F080530493049BB3
:10A3180004F058FB63690B4843F4002363616369E5
:10A3280003F400234FF40052059306A9059B0692F7
:10A3380003F0E2FC0CB070BD0010024000140048AD
:10A34800000400480008004870B5002486B0634D3A
:10A358006348049422462021CDE90044CDE9024413
:10A3680003F0C8FD2B78092B00F0AA802B78052B69
:10A3780000F0AC802B780C2B00F096805848012216
:10A38800402103F0B7FD4FF418710123CDE9001304
:10A398000022032352486946CDE9022303F0ACFCAE
:10A3A8002B78012B0ED02B78022B0BD02B78032B7C
:10A3B80008D02B78062B05D02B78072B02D02B78CA
:10A3C8000A2B10D146480022082103F093FD0820EB
:10A3D8000121CDE900010022032341486946CDE966
:10A3E800022303F089FC00223D48022103F082FD8C
:10A3F800022569463A48009503F07EFC002229466A
:10A408004FF0904003F076FD69464FF0904000957C
:10A4180003F072FC80230024CDE9003503260523D0
:10A4280069464FF090400493CDE9024603F064FC7E
:10A438004FF480730093694606234FF09040CDE9AE
:10A448000363CDE9015403F057FC0125224610218E
:10A458004FF09040CDE90154CDE9034403F04AFDA3
:10A46800102369464FF09040009303F045FC4FF4E9
:10A478000413694608224FF09040CDE90023029565
:10A4880003F03AFC22462146092003F005FB092087
:10A4980003F03EFB22463146172003F0FDFA172051
:10A4A80003F036FB06B070BD22460D48402103F08C
:10A4B80021FD0B4822464FF4007103F01BFD62E7B3
:10A4C80007482246402103F015FD5CE70448224670
:10A4D8004FF4007103F00EFD55E700BF950300200F
:10A4E80000040048134B1449DA6930B542F00202FF
:10A4F800DA61DB69114C83B003F002030193002594
:10A508004FF47A73019825613F222046C4E900126E
:10A51800C4E9025305F0AAFC2A4602211D2003F0D3
:10A52800BBFA1D2003F0F4FA204603B0BDE8304022
:10A5380005F0B4BA0010024000040040BC0200203C
:10A5480030B500248BB0CDE90244CDE90444CDE90F
:10A558000644184B08949A69174D42F400629A61B0
:10A568009B696C6103F40063014601932846134B11
:10A57800019A2B60C5E90314C5E9014405F0A8FC5C
:10A588006023029300220023CDE9062302A9224674
:10A598002846CDE903440594089405F00DFD2146AD
:10A5A800284605F049FB2A68536C43F4004353647A
:10A5B8000BB030BD0010024070020020002C01409A
:10A5C80030B500248BB0CDE90244CDE90444CDE98F
:10A5D8000644144B0894DA69134D42F00102DA611B
:10A5E800DB696C6003F0010301934FF0804240F691
:10A5F800FF132846C5E9024301992A602C6105F03A
:10A6080067FC00236022CDE9022302A922462846DE
:10A618000494069405F0D0FC2146284605F00CFB6E
:10A628000BB030BD0010024024020020F0B5002419
:10A6380089B0CDE90244CDE90444CDE906441A4B7A
:10A648001A4D5A6942F080525A615B692C8303F0B3
:10A65800805301934FF0A0432B604FF40033012641
:10A6680007466B6028460423019AEE61C5E9044356
:10A67800C5E9024485F82040AE6285F830406C6335
:10A6880002F0B2F9052302A92846CDE90363CDE912
:10A6980005440297079402F087FC2146284602F0F9
:10A6A80039FC09B0F0BD00BF00100240D8000020FE
:10A6B800014B01221A70704785000020014803F001
:10A6C80091B800BF2C030020044B4FF090416FF06D
:10A6D800A0504FF0FF3208601A60FEE700040048FF
:10A6E80030B5082889B014D0402801D009B030BD51
:10A6F8003B4B1B780A2BF9D102F080F8394A1368D2
:10A70800C31A012BF2D9384910600B6801330B606A
:10A71800ECE7334B1A780B2A12D01A78052A33D073
:10A728001B780A2BE2D102F069F8304A1368C31A81
:10A73800012BDBD92E4910600B6801330B60D5E77C
:10A7480002F05CF82B4A1368C31A012BCED99FED8F
:10A75800227B952301241060029327488DF800403E
:10A7680000238DED047B06948DF81C3002F07AFFEF
:10A77800B8B101AB6A46204802A902F0FDFE1F4AA3
:10A78800136801331360B1E702F038F81C4A136804
:10A79800C31A012BAAD91B4910600B6801330B603F
:10A7A800A4E721461448144D02F038FF022112484C
:10A7B80002F034FF1048042102F030FF4FF47A749D
:10A7C80003E0013CA4B2002CD3D0284602F04AFF93
:10A7D8000028F6D0CDE700BF000000000000000010
:10A7E80095030020A803002070000020AC0300207F
:10A7F8008C000020B40300202C0300204800002017
:10A80800B003002098000020082003F083BB00BF9D
:10A81800402003F07FBB00BF01F0E4BF014805F012
:10A8280015BA00BFBC0200202D4B02689A4200D026
:10A83800704770B52B4B1B7803F0FF056BB92A4C9A
:10A8480023684BB1294E337813BB294801220821CC
:10A8580003F050FB0123337070BD234B24480024C0
:10A86800012240211C6003F045FB224B1B6803B109
:10A878005C63214C2378092B2CD02378052BEBD152
:10A88800BDE870401A4800224FF4007103F032BB53
:10A8980017482A46082103F02DFB357072B6236845
:10A8A800013B236062B62368002BD5D12368002BB7
:10A8B800D2D1114B1A78072ACED01A78062ACBD0D3
:10A8C8001B780A2BC8D0BDE87040094801224021F6
:10A8D80003F010BB06480022402103F00BFBCCE735
:10A8E8000004004086000020A8000020A4000020EA
:10A8F8000004004870020020950300202DE9F84369
:10A90800244C254B25786178A2781B78EDB2CEB21D
:10A91800D7B273B1FF23214A237000236370A37059
:10A9280013702378AB4226D01D4B01221A70BDE864
:10A93800F883DFF8689099F8003033B101F05EFFD2
:10A94800184B1B68C01A0028EBDB4FF0000889F889
:10A95800008001F053FF144B1B68C01A40F2DB5310
:10A9680098420FD8FF2384F8008084F80180A370F0
:10A978002378AB42D8D16378B342D5D1A378BB4210
:10A98800D2D1D4E7FF2384F80080637084F8028072
:10A99800C7E700BFC4000020860000203C0000205C
:10A9A80050000020380000204000002038B51A4828
:10A9B80004F052FF012802D00024204638BD174A6F
:10A9C800174B184D044650781178927800EB4000E8
:10A9D80000EB030C185A288001EB41019CF8020097
:10A9E800A870C81802EB4202595AA5F803108178DA
:10A9F8006971D018995AE98083782B7264220021F2
:10AA080005F10900FDF7A0FD6D222946024804F072
:10AA180039FE204638BD00BFC0010020C400002018
:10AA2800C8040108B803002070B582B072B6824D20
:10AA3800824A0024022304EB440C05EB0C00072196
:10AA4800467815F80CE090F802C0F6B25FFA8EFE70
:10AA58005FFA8CFC46FA01F0C007936119D500BF74
:10AA680000BF00BF00BF00BF00BF00BF00BF00BFE6
:10AA780000BF00BF00BF00BF00BF00BF00BF00BFD6
:10AA880000BF00BF00BF00BF00BF00BF00BF00BFC6
:10AA980000BF00BF00BF00BF00BF00BF00BF00BFB6
:10AAA80000BF00BF00BF00BF00BF00BF00BF00BFA6
:10AAB80000BF00BF00BF00BF00BF936200BF00BF60
:10AAC80000BF00BF00BF00BF00BF00BF00BF00BF86
:10AAD80000BF00BF00BF00BF00BF00BF00BF00BF76
:10AAE80000BF00BF00BF00BF00BF00BF00BF00BF66
:10AAF80000BF00BF00BF00BF00BF00BF00BF00BF56
:10AB080000BF00BF00BF00BF00BF00BF00BF00BF45
:10AB180000BF00BF00BF00BF00BF00BF00BF00BF35
:10AB2800013997D207214EFA01F0C607936119D56A
:10AB380000BF00BF00BF00BF00BF00BF00BF00BF15
:10AB480000BF00BF00BF00BF00BF00BF00BF00BF05
:10AB580000BF00BF00BF00BF00BF00BF00BF00BFF5
:10AB680000BF00BF00BF00BF00BF00BF00BF00BFE5
:10AB780000BF00BF00BF00BF00BF00BF00BF00BFD5
:10AB880000BF00BF00BF00BF00BF00BF936200BF8F
:10AB980000BF00BF00BF00BF00BF00BF00BF00BFB5
:10ABA80000BF00BF00BF00BF00BF00BF00BF00BFA5
:10ABB80000BF00BF00BF00BF00BF00BF00BF00BF95
:10ABC80000BF00BF00BF00BF00BF00BF00BF00BF85
:10ABD80000BF00BF00BF00BF00BF00BF00BF00BF75
:10ABE80000BF00BF00BF00BF00BF00BF00BF00BF65
:10ABF80000BF013997D207214CFA01F0C0079361D1
:10AC08001ED500BF00BF00BF00BF00BF00BF00BF10
:10AC180000BF00BF00BF00BF00BF00BF00BF00BF34
:10AC280000BF00BF00BF00BF00BF00BF00BF00BF24
:10AC380000BF00BF00BF03E0AC00002000040048D4
:10AC480000BF00BF00BF00BF00BF00BF00BF00BF04
:10AC580000BF00BF00BF00BF00BF00BF00BF00BFF4
:10AC680000BF00BF00BF00BF936200BF00BF00BFAE
:10AC780000BF00BF00BF00BF00BF00BF00BF00BFD4
:10AC880000BF00BF00BF00BF00BF00BF00BF00BFC4
:10AC980000BF00BF00BF00BF00BF00BF00BF00BFB4
:10ACA80000BF00BF00BF00BF00BF00BF00BF00BFA4
:10ACB80000BF00BF00BF00BF00BF00BF00BF00BF94
:10ACC80000BF00BF00BF00BF00BF00BF00BF013909
:10ACD80092D20134082C7FF4AEAE62B60023019301
:10ACE800019BB3F57A6F06D2019B01330193019B57
:10ACF800B3F57A6FF8D302B070BD00BF014802F017
:10AD0800B1BF00BF7C01002070B582B03226044676
:10AD18000D460B46024600960948782103F0A6FA2C
:10AD280058B1074803F088FAFFF77AF90448009603
:10AD380078212B46224603F099FA02B070BD00BF75
:10AD480028010020094B1A7802B9704700B583B072
:10AD580003460022022101A88DF804208DF8053051
:10AD6800FFF7D2FF03B05DF804FB00BF0E00002020
:10AD78000D4B1B7803B101B9704710B58029A2B0FB
:10AD880028BF802140230A460C4601460DF10500E4
:10AD98008DF80430FDF72AFC611C89B201A8FFF781
:10ADA800B3FF22B010BD00BF0E0000200E4B1B7871
:10ADB80003B9704700B583B001F00F030A09503892
:10ADC80004214FF0000C10328DF805000DEB010046
:10ADD8008DF804C08DF806308DF80720FFF794FF32
:10ADE80003B05DF804FB00BF0E0000200F4B10B548
:10ADF8005A6942F400325A615B6988B04FF4C06006
:10AE0800122103F40033CDE902010193012202A9C2
:10AE18004FF0904004240323CDE904230694019BBA
:10AE280002F06AFFFFF7FCF808B010BD00100240FE
:10AE380030B583B0FFF7DAFF322001F0E5FC0523D7
:10AE48009548964C0222782103F0ECFC051E0CBFB5
:10AE580001230023237001D003B030BD4FF42E43EB
:10AE6800022101A8ADF80430FFF74EFF2378002B2C
:10AE7800F2D04FF45543022101A8ADF80430FFF792
:10AE880043FF2378002BE7D04FF40043022101A8A9
:10AE9800ADF80430FFF738FF2378002BDCD04FF4EF
:10AEA8002843022101A8ADF80430FFF72DFF2378CD
:10AEB800002BD1D04FF47C53022101A8ADF8043007
:10AEC800FFF722FF2378002BC6D04FF4534302210B
:10AED80001A8ADF80430FFF717FF2378002BBBD08B
:10AEE800022101A8ADF80450FFF70EFF2378002BCC
:10AEF800B2D04FF48043022101A8ADF80430FFF727
:10AF080003FF2378002BA7D04FF40D43022101A89B
:10AF1800ADF80430FFF7F8FE2378002B9CD04FF4EF
:10AF2800A053022101A8ADF80430FFF7EDFE237805
:10AF3800002B91D04FF40053022101A8ADF8043042
:10AF4800FFF7E2FE2378002B86D04FF4007302212E
:10AF580001A8ADF80430FFF7D7FE2378002B3FF4A3
:10AF68007BAF4FF42143022101A8ADF80430FFF76D
:10AF7800CBFE2378002B3FF46FAF4FF448430221F8
:10AF880001A8ADF80430FFF7BFFE2378002B3FF48B
:10AF980063AF4FF45A43022101A8ADF80430FFF71C
:10AFA800B3FE2378002B3FF457AF4FF490530221A0
:10AFB80001A8ADF80430FFF7A7FE2378002B3FF473
:10AFC8004BAF4FF40143022101A8ADF80430FFF75D
:10AFD8009BFE2378002B3FF43FAF4FF44F430221F1
:10AFE80001A8ADF80430FFF78FFE2378002B3FF45B
:10AFF80033AF4FF45943022101A8ADF80430FFF7ED
:10B0080083FE2378002B3FF427AF4FF471430221CE
:10B0180001A8ADF80430FFF777FE2378002B3FF442
:10B028001BAF4FF45B43022101A8ADF80430FFF7D2
:10B038006BFE2378002B3FF40FAF4FF480430221BF
:10B0480001A8ADF80430FFF75FFE2378002B3FF42A
:10B0580003AF4FF42443022101A8ADF80430FFF7F1
:10B0680053FE2378002B3FF4F7AE4FF4264302211A
:10B0780001A8ADF80430FFF747FE2378002B3FF412
:10B08800EBAE4FF42F43022101A8ADF80430FFF7CF
:10B098003BFE03B030BD00BF280100200E00002099
:10B0A800411E00F11B0C002011F8012F082350400D
:10B0B80042B2002AB8BF52004FEA4000B8BF82F03F
:10B0C800070203F1FF33ACBFC0B2D0B213F0FF03E5
:10B0D800EED18C45E8D170472DE9F041002488B0C5
:10B0E800404D1D22694620462C70FEF7CDFE18B152
:10B0F8003D4B009A9A4202D008B0BDE8F0819DF815
:10B108000430052BF8D10DF1FF300DF11B0C224650
:10B1180010F8011F08234A4051B20029B8BF49005E
:10B128004FEA4202B8BF81F0070103F1FF33ACBF19
:10B13800D2B2CAB213F0FF03EED18445E8D19DF82C
:10B148001C109142D8D16C469C4601232B70A64610
:10B158000FCC264F264E38607960BA6007CCFB606A
:10B16800237838617961BA613B773377BEE80F009D
:10B1780030607160B260BEE80700DFF88C80F36071
:10B1880030617161B2619DF810209DF8113088F826
:10B198000020184D88F801309DF813009DF81230F2
:10B1A8009DF814109DF8152088F802300CEB4C031C
:10B1B8000CF1010CE8542B44BCF1080F59709A703B
:10B1C800F4D10D480D4A9DF8174004700C490D4BF9
:10B1D8009DF8194014709DF81A009DF81B200870FE
:10B1E8001A7089E7740300204354525578030020ED
:10B1F80054030020AC0000205300002073030020FB
:10B208007203002071030020C4000020F0B589B04B
:10B218001D2200216846FDF797F972B6734C7449F0
:10B2280022782378009105208DF804008DF80520F8
:10B23800002B40F09E806F4B1B889BB22278ADF8A4
:10B2480006300A2A04BF6B4B1B8822780CBF9BB2BE
:10B258000023052AADF8083004BF674B1B78227815
:10B268000CBFDBB20023052A8DF80A3000F0B2804B
:10B27800002322788DF80B30092A04BF5F4B1B7816
:10B2880022780CBFDBB20023092A8DF80C3000F0BD
:10B298009780002322788DF80D300A2A04BF584B76
:10B2A8001B7822780CBFDBB200230A2A8DF80E30F7
:10B2B80008BF544B544A08BF1978544B1478507837
:10B2C8008DF811000CBFC9B200218DF80F109178CC
:10B2D8001A788DF8121058788DF8132099781A7802
:10B2E8008DF810408DF814008DF8151012B95A78A1
:10B2F800002A40D00123464A8DF8163012788DF87E
:10B30800172044484449454A454B00780978127843
:10B318001B788DF818008DF819108DF81A208DF803
:10B328001B3062B600210DF1FF320DF11B0012F83F
:10B33800013F082459404BB2002BBCBF5B0083F08F
:10B3480007034FEA4101B8BFD9B204F1FF33A8BFE0
:10B35800C9B213F0FF04EED18242E8D1314D8DF825
:10B368001C101C2229466846FDF7DAF940B909B0D5
:10B37800F0BD002362E79B78003B18BF0123BAE7C2
:10B38800294F01F03BFA3B6840F6B732C31A9342A3
:10B398000646ECD920461D226946FEF743FD0028E3
:10B3A800E5D06C460FCC28606960AA6007CCEB60DA
:10B3B80023783E6028616961AA612B7709B0F0BDE6
:10B3C8001A48402102F090FDA0F10103B3FA83F37B
:10B3D8005B095FE710214FF0904002F085FDA0F176
:10B3E8000103B3FA83F35B0943E700BF9503002029
:10B3F80043545255A00000209C00002084000020E7
:10B408009000002074000020C4000020AC00002040
:10B4180053000020860000207303002072030020E0
:10B428007103002054030020800400200004004819
:10B43800F0B5152A1C4F85B0054628BF15220026F1
:10B44800A7FB0103DB0806F1100003EB830CA1EB5B
:10B458004C0C0DEB000E084634460CF1300C01364E
:10B4680009280EF80CCCF6B21946E9D8B24211D820
:10B4780000206EB101AA01341444034614F801CD2A
:10B4880005F803C0591CA242CBB2F7D13044C0B270
:10B4980005B0F0BD921B02F0FF073A46202128466E
:10B4A800FDF752F83846E4E7CDCCCCCC70B514465D
:10B4B800A0B0FFF77BFC2178684681B34FF0000C01
:10B4C8001C4E8646654613E03F2B2CD9CEF800501B
:10B4D8008EF8045014F8011F8EF805500CF1010C79
:10B4E8000EF1060E5FFA8CFCA9B1BCF1150F1CD049
:10B4F800A1F16102A1F12003192ADBB2E4D8203BB3
:10B5080003EB83039BB29919F2580B798EF8043038
:10B51800CEF80020DEE70CEB4C0C4FEA4C01FFF7AD
:10B5280027FC20B070BD0B46E9E77E21FFF720FC21
:10B5380020B070BD8803010808B50021FFF736FC6C
:10B54800BDE8084001488021FFF712BC740B0108D0
:10B55800F0B5642B28BF6423802A144628BF8024B2
:10B568000D06A1B002D40D19802D2CDC1D4D14FB45
:10B5780003F3A5FB0335C5F347157AB36E46B44606
:10B588000023671E0CE0BB420DD001335FFA83FE37
:10B59800AA4294BF5E224222A6450CF8012B0AD289
:10B5A800DAB2002BEFD101335FFA83FE7E22A64583
:10B5B8000CF8012BF4D3FFF7F9FB21463046FFF7CF
:10B5C800D7FB21B0F0BDC1F18004064AE4B214FBF8
:10B5D80003F3A2FB0325C5F34715CFE714466E46D0
:10B5E800E9E700BF1F85EB51F0B5154F154E3B78C5
:10B5F8000C2828BF002003EB800306EB43138400CC
:10B608000FCB85B06D4685E80F006C210520FFF74C
:10B61800CDFB28461021FFF7ABFB3B78E01806EB83
:10B62800401310330FCB85E80F006C210620FFF77D
:10B63800BDFB10212846FFF79BFB05B0F0BD00BFFE
:10B648003500002074180108F0B589B001F0D6F86B
:10B658009E4B1B68C01AC72820D89D4B93E803004F
:10B668006C4684E8030000210846FFF79FFB20464C
:10B67800984C0821FFF77CFB23780B2B00F22D82D6
:10B68800DFE813F0FD01650065001502D4010D0225
:10B6980011001100DC01E701EF011D026C460023D7
:10B6A80000936360DFE78C4B8C4A19688C4B002948
:10B6B80008BF1A460A210020FFF7F8FE2478E4B2F2
:10B6C8000B2C0DD8DFE814F087010C000C000C00DF
:10B6D8005B0130010C000C00D600A20076004B0084
:10B6E8000026804953243346721C20336B44D6B25B
:10B6F80003F8184C8C5D3346002CF5D1764B7A490B
:10B708001A687A4F8A4202AD98BF1968A8190522AB
:10B71800FFF78EFE30442022C0B2811800230DEBC3
:10B728000106611C3344CCB203F8182C3A5D234659
:10B73800002AF6D1204408AB53FA80F000F8182C00
:10B748002A4600210120FFF7B1FE09B0F0BD624B87
:10B75800674A1968624B002908BF1A46AAE70026FB
:10B76800644948243346721C20336B44D6B203F82C
:10B77800184C8C5D3346002CF5D15F4B5A491A683A
:10B788005E4F8A4202AD98BF1968A8190522FFF7D3
:10B798004FFE30442022C0B2811800230DEB010671
:10B7A800611C3344CCB203F8182C3A5D2346002AB6
:10B7B800F6D1BFE70026524948243346721C20338D
:10B7C8006B44D6B203F8184C8C5D3346002CF5D187
:10B7D8004C4B4D4F198802AD0322A81989B2FFF7C7
:10B7E80027FE30442023C0B2C2180DEB0206621CAB
:10B7F8003119D4B201F8183C3B5D002BF7D1204435
:10B8080008AA52FA80F000F8183C99E700263F4948
:10B818004C243346721C20336B44D6B203F8184CC0
:10B828008C5D3346002CF5D1394B3A4A1B783A4F98
:10B8380003EB830303EB83018900A2FB012102AD23
:10B848000322A819C909FFF7F3FD30442023C0B229
:10B85800C2180DEB0206621C3119D4B201F8183C6B
:10B868003B5D002BF7D1204408AA52FA80F000F87B
:10B87800183C65E70026294953243346721C2033B7
:10B888006B44D6B203F8184C8C5D3346002CF5D1C6
:10B89800234B244F198802AD0422A81989B2FFF757
:10B8A800C7FD3044C0B22023C2180DEB0206621C4B
:10B8B8003119D4B201F8183C3B5D002BF7D1204474
:10B8C80008AA52FA80F000F8183C39E74000002036
:10B8D800EC00010895030020A8000020A808010832
:10B8E800C8070108400901089F86010048090108A6
:10B8F800E80701082C09010848000020340901085C
:10B90800F4080108A200002000090108E008010865
:10B918008400002081808080EC080108200901084B
:10B928005A0000201809010800266D4952243346A0
:10B93800721C20336B44D6B203F8184C8C5D334626
:10B94800002CF5D1674B684F196802AD0522A8197C
:10B95800FFF76EFD30442023C0B2C2180DEB02067B
:10B96800621C3119D4B201F8183C3B5D002BF7D1A9
:10B97800204408AA52FA80F000F8183CE0E60026B5
:10B988005A4956243346721C20336B44D6B203F806
:10B99800184C8C5D3346002CF5D1554B554F198802
:10B9A80002AD0422A81989B2FFF742FD30442023D2
:10B9B800C0B2C2180DEB0206621C3119D4B201F8EC
:10B9C800183C3B5D002BF7D1204408AA52FA80F0BE
:10B9D80000F8183CB4E6484A5426002301342033C2
:10B9E8006B44E4B203F8186C165D2346002EF5D1BB
:10B9F800424B434F198802AD0322281989B2FFF739
:10BA080017FD20442023C0B2C2180DEB0204721C9B
:10BA1800A119D6B201F8183CBB5D002BF7D1304410
:10BA280008AA52FA80F000F8183C89E6354B364AE5
:10BA38001978364B002918BF1A463BE6344B1A785A
:10BA4800022A48D01978334A334B012918BF1A46BD
:10BA580030E6324B324A19782F4B002908BF1A4674
:10BA680028E6304A13889BB2002B2AD0234B19882A
:10BA780013888AB29BB29A4223D22B4A1AE62949E2
:10BA88000B889BB2002B24D01C4B274A18880B88A4
:10BA9800264D81B29BB2994228BF2A460AE6244B1A
:10BAA800244A1978244B002918BF1A4602E6234B6A
:10BAB800234A19681D4B002908BF1A46FAE5214A8E
:10BAC800F8E51E4B204A1968184B002908BF1A468A
:10BAD800F0E5164AEEE51D4AECE50F4AEAE500BF37
:10BAE800CC08010894000020D40801080C090108BA
:10BAF8009E00002018090108B8080108A2000020CB
:10BB0800C00801089D000020F8070108780801080E
:10BB18005C000020D80701083808010884000020CC
:10BB280098080108A000002048080108C807010873
:10BB38009C0000200808010868080108A8000020E7
:10BB48001808010858080108880801082808010889
:10BB580070B5234DA0B006460024E0B20021FFF7DF
:10BB680025F9013480212846FFF702F9082CF4D181
:10BB780080221C491C4D6846FCF738FD0021084608
:10BB8800FFF714F980216846FFF7F2F88022174979
:10BB98006846FCF72BFD00210120FFF707F98021FB
:10BBA8006846FFF7E5F8042E28BF002606EB860650
:10BBB800022405EBC615802229466846FCF716FDC7
:10BBC800204600210134FFF7F1F8E4B280216846ED
:10BBD800FFF7CEF8072C05F18005ECD120B070BD39
:10BBE800740B0108F4000108F40B01087401010842
:10BBF80008B5144A144B002111701B78134ADBB2A4
:10BC080013701378012B11D013780F2B4FF0AE005F
:10BC180008D0FFF797F88120FFF794F8CF20FFF7B7
:10BC280091F8AF20BDE80840FFF78CB8AF20FFF7C8
:10BC380089F88120FFF786F8BDE808400F20FFF754
:10BC480081B800BF5200002051000020530000209E
:10BC58002DE9F041854D2B780C2BA0B036D0FFF79D
:10BC6800F3FC834B1B7803F0FF04002B40F0958214
:10BC78002B780B2B12D8DFE813F00C00CA03C4038F
:10BC8800BE03B803EE03E803E203DC03D603D003E4
:10BC9800B203784A10210220FFF708FC764A0021F7
:10BCA8000320FFF703FC2E78F6B20B2E00F2E78391
:10BCB800DFE816F00A025F005F005F00AE02420391
:10BCC8005F005F009F00FD020801DF016D468022D2
:10BCD8006A496B4E2846FCF789FC00210846FFF7A5
:10BCE80065F880212846FFF743F8802265492846F1
:10BCF800FCF77CFC00210120FFF758F8802128463A
:10BD0800FFF736F80224204600210134FFF74EF8E9
:10BD1800E4B280213046FFF72BF8082CF3D1DFF886
:10BD2800A081594F02240CE0FCF760FC002130464A
:10BD3800FFF73CF8013480212846FFF719F8072C53
:10BD48000FD098F8003013F0010FE6B24FF08002E0
:10BD580007EBC4112846E7D080220021FCF7F4FB4A
:10BD6800E4E74A4A0421204620B0BDE8F041FFF745
:10BD78009DBB72B6464A474B1768D3F8008062B637
:10BD8800002F00F070834449444BB94228BF39461C
:10BD980053260022013480326A44E4B202F8806CEF
:10BDA8001E5D2246002EF5D105220DEB0400FFF79B
:10BDB8003FFB20AA031952FA83F3052103F8806C8C
:10BDC8006A460846FFF772FBB8F1000F09D06420F5
:10BDD8003346A7FB00014246FCF716FAC0F1640699
:10BDE800F6B23346552205210720FFF7B1FB287824
:10BDF8003AE12B4B1A78012A00F033831978294A43
:10BE0800294B022908BF1A4605210846FFF74EFBB1
:10BE1800264B274A1878274B0521002818BF1A46B1
:10BE28000620FFF743FB244A5025002301348033C2
:10BE38006B44E4B203F8805C155D2346002DF5D110
:10BE48001E4B1988042289B20DEB0400FFF7F0FAA3
:10BE580020AA031952FA83F3072005216A4603F83A
:10BE6800805CFFF723FB0820FEE000BF950300205D
:10BE780086000020EC090108AC0A0108F401010859
:10BE8800740B010874020108F4140108B0090108D0
:10BE9800A8000020080000209F860100C80A0108A9
:10BEA8005C00002080090108A00901084400002066
:10BEB80064090108540901083C0B01085A000020D4
:10BEC80035000020BB4A13889BB2B3F57A7F38BF90
:10BED8001788B94A34BFBFB240F2E7374E2600236D
:10BEE800013480336B44E4B203F8806C165D23465A
:10BEF800002EF5D1B14B19886D4689B20322281955
:10BF0800FFF796FA0444E4B204F180036B44013469
:10BF1800E4B22F22394603F8802C28190322FFF7B0
:10BF280087FA0444E4B204F1800320A901346B4485
:10BF380051FA84F44322052103F8802C08462A4646
:10BF480004F8806CFFF7B2FA9D4A4C2706F180038B
:10BF580001366B44F6B203F8807C975D002FF5D16B
:10BF6800984B994A1B78DFF8A08203EB830303EB15
:10BF780083018900A2FB0121C9090322A819FFF73F
:10BF880057FA0644F6B206F180036B44252203F8FB
:10BF9800802C01368D4BF6B219680422A819FFF7D8
:10BFA80047FA0644F6B206F1800352240DEB030269
:10BFB8007B1C174407F8804CDFB218F80740002CA8
:10BFC800F6D120AB3E4453FA86F62A4606F8804C52
:10BFD80005210620FFF76AFA7D4A482604F1800108
:10BFE800631C0DEB010404F8806CDCB2165D002EB6
:10BFF800F4D1784B1B7803EB830303EB8301724B7B
:10C008008900A3FB0131C90903222819FFF710FA97
:10C018000444E4B2704A04F180036B4401341168AB
:10C02800E4B2252203F8802C28190422FFF700FA2D
:10C038000444E4B204F1800252230DEB0201721CA5
:10C048000E4406F8803CD6B218F80630002BF6D11C
:10C0580020AA344452FA84F407202A46052104F819
:10C06800803CFFF723FA0A2020B0BDE8F041FFF733
:10C07800BBBA0521594A0846FFF718FA5849492218
:10C088000023013480336B44E4B203F8802C0A5D4A
:10C098002346002AF5D1534B53491A686D468A4204
:10C0A80098BF196805222819FFF7C2F920AA0319B1
:10C0B80052FA83F3002607202A46052103F8806CEC
:10C0C800FFF7F4F90B20CFE73A4A13889BB2B3F590
:10C0D8007A7F38BFB2F80080444A34BF1FFA88F824
:10C0E80040F2E73854240023013680336B44F6B21B
:10C0F80003F8804C945D3346002CF5D12F4F3988D6
:10C108006D4689B20322A819FFF792F98319DBB2A9
:10C118005E1C80336B44F6B22F2203F8802C414614
:10C12800A8190322FFF784F90644F1B201F180034C
:10C13800DFF8D8C020260DEB0300631C0219DCB21F
:10C1480002F8806C1CF80460002EF6D1214420AB64
:10C1580053FA81F3052108462A4603F8806CFFF755
:10C16800A5F9234B234A1978234B0620002918BF29
:10C178001A460521FFF79AF93B88204964209BB2AB
:10C1880000FB03F3A1FB031307205522C3F3072386
:10C198000521FFF7DDF9304666E7194A0A21022032
:10C1A800FFF784F9174A0A21032020B0BDE8F041BF
:10C1B800FFF77CB9A0000020200B0108A200002096
:10C1C800280B0108900000208180808088000020D2
:10C1D800340B0108740000206C000020480B010893
:10C1E800580B0108480000209F860100B808010884
:10C1F800440000206409010854090108C5B3A2914C
:10C20800C4090108D8090108300B0108C40A01084B
:10C218009D4B56260022013480326A44E4B202F86B
:10C22800806C1E5D2246002EF5D1984B19886D460C
:10C23800032289B22819FFF7FBF820AA031952FA3A
:10C2480083F3052103F8806C08462A46FFF72EF988
:10C258008F494F2306F1800201366A44F6B202F88C
:10C26800803C8B5D002BF5D18A4A8B491278002AD5
:10C278008A4A06F180000ABF11464F2446241A460E
:10C28800684401330244DBB202F8804CCC5C1A46A5
:10C29800002CF6D120AA334452FA83F307202A4609
:10C2A800052103F8804CFFF701F90420DCE67C4AFD
:10C2B80050250023013480336B44E4B203F8805CDA
:10C2C800155D2346002DF5D1764E032231780DEB0E
:10C2D8000400FFF7ADF80319DBB203F180020DEBA0
:10C2E8000200013320AA52FA83F30521252400F81D
:10C2F800804C6A46084603F8805CFFF7D7F86A4B1B
:10C308006A4A18786A4B0521002818BF1A46062081
:10C31800FFF7CCF83378674803EB830303EB830319
:10C328009B00A0FB0303552207200521C3F3C71375
:10C33800FFF70EF9092097E65F4A522600230134D9
:10C3480080336B44E4B203F8806C165D2346002EFC
:10C35800F5D15A4B6D46196805222819FFF768F878
:10C3680020AA031952FA83F3052108462A4603F83E
:10C37800806CFFF79BF84C4B4C4A19784C4B0620C5
:10C38800002918BF1A460521FFF790F84C49532495
:10C398003346721C80336B44D6B203F8804C8C5DF4
:10C3A8003346002CF5D1474B03221978A819FFF71B
:10C3B8003FF88319DBB203F180020DEB0201013370
:10C3C80020AA52FA83F3252701F8807C07202A4601
:10C3D800052103F8804CFFF769F8052044E63A4A3E
:10C3E80010210220FFF762F858E4384A1021022091
:10C3F800FFF75CF852E4364A10210220FFF756F89E
:10C408004CE4344A10210220FFF750F846E4324A3F
:10C4180010210220FFF74AF840E4304A1021022098
:10C42800FFF744F83AE42E4A10210220FFF73EF8BD
:10C4380034E42C4A10210220FFF738F82EE42A4A67
:10C4480010210220FFF732F828E4284A10210220A0
:10C45800FFF72CF822E4264A10210220FFF726F8DD
:10C468001CE4244AD0E405210846234AFFF71EF8B5
:10C478006423552205210720FFF76AF8B7E41F4A0D
:10C488000A21052070E400BFE40A01089E0000208C
:10C49800F40A01089D0000207C09010874090108BC
:10C4A800140B0108840000204400002064090108DE
:10C4B8005409010881808080FC0A0108940000204A
:10C4C800080B01089C0000209C0A01082C0A01089E
:10C4D8001C0A01080C0A0108FC0901088C0A010859
:10C4E8007C0A01086C0A01085C0A01084C0A010868
:10C4F8003C0A010890090108D40A0108640B0108E4
:10C508000B4B1B78052B11D172B60A4A0021136810
:10C51800116062B6084A4FF4C87101FB03F3136057
:10C52800116842F20F73994288BF1360704700BFC9
:10C538009503002098000020940000200A4B1B78E7
:10C548000A2B10D172B6094A00211368116062B62D
:10C55800074AC82101FB03F31360116842F20F7305
:10C56800994288BF13607047950300208C00002013
:10C57800880000200E4B1B78092B04D110B50D4CF8
:10C5880023780BB910BD704700F038F90A4B1B68C7
:10C59800C01AFA28F6D9094B09481B6800222270EC
:10C5A80040215A6301F0A6FC064B01221A7010BD07
:10C5B80095030020840000208000002070020020E5
:10C5C80000040048860000200F4B1B78052B04D17F
:10C5D80010B50E4C23780BB910BD704700F00EF95A
:10C5E8000B4B1B68C01AFA28F6D90A4B0A481B6875
:10C5F800002222704FF400715A6301F07BFC074B54
:10C6080001221A7010BD00BF950300209C00002075
:10C618007C000020700200200004004886000020F2
:10C6280038B50B4B1B782BB90A4C03F0FF05238850
:10C638009BB203B938BD00F0E1F8074B1B68C01A7C
:10C64800FA28F7D9054B258001221A7038BD00BF9A
:10C6580095030020A0000020640000208600002030
:10C668000B4B1B780A2B05D110B50A4C23889BB2BB
:10C678000BB910BD704700F0C1F8074B1B68C01A12
:10C68800FA28F6D9054B0021012221801A7010BD25
:10C6980095030020A00000206000002086000020F4
:10C6A8000D4B1B780A2B04D110B50C4C23780BB911
:10C6B80010BD704700F0A2F8094B1B68C01AB0F50E
:10C6C8007A7FF5D9074B084A18680121002323709F
:10C6D8004363117010BD00BF950300209000002037
:10C6E8007800002070020020860000200A4B1B788A
:10C6F8000A2B10D172B6094A00211368116062B67C
:10C70800074AC82101FB03F31360116842F20F7353
:10C71800994288BF1360704795030020700000207D
:10C728006C00002008B50E4B1B780A2B12D10D4B5C
:10C738001B780A2B0FD90C4B1B6863B900F05EF805
:10C748000A4A126840F6B833801A984202D9084B50
:10C7580001221A7008BD00F051F8044B186008BD9A
:10C7680095030020740000206C0000208404002041
:10C7780086000020704700BF38B50E4A0E4B12786D
:10C78800054618684FF47A73B3FBF2F3B0FBF3F085
:10C7980001F0CCF908B90F2D01D9012038BD0446A4
:10C7A800024629464FF0FF3001F076F9034B204648
:10C7B8001D6038BD0F000020000000201000002080
:10C7C800074A08B5136843F010031360032001F00B
:10C7D80051F90F20FFF7D0FFFFF7CCFF002008BD6D
:10C7E80000200240034A044B11681B780B44136075
:10C7F800704700BF880400200F000020014B186814
:10C80800704700BF8804002038B50446FFF7F6FFDC
:10C81800631C054602D0044B1B781C44FFF7EEFF4F
:10C82800401BA042FAD338BD0F000020704700BF5C
:10C83800026838B5936803F00303012B01D0002088
:10C8480038BD1368DC07FAD5936803F00D03012B94
:10C85800044609D0236C43F010032364636C43F04F
:10C8680001036364012038BD9368032143F0020388
:10C8780093601160FFF7C2FF23689B68D9070546DC
:10C88800DDD5FFF7BBFF401B0228236802D99A6851
:10C89800D207DFD49B68DB07F3D4D0E703689A6834
:10C8A80012F00C0F01D100207047DA6870B59501BD
:10C8B800044604D5008B40F20112904234D060291E
:10C8C8009A6844D0500706D59A68920703D49A68A4
:10C8D80042F010029A600C2935D09A68100706D5E4
:10C8E8009A68920703D49A6842F020029A606C29E9
:10C8F80029D10C25FFF782FF236806469B681D4255
:10C9080023D0FFF77BFF831B0B2B2368F6D99A688C
:10C918002A42F3D0236C43F010032364636C43F082
:10C9280001036364012070BD1A68500606D4124AD8
:10C9380001E0013AEED019684906FAD540221A609A
:10C948009A6856070FD40425D4E7002070BD16074F
:10C9580001D40825CEE79A689507FAD49A6842F078
:10C9680020029A60F5E79A689507ECD49A6842F035
:10C9780010029A60E7E700BF00940900026838B522
:10C98800936803F00303012B044626D09168154BE6
:10C99800194209D0236C43F010032364636C43F0FD
:10C9A80001036364012038BD936843F00103936079
:10C9B800FFF724FF236805461B68D9070BD4FFF748
:10C9C8001DFF431B022B2368F6D91A68D207E1D54D
:10C9D8001B68D907F3D5002038BD1368D807D5D50B
:10C9E8000020F9E73F00008030B597B0002301939D
:10C9F800D0B1036C13F01003044618D1056C002D58
:10CA080000F0998002689168CD0040F182809168B9
:10CA180088007ED4216CC90600D463B1236C23F04E
:10CA2800120343F010032364012017B030BD036CD8
:10CA3800DA06F3D4026893685B07EFD4236C23F417
:10CA4800817343F00203B2F1A04F2364814B00F0DD
:10CA5800DE809A4200F0E28003F540739A4277D074
:10CA68007D498A4200F0EC80936803F00303012BB0
:10CA780000F0E88079488368616823F440330B4309
:10CA88008360D4E902130B43616B607E013918BFE0
:10CA9800012143EA403343EA013394F82010012985
:10CAA80000F09980A16A01290CD06D48824200F0FB
:10CAB800A28000F58070824200F09D80E06A1843F1
:10CAC80040EA0103916811F00C0F0CD1D16821F4F0
:10CAD800804121F00201D16094F83010207E490095
:10CAE80041EA80310B43D0685E490140206919430F
:10CAF8000128D16077D0136B23F00F031363002054
:10CB08006064236C23F0030343F00103236417B02C
:10CB180030BD236C23F0120343F010032364636CCD
:10CB280043F001036364236C236C23F0120343F086
:10CB38001003236478E7C0E91255456480F83C5037
:10CB4800FFF774FE22689368DB0012D52B465AE77C
:10CB5800414B42489168029301F00301012958D0E2
:10CB6800996801F00301012985D11B68DD0788D484
:10CB780081E72046FFF75CFE226C12F0100F034697
:10CB880022687FF440AF00287FF43DAF216C364D1A
:10CB980021F4885121F0020141F0020121649068DA
:10CBA800296820F040509060906840F08050906074
:10CBB8002E48A0FB0101890C01EB8101490001917C
:10CBC800019900293FF41FAF019901390191019999
:10CBD8000029F9D117E728BB616A013943EA4141C5
:10CBE80041F480335EE7116BE36921F00F01013BEB
:10CBF8000B43136383E7B1F5307F1ED0B1F5807F17
:10CC080025D0B1F5E07F08BF4FF4807156E718488A
:10CC1800A0E71168C9073FF534AFA1E714484FF002
:10CC2800A04397E7216C21F0220141F02001216403
:10CC3800616C41F00101616434E74FF4E0713DE754
:10CC4800064887E71368DB073FF51BAF12E74FF489
:10CC5800307133E700010050000500500007005014
:10CC68000004005007C0F0FF0000002083DE1B43D3
:10CC78000003005038B503689D6815F004052BD1F2
:10CC880090F83C30012B044626D0012380F83C3034
:10CC9800FFF774FEE8B9226C236822F4706222F070
:10CCA800010242F48072B3F1A04F226416D0354AD3
:10CCB80093425DD0344A9268D10611D033498B42F1
:10CCC8000ED0226C42F480122264CA68920114D5F4
:10CCD8000DE084F83C5038BD022038BD2C4A9268DB
:10CCE800226C22F480122264DA68950105D5226C40
:10CCF80022F4405242F480522264226C12F4805290
:10CD08001CBF626C22F00602626400211C22B3F18F
:10CD1800A04F84F83C101A6018D01A4A934215D0D4
:10CD2800194A9168C9060CD0916801F01F010529BC
:10CD380007D0926802F01F02092A02D0134A9342D0
:10CD4800C9D19A6842F004029A6038BD104A9168C5
:10CD5800CC06F6D0916801F01F010529F1D0926840
:10CD680002F01F02092AECD0B3F1A04FE9D038BD78
:10CD780002F500729268D506B2D0226C4FF0A0413D
:10CD8800A0E700BF00010050000700500004005059
:10CD98000003005090F83C30012B1DD0012310B542
:10CDA8006C2180F83C300446FFF778FD18B1002369
:10CDB80084F83C3010BD2046FFF73AFD0028F6D134
:10CDC800236C23F4885323F0010343F00103236405
:10CDD800002384F83C3010BD022070472DE9F04153
:10CDE80044690368082C05460E460FD0B3F1A04FDE
:10CDF8005CD04248424A4349834218BF0A46916878
:10CE0800CC063AD1DA68D0073BD40C24B3F1A04F52
:10CE180049D03A4A934250D03A4A9268D20647D10A
:10CE2800DF68FFF7EBFC2A6880461368234204D1C9
:10CE3800731C16D113682342FCD02B6C43F4007387
:10CE48002B64D36807F4005103F440630B4302D109
:10CE58001368180739D47B0400D414600020BDE897
:10CE6800F081C6B913682340DFD12A6C85F83C30BD
:10CE780042F004022A640320F1E7926812F4404F5A
:10CE8800C3D02B6C43F020032B64002385F83C307F
:10CE98000120BDE8F081FFF7B1FCA0EB0800B0422B
:10CEA8002A68C2D9DEE7164A9268B9E7144AA6E7A3
:10CEB800154A9342B4D0D768B3E702F50072926876
:10CEC800D106ADD04FF0A042F5E7936813F0040FF8
:10CED8002B6C0AD123F480732B642B6CD904BAD43D
:10CEE8002B6C43F001032B64B5E743F020032B645C
:10CEF8006B6C43F001036B64ADE700BF00010050A9
:10CF08000003005000070050000400500368186C2C
:10CF1800704700BFF8B590F83C30012B40D001278E
:10CF280080F83C7004460D46FFF782FC0646002850
:10CF380031D1236827649A68BD4222F080429A6002
:10CF480003D19A6842F080429A609A6842F000429F
:10CF58009A60FFF753FC236805469B68002B14DA98
:10CF6800FFF74CFC431B0A2B2368F6D99A68002A62
:10CF7800F3DA236C002223F0120343F01003012696
:10CF880084F83C2023643046F8BD236C23F0030367
:10CF980043F001032364002384F83C303046F8BD95
:10CFA80002263046F8BD00BF70B490F83C2097B018
:10CFB8000346012A4FF00000019000F0EA800120AA
:10CFC8001A6883F83C00906840073ED44D680C68A6
:10CFD80005EB4500042D4FEA400000F28D80156BEB
:10CFE8004FF01F0C0CFA00FC25EA0C0504FA00F0BF
:10CFF80028431063906810F00C0F3AD1092C886808
:10D0080004EB440500F2888056694FF0070CA840ED
:10D018000CFA05F526EA050528435061D0680D6924
:10D028004E69C0F3C1004000013D86404FEA846C60
:10D03800032D00F23F81DFE815F013000F01050111
:10D04800FB001568ED0740F18D801A6C42F0200254
:10D058001A640120002283F83C2017B070BC704786
:10D06800156EA648284040EA0C00304340F00040C6
:10D078001066906800F00300012800F08580CD68F4
:10D088000120012D00FA04F000F08780D2F8B010DA
:10D0980021EA0001C2F8B010B2F1A04F00F0998067
:10D0A80097498A424FD0102C00F09C809549112C4A
:10D0B80040F089808868C5011CD4B2F1A04F90481F
:10D0C80049D0824245D09048824200F0F1808F4D8D
:10D0D800AA4240D0906800F00300012848D11268A5
:10D0E800D207B2D4102C05D0112C03D08A6842F490
:10D0F80080028A600020ADE7092D19D90E2D00F2B3
:10D108008C80956B3C381F26864025EA060504FA74
:10D1180000F0284390636DE796691E3D4FF0070CB9
:10D12800A8400CFA05F526EA05052843906175E73D
:10D13800556B1E381F26864025EA060504FA00F0BE
:10D148002843506356E7102C7149B0D18868000213
:10D15800D0D44FF0A0409568029005F00305012D4A
:10D168003FF46FAF856805F00305012D00F09B8043
:10D17800102C7BD0112CB9D1B2F1A04FBAD18A684A
:10D1880042F080728A60B5E71068C6077FF577AF0E
:10D19800B0E7022017B070BC70478D68D2F8B010A5
:10D1A800092C41EA0001C2F8B01021D904EB44006F
:10D1B80091691B380726854006FA00F021EA00012C
:10D1C8002943916168E7122C94D18868400291D470
:10D1D80073E7102C4E497FF46AAF8868050289D43A
:10D1E8004748B8E74749886806027FF56CAF81E78A
:10D1F800601C516900EB40000726854006FA00F0E4
:10D2080021EA00012943B2F1A04F51613FF472AF06
:10D218003B498A427FF44AAF6CE7D56B5A381F26E0
:10D22800864025EA060504FA00F02843D063E1E6C3
:10D23800D56E3248284040EA0C00304340F00040A8
:10D24800D06616E7956E2D48284040EA0C0030431A
:10D2580040F0004090660CE7556E2848284040EAA8
:10D268000C00304340F00040506602E7B2F1A04F96
:10D278007FF440AF274A284C12688868A4FB024212
:10D28800920C02EB8202520040F400008860019286
:10D29800019A002A3FF42EAF019A013A0192019AAD
:10D2A800002AF9D126E70068C6073FF5CEAE5FE74A
:10D2B800164850E7106E00F0F840604514D0506EE4
:10D2C80000F0F840604514D0906E00F0F8406045DA
:10D2D80024D0D06E00F0F84060457FF4CAAED06E1E
:10D2E80020F00040D066C4E6106E20F000401066C2
:10D2F800E5E7506E20F000405066E5E700F0FF8358
:10D3080000010050000700500004005000050050C4
:10D31800000300500000002083DE1B43906E20F0C5
:10D3280000409066D5E700BF704700BF00287BD05B
:10D3380038B590F820300446002B72D02268136864
:10D3480043F001031360FFF759FA054604E0FFF7BD
:10D3580055FA401B0A285BD823685A68D107F6D5C6
:10D368001A6822F002021A60FFF748FA054604E03C
:10D37800FFF744FA401B0A284AD823685A689207DC
:10D38800F6D4227E012A1A680CBF42F0800222F0ED
:10D3980080021A60627E012A1A680CBF42F04002BD
:10D3A80022F040021A60A27E012A1A680CBF42F0DD
:10D3B800200222F020021A60E27E012A1A680CBFBD
:10D3C80022F0100242F010021A60227F012A1A6825
:10D3D8000CBF42F0080222F008021A60627F012A9C
:10D3E8001A680CBF42F0040222F004021A60D4E961
:10D3F8000220216902430A436069616802430139D6
:10D408000A4300200121DA61606284F8201038BDE7
:10D41800636A052243F40033636284F82020012004
:10D4280038BDFFF781FF89E70120704770B490F895
:10D4380020200468013A012A07D9426A034642F4C7
:10D448008022012070BC5A627047D4F800324A69C1
:10D45800CD6943F00103C4F8003202F01F00012334
:10D468008340D4F81C0220EA0300C4F81C02D84305
:10D47800002D3DD1D4F80C52CE680540C4F80C52AA
:10D488008D8804EBC20245EA0645C2F840528E6810
:10D498000D8845EA0645C2F844528A6912BBD4F899
:10D4A80004220240C4F804220A69AAB9D4F8142252
:10D4B8001040C4F814020A6A012A04D1D4F81C22C4
:10D4C8001343C4F81C32D4F8003223F001030020BF
:10D4D800C4F8003270BC7047D4F814221A43C4F858
:10D4E8001422E8E7D4F804221A43C4F80422DBE73C
:10D4F800012DD2D1D4F80C520E681D43C4F80C5239
:10D508008D8804EBC20245EA0645C2F840528E688F
:10D518008D8945EA0645C2F84452BEE738B590F809
:10D528002030012B044605D0436A43F400234362AC
:10D53800012038BD0268022380F82030136823F0E8
:10D5480001031360FFF75AF9054604E0FFF756F99F
:10D55800431B0A2B07D823685B6813F00103F5D136
:10D568006362184638BD636A052243F40033636278
:10D5780084F82020DCE700BF30B490F820C00568AC
:10D588000CF1FF3CBCF1010FAC6839D814F0E05F36
:10D5980006D1436A43F400134362012030BC70474C
:10D5A800C4F301640120A04018608B686BB3C8689D
:10D5B8000343486843EAC00304F1180000012B50F4
:10D5C80005EB041C0B69CCF884310B7D012B4FEA69
:10D5D800041105D1DCF8843143F48073CCF884312C
:10D5E8006B185168C3F88C111268C3F88821DCF8ED
:10D5F800803143F00103002030BCCCF88031704703
:10D60800436A43F480234362C7E7CB68086843EA68
:10D61800405004F118031B01E850D1E790F820208E
:10D62800013A012A034605D9426A42F480220120C0
:10D638005A627047CA0704D50068826842F08002BF
:10D648008260880704D51868826842F400428260C4
:10D658004A0704D51A68936843F4000393600020CE
:10D66800704700BF90F82030013B012B01D9002002
:10D678007047036898689A689B681201C0F38060D5
:10D6880048BF0130DB00F3D50130704790F820C067
:10D698000CF1FF3CBCF1010F6BD870B5046841B9BF
:10D6A800E568AD0708D1436A43F4001343620120DB
:10D6B80070BD2569AE07F6D004EB011C4FEA011EC8
:10D6C800DCF8B05105F004059560002D57D0DCF862
:10D6D800B051ED085560DCF8B05105F00205D56091
:10D6E800DCF8B4512D0758BFDCF8B451DCF8B4614C
:10D6F80054BF05F00F05082515617444DCF8B451D2
:10D70800C6F3072696612D0CD4F8B86155611E70D2
:10D7180002687244D2F8B821120A5A700268724438
:10D72800D2F8B821120C9A7002687244D2F8B82163
:10D73800120EDA7002687244D2F8BC211A710268BB
:10D748007244D2F8BC21120A5A7102687244D2F8A3
:10D75800BC21120C9A7102687244D2F8BC21120ED4
:10D76800DA71026881B9D36843F02003D3600020DE
:10D7780070BD436A43F48023436201207047DCF89C
:10D78800B0516D0D1560A6E7136943F020031361CE
:10D79800EDE700BF90F82020013A012A034605D999
:10D7A800426A42F4802201205A6270470268536933
:10D7B8000B43002053617047704700BF704700BF9C
:10D7C800704700BF704700BF704700BF704700BF79
:10D7D800704700BF704700BF704700BF704700BF69
:10D7E800704700BF2DE9F84F03685C69D3F80480DF
:10D7F8009F68D3F80CB0D3F81090D3F818A014F0A1
:10D80800010605461FD0F90700F19B800026F9059F
:10D818000BD52B684FF480729A60BA0500F1DE8050
:10D828007B0540F1D18046F40056F9030BD52B68EF
:10D838004FF480329A60BA0300F1D4807B0340F140
:10D84800C88046F40046210702D51BF0100F72D19C
:10D85800620702D51BF0080F7ED1A30704D52B68F9
:10D86800DB689F0740F09880600602D519F0100F1A
:10D878005BD1A10602D519F0080F74D1E20603D5D1
:10D888002B681B699B077CD1A70302D518F0100FE2
:10D898007BD1E00302D518F0080F6BD1210440D5E5
:10D8A80018F0040F2B683AD0E20544BF0AF00102D1
:10D8B8001643A70574D4610504F400622BD51AF049
:10D8C800040F28D046F00406002A77D01AF0700A10
:10D8D80074D0BAF1400F00F0A88000F28780BAF146
:10D8E800200F00F0BD80BAF1300F00F0B080BAF11F
:10D8F800100F40F095809A69042122F070029A6115
:10D9080046F0080659606B6A334328466B62FCF799
:10D91800CFFEBDE8F88F12B11AF0700AD9D10422EF
:10D928005A60002EEFD1BDE8F88F2B68102246F41C
:10D9380080661A619DE72B68102246F40076DA604B
:10D9480086E701229A60BA0735D47B0739D43E07A7
:10D958005BD54FF480565AE72B680822DA602846D0
:10D96800FFF736FF79E72B6808221A612846FFF788
:10D9780033FF83E72B6808225A602846FFF730FFF9
:10D988008CE72846FFF726FF7EE72B6810225A60AF
:10D998002846FFF723FF7CE72846FBF79BFA63E757
:10D9A8001AF0020F87D0600546F0020604F4006200
:10D9B80085D41AB18AE7FFF7FFFE27E704225A60E9
:10D9C800A1E74FF4006622E7380525D546F48046DE
:10D9D8002BE738031CD546F4803634E72846FFF792
:10D9E800EDFE22E72846FFF7EBFE2CE7BAF1500FD1
:10D9F80024D0BAF1600F13D19A69042122F0700281
:10DA08009A6146F4807659607DE7FFF7DBFEFDE614
:10DA18002846FFF7DBFE16E72846FFF7D5FE04E7A2
:10DA28009A6922F070029A6179E79A69042122F0D2
:10DA380070029A6146F04006596064E79A690421C9
:10DA480022F070029A6146F0800659605BE79A6995
:10DA5800042122F070029A6146F02006596052E7CC
:10DA68009A69042122F070029A6146F01006596002
:10DA780049E700BF0749CA6803024FF6FF0003F4ED
:10DA8800E0630240134343F0BF6343F40033CB60C9
:10DA9800704700BF00ED00E01B4BDB68C3F30223B7
:10DAA80000B5C3F1070EBEF1040F03F1040C28BF43
:10DAB8004FF0040EBCF1060F1CD9A3F1030C4FF074
:10DAC800FF3303FA0CF322EA03024FF0FF3303FAA1
