:020000040800F2
:1000000000A0002085070008D50700086524000827
:10001000D5070008D5070008D50700080000000034
:10002000000000000000000000000000D5070008EC
:10003000D507000800000000D50700087D2400084F
:10004000D5070008D5070008D5070008D507000820
:10005000D5070008D5070008D5070008D507000810
:10006000D5070008D5070008D5070008D507000800
:10007000D5070008D5070008D5070008D5070008F0
:10008000D5070008D5070008D5070008D5070008E0
:10009000D5070008D5070008D5070008D5070008D0
:1000A000D5070008D5070008D5070008D5070008C0
:1000B000D5070008D5070008D5070008D5070008B0
:1000C000D5070008D5070008D5070008D5070008A0
:1000D000D5070008D5070008D5070008D507000890
:1000E000D5070008D5070008D5070008D507000880
:1000F000D5070008D5070008D5070008D507000870
:10010000000000000000000000000000D50700080B
:10011000D5070008D5070008D5070008D50700084F
:10012000D5070008D5070008D5070008D50700083F
:10013000D5070008D50700080000000000000000F7
:10014000D5070008D5070008D50700080000000003
:10015000000000000000000000000000000000009F
:100160000000000000000000D5070008D5070008C7
:10017000D50700080000000000000000000000009B
:0801800000000000D507000893
:100188000348044B834202D0034B03B1184770471E
:100198001400002014000020000000000548064B51
:1001A8001B1AD90F01EBA301491002D0034B03B16D
:1001B80018477047140000201400002000000000B9
:1001C80010B5064C237843B9FFF7DAFF044B13B197
:1001D8000448AFF300800123237010BD18000020ED
:1001E80000000000043E000808B5044B1BB1044998
:1001F8000448AFF30080BDE80840CFE700000000E6
:100208001C000020043E000853B94AB9002908BF61
:1002180000281CBF4FF0FF314FF0FF3000F06AB9E3
:10022800ADF1080C6DE904CE00F006F8DDF804E045
:10023800DDE9022304B070472DE9F047089D0E461A
:1002480004460F46002B4AD194468C45B2FA82F2F6
:1002580060D942B1C2F12003974020FA03F30CFAA7
:1002680002FC1F4394404FEA1C4E1FFA8CF6B7FB62
:10027800FEF1230C0EFB117743EA074301FB06F05E
:1002880098420AD91CEB030301F1FF3780F015816E
:10029800984240F21281023963441B1AA4B2B3FB9C
:1002A800FEF00EFB103344EA034400FB06F6A642B8
:1002B8000AD91CEB040400F1FF3380F00081A64248
:1002C80040F2FD806444023840EA0140A41B00214A
:1002D8001DB1D4400023C5E90043BDE8F0878B4237
:1002E80005D90DB1C5E9000100210846F5E7B3FAC3
:1002F80083F1002946D1B34202D3824200F2F5804D
:10030800841A66EB030201201746002DE5D0C5E9E3
:100318000047E2E7002A40F09380A1EB0C034FEA84
:100328001C471FFA8CFE0121B3FBF7F607FB1630BA
:10033800230C43EA00430EFB06F0984208D91CEB55
:10034800030306F1FF3802D2984200F2D0804646F5
:100358001B1AA4B2B3FBF7F007FB103344EA0344BB
:100368000EFB00FEA64508D91CEB040400F1FF3380
:1003780002D2A64500F2B6801846A4EB0E0440EA65
:100388000640A5E7C1F120078B4022FA07FC4CEA9A
:10039800030C06FA01FE20FA07F426FA07F344EAEA
:1003A8000E0400FA01F84FEA1C404FEA1449B3FB67
:1003B800F0FE1FFA8CF600FB1E3349EA03430EFBDE
:1003C80006F9994502FA01F20BD91CEB03030EF169
:1003D800FF3A80F08580994540F28280AEF1020EA6
:1003E8006344A3EB0909A4B2B9FBF0F300FB13992A
:1003F80044EA094403FB06F6A64208D91CEB0404A8
:1004080003F1FF3068D2A64266D9023B644443EA4E
:100418000E40A41BA0FB02E6B4427346B14652D379
:100428004FD05DB1B8EB030264EB090404FA07F797
:1004380022FA01F31F43CC40C5E9007400214CE7C0
:10044800C2F1200120FA01F30CFA02FC26FA01F1AC
:10045800964033434FEA1C471FFA8CFEB1FBF7F076
:1004680007FB1016190C41EA064100FB0EF68E42F6
:1004780004FA02F408D91CEB010100F1FF382DD26F
:100488008E422BD902386144891B9BB2B1FBF7F627
:1004980007FB161143EA014306FB0EF1994208D9FE
:1004A8001CEB030306F1FF3814D2994212D9023E1D
:1004B80063445B1A46EA004136E73946EDE61846DA
:1004C80002E7F045ADD2BEEB020366EB0C0601383D
:1004D800B146A6E74646ECE7034698E74046D3E729
:1004E800D6467EE76444023847E708460DE7023EF1
:1004F80063442DE7704700BF70B50F4B0F4DAB42FB
:10050800A3EB050607D0B610002455F8043B0134C8
:100518009847A642F9D803F071FC094D094B5E1BB8
:10052800AB424FEAA60606D0002455F8043B013436
:100538009847A642F9D870BD644000086440000896
:100548006440000868400008830730B547D0541E4F
:10055800002A3ED0CAB2034601E0013C39D303F871
:10056800012B9D07F9D1032C2CD9CDB205EB05251C
:100578000F2C05EB054535D9A4F1100222F00F0C1C
:1005880003F1100EE6444FEA121C1A46C2E9005560
:10059800C2E9025510327245F8D10CF1010214F08B
:1005A8000C0F03EB021204F00F0C13D0ACF1040390
:1005B80023F003030433134442F8045B9342FBD152
:1005C8000CF003042CB1C9B21C4403F8011BA3426C
:1005D800FBD130BD64461346002CF4D1F9E703463D
:1005E8001446C0E71A46A446E0E700BF844641EA3D
:1005F800000313F003036DD1403A41D351F8043B93
:1006080040F8043B51F8043B40F8043B51F8043BE4
:1006180040F8043B51F8043B40F8043B51F8043BD4
:1006280040F8043B51F8043B40F8043B51F8043BC4
:1006380040F8043B51F8043B40F8043B51F8043BB4
:1006480040F8043B51F8043B40F8043B51F8043BA4
:1006580040F8043B51F8043B40F8043B51F8043B94
:1006680040F8043B51F8043B40F8043B51F8043B84
:1006780040F8043B51F8043B40F8043B403ABDD2F3
:10068800303211D351F8043B40F8043B51F8043B95
:1006980040F8043B51F8043B40F8043B51F8043B54
:1006A80040F8043B103AEDD20C3205D351F8043B24
:1006B80040F8043B043AF9D2043208D0D2071CBFF0
:1006C80011F8013B00F8013B01D30B880380604619
:1006D800704700BF082A13D38B078DD010F003038F
:1006E8008AD0C3F10403D21ADB071CBF11F8013BFF
:1006F80000F8013B80D331F8023B20F8023B7BE74E
:10070800043AD9D3013A11F8013B00F8013BF9D278
:100718000B7803704B7843708B7883706046704712
:10072800032A30B415D941EA0004A40784460B46CD
:1007380004D0541E0FE0043A032A08D9194660462B
:1007480053F8044B5CF8045BA542F4D0F1E760462B
:100758001946541E7AB1431E0139021901E09A4222
:1007680009D013F8010F11F801CF6045F7D0A0EBBD
:100778000C0030BC7047002030BC7047DFF834D024
:1007880000F026F80C480D490D4A002302E0D45821
:10079800C4500433C4188C42F9D30A4A0A4C0023C3
:1007A80001E013600432A242FBD3FFF7A5FE01F07B
:1007B80023F9FEE700A0002000000020140000201C
:1007C8006C40000818000020300D0020FEE70000F3
:1007D800034AD2F8883043F47003C2F8883070476F
:1007E80000ED00E02DE9F04FCDB00DF12C09834666
:1007F8001BAF0CA84A464B780E78CD788C781B0432
:1008080043EA06632B4343EA042342F8043FBA420F
:1008180001F10401EFD10CAE1A9B1B9C56F8C01BCA
:100828001F46D0F824C00D4650F8041F4FEAF7427F
:1008380082EA77424FEAB14382EA972283EAF113C8
:10084800624483EAD1031A442746B04205EB020406
:10085800C463E6D1DBE90012DBF80830DBF81C5092
:10086800DBF80C400395DBF81000DBF81470DBF8BC
:10087800186005940194CDE90912314DDDF80CA0FA
:1008880004930690079708969E4614468C46CDF822
:100898002CB005E03E46A6460746644640469C46C0
:1008A80055F8042F59F8041F4FEAF02383EAB013D0
:1008B8000A4483EA7063134426EA000800EA070240
:1008C80088EA02084FEA7C3282EABC0282EABC5219
:1008D80002924344019ACDF804E053441A4484EA4E
:1008E8000E0101EA0C01904604EA0E0B029A81EA15
:1008F8000B010A441344134A9542B246CAD1DDE9B2
:1009080009121944049B059DDDF82CB023441C46AC
:10091800069B434462449C46079B03441846089B35
:100928003B441F46039B75443344CBE90012CBE993
:100938000245CBE904C0CBE906734DB0BDE8F08FA2
:10094800383F0008384000082DE9F0411C4D2B784D
:1009580006460F469046A3B1B8F1000F2DD007EB1D
:100968000801184C7A1E0139304612F8013F4340FD
:10097800DBB28A4254F8233083EA1020F5D1BDE86F
:10098800F081114811499E4600F58064724608239B
:1009980042F3000C013B0CEA010C13F0FF038CEA54
:1009A8005202F5D140F8042F84420EF1010EEDD128
:1009B80001232B70B8F1000FD1D13046BDE8F0818A
:1009C800780800207C080020780800202083B8EDF3
:1009D8002DE9F843164680460F4602F0C1F8314B20
:1009E8003422DA60002E57D00137DFF8BC903D463C
:1009F800002404E00234A64205F102051DD9631C57
:100A08009E4288BF2B7815F8012C4FF001008CBF4F
:100A180042EA032242F47F42002308EB040102F079
:100A2800E9F8A0BBE3B2002BE4D14846023402F057
:100A3800D3FDA64205F10205E1D802F0A5F8BFF3FF
:100A48004F8F194D002404E00234A64207F1020733
:100A58001AD9631C9E4217F8012C84BF3B7842EADE
:100A6800032238F8043098BF42F47F429BB29A427E
:100A7800E1B20ED10029E7D12846023402F0ACFDDC
:100A8800A64207F10207E4D80120BDE8F88302F086
:100A98007BF80020BDE8F88302F076F8BFF34F8FAB
:100AA800F2E700BF00200240D40C002070B5234CB0
:100AB800234D06460FCC94B00DF1140CACE80F0092
:100AC8000FCCACE80F000FCCACE80F0094E807009F
:100AD800059BAB428CE8070005D13C22314605A8AE
:100AE800FFF71EFE28B3154901230020CDE90201B6
:100AF800049302F035F8134B3422DA6001A902A8F6
:100B080002F0CEF8044602F03FF82CB9019B0133FD
:100B180006D0204614B070BD0024204614B070BD25
:100B28003C2231460548FFF753FF0446204614B0DF
:100B380070BD0124204614B070BD00BF00780008C5
:100B48004150415500200240F8B5866E82190D4685
:100B5800372E4FF08001044606F1010382F8281071
:100B680045D8382B07D006F12900C6F137022044B2
:100B78000021FFF7E9FC04F12807D4E9082308203D
:100B8800E6FB0023226212BA1E0E6266002266F39A
:100B980007021E0C66F30F221E0A66F3174263F360
:100BA8001F623946636220462266FFF71BFE182340
:100BB800691E2268DA4001F8012F6268DA400A717A
:100BC800A268DA400A72E268DA400A732269DA40F7
:100BD8000A746269DA400A75A269DA400A76E2693B
:100BE800DA40083B13F1080F0A77E2D1F8BD3F2B32
:100BF80007D806F12900C6F13F0220440021FFF77B
:100C0800A3FC04F1280739462046FFF7EBFD3822FC
:100C180000213846FFF798FCAFE700BF00B585B064
:100C2800014614234FF0000C00938DF80D10022399
:100C380003AA782103488DF80CC002F02BFB05B0FD
:100C48005DF804FB800C00202DE9F04FD7B02AADE9
:100C5800DFF860B29046814640220C4628460021C3
:100C6800CDF80480FFF770FCBBE80F00AA46AAE89D
:100C78000F009BE80F008AE80F001AAE0DF1A40ED2
:100C88000DF1240C37465EF8043F83F0363283F0CA
:100C98005C334CF8042F47F8043BAF42F3D17DA1F5
:100CA800D1E90001CDE93A017CA1D1E90001CDE902
:100CB8003C017CA1D1E90001CDE93E017BA1D1E94C
:100CC80000010AAFCDE94001002300200021CDE951
:100CD8004201DFF8BCA1B8469B4602E0B04516D0F9
:100CE800549B18F8010B03F5AC720DEB02010133AC
:100CF800402B549301F8480C00F08A80A8EB0703B6
:100D0800012BEBD1504602F067FCB045E8D10CB39B
:100D18004FF00008DFF878A1C34603E008F10108A6
:100D2800444517D0549B19F8080003F5AC720DEB35
:100D380002010133402B01F8480C549377D0C8F3D3
:100D48000B03002BEAD1504608F1010802F044FCDD
:100D58004445E7D10DF1080949463AA8FFF7F4FEE2
:100D68004CA1D1E90001CDE93A014CA1D1E900013A
:100D7800CDE93C014BA1D1E90001CDE93E014BA1F0
:100D8800D1E900010024CDE9400100200021CDE98E
:100D98004201DFF8FCA0B046A34601E0454514D067
:100DA80004F5AC730DEB0302013418F8011B02F8CB
:100DB800481C402C549449D0A8EB0602012AEDD1D6
:100DC800504602F009FC4545EAD1314E4D464FF0F8
:100DD800000A02E0AF4214D0549C15F8012B04F528
:100DE800AC736B440134402C549403F8482C3DD028
:100DF800A5EB0903012BEDD1304602F0EDFBAF4224
:100E0800EAD101993AA8FFF79FFE57B0BDE8F08FE5
:100E180044A93AA8FFF7E6FCDDE9423113F500736F
:100E280041F10001CDE94231CDF850B166E744A95E
:100E38003AA8FFF7D7FCDDE9423113F5007341F119
:100E48000001CDE94231CDF850B178E744A93AA87C
:100E5800FFF7C8FCDDE9422112F5007241F10001FB
:100E6800CDE94221CDF850B10024A5E744A93AA81C
:100E7800FFF7B8FCDDE9423213F5007342F10002D6
:100E8800CDE94232CDF850A1B2E700BFAFF3008000
:100E9800D40C002067E6096A85AE67BB72F36E3C26
:100EA8003AF54FA57F520E518C68059BABD9831F2D
:100EB80019CDE05B2C3E0008F0B5184D184E89B0EE
:100EC8000746322409E0304602F086FB012001F093
:100ED80031FB631E13F0FF0419D0284601F0FEFC15
:100EE8000028F0D040F2F571012200240291069208
:100EF800002501AB6A4602A908488DF80070CDE9C3
:100F080004458DF81C4001F097FC09B0F0BD03487A
:100F180001F0E4FC0028E5D109B0F0BDE40C0020A4
:100F2800D40C0020F0B51A4D1A4E89B00746322469
:100F380009E0304602F050FB012001F0FBFA631E85
:100F480013F0FF041CD0284601F0C8FC0028F0D09C
:100F5800052140F2F572022300248DF80010029258
:100F68000693002501AB6A4602A909488DF801706D
:100F7800CDE904458DF81C4001F05EFC09B0F0BDD8
:100F8800034801F0ABFC0028E2D109B0F0BD00BF76
:100F9800E40C0020D40C002070B5494B4948D3F824
:100FA8000048D3F80828D3F80C18D3F8103884422E
:100FB80090B069D00023194618461A461C461D46AB
:100FC8001E469FED3D7B8DF80B408DF80C2040F2BE
:100FD800F9748DF80D00002208208DF80F300123D8
:100FE8008DF809608DF80A5004948DED067B364D16
:100FF800364E8DF80E1008908DF8242032248DF886
:10100800083009E0304602F0E7FA012001F092FAD0
:10101800631E13F0FF0449D0284601F05FFC002846
:10102800F0D029480AAB02AA04A901F005FC264D14
:10103800264E322409E0304602F0CEFA012001F0B3
:1010480079FA631E13F0FF0429D0284601F046FC04
:101058000028F0D01E4B1B68ADF80030180C40F289
:10106800FA71032200248DF802000A910E920025DD
:1010780001AB6A460AA914488DF83C40CDE90C45F5
:1010880001F0DAFB10B070BD160EC2F30745C2F3CB
:101098000724C1F30720DBB2D2B2C9B291E70A48EC
:1010A80001F01CFC0028D5D110B070BD064801F035
:1010B80015FC0028BBD0B4E70000000000000000C9
:1010C8000070000841504155E40C0020D40C002069
:1010D800503E00082DE9F041C4B08022002103A849
:1010E800FFF732FA274F284EB0244FF0000897F840
:1010F80000C01425022323AA78213046BCF1000F32
:1011080039D000958DF88C808DF88D4002F0C2F8AA
:1011180097F800C00223782123AA3046BCF1000FBB
:1011280029D00095ADF88C8002F0B4F897F800E06B
:101138004FF4805C022323AA78213046BEF1000FC9
:1011480019D00095ADF88CC002F0A4F897F800C04B
:101158004023802203A90DF18D00BCF1000F0AD0B5
:101168008DF88C30FFF742FA81237821009523AA65
:10117800304602F08FF80134E4B2B82CB7D144B04D
:10118800BDE8F0817C0C0020800C0020F0B51B4DE0
:101198002B7885B00BB905B0F0BD503814270C4634
:1011A8008DF80D00022303AA154800970026782120
:1011B8008DF80C6002F06EF82A7804F00F03002A0C
:1011C800E9D08DF80D30782102230D48009703AA45
:1011D8008DF80C6002F05EF82B7821091031002B95
:1011E800D9D08DF80D100097022303AA782104485E
:1011F8008DF80C6002F04EF805B0F0BD7C0C0020B4
:10120800800C00202DE9F04FE7B005AE9046039022
:1012180080228B463046002125ADFFF795F9002145
:1012280080222846FFF790F998F80010002964D02A
:10123800DFF84091DFF840A15B460BF10A07032471
:101248005A46A1F1610019289CBF2039C9B2253935
:10125800C9B2302900F285801AF8011001EB81002B
:101268004FEA810B19F800C002938B44CB449E4689
:10127800002319464CFA03F010F0010F4FEA43001F
:1012880003F1010303D004FA00F00843C1B2042BB0
:10129800F0D14FF0000361F3070361F30F231CF053
:1012A800100118BF03211CF0200F18BF41F00C01DA
:1012B8001CF0400F18BF41F0300126F80E3018BF5F
:1012C800C9B24FF0000361F3070361F30F2325F858
:1012D8000E300EF1020E1FFA8EFEBE4502D01BF82C
:1012E80001CFC5E7029B18F8011F0B339BB219B158
:1012F8000B37762BBFB2A4D993461C4C039859469A
:10130800FFF744FF237883B14023314680220DF252
:1013180015108DF81431FFF769F914230093144858
:10132800812345AA782101F0B5FF03980130594679
:10133800C0B2FFF72BFF237883B1402380222946D0
:101348000DF215108DF81431FFF750F9142300939E
:101358000748812345AA782101F09CFF67B0BDE8C2
:10136800F08F4FF0000C6146E3467DE77C0C0020CF
:10137800800C0020A83E0008743E00082DE9F047C4
:101388006428054628BF6425C5EBC503924AC3EB0C
:1013980003135C19A2FB0424CAB000238046C4F3DB
:1013A80047140DAA184641277F2607E06D2B0AD05F
:1013B8008C422CBF1670177001330132D9B2002B42
:1013C800F4D10120F8E710B17F238DF83430834E33
:1013D80033787F228DF8A120002B40F0AB80B8F144
:1013E800630F4FF0000700F2E880B8F1090F00F230
:1013F8008D8030350DF10C085FFA85F988F800907A
:10140800022201210025252305AC08F801302046D9
:1014180008F8025029461E22FFF796F87048DFF8B0
:10142800CCC129464FF0050EA9F16103192B9CBFC9
:10143800A9F120095FFA89F9A9F125095FFA89F963
:10144800B9F1300F94BF1CF80920002202EB820288
:1014580002442B4699460133DBB212F801AB04F87B
:1014680009A07345F6D10131C9B2063518F80190C3
:101478000633EDB25FFA83FEB9F1000FD4D1002F25
:1014880041D04FF433431427ADF8A43055480097A2
:10149800022329AA782101F0FDFE3378002B32D0EF
:1014A8004FF48063ADF8A4304E480097022329AA70
:1014B800782101F0EFFE33782BB34FF480520223EA
:1014C800ADF8A4204748009729AA782101F0E2FE48
:1014D8003378C3B14023802D2E468DF8A43028BF21
:1014E80080263DB1721E92B2013221460DF1A5004F
:1014F800FFF77CF81422731C00923A489BB229AA81
:10150800782101F0C7FE4AB0BDE8F087364BA3FB4F
:101518000523DB0803F1300903EB8303A5EB430341
:1015280030330DF10C080322022188F8009088F866
:10153800013067E74FF435431424ADF8A430294847
:101548000094022329AA782101F0A4FE3378002B05
:101558003FF445AF4FF48063ADF8A43021480094C0
:10156800022329AA782101F095FE3378002B3FF455
:1015780036AF4FF48053ADF8A4301A4800940223D4
:1015880029AA782101F086FE3378002B3FF427AF93
:1015980040230DA96E220DF1A5008DF8A430FFF7A8
:1015A80025F8104800946F2329AA782101F072FECB
:1015B800B8F1630F37787FF618AF0DF10C0843F2D6
:1015C80031023023A8F8002088F802304FF03109A2
:1015D8000422032116E700BF1F85EB517C0C002075
:1015E800A83E0008800C0020CDCCCCCC743E00086E
:1015F8002DE9F047DFF8F480DFF8F490D8F8000020
:10160800D9F8002000F580304830B2F5006F88B076
:101618004FEAC02406D23048FF211044C2F50062C8
:10162800FEF792FF2C494FF400622046FFF7D0F9ED
:10163800054618B9284608B0BDE8F087D8F8003044
:10164800264E274F322493FA83FA09E0384601F0F0
:10165800C3FF012000F06EFF631E13F0FF0435D0B6
:10166800304601F03BF90028F0D0002340F2F37235
:101678000421CDE9043302928DF81C3006911748F5
:10168800CDF800A001AB6A4602A901F0D5F8D8F858
:101698000020134801320024C8F80020C9F800408F
:1016A80001F09AFF0F4B1A6832B91046FFF766FE31
:1016B800284608B0BDE8F0870B4B19686420A1FBE9
:1016C80000012346FEF7A0FDC0B2EFE7034801F092
:1016D80005F90028DBD0C8E748000020E40C00200A
:1016E800D40C0020740800206C0800204000002062
:1016F800440000202DE9F04303685B4C42685B49D5
:101708001BBA2360013B10BAB3F5E03F89B008600B
:1017180080F09D80564B9A424CD1FFF7DBFC554A2E
:1017280010210020FFF76EFD0020FFF727FE266836
:1017380006F2FF76F60A0220FFF7BEFB002E63D002
:1017480006F5803648364C4DDFF860814B4FF6027F
:101758004FF0000908E0019B013318D105F5006539
:1017680001F03AFFAE424FD001230493CDE9029530
:1017780001F0F6F93423C8F80C3001A902A801F0E9
:101788008FFA044601F000FA3846002CE3D0FF2017
:10179800FFF792FB3A493B4B0120002208701A7070
:1017A800FFF798FC384A0421022009B0BDE8F0434D
:1017B800FFF728BD354D314E322409E0304601F09F
:1017C8000BFF012000F0B6FE631E13F0FF0444D0A7
:1017D800284601F083F80028F0D040F2054040F296
:1017E800F57202210024ADF8000002920691274804
:1017F8008DF81C4001AB6A4602A9CDE9044401F00A
:101808001BF809B0BDE8F0834FF40062FF212048BF
:10181800204D214CFEF798FE20492148214A0023FB
:101828000B601749037017482B6023600B70012465
:101838004FF0FF331360047000F076FE1A4B024637
:1018480003201A6009B0BDE8F043FFF735BBFF205D
:1018580009B0BDE8F043FFF72FBB0C4801F03EF894
:101868000028CED0B9E700BF740800207008002017
:101878000303CC01543E000800400208D40C0020A9
:10188800340000203C000020603E0008E40C0020EA
:10189800480000206C080020440000204000002080
:1018A80048080020080000203800002000200240DE
:1018B8002DE9F04F00F2FF7E5FEADE2E8FB069D08F
:1018C8004FF0000A4FEACE2383460093642455461E
:1018D800CDF804E033E0039B013357D1FFF778F8E4
:1018E800002853D02D4801F077FE019A3346204650
:1018F8005146FEF789FCC7B23846FFF73FFD284836
:1019080000F0ECFFA8B140F2F67207230892022219
:101918008DF808308DF809708DF834600C92002627
:1019280000271F4804AB02AA08A9CDE90A6700F0FE
:1019380083FF009B64344AF1000A9D422AD005F1D6
:101948000067A84607F50047002105F50065AB4587
:10195800CDE905174FF0010134BFABEB08094FF48F
:101968000069079101F0FCF80E4B3421D96005A8F5
:1019780003A901F095F9064601F006F908F100619E
:101988004A4601F510313846002EA4D000200FB089
:10199800BDE8F08F01200FB0BDE8F08FD40C002017
:1019A800E40C00200020024030B591B02022002134
:1019B80007A8FEF7C9FD1021012000240225CDE962
:1019C8000A014FF4601306A80F93CDE90244CDE94C
:1019D8000444019406950D9501F078FE0F224FF40A
:1019E800806301A82946CDE90125CDE90343059483
:1019F80002F056F911B030BD2DE9F04FBE4DBF4E83
:101A0800BBB000F073FDFFF7CFFF6B6943F4003301
:101A18006B616B6903F400330793079BEB6943F031
:101A28000073EB61EB6903F00073089300244FF433
:101A3800C0521CA9089B1E9409234FF002084FF0BE
:101A4800030A4FF09040CDE91C282093CDF87CA0E4
:101A580001F088F9AA4BB4834FF00409C6E90039AC
:101A68004FF440274FF48013C6E9047330464FF013
:101A78000123B3610127C6E9024400F06FFD2BA9D9
:101A88003046CDE93044CDE92B44CDE92D442F949F
:101A98003494CDE9327700F0E3FD304600F058FE8B
:101AA8006B69984E43F400336B616B692D97122272
:101AB8004FF4C06103F40033CDE92B1209932BA92D
:101AC8004FF09040099BCDE92EA901F04BF9C6E9EA
:101AD8000247C6E90444C6E90744EB698A4C43F463
:101AE8008003EB61EB6903F480030A93874B33604F
:101AF8003046874B0A9A736001F056FB322000F09B
:101B080019FD142342463046782101F09BFC051E3E
:101B18000CBF3B460023237000F0DC817D487E4AE1
:101B28007E4D7F4E0323C0E9002340F2E7338360F4
:101B380001F024FD0FCD1CAC0FC40FCD0FC40FCD89
:101B48000FC495E8070084E807001C9BB34200F027
:101B5800C182744B1B6803F16042A2F58072B2F532
:101B68001F4F00F2FC802C2200212FA8FEF7ECFC6E
:101B78006B4A2B926C4A6B4901234FF4E034CDE950
:101B88002C324FF0FF3022462E933094FEF7DCFEC5
:101B980032AAC343214663483193FFF755F82BA86F
:101BA800FEF784FFB0F1000918BF4FF0010900F0FB
:101BB800BBFC5E4D574F514C06460DF12C0B4FF0B8
:101BC800000800F0B1FC801BB0F5167F44D23846FF
:101BD80001F002FD0021204600F018FFA0B114AB6F
:101BE8002BAA0021204600F08DFE68B9DDE92D23DF
:101BF8001343E6D12B9B40F2F172934200F06281CD
:101C0800B3F5FF6F00F0638200F08EFC2B68C01AFA
:101C1800B0F57A7FD5D300F087FC2860204600F025
:101C28005DFE0028CDD04FF60173ADF82C3040F2A0
:101C3800F6731C93022320935A460DAB1CA9204629
:101C4800CDE91E888DF8848000F0F6FD00F06CFC6C
:101C5800801BB0F5167FBAD3B9F1000F40F06E8241
:101C68000120FFF729F9324FDFF8CC80DFF8A4A074
:101C7800DFF88890504601F0AFFC0021484600F09C
:101C8800C5FE18B35B460DAA0021484600F03AFE8F
:101C9800E0B9DDE90F231343ECD10D9A40F2F1715D
:101CA8008A4200F0988040F2F7718A4200F09B80E7
:101CB80040F2F2718A4200F0B68040F2F4718A4232
:101CC80040F0C681119A082A00F0C98100F02CFC66
:101CD8002B68C01AB0F57A7F4CD23B78002BC9D05C
:101CE80098F80040002CC5D100F01EFC114A12687B
:101CF80042F2107322E000BF00100240E40C002002
:101D080000640040800C00207C0C0020005800403B
:101D18002A231000D40C002000300040007800086E
:101D2800415041550080000801CC03030400002005
:101D38003C0000203800002034000020801A98421F
:101D480098D93C7088F80040FFF7C4F9B74A0421D5
:101D58000220FFF757FA0120FFF7AEF88AE703F1F0
:101D68007043A3F58073B3F5F85F7FF6FCAE4FF0D0
:101D780000091CE700F0D8FB3B78286043B398F8CB
:101D880000302BBBAA4A126812B3AA49096864201A
:101D9800A1FB0001FEF738FA0326C4B2484600F05A
:101DA8009DFD002899D00023CDE92D338DF8C03052
:101DB80040F2F6732B9302232F9314AA1CAB2BA982
:101DC80048468DF850608DF8514000F035FD84E7A5
:101DD8000126FF24E2E7119B082B7FF477AF5846D2
:101DE800FFF788FC72E7119B082B7FF46FAF3B78F5
:101DF800002B3FF46BAF98F80030002B7FF466AFF0
:101E08008D490B78032B3FF661AF8C4A02EBC30276
:101E180001330B709BE8030082E8030000F084FBA9
:101E2800874B186052E73A78119E002A3FF44EAF6C
:101E380098F80020002A7FF449AF082E3FF646AFF5
:101E48007C4A11687A4A12689142C0F0C581002E16
:101E580000F035810DF12B04009431461C4603E057
:101E68000134A14200F0BF81724B71481A680368BF
:101E78009A4202F1010080F02181724A009B1268A7
:101E8800714E13F801CF06F802C00093531C6D4A37
:101E98001360684AB3F5006F1060E1D10191FFF754
:101EA800A7FB01990028DBD1621C684C59462068C1
:101EB800FEF74AFD2060FF20FEF7FEFF012388F8A9
:101EC8000030F3E02F9B082B7FF49EAE14A8FFF799
:101ED80011FCC5E6AE20FEF7A1FE2378002B3FF4E7
:101EE8001DAED520FEF79AFE2378002B3FF416AEE0
:101EF8008020FEF793FE2378002B3FF40FAEA82036
:101F0800FEF78CFE2378002B3FF408AE3F20FEF747
:101F180085FE2378002B3FF401AED320FEF77EFE2A
:101F28002378002B3FF4FAAD2846FEF777FE237896
:101F3800002B3FF4F3AD4020FEF770FE2378002B12
:101F48003FF4ECAD8D20FEF769FE2378002B3FF4BB
:101F5800E5AD1420FEF762FE2378002B3FF4DEADDA
:101F68002020FEF75BFE2378002B3FF4D7AD4046D8
:101F7800FEF754FE2378002B3FF4D0ADA120FEF7E6
:101F88004DFE2378002B3FF4C9ADC820FEF746FE6E
:101F98002378002B3FF4C2ADDA20FEF73FFE23780A
:101FA800002B3FF4BBAD1220FEF738FE2378002B40
:101FB8003FF4B4AD8120FEF731FE2378002B3FF4C7
:101FC800ADADCF20FEF72AFE2378002B3FF4A6AD57
:101FD800D920FEF723FE2378002B3FF49FADF12094
:101FE800FEF71CFE2378002B3FF498ADDB20FEF7AC
:101FF80015FE2378002B3FF491AD4020FEF70EFE2E
:102008002378002B3FF48AADA420FEF707FE23783F
:10201800002B3FF483ADA620FEF700FE2378002BAB
:102028003FF47CADAF20FEF7F9FD77E5603E000890
:10203800740800206C080020480800204C08002084
:10204800380000204400002048000020080000203C
:10205800B2F5FF6F7FF43AAEFEF79EFF36E63A78A8
:102068000093002A3FF432AE98F80040002C7FF429
:102078002DAE00F059FA904B1860904B1A68009BEF
:10208800002A40F0DC808E4A11688E4A126891421C
:1020980004D18D4A1678042E00F0DE800120FEF768
:1020A80041FF00233B70012388F80030FFF712F846
:1020B800864A04210220FFF7A5F807E62646844C45
:1020C800324620685946FEF73FFC2060FEE5FEF7E1
:1020D80063FF99E51D9B022B00F087807D4B1E9ABC
:1020E8009A427FF444AE219C631EB3F5E03FBFF4EF
:1020F8003EAE224678494FF0FF30FEF725FC229A83
:10210800C34393427FF433AE734821462BAA4FF062
:102118000009FEF799FD4B462BA80DF18B0110F82D
:10212800012B11F8014F01336240202B49EA0209C3
:10213800F5D1B9FA89F94FEA591938E5664B1C689F
:102148005E6804F16043A3F58073B3F51F4F3AD876
:1021580014F003077FF484ADF1077FF581AD06F134
:102168007843A3F50043B3F5E03FBFF479AD1420FD
:1021780000F0ACFC594800F049FB594801F070F8F0
:1021880001F030FA00F07CF94FF090404FF0E02277
:102198005449554B6FF0A05CC0F800C04FF0FF30B9
:1021A80008601761576197615A6842F000725A6077
:1021B80072B6494A9A60BFF34F8FBFF36F8F84F3AB
:1021C8000888B0474CE504F17043A3F58073B3F574
:1021D800F85F3FF645ADBBE7009300F0A5F9364B35
:1021E8001860009B33E60E4669E70720FEF764FE99
:1021F8002198FFF75DFB00283FF4B9AD1CAD0FCD6A
:102208002BAC0FC40FCD0FC40FCD0FC495E807003A
:10221800012684E807002BA82C96FEF747FC002827
:102228003FF4A5AD2BAD0FCD1CAC0FC40FCD0FC423
:102238000FCD0FC495E8070084E807004EE7FFF7C5
:10224800D7F9009B00287FF41EAFFF20FEF734FE6D
:10225800012388F8003029E70B9A1D49059313BA22
:102268000A680C990191BDF8301002930620D343F7
:102278000391BDF8321000930491FEF71DFEFEF79E
:1022880029FF1A4A10210020FEF7BCFF009B029A82
:102298009342059B2CD00220FEF744FE00233B709E
:1022A800012388F80030FEF715FF084A314602205E
:1022B800FEF7A8FF0AE500BF380000204400002010
:1022C8006C0800207408002048080020603E0008C0
:1022D8000800002001CC030300800008E40C002063
:1022E800800C00200004004800ED00E0543E000887
:1022F8000293504B5048196814AAFEF7A5FC4F48A2
:10230800029B14A911F8012B10F8016B01337240DC
:10231800202B44EA0204F5D1002C7BD1049A039BBC
:10232800474852BA1FFA82FE464AD2F800C8D2F885
:102338000468D2F80C18D2F810285BBA84459BB20E
:1023480001D1012E68D0CDE91F3E009B22933C4B62
:102358001C933D4B1B681E93364B1B68219314AE90
:1023680002231D930FCE23AC0FC496E80F0084E818
:102378000F001CA8FEF79AFB40B30720FEF79CFD50
:10238800FEF7A8FE314A04210020FEF73BFF00209B
:10239800FEF7F4FF274B1868FFF78AFAB0B16420FC
:1023A8001CAEFEF7EBFF0FCE2BAC0FC40FCE0FC445
:1023B8000FCE0FC496E807004FF0010C84E8070021
:1023C8002BA8CDF8B0C0FEF771FB40B9FF20FEF78F
:1023D80073FD00233B70012388F8003066E6FEF7A2
:1023E80079FE1B4A10210220FEF70CFF0420FEF79D
:1023F80063FD4FF4167000F09DF8BFF34F8F154939
:10240800154BCA6802F4E0621343CB60BFF34F8FE9
:1024180000BFFDE7032042E642EA0142019909BAFA
:102428008A4290D90520FEF77DFD3C7088F800604F
:102438003CE600BF74080020004002084C08002059
:10244800415041550070000870080020543E0008B3
:10245800683E000800ED00E00400FA05044B4FF068
:1024680090416FF0A0504FF0FF3208601A60FEE70D
:102478000004004800F04CB8704700BF704700BF28
:1024880010B5074B4FF0FF3200241A611C61DA6067
:10249800DC609A629C62FFF7F1FF204610BD00BF26
:1024A8000010024038B50E4A0E4B127805461868DF
:1024B8004FF47A73B3FBF2F3B0FBF3F000F018FBC0
:1024C80008B90F2D01D9012038BD04460246294616
:1024D8004FF0FF3000F0BEFA034B20461D6038BDB8
:1024E8000C0000200000002010000020074A08B55A
:1024F800136843F010031360032000F099FA0F20CB
:10250800FFF7D0FFFFF7B8FF002008BD002002400A
:10251800034A044B11681B780B441360704700BFD3
:102528000C0D00200C000020014B1868704700BFFC
:102538000C0D002038B50446FFF7F6FF631C05466E
:1025480002D0044B1B781C44FFF7EEFF401BA0424F
:10255800FAD338BD0C000020704700BF00287BD09C
:1025680038B590F820300446002B72D022681368E2
:1025780043F001031360FFF7D7FF054604E0FFF7B8
:10258800D3FF401B0A285BD823685A68D107F6D5C1
:102598001A6822F002021A60FFF7C6FF054604E037
:1025A800FFF7C2FF401B0A284AD823685A689207D7
:1025B800F6D4227E012A1A680CBF42F0800222F06B
:1025C80080021A60627E012A1A680CBF42F040023B
:1025D80022F040021A60A27E012A1A680CBF42F05B
:1025E800200222F020021A60E27E012A1A680CBF3B
:1025F80022F0100242F010021A60227F012A1A68A3
:102608000CBF42F0080222F008021A60627F012A19
:102618001A680CBF42F0040222F004021A60D4E9DE
:102628000220216902430A43606961680243013953
:102638000A4300200121DA61606284F8201038BD65
:10264800636A052243F40033636284F82020012082
:1026580038BDFFF781FF89E701207047704700BF49
:1026680070B490F820200468013A012A07D9426A18
:10267800034642F48022012070BC5A627047D4F8A5
:1026880000324A69CD6943F00103C4F8003202F010
:102698001F0001238340D4F81C0220EA0300C4F879
:1026A8001C02D843002D3DD1D4F80C52CE68054009
:1026B800C4F80C528D8804EBC20245EA0645C2F8FC
:1026C80040528E680D8845EA0645C2F844528A6928
:1026D80012BBD4F804220240C4F804220A69AAB939
:1026E800D4F814221040C4F814020A6A012A04D14A
:1026F800D4F81C221343C4F81C32D4F8003223F057
:1027080001030020C4F8003270BC7047D4F81422CA
:102718001A43C4F81422E8E7D4F804221A43C4F888
:102728000422DBE7012DD2D1D4F80C520E681D43E8
:10273800C4F80C528D8804EBC20245EA0645C2F87B
:1027480040528E688D8945EA0645C2F84452BEE774
:1027580038B590F82030012B044605D0436A43F47D
:1027680000234362012038BD0268022380F820302C
:10277800136823F001031360FFF7D6FE054604E053
:10278800FFF7D2FE431B0A2B07D823685B6813F0B8
:102798000103F5D16362184638BD636A052243F424
:1027A8000033636284F82020DCE700BF38B590F876
:1027B8002030022B044605D0436A43F48013436259
:1027C800012038BD0268136843F001031360FFF766
:1027D800ABFE054604E0FFF7A7FE431B0A2B0CD807
:1027E80023685A68D207F6D51A68012122F0020236
:1027F8001A6084F82010002038BD636A052243F46B
:102808000033636284F82020DAE700BF88B110B58E
:102818000446FFF7CBFF2046FFF720FF21680A6830
:10282800002342F400420A60636284F820301846AC
:1028380010BD0120704700BF30B490F820C0056873
:102848000CF1FF3CBCF1010FAC6839D814F0E05F23
:1028580006D1436A43F400134362012030BC704739
:10286800C4F301640120A04018608B686BB3C8688A
:102878000343486843EAC00304F1180000012B50E1
:1028880005EB041C0B69CCF884310B7D012B4FEA56
:10289800041105D1DCF8843143F48073CCF8843119
:1028A8006B185168C3F88C111268C3F88821DCF8DA
:1028B800803143F00103002030BCCCF880317047F0
:1028C800436A43F480234362C7E7CB68086843EA56
:1028D800405004F118031B01E850D1E790F820306C
:1028E800013B012B01D900207047036898689A685A
:1028F8009B681201C0F3806048BF0130DB00F3D54C
:102908000130704790F820C00CF1FF3CBCF1010F7A
:102918006BD870B5046841B9E568AD0708D1436A5A
:1029280043F400134362012070BD2569AE07F6D059
:1029380004EB011C4FEA011EDCF8B05105F0040558
:102948009560002D57D0DCF8B051ED085560DCF8E3
:10295800B05105F00205D560DCF8B4512D0758BF19
:10296800DCF8B451DCF8B46154BF05F00F05082554
:1029780015617444DCF8B451C6F3072696612D0C32
:10298800D4F8B86155611E7002687244D2F8B82153
:10299800120A5A7002687244D2F8B821120C9A705E
:1029A80002687244D2F8B821120EDA7002687244D2
:1029B800D2F8BC211A7102687244D2F8BC21120AFA
:1029C8005A7102687244D2F8BC21120C9A710268DA
:1029D8007244D2F8BC21120EDA71026881B9D36848
:1029E80043F02003D360002070BD436A43F4802382
:1029F800436201207047DCF8B0516D0D1560A6E701
:102A0800136943F020031361EDE700BF90F820300D
:102A1800013B012B01D900207047036819B9D86818
:102A280000F003007047186900F00300704700BF0A
:102A38000749CA6803024FF6FF0003F4E063024047
:102A4800134343F0BF6343F40033CB60704700BFC8
:102A580000ED00E01B4BDB68C3F3022300B5C3F1B4
:102A6800070EBEF1040F03F1040C28BF4FF0040E4B
:102A7800BCF1060F1CD9A3F1030C4FF0FF3303FA86
:102A88000CF322EA03024FF0FF3303FA0EF321EAB4
:102A9800030303FA0CF313431B010028DBB20ADB20
:102AA80000F1604000F5614080F800335DF804FBF8
:102AB80000229446E7E7044A00F00F000244137628
:102AC8005DF804FB00ED00E0FCEC00E000280CDB06
:102AD8004309064900F01F0020330122824041F8D3
:102AE8002320BFF34F8FBFF36F8F704700E100E0E3
:102AF8000138B0F1807F01D30120704710B44FF046
:102B0800E023074C58614FF0F00C84F823C00022F2
:102B1800072110469A615DF8044B1961704700BFA0
:102B280000ED00E00C4BDB6813F0100305D00B49F7
:102B3800CA6942F002021023CA61074AD2685207E2
:102B480006D50649CA6942F0010243F00403CA6186
:102B5800014AD360704700BF00200240100D0020DA
:102B6800064B186910F0800006D00549054A5960DF
:102B78005A601869C0F3C010704700BF00200240B7
:102B880023016745AB89EFCD034A136943F08003FE
:102B980000201361704700BF0020024070B5044652
:102BA800FFF7C2FC124E0546F368D80705D5631C2B
:102BB80012D10F4AD368DC07FCD40D4BDA689106B2
:102BC80044BF2022DA600A4BDA68D2060CD4D868EF
:102BD80010F0040008D170BD24B1FFF7A5FC401B1C
:102BE800A042E1D9032070BDFFF79CFF012070BD12
:102BF800002002402DE9F84F274E1C46337E012B5A
:102C080047D0054601234CF250308A4617463376A2
:102C1800FFF7C4FFC8BB012D03D0022D14BF042544
:102C280002254FF00009DFF874B00AEB4505C846E5
:102C380001E0AA4529D0C9F12003C6F81C80A9F1F2
:102C4800200227FA09FC04FA03F34CEA030C24FADD
:102C580002F2DBF810304CEA020C43F001031FFAD1
:102C68008CFCCBF810304CF25030AAF800C0FFF7BB
:102C780095FFDBF8103023F001030AF1020A09F18D
:102C88001009CBF810300028D3D000233376BDE8E4
:102C9800F88F0220BDE8F88F100D002000200240B8
:102CA8002DE9F8432D4E337E012B54D00123337682
:102CB8000368012B814631D04CF250308846FFF72B
:102CC8006DFF074678BB4FF0FF33C8F80030D9E9ED
:102CD800015305EBC3239D4225D2214C07E0D9E9D6
:102CE800013205F5006503EBC223AB421CD9F7613D
:102CF800236943F0020323616561236943F04003BC
:102D080023614CF25030FFF749FF236923F0020397
:102D180023610028E3D0C8F8005005E04CF2503099
:102D2800FFF73CFF20B1012000233376BDE8F8838C
:102D38000B4CF061236943F004032361236943F0DA
:102D4800400323614CF25030FFF728FF236923F03A
:102D580004032361E8E70220BDE8F883100D002092
:102D6800002002402DE9F04F0C6885B0002C00F0DF
:102D7800828000234FF0010B0BFA03FE1EEA040ABF
:102D880075D04D6805F0030C5A0003260CF1FF3886
:102D980006FA02F7B8F1010F6FEA07076ED9BCF11E
:102DA800030F40F0BF800CFA02F2D0F800C00CEA22
:102DB80007073A4315F4403F026058D05F4FBA699D
:102DC80042F00102BA61BA6902F001020392039A61
:102DD80023F0030202F1804202F5803203F0030C73
:102DE80097684FEA8C0C0F2606FA0CFEB0F1904F4C
:102DF80027EA0E0717D0524EB04200F08580514E98
:102E0800B04200F08880DFF844E1704575D0DFF803
:102E180040E170450CBF4FF0040E4FF0050E0EFA5E
:102E28000CFC47EA0C079760474A9268EE026FEA83
:102E38000A07454E54BF3A404AEA0202B260F268B5
:102E4800AE02414E54BF3A404AEA0202F26072684A
:102E5800AE033D4E54BF3A404AEA020272603268FD
:102E6800ED03394D54BF3A404AEA02022A60013361
:102E780034FA03F280D105B0BDE8F08FD0F808909D
:102E8800CE6809EA070906FA02F848EA0908C0F80C
:102E98000880D0F804808E6828EA0E08C5F3001E62
:102EA8000EFA03FE4EEA080EC0F804E0D0F80C80D3
:102EB80006FA02FE08EA07084EEA080EBCF1020FFD
:102EC800C0F80CE07FF46FAF0E694FEAD30803F047
:102ED800070E00EB88084FEA8E0E06FA0EF6D8F8B1
:102EE800209001960F2606FA0EFE019E29EA0E0989
:102EF80046EA090EC8F820E055E74FF0030E0EFA2F
:102F08000CFC47EA0C078EE74FF0010E0EFA0CFC9A
:102F180047EA0C0787E74FF0020E0EFA0CFC47EA67
:102F28000C0780E7D0F80C808E6808EA070806FAD4
:102F380002FE4EEA080EC0F80CE034E7001002402A
:102F4800000400480008004800040140000C004844
:102F580000100048F8B503689C6914F0100C054689
:102F680041D0164610220F46DA619C6914F02004FD
:102F780079D1781C4DD19A699106FCD52022DA6165
:102F88009A6944F0040CD4054FF001002FD457057A
:102F98003AD54FF48061D9614CF0080C960504D5F8
:102FA8004FF400724CF0020CDA619A69910744BF41
:102FB80000229A629A69D20703D49A6942F0010200
:102FC8009A615A6829490A405A606B6C002243EAA0
:102FD8000C0320216B6485F8402085F8411085F8A2
:102FE80042200120F8BD9A69D4056046CFD54FF438
:102FF8008071D96151054CF0010CCFD54FF4806137
:10300800D9614CF0080CC9E79405C9D40028CCD183
:10301800F8BDFFF789FA801BB8422B6804D81FB1A6
:103028009A699206A5D5A9E7586895F84220996942
:103038000C04D2B20BD5410409D4202A07D05A680F
:1030480042F480425A60FFF76FFA2B6806469A6985
:1030580092068AD4FFF768FA831B192B2B68F6D9D6
:103068009A6920248CE7002488E700BF00E800FE66
:1030780070B5036804460D46164605E0FFF76AFF7B
:1030880000BB6A1C08D123689B699B073246294606
:103098002046F3D5002070BDFFF746FA801BA842F2
:1030A800236801D8002DEFD19A6912F00202EBD102
:1030B800636C84F8402020210B43636484F841103A
:1030C80084F84220012070BD2DE9F843DDF82090F6
:1030D8001E46054603688846174605E0FFF73AFF8F
:1030E80068BB731C0ED12B689C6938EA04040CBFBA
:1030F80001230023BB424A4631462846EED0002031
:10310800BDE8F883FFF710FAA0EB0900B0422B687E
:1031180001D8002EE8D19A6938EA02020CBF0122D0
:103128000022BA42E0D16B6C002243F02003202138
:103138006B6485F8402085F8411085F8422001200D
:10314800DEE700BF03689B699B0629D470B5054676
:103158000C4616460DE0FFF7E7F9801BA0422968E8
:1031680000D81CB98B6913F020030DD08B699B061E
:1031780008D4324621462846FFF7ECFE0028EAD05C
:10318800012070BD002070BD6A6C85F84030202198
:103198000A436A64012085F8411085F84230F0E757
:1031A80000207047704700BF002854D010B590F831
:1031B8004130044603F0FF02002B47D02368242245
:1031C80084F841201968626821F0010122F07062D8
:1031D80019601A619A68E16822F4004201299A602C
:1031E800A26809D042F4044202299A6007D15A68B9
:1031F80042F400625A6006E042F400429A605A685B
:1032080022F400625A605968226941F0007141F461
:10321800004159606169D8680A43A16920F40040F7
:1032280042EA0122E169D860206ADA600143196044
:10323800196841F00101196000222023626484F8B2
:103248004130226384F84220104610BD80F84020A7
:10325800FFF7A8FFB2E70120704700BF704700BF23
:10326800B0B10268242310B580F84130136823F008
:10327800010304461360FFF7F1FF0023636484F839
:10328800403084F84130236384F84230184610BD3A
:10329800012070472DE9F047994690F8413082B0F7
:1032A800202B0A9E40F0908090F84030012B044675
:1032B80000F08A804FF0010A80F840A00F4690463F
:1032C800FFF732F952460546009019234FF40041A2
:1032D8002046FFF7F9FE002872D1212384F84130F7
:1032E800102384F842306064A4F82A90638D226821
:1032F800C4F824809BB2FF2B6063C7F3090767D823
:10330800638D9BB22385002B40F08D8053684A491A
:103318000B403B4343F0007343F400535360638D09
:103328009BB22A4631462046002B38D0FFF7A0FE34
:10333800002845D1616A236811F8012B9A62638DD0
:10334800228D6162013B9BB26385638D013A92B223
:103358009BB22285002BE2D0002AE0D18021009583
:1033680033462046FFF7B0FEFF2148BB638DDFF8E8
:10337800D0C022689BB28B42604647D953682185EA
:1033880003EA0C033B4343F0FF7343F48033536079
:10339800638D9BB22A4631462046002BC6D1FFF7E3
:1033A800D1FE68B92368254D2021D9615A682A4081
:1033B8005A6084F8411084F8400084F8420000E024
:1033C800012002B0BDE8F087022002B0BDE8F08716
:1033D800FF232385FE214FF47F034FF0807018F8F8
:1033E80001CBC2F828C02185618DDFF84CC0C4F834
:1033F8002480013989B2618551683B4301EA0C0197
:103408000B43034343F40053536088E7638D5168CB
:103418009BB22385DBB247EA034301400B4343F0E9
:10342800007353607BE7013B99B24B1CDBB21B0472
:103438004FF00070D3E700BF009800FC00E800FEE2
:10344800009C00FC2DE9F04784B00446002003905E
:1034580094F84100202867D1174622689946936955
:1034680013F4004360D194F8400001285CD0C1F304
:103478000906012184F8401046F00078242184F8D8
:10348800411048F420586364E368012B06BF46F0F6
:10349800007343F4005343465360FFF745F805466D
:1034A80020688369826903F0200302F01002134345
:1034B8001CD1B9F1FF3F11D0FFF736F8401B484542
:1034C80045D8B9F1000F08D141E0B9F1FF3F05D067
:1034D800FFF72AF8401B484539D820688169836975
:1034E80001F0200103F010031943EED0836913F0B3
:1034F800100A1DD100954B46524620212046FFF761
:10350800E3FD002831D0636C042B04D1236820220A
:10351800DA61C4F844A0039B01330393039B039B24
:10352800BB4214D22268AFE7022004B0BDE8F0879E
:103538001023C361002200954B4620212046FFF747
:10354800C3FD0028E7D123682022DA61E3E72023BE
:1035580084F84130636C43F0200363640120002346
:1035680084F8403004B0BDE8F08722682023D36196
:1035780084F8413084F84000D7E700BF28B338B555
:10358800D0E90031826804464CF6CC40186045F218
:103598005550186059609A60FEF7C6FF23680546C3
:1035A800DA6851070AD0FEF7BFFF401B27282368B7
:1035B800F6D9DA685207F3D0032038BD1969E268F2
:1035C800914204D01A61002038BD012070474AF6A4
:1035D800AA221A60F7E700BF03684AF6AA22002069
:1035E8001A60704770B5334C236843F001032360B9
:1035F800FEF79AFF054604E0FEF796FF401B0228F7
:1036080028D823689B07F7D523682B4A294D23F030
:10361800F80343F08003236063681A406260FEF792
:1036280083FF41F28836044604E0FEF77DFF001B65
:10363800B0420FD86B6813F00C0FF6D11F49204B1E
:10364800204A08681A60FEF72DFF044628B10124B5
:10365800204670BD0324204670BD2B6823F0847378
:1036680023F480332B602B6823F480232B60FEF730
:103678005BFF104D064604E0FEF756FF831B022B46
:10368800E8D82B6813F00073F6D16B60EB622B63FC
:10369800A96841F41F01A9604FF08072AB6092FAEB
:1036A800A2F2094BB2FA82F213449B0001221A607B
:1036B800D1E700BF001002400CC0FFF81000002046
:1036C8000000002000127A0020819010002800F0ED
:1036D800BB822DE9F0430368D90783B004464BD574
:1036E800AC494A6802F00C02042A00F05D814A687D
:1036F80002F00C02082A00F05381D4E90132B3F534
:10370800803F15D0002B00F08981B3F5A02F00F081
:103718003682A04B196821F480311960196821F4A8
:1037280080211960D96A21F00F010A43DA6209E0A1
:1037380098490B6843F480330B60CB6A23F00F037E
:103748001343CB62FEF7F0FE924F05464FF4003864
:10375800012605E0FEF7E8FE401B642800F25A81C6
:1037680098FAA8F33A6898FAA8F3B3FA83F306FA32
:1037780003F31342EED023689F073FD5854A51686B
:1037880011F00C0F00F0CB80516801F00C010829F2
:1037980000F0C1802269002A00F09481012595FA81
:1037A800A5F3B3FA83F303F1845303F584139B0061
:1037B800784F1D60FEF7B8FE4FF00208064605E098
:1037C800FEF7B2FE801B022800F2248198FAA8F3C3
:1037D8003A6898FAA8F3B3FA83F305FA03F31342A5
:1037E800EED03968F82292FAA2F26369B2FA82F24C
:1037F800934021F0F80213433B6023681D0729D446
:10380800580753D5634BDA69D10000F1C180DA69F2
:1038180042F08052DA61DB6903F080530193019B27
:1038280001255D4E3368DA0540F1E480E368012B39
:1038380000F06C81002B00F01781052B554B1A6A9C
:1038480000F0A98122F001021A621A6A22F0040229
:103858001A6260E1A269002A74D0012696FAA6F2DB
:103868004E4BDFF83081B2FA82F213449B000225F6
:103878001E60FEF759FE074605E0FEF755FEC01B21
:10388800022800F2C78095FAA5F395FAA5F395FAF0
:10389800A5F3D8F8242095FAA5F3B3FA83F306FA2A
:1038A80003F31342E9D023685807ABD4E36973B331
:1038B800384D6A6802F00C02082A00F04F81022B8A
:1038C8004FF0807300F06F8193FAA3F3B3FA83F398
:1038D80003F1845303F584139B0000221A60FEF75A
:1038E80023FE4FF000770446012605E0FEF71CFE94
:1038F800001B022800F28E8097FAA7F32A6897FA2D
:10390800A7F3B3FA83F306FA03F31342EED10020C8
:1039180003B0BDE8F0835268D6033FF53BAF0222FF
:1039280092FAA2F11B49086892FAA2F20121B2FAAE
:1039380082F201FA02F202424BD022698A4248D04E
:103948000120E5E7012797FAA7F1144BDFF8448037
:10395800B1FA81F10B449B0002251A60FEF7E4FDE1
:10396800064604E0FEF7E0FD801B022852D895FACF
:10397800A5F395FAA5F395FAA5F3D8F8242095FAB6
:10398800A5F3B3FA83F307FA03F31342EAD18AE7FC
:10399800002546E70010024000700040208190108A
:1039A8004A68D2037FF5A9AE4FF4003292FAA2F129
:1039B800A649086892FAA2F20121B2FA82F201FA43
:1039C80002F202423FF4D8AE6268002A7FF4D4AE15
:1039D800B6E79E4DF821286891FAA1F16269B1FA1B
:1039E80081F120F0F8008A4002432A601D077FF524
:1039F80007AF2FE7336843F480733360FEF794FD15
:103A080007463368DB053FF511AFFEF78DFDC01B98
:103A18006428F6D9032003B0BDE8F0838B4D2B68EA
:103A280023F480332B602B6823F480232B60EB6A0C
:103A380023F00F031343EB62FEF776FD4FF40038D3
:103A48000646012704E0FEF76FFD801B6428E1D8D5
:103A580098FAA8F32A6898FAA8F3B3FA83F307FA4E
:103A680003F31342EFD186E6784E336A23F001035D
:103A78003362336A23F004033362FEF755FD4FF0D7
:103A8800020907464FF0010806E0FEF74DFD41F236
:103A98008833C01B9842BDD899FAA9F399FAA9F3BB
:103AA800326A99FAA9F3B3FA83F308FA03F31342D3
:103AB800EBD1002D3FF4FAAE644AD36923F080536A
:103AC800D361F3E6012696FAA6F3B3FA83F303F17A
:103AD800845303F584139B005C4F1A60FEF724FDA2
:103AE8004FF00208054604E0FEF71EFD401B0228C1
:103AF80090D898FAA8F33A6898FAA8F3B3FA83F337
:103B080006FA03F31342EFD1236877E64F4A136AA4
:103B180043F001031362FEF707FDDFF83081064624
:103B28004FF00209012707E0FEF7FEFC41F2883357
:103B3800801B98423FF66EAF99FAA9F399FAA9F358
:103B4800D8F8202099FAA9F3B3FA83F307FA03F314
:103B58001342E9D0002D3FF4A9AEADE7012B3FF4A5
:103B6800EFAE6B68226A03F4803191427FF4E8AECD
:103B7800606A03F47013181A18BF0120C8E603F12D
:103B88008043A3F53C33196841F480211960196812
:103B980041F48031C5E542F004021A621A6A42F023
:103BA80001021A62B7E793FAA3F3B3FA83F303F1B6
:103BB800845303F584139B0000221A60FEF7B4FCBB
:103BC8004FF000780646012705E0FEF7ADFC801BA4
:103BD80002283FF61FAF98FAA8F32A6898FAA8F3C4
:103BE800B3FA83F307FA03F31342EED1D4E90813C7
:103BF8006A680B4322F4741213436B604FF08073AE
:103C080093FAA3F3B3FA83F303F1845303F584130C
:103C18009B000E4E1F60FEF787FC4FF000770446AE
:103C2800012505E0FEF780FC001B02283FF6F2AEF6
:103C380097FAA7F3326897FAA7F3B3FA83F305FA6A
:103C480003F31342EED062E60120704700100240F1
:103C58000E4A536803F00C01082901D00C4870473C
:103C6800C3F383410B48D26A405CDB0309D50A4998
:103C7800074B02F00F028A5CB3FBF2F303FB00F080
:103C88007047064B03FB00F0704700BF001002406E
:103C980000127A004C4000083C40000800093D0032
:103CA800002800F08D80504A136803F007038B4208
:103CB8002DE9F0410D4604460CD2136823F00703A2
:103CC8000B431360136803F007038B4202D00120F3
:103CD800BDE8F0812368980706D54449A0684A687A
:103CE80022F0F00202434A60D9072CD56268012A03
:103CF80068D0022A0CBF4FF00073022393FAA3F195
:103D08003A49086893FAA3F30121B3FA83F301FA55
:103D180003F30342DBD0354E736823F003031343E8
:103D28007360FEF701FC41F28838074604E0FEF7AD
:103D3800FBFBC01B404554D87368626803F00C0352
:103D4800B3EB820FF3D1284A136803F00703AB42A1
:103D580009D9136823F007032B431360136803F092
:103D68000703AB42B3D123685A0706D51F49E06859
:103D78004A6822F4E06202434A601B0707D51B4ADF
:103D88002169536823F4605343EAC1035360FFF782
:103D98005FFF164BF0225B6892FAA2F2B2FA82F247
:103DA80003F0F003124C1349D340134AE35C20FAA2
:103DB80003F308681360FEF775FB0020BDE8F08187
:103DC800012070474FF4003393FAA3F107490968BB
:103DD80093FAA3F3B3FA83F302FA03F30B429AD1EB
:103DE80075E7032074E700BF00200240001002407E
:103DF8001C3E00081000002000000020F8B500BF9D
:103E0800F8BC08BC9E467047F8B500BFF8BC08BCB3
:043E18009E4670470B
:103E1C00000000000000000001020304060708096E
:103E2C00555254432D48594452412D554D432D3232
:103E3C003032362D4348414E47452D4D452D2121DD
:103E4C0000000000010101005550444154494E4707
:103E5C00000000004552524F52000000464C4153A6
:103E6C0048204F4B00000000010000000000000043
:103E7C00000200030405060708090A0B0C000000E9
:103E8C00000000000D00000E0F101112130014158D
:103E9C000016171800191A1B1C0000000000000067
:103EAC00002313086462006060000000427F400041
:103EBC0000447E40000062514946002249493618B0
:103ECC0014127F100027454539003E4949320061E4
:103EDC001109070036494936002649493E7E111121
:103EEC00117E7F4141221C7F494949417F090909C3
:103EFC00013E4141493A7F0808087F00417F41005B
:103F0C007F081422417F404040407F0408107F3ED0
:103F1C004141413E7F09090F007F091929460026BE
:103F2C0049493201017F01013F4040403F00000000
:103F3C00982F8A4291443771CFFBC0B5A5DBB5E908
:103F4C005BC25639F111F159A4823F92D55E1CAB7C
:103F5C0098AA07D8015B8312BE853124C37D0C550A
:103F6C00745DBE72FEB1DE80A706DC9B74F19BC152
:103F7C00C1699BE48647BEEFC69DC10FCCA10C2442
:103F8C006F2CE92DAA84744ADCA9B05CDA88F97626
:103F9C0052513E986DC631A8C82703B0C77F59BF90
:103FAC00F30BE0C64791A7D55163CA0667292914BC
:103FBC00850AB72738211B2EFC6D2C4D130D385359
:103FCC0054730A65BB0A6A762EC9C281852C72921B
:103FDC00A1E8BFA24B661AA8708B4BC2A3516CC749
:103FEC0019E892D1240699D685350EF470A06A1082
:103FFC0016C1A419086C371E4C774827B5BCB034D1
:10400C00B30C1C394AAAD84E4FCA9C5BF36F2E686E
:10401C00EE828F746F63A5781478C8840802C78CFD
:10402C00FAFFBE90EB6C50A4F7A3F9BEF27871C600
:10403C000102030405060708090A0B0C0D0E0F10EC
:10404C0002030405060708090A0B0C0D0E0F1010CD
:08405C00E4C1FF7F0100000038
:04406400F10100085E
:04406800C901000882
:10406C0000127A0018FCFFFFFFFFFFFF01000000A9
:04407C001000000030
:040000050800078563
:00000001FF
