:020000040800F2
:1000000000A0002085070008D5070008A9130008F4
:10001000D5070008D5070008D50700080000000034
:10002000000000000000000000000000D5070008EC
:10003000D507000800000000D5070008C11300081C
:10004000D5070008D5070008D5070008D507000820
:10005000D5070008D5070008D5070008D507000810
:10006000D5070008D5070008D5070008D507000800
:10007000D5070008D5070008D5070008D5070008F0
:10008000D5070008D5070008D5070008D5070008E0
:10009000D5070008D5070008D5070008D5070008D0
:1000A000D5070008D5070008D5070008D5070008C0
:1000B000D5070008D5070008D5070008D5070008B0
:1000C000D5070008D5070008D5070008D5070008A0
:1000D000D5070008D5070008D5070008D507000890
:1000E000D5070008D5070008D5070008D507000880
:1000F000D5070008D5070008D5070008D507000870
:10010000000000000000000000000000D50700080B
:10011000D5070008D5070008D5070008D50700084F
:10012000D5070008D5070008D5070008D50700083F
:10013000D5070008D50700080000000000000000F7
:10014000D5070008D5070008D50700080000000003
:10015000000000000000000000000000000000009F
:100160000000000000000000D5070008D5070008C7
:10017000D50700080000000000000000000000009B
:0801800000000000D507000893
:100188000348044B834202D0034B03B1184770471E
:100198001400002014000020000000000548064B51
:1001A8001B1AD90F01EBA301491002D0034B03B16D
:1001B80018477047140000201400002000000000B9
:1001C80010B5064C237843B9FFF7DAFF044B13B197
:1001D8000448AFF300800123237010BD18000020ED
:1001E800000000009440000808B5044B1BB1044906
:1001F8000448AFF30080BDE80840CFE700000000E6
:100208001C0000209440000853B94AB9002908BFCF
:1002180000281CBF4FF0FF314FF0FF3000F06AB9E3
:10022800ADF1080C6DE904CE00F006F8DDF804E045
:10023800DDE9022304B070472DE9F047089D0E461A
:1002480004460F46002B4AD194468C45B2FA82F2F6
:1002580060D942B1C2F12003974020FA03F30CFAA7
:1002680002FC1F4394404FEA1C4E1FFA8CF6B7FB62
:10027800FEF1230C0EFB117743EA074301FB06F05E
:1002880098420AD91CEB030301F1FF3780F015816E
:10029800984240F21281023963441B1AA4B2B3FB9C
:1002A800FEF00EFB103344EA034400FB06F6A642B8
:1002B8000AD91CEB040400F1FF3380F00081A64248
:1002C80040F2FD806444023840EA0140A41B00214A
:1002D8001DB1D4400023C5E90043BDE8F0878B4237
:1002E80005D90DB1C5E9000100210846F5E7B3FAC3
:1002F80083F1002946D1B34202D3824200F2F5804D
:10030800841A66EB030201201746002DE5D0C5E9E3
:100318000047E2E7002A40F09380A1EB0C034FEA84
:100328001C471FFA8CFE0121B3FBF7F607FB1630BA
:10033800230C43EA00430EFB06F0984208D91CEB55
:10034800030306F1FF3802D2984200F2D0804646F5
:100358001B1AA4B2B3FBF7F007FB103344EA0344BB
:100368000EFB00FEA64508D91CEB040400F1FF3380
:1003780002D2A64500F2B6801846A4EB0E0440EA65
:100388000640A5E7C1F120078B4022FA07FC4CEA9A
:10039800030C06FA01FE20FA07F426FA07F344EAEA
:1003A8000E0400FA01F84FEA1C404FEA1449B3FB67
:1003B800F0FE1FFA8CF600FB1E3349EA03430EFBDE
:1003C80006F9994502FA01F20BD91CEB03030EF169
:1003D800FF3A80F08580994540F28280AEF1020EA6
:1003E8006344A3EB0909A4B2B9FBF0F300FB13992A
:1003F80044EA094403FB06F6A64208D91CEB0404A8
:1004080003F1FF3068D2A64266D9023B644443EA4E
:100418000E40A41BA0FB02E6B4427346B14652D379
:100428004FD05DB1B8EB030264EB090404FA07F797
:1004380022FA01F31F43CC40C5E9007400214CE7C0
:10044800C2F1200120FA01F30CFA02FC26FA01F1AC
:10045800964033434FEA1C471FFA8CFEB1FBF7F076
:1004680007FB1016190C41EA064100FB0EF68E42F6
:1004780004FA02F408D91CEB010100F1FF382DD26F
:100488008E422BD902386144891B9BB2B1FBF7F627
:1004980007FB161143EA014306FB0EF1994208D9FE
:1004A8001CEB030306F1FF3814D2994212D9023E1D
:1004B80063445B1A46EA004136E73946EDE61846DA
:1004C80002E7F045ADD2BEEB020366EB0C0601383D
:1004D800B146A6E74646ECE7034698E74046D3E729
:1004E800D6467EE76444023847E708460DE7023EF1
:1004F80063442DE7704700BF70B50F4B0F4DAB42FB
:10050800A3EB050607D0B610002455F8043B0134C8
:100518009847A642F9D803F0B9FD094D094B5E1B6F
:10052800AB424FEAA60606D0002455F8043B013436
:100538009847A642F9D870BDF0420008F04200087A
:10054800F0420008F4420008830730B547D0541E33
:10055800002A3ED0CAB2034601E0013C39D303F871
:10056800012B9D07F9D1032C2CD9CDB205EB05251C
:100578000F2C05EB054535D9A4F1100222F00F0C1C
:1005880003F1100EE6444FEA121C1A46C2E9005560
:10059800C2E9025510327245F8D10CF1010214F08B
:1005A8000C0F03EB021204F00F0C13D0ACF1040390
:1005B80023F003030433134442F8045B9342FBD152
:1005C8000CF003042CB1C9B21C4403F8011BA3426C
:1005D800FBD130BD64461346002CF4D1F9E703463D
:1005E8001446C0E71A46A446E0E700BF844641EA3D
:1005F800000313F003036DD1403A41D351F8043B93
:1006080040F8043B51F8043B40F8043B51F8043BE4
:1006180040F8043B51F8043B40F8043B51F8043BD4
:1006280040F8043B51F8043B40F8043B51F8043BC4
:1006380040F8043B51F8043B40F8043B51F8043BB4
:1006480040F8043B51F8043B40F8043B51F8043BA4
:1006580040F8043B51F8043B40F8043B51F8043B94
:1006680040F8043B51F8043B40F8043B51F8043B84
:1006780040F8043B51F8043B40F8043B403ABDD2F3
:10068800303211D351F8043B40F8043B51F8043B95
:1006980040F8043B51F8043B40F8043B51F8043B54
:1006A80040F8043B103AEDD20C3205D351F8043B24
:1006B80040F8043B043AF9D2043208D0D2071CBFF0
:1006C80011F8013B00F8013B01D30B880380604619
:1006D800704700BF082A13D38B078DD010F003038F
:1006E8008AD0C3F10403D21ADB071CBF11F8013BFF
:1006F80000F8013B80D331F8023B20F8023B7BE74E
:10070800043AD9D3013A11F8013B00F8013BF9D278
:100718000B7803704B7843708B7883706046704712
:10072800032A30B415D941EA0004A40784460B46CD
:1007380004D0541E0FE0043A032A08D9194660462B
:1007480053F8044B5CF8045BA542F4D0F1E760462B
:100758001946541E7AB1431E0139021901E09A4222
:1007680009D013F8010F11F801CF6045F7D0A0EBBD
:100778000C0030BC7047002030BC7047DFF834D024
:1007880000F026F80C480D490D4A002302E0D45821
:10079800C4500433C4188C42F9D30A4A0A4C0023C3
:1007A80001E013600432A242FBD3FFF7A5FE00F07C
:1007B800A1FCFEE700A0002000000020140000209B
:1007C800F842000818000020300D0020FEE7000065
:1007D800034AD2F8883043F47003C2F8883070476F
:1007E80000ED00E02DE9F04FCDB00DF12C09834666
:1007F8001BAF0CA84A464B780E78CD788C781B0432
:1008080043EA06632B4343EA042342F8043FBA420F
:1008180001F10401EFD10CAE1A9B1B9C56F8C01BCA
:100828001F46D0F824C00D4650F8041F4FEAF7427F
:1008380082EA77424FEAB14382EA972283EAF113C8
:10084800624483EAD1031A442746B04205EB020406
:10085800C463E6D1DBE90012DBF80830DBF81C5092
:10086800DBF80C400395DBF81000DBF81470DBF8BC
:10087800186005940194CDE90912314DDDF80CA0FA
:1008880004930690079708969E4614468C46CDF822
:100898002CB005E03E46A6460746644640469C46C0
:1008A80055F8042F59F8041F4FEAF02383EAB013D0
:1008B8000A4483EA7063134426EA000800EA070240
:1008C80088EA02084FEA7C3282EABC0282EABC5219
:1008D80002924344019ACDF804E053441A4484EA4E
:1008E8000E0101EA0C01904604EA0E0B029A81EA15
:1008F8000B010A441344134A9542B246CAD1DDE9B2
:1009080009121944049B059DDDF82CB023441C46AC
:10091800069B434462449C46079B03441846089B35
:100928003B441F46039B75443344CBE90012CBE993
:100938000245CBE904C0CBE906734DB0BDE8F08FA2
:10094800B8400008B8410008B2B30A442DE9F84F8E
:100958001A4F04464D1E02F1FF3AC1F1010B00F196
:1009680028094FF0000801E0554514D0A36EE2189D
:1009780001330BEB0506402B15F8011F82F82810F0
:10098800A3660AD0C6F30B06002EEDD1384602F056
:100998006BFF5545EAD1BDE8F88F49462046FFF779
:1009A80021FFD4E9083213F5007342F10002C4E9CB
:1009B8000832C4F86880E5E7704700BF8C0400205F
:1009C800F8B5866E82190D46372E4FF08001044621
:1009D80006F1010382F8281045D8382B07D006F114
:1009E8002900C6F1370220440021FFF7ADFD04F1CC
:1009F8002807D4E908230820E6FB0023226212BA5C
:100A08001E0E6266002266F307021E0C66F30F22B2
:100A18001E0A66F3174263F31F6239466362204673
:100A28002266FFF7DFFE1823691E2268DA4001F804
:100A3800012F6268DA400A71A268DA400A72E26835
:100A4800DA400A732269DA400A746269DA400A7580
:100A5800A269DA400A76E269DA40083B13F1080F26
:100A68000A77E2D1F8BD3F2B07D806F12900C6F175
:100A78003F0220440021FFF767FD04F128073946AB
:100A88002046FFF7AFFE382200213846FFF75CFD0D
:100A9800AFE700BF000000002DE9F04FD7B02AAD46
:100AA8000E46074601920021402228469946FFF744
:100AB8004BFD402E3246394640F2FA8081A7D7E9ED
:100AC8000067CDE93A6781A7D7E90067CDE93C67B8
:100AD80080A7D7E90067CDE93E6780A7D7E9006717
:100AE8000DF1E808CDE940670023404600260027BD
:100AF800CDE942675493FFF727FF29464046FFF7A1
:100B08005FFF1AAE29A909AA334651F8040F80F0ED
:100B1800363780F05C3042F8047F43F8040BAB4270
:100B2800F3D168A1D1E90001CDE93A0167A1D1E982
:100B38000001CDE93C0167A1D1E90001CDE93E0101
:100B480066A1D1E900010AAFCDE9400100230020E8
:100B58000021CDE94201DFF868A13C469B4602E04E
:100B6800A64214D0549B14F8010B03F5AC720DEB9C
:100B780002010133402B01F8480C549369D0E31B60
:100B8800012BEDD1504602F06FFEA642EAD14A464B
:100B98000199DFF82CA140460DF10809FFF7D4FEB2
:100BA80049464046FFF70CFF46A1D1E90001CDE9CF
:100BB8003A0146A1D1E90001CDE93C0145A1D1E9BD
:100BC8000001CDE93E0145A1D1E90001CDE940018F
:100BD80000200021CDE942010024B34601E05D4533
:100BE80014D004F5AC730DEB030201341BF8011BA0
:100BF80002F8481C402C54943AD0ABEB0602012A68
:100C0800EDD1504602F030FE5D45EAD12C4E4D46FE
:100C18004FF0000A02E0AF4214D0549C15F8012BA3
:100C280004F5AC736B440134402C03F8482C5494FD
:100C38002FD0A5EB0903012BEDD1304602F014FEAD
:100C4800AF42EAD160994046FFF7BAFE57B0BDE817
:100C5800F08F44A94046FFF7C5FDDDE9423113F5A1
:100C6800007341F10001CDE94231CDF850B186E77A
:100C780044A94046FFF7B6FDDDE9422112F50072AE
:100C88004FF0000341F10001CDE9422154931C4685
:100C9800B3E744A94046FFF7A5FDDDE9423213F565
:100CA800007342F10002CDE94232CDF850A1C0E70D
:100CB8002846FFF79BFC0DF1E80822E7AFF3008018
:100CC8008C04002067E6096A85AE67BB72F36E3C48
:100CD8003AF54FA57F520E518C68059BABD9831FFF
:100CE80019CDE05BA2B100B500F1FF3C01396244C7
:100CF80000201CF8013F11F801EF944583EA0E0328
:100D080040EA0300F5D1B0FA80F040095DF804FB31
:100D1800012070472DE9F0411C4D2B7806460F46FF
:100D28009046A3B1B8F1000F2DD007EB0801184C7D
:100D38007A1E0139304612F8013F4340DBB28A423D
:100D480054F8233083EA1020F5D1BDE8F08111482A
:100D580011499E4600F580647246082342F3000C50
:100D6800013B0CEA010C13F0FF038CEA5202F5D1A7
:100D780040F8042F84420EF1010EEDD101232B70AF
:100D8800B8F1000FD1D13046BDE8F0813400002021
:100D980038000020340000202083B8EDC04370479D
:100DA80081B32DE9F0470026DFF85CA0DFF85C90FE
:100DB80084B005460F46B04609E0009B013319D1BF
:100DC800013602F051FDB74205F5006516D0012342
:100DD8000393CDE9018502F00BF83423CAF80C30EF
:100DE800694601A802F0A4F8044602F015F848463E
:100DF800002CE2D0002004B0BDE8F087012004B048
:100E0800BDE8F08701207047002002408C040020D4
:100E18002DE9F843164680460F4601F0E9FF314BAD
:100E28003422DA60002E57D00137DFF8BC903D46F7
:100E3800002404E00234A64205F102051DD9631C12
:100E48009E4288BF2B7815F8012C4FF001008CBF0B
:100E580042EA032242F47F42002308EB040102F035
:100E680011F8A0BBE3B2002BE4D14846023402F0EB
:100E7800FBFCA64205F10205E1D801F0CDFFBFF366
:100E88004F8F194D002404E00234A64207F10207EF
:100E98001AD9631C9E4217F8012C84BF3B7842EA9A
:100EA800032238F8043098BF42F47F429BB29A423A
:100EB800E1B20ED10029E7D12846023402F0D4FC71
:100EC800A64207F10207E4D80120BDE8F88301F043
:100ED800A3FF0020BDE8F88301F09EFFBFF34F8F0A
:100EE800F2E700BF002002408C0400202DE9F04FFB
:100EF80002F2FF7E5FEADE2E89B051D04FEACE23A0
:100F08004FF00008CDE9000191460293642445465C
:100F1800CDF80CE01DE0049B01333DD1FFF778FFCD
:100F2800002839D0204802F09FFC3346039A204617
:100F38004146FFF769F9C6B2304600F06DFD31460B
:100F4800072000F095FF029B643448F100089D4299
:100F580026D0009B4FF4006B5F19AA4600215D4420
:100F6800A945CDE905174FF0010138BFA9EB0A0BD8
:100F7800079101F03DFF0D4B3421D96005A804A964
:100F880001F0D6FF064601F047FF019B5A4603EBE6
:100F98000A013846002EBED0002009B0BDE8F08F07
:100FA800012009B0BDE8F08F8C0400200020024029
:100FB80070B5124C124E05468446A646BEE80F0090
:100FC800B6450CF1100C04F110044CF8100C4CF858
:100FD8000C1C4CF8082C4CF8043CEED1234607CBEB
:100FE800CCF80000CCF80410CCF808202868054B91
:100FF800C01AB0FA80F0400970BD00BF0078000840
:10100800307800084150415570B5234C234D0646B1
:101018000FCC94B00DF1140CACE80F000FCCACE879
:101028000F000FCCACE80F0094E80700059BAB421B
:101038008CE8070005D13C22314605A8FFF770FB74
:1010480028B3154901230020CDE90201049301F0DA
:10105800CFFE134B3422DA6001A902A801F068FF21
:10106800044601F0D9FE2CB9019B013306D0204675
:1010780014B070BD0024204614B070BD3C22314627
:101088000548FFF7C5FE0446204614B070BD01248C
:10109800204614B070BD00BF00780008415041558B
:1010A8000020024030B591B02022002107A8FFF7A8
:1010B8004BFA1021012000240225CDE90A014FF442
:1010C800601306A80F93CDE90244CDE904440194C6
:1010D80006950D9502F042FC0F224FF4806301A89B
:1010E8002946CDE90125CDE90343059402F020FF07
:1010F80011B030BD2DE9F04F93B001F03FFBFFF781
:10110800D1FF9B4B9B4C5A699B4E42F400325A616B
:101118005A6902F400320192019ADA6942F00072C7
:10112800DA61DB6903F0007302934FF4C0510223C4
:101138000025CDE903130327092303A94FF09040A5
:10114800CDE90673029A059501F054FF8B4AA583F1
:101158000423C4E900234FF440234FF48011236192
:1011680020464FF00123C4E90513C4E9025501F0F4
:101178003DFB012308A92046CDE910350F93CDE9A1
:101188000D55CDE90855CDE90A550C9501F0B0FB90
:10119800204601F025FC00F04DF940F2E733B3603A
:1011A8003046774B3360776002F030FB00F01CFF6D
:1011B800804601F001FB734D074601F0FDFA034636
:1011C800DB1BB3F5167F30462ED202F04DFB002113
:1011D800204601F063FD8446002103AB08AA20469F
:1011E800BCF1000F10D001F0D5FC68B9DDE90A2385
:1011F800134340F2F171E0D1089B8B4200F09F80CD
:10120800B3F5FF6F00F0AD8001F0D6FA2B68C01A75
:10121800B0F57A7FD1D301F0CFFAFF210346012040
:101228002B6000F025FEC8E7B8F1000F40F09C8065
:10123800012000F0E7FD544EDFF85881DFF858A18F
:10124800DFF858914C4F4B4C384602F00DFB00210B
:10125800204601F023FDF0B103AB08AA0021204687
:1012680001F098FCB8B9DDE90A231343ECD1089BD7
:1012780040F2F17293424FD040F2F772934252D04B
:1012880040F2F272934255D040F2F47293425ED12A
:101298000C9B082B61D001F08FFA2B68C01AB0F5AF
:1012A8007A7F1FD23378002BCED098F800B0BBF1EC
:1012B800000FC9D101F080FAD9F8002042F210736A
:1012C800801A9842C0D986F800B088F800B000F0BB
:1012D80089FA2E4A0421022000F0E0FA012000F0E9
:1012E80091FDB1E701F068FA337828608BB198F87E
:1012F800003073B9DAF800205AB12549096864202A
:10130800A1FB0001FEF780FFC1B2032000F0B0FD91
:10131800C8E70120FF21F9E70C9B082BBBD103A8E4
:1013280000F066FFB7E70C9B082BB4D103A801F0C7
:1013380013F8B0E70C9903A801F032F8ABE70C9B5F
:10134800082B7FF461AF03A800F052FF70E7B3F5F4
:10135800FF6FA0D100F0B0FD9DE703A801F094F85D
:1013680099E700F0A9FD4FE700F0EEFE60E700BF47
:10137800001002409C0400208C04002000640040FF
:101388000030004004000020CC040020DC410008AC
:10139800FC0C0020C5040020040D0020C804002017
:1013A800044B4FF090416FF0A0504FF0FF320860AF
:1013B8001A60FEE70004004801F0F2B9F0B51B4DD1
:1013C8002B7885B00BB905B0F0BD503814270C4602
:1013D8008DF80D00022303AA1548009700267821EE
:1013E8008DF80C6002F09EF82A7804F00F03002AAA
:1013F800E9D08DF80D30782102230D48009703AA13
:101408008DF80C6002F08EF82B7821091031002B32
:10141800D9D08DF80D100097022303AA782104482B
:101428008DF80C6002F07EF805B0F0BDC404002011
:1014380038040020F0B5224D224C6B6943F4003388
:101448006B616B698BB003F400330393039B4FF418
:10145800C0610323122201260591089305A90423DC
:101468004FF09040CDE90626099301F0C3FDEB69E2
:10147800E66043F40013EB61EA691349216002F462
:1014880000120023114904922046C4E90433C4E938
:101498000733049A6160A36001F0CEFF322001F0A7
:1014A80091F9142302227821204602F013F9084DFD
:1014B800061E0CBF012300232B700BD00BB0F0BD10
:1014C8000010024038040020005800402A23100071
:1014D800C40400204FF42E431427ADF814300097AD
:1014E80002230DEB07027821204602F01BF82B7827
:1014F800002BE3D04FF45543ADF814300097022386
:101508000DEB07027821204602F00CF82B78002B0F
:10151800D4D04FF40043ADF81430009702230DEBFC
:1015280007027821204601F0FDFF2B78002BC5D05B
:101538004FF42843ADF81430009702230DEB07024F
:101548007821204601F0EEFF2B78002BB6D04FF41F
:101558007C53ADF81430009702230DEB0702782175
:10156800204601F0DFFF2B78002BA7D04FF4534320
:10157800ADF81430009702230DEB070278212046BE
:1015880001F0D0FF2B78002B98D0022300970DEBA9
:10159800070278212046ADF8146001F0C3FF2B78CC
:1015A800002B8BD04FF48043ADF814300097022302
:1015B8000DEB07027821204601F0B4FF2B78002BB1
:1015C8003FF47CAF4FF40D420223ADF8142000978E
:1015D80020460DEB0702782101F0A4FF2B78002BA1
:1015E8003FF46CAF4FF4A0520223ADF814207C48AE
:1015F80000970DEB0702782101F094FF2B78002B60
:101608003FF45CAF4FF400520223ADF81420744845
:1016180000970DEB0702782101F084FF2B78002B4F
:101628003FF44CAF4FF400720223ADF814206C481D
:1016380000970DEB0702782101F074FF2B78002B3F
:101648003FF43CAF4FF421420223ADF81420644824
:1016580000970DEB0702782101F064FF2B78002B2F
:101668003FF42CAF4FF448420223ADF814205C48F5
:1016780000970DEB0702782101F054FF2B78002B1F
:101688003FF41CAF4FF45A420223ADF814205448DB
:1016980000970DEB0702782101F044FF2B78002B0F
:1016A8003FF40CAF4FF490520223ADF814204C488D
:1016B80000970DEB0702782101F034FF2B78002BFF
:1016C8003FF4FCAE4FF401420223ADF81420444825
:1016D80000970DEB0702782101F024FF2B78002BEF
:1016E8003FF4ECAE4FF44F420223ADF814203C48CF
:1016F80000970DEB0702782101F014FF2B78002BDF
:101708003FF4DCAE4FF459410223ADF814103448CD
:1017180000970DEB0702782101F004FF2B78002BCE
:101728003FF4CCAE4FF471420223ADF814202C489C
:1017380000970DEB0702782101F0F4FE2B78002BBF
:101748003FF4BCAE4FF45B420223ADF814202448AA
:1017580000970DEB0702782101F0E4FE2B78002BAF
:101768003FF4ACAE4FF480420223ADF814201C487D
:1017780000970DEB0702782101F0D4FE2B78002B9F
:101788003FF49CAE4FF424420223ADF814201448D1
:1017980000970DEB0702782101F0C4FE2B78002B8F
:1017A8003FF48CAE4FF426420223ADF814200C48C7
:1017B80000970DEB0702782101F0B4FE2B78002B7F
:1017C8003FF47CAE4FF42F45009702230DEB070240
:1017D80078210348ADF8145001F0A4FE0BB0F0BD19
:1017E800380400202DE9F041C4B08022002103A86C
:1017F800FEF7AAFE274F284EB0244FF0000897F8AE
:1018080000C01425022323AA78213046BCF1000F1A
:1018180039D000958DF88C808DF88D4001F082FECE
:1018280097F800C00223782123AA3046BCF1000FA4
:1018380029D00095ADF88C8001F074FE97F800E08F
:101848004FF4805C022323AA78213046BEF1000FB2
:1018580019D00095ADF88CC001F064FE97F800C06F
:101868004023802203A90DF18D00BCF1000F0AD09E
:101878008DF88C30FEF7BAFE81237821009523AAD3
:10188800304601F04FFE0134E4B2B82CB7D144B071
:10189800BDE8F081C4040020380400202DE9F04F91
:1018A800E7B005AE9146039080220D4630460021F0
:1018B80025ACFEF749FE002180222046FEF744FEB3
:1018C80099F80010002966D0762D64D8DFF840A179
:1018D800DFF840B12B4605F10A0803272A46A1F193
:1018E800610019289CBF2039C9B22539C9B23029ED
:1018F80000F285801BF8011001EB81004FEA810E90
:101908001AF8005002938E44D6449C460023194688
:1019180045FA03F010F0010F4FEA430003F1010309
:1019280003D007FA00F00843C1B2042BF0D14FF0FE
:10193800000361F3070361F30F2315F0100118BFCB
:101948000321A80648BF41F00C01680648BF41F0D2
:10195800300126F80C3048BFC9B24FF0000361F3DC
:10196800070361F30F2324F80C300CF1020C1FFA63
:101978008CFCC44502D01EF8015FC7E7029B19F82A
:10198800011F0B339BB229B108F10B08762B1FFA04
:1019980088F8A4D915461C4F03982946FFF70EFD71
:1019A8003B7883B14023314680220DF215108DF823
:1019B8001431FEF71BFE142300931448812345AA13
:1019C800782101F0AFFD039801302946C0B2FFF736
:1019D800F5FC3B7883B14023802221460DF2151097
:1019E8008DF81431FEF702FE142300930748812373
:1019F80045AA782101F096FD67B0BDE8F08F002573
:101A08002946AE467EE700BFC40400203804002003
:101A180034420008004200082DE9F04764280546D2
:101A280028BF6425C5EBC503924AC3EB03135C19B1
:101A3800A2FB0424CAB000238046C4F347140DAAAD
:101A4800184641277F2607E06D2B0AD08C422CBF11
:101A58001670177001330132D9B2002BF4D101206E
:101A6800F8E710B17F238DF83430834E33787F2226
:101A78008DF8A120002B40F0AB80B8F1630F4FF038
:101A8800000700F2E880B8F1090F00F28D803035C8
:101A98000DF10C085FFA85F988F8009002220121FF
:101AA8000025252305AC08F80130204608F8025027
:101AB80029461E22FEF748FD7048DFF8CCC12946AA
:101AC8004FF0050EA9F16103192B9CBFA9F120095C
:101AD8005FFA89F9A9F125095FFA89F9B9F1300F97
:101AE80094BF1CF80920002202EB820202442B4614
:101AF80099460133DBB212F801AB04F809A073452B
:101B0800F6D10131C9B2063518F801900633EDB2A5
:101B18005FFA83FEB9F1000FD4D1002F41D04FF402
:101B280033431427ADF8A43055480097022329AA57
:101B3800782101F0F7FC3378002B32D04FF4806322
:101B4800ADF8A4304E480097022329AA782101F065
:101B5800E9FC33782BB34FF480520223ADF8A4206C
:101B68004748009729AA782101F0DCFC3378C3B1F3
:101B78004023802D2E468DF8A43028BF80263DB105
:101B8800721E92B2013221460DF1A500FEF72EFD1C
:101B98001422731C00923A489BB229AA782101F0BA
:101BA800C1FC4AB0BDE8F087364BA3FB0523DB0830
:101BB80003F1300903EB8303A5EB430330330DF145
:101BC8000C080322022188F8009088F8013067E7A2
:101BD8004FF435431424ADF8A43029480094022367
:101BE80029AA782101F09EFC3378002B3FF445AFF9
:101BF8004FF48063ADF8A43021480094022329AA49
:101C0800782101F08FFC3378002B3FF436AF4FF486
:101C18008053ADF8A4301A480094022329AA7821E9
:101C280001F080FC3378002B3FF427AF40230DA947
:101C38006E220DF1A5008DF8A430FEF7D7FC1048F0
:101C480000946F2329AA782101F06CFCB8F1630F86
:101C580037787FF618AF0DF10C0843F231023023C4
:101C6800A8F8002088F802304FF031090422032137
:101C780016E700BF1F85EB51C4040020344200085A
:101C880038040020CDCCCCCC00420008F0B51A4D69
:101C98001A4E89B00746322409E0304601F0E4FDC7
:101CA800012000F08FFD631E13F0FF041CD02846AE
:101CB80000F05CFF0028F0D0052140F2F572022305
:101CC80000248DF8001002920693002501AB6A46A5
:101CD80002A909488DF80170CDE904458DF81C402A
:101CE80000F0F2FE09B0F0BD034800F03FFF002805
:101CF800E2D109B0F0BD00BF9C0400208C04002094
:101D08002DE9F047DFF8F480DFF8F490D8F8000008
:101D1800D9F8002000F580304830B2F5006F88B05F
:101D28004FEAC02406D23048FF211044C2F50062B1
:101D3800FEF70AFC2C494FF400622046FFF768F8CA
:101D4800054618B9284608B0BDE8F087D8F800302D
:101D5800264E274F322493FA83FA09E0384601F0D9
:101D680083FD012000F02EFD631E13F0FF0435D023
:101D7800304600F0FBFE0028F0D0002340F2F3725A
:101D88000421CDE9043302928DF81C3006911748DE
:101D9800CDF800A001AB6A4602A900F095FED8F87C
:101DA8000020134801320024C8F80020C9F8004078
:101DB80001F05AFD0F4B1A6832B91046FFF72CFE96
:101DC800284608B0BDE8F0870B4B19686420A1FBD2
:101DD80000012346FEF718FAC0B2EFE7034800F007
:101DE800C5FE0028DBD0C8E7D80400209C040020EA
:101DF8008C040020040D0020FC0C0020D0040020DE
:101E0800D4040020F0B5184D184E89B00746322486
:101E180009E0304601F028FD012000F0D3FC631EE4
:101E280013F0FF0419D0284600F0A0FE0028F0D0D7
:101E380040F2F5710122002402910692002501ABBF
:101E48006A4602A908488DF80070CDE904458DF866
:101E58001C4000F039FE09B0F0BD034800F086FED2
:101E68000028E5D109B0F0BD9C0400208C040020B6
:101E780030B5054689B00F480C4600F077FEB0B182
:101E880040F2F672002000210223CDE904014FF050
:101E9800000C0292069307488DF8005001AB6A4681
:101EA80002A98DF801408DF81CC000F00DFE09B0A4
:101EB80030BD00BF9C04002070B5A0B011A8FFF78A
:101EC80077F800286FD0DDE913329DF854001E0E14
:101ED800C3F30745C3F30724C2F30721DBB2D2B229
:101EE8009FED3B7B8DF80C3000238DF80B408DF86F
:101EF8000D1040F2F97408218DF8243001238DF873
:101F080009608DF80A5004948DED067B324D334EEE
:101F18008DF80E208DF80F00089132248DF80830C6
:101F280009E0304601F0A0FC012000F04BFC631EE4
:101F380013F0FF043ED0284600F018FE0028F0D029
:101F480025480AAB02AA04A900F0BEFD224D234E83
:101F5800322409E0304601F087FC012000F032FC11
:101F6800631E13F0FF042BD0284600F0FFFD002865
:101F7800F0D01B4B1B68ADF80030180C40F2FA711A
:101F8800032200248DF802000A910E92002501AB6D
:101F98006A460AA910488DF83C40CDE90C4500F086
:101FA80093FD20B070BD024601460346044605462F
:101FB800064695E7084800F0D9FD0028C6D0BFE7D7
:101FC800054800F0D3FD0028D3D120B070BD00BF74
:101FD80000000000000000009C0400208C04002089
:101FE800E44100080000000030B5A3B003A8FEF7E4
:101FF800DFFF00283CD1504B1B6803F16042A2F57B
:102008008072B2F51F4F2AD82C22002116A8FEF79D
:102018009BFA45A3D3E900239FED457B4FF4E034B9
:10202800CDE912234449179422464FF0FF308DED35
:10203800147BFEF76FFEFEF7B1FE19AB3E4A009324
:10204800054623463D4818952021FEF725FD12A890
:10205800FEF7DAFF003818BF012023B030BD03F1C6
:102068007043A3F58073B3F5F85FCDD923B030BDC5
:10207800049B022B26D0324B059A9A4204D1089A27
:10208800531EB3F5E03F02D3002023B030BD2A49E8
:102098004FF0FF30FEF73EFEFEF780FE099B8342BD
:1020A800F2D112AC089B244A244800942021FEF760
:1020B800F3FC20220AA92046FEF714FE003818BFB8
:1020C8000120CAE70720FFF79DFE1E491A48089A13
:1020D800FEF70CFF0028D7D00DF10C0CBCE80F0060
:1020E80012AC0FC4BCE80F000FC4BCE80F000FC44B
:1020F8009CE80700012584E8070012A81395FEF75D
:1021080083FF0028C0D012AC0FCC0DF10C0CACE84A
:102118000F000FCCACE80F000FCCACE80F0094E830
:1021280007008CE80700A6E7415041550100000070
:1021380001CC03030100000000800008BC41000836
:1021480001CC030300400208254B70B51C685D688C
:1021580004F16043A3F58073B3F51F4F06D904F16A
:102168007043A3F58073B3F5F85F38D814F003060D
:1021780035D1EB0733D505F17843A3F50043B3F523
:10218800E03F2CD2142000F0E9FD164800F086FC50
:10219800154801F0ADF901F06DFB00F0B9FA4FF008
:1021A80090436FF0A0521A604FF0FF32C3F800243A
:1021B8004FF0E0220D4B1661566196615A6842F065
:1021C80000725A6072B6064A9A60BFF34F8FBFF327
:1021D8006F8F84F308882B46BDE87040184770BDA0
:1021E800008000089C0400203804002000ED00E076
:1021F80070B50368474C426847491BBA2360013BE6
:1022080010BAB3F5E03F88B0086065D2434B9A42F4
:1022180028D0434D434E322409E0304601F024FBD8
:10222800012000F0CFFA631E13F0FF046CD028469B
:1022380000F09CFC0028F0D040F2054040F2F57216
:1022480002210024ADF800000292069134488DF86E
:102258001C4001AB6A4602A9CDE9044400F034FCF5
:1022680008B070BDFFF7BEFA2F4A10210020FFF713
:1022780015FB0020FFF7D0FB246804F2FF7402204E
:10228800E40AFFF7BFFD21462848FEF789FD04460A
:1022980040B34FF40062FF212548264D264CFEF737
:1022A80053F926492648274A00230B60264903701C
:1022B80026482B6023600B7001244FF0FF33136016
:1022C800047000F079FA224B024603201A6008B025
:1022D800BDE87040FFF796BDFF2008B0BDE870402C
:1022E800FFF790BDFF20FFF78DFD174A174B01211F
:1022F80011701C70FFF776FA164A0421022008B004
:10230800BDE87040FFF7CABA054800F02FFC002866
:10231800A6D091E7040D0020000D00200303CC0196
:102328009C0400208C040020E841000800400208BA
:10233800D8040020FC0C0020D4040020D004002085
:10234800D80C002008000020C5040020CC04002080
:10235800C8040020DC41000838B50C4B1A789AB143
:102368000B4A127882B90B4D2A78032A0CD80346F7
:10237800094C5968006804EBC20303C301322A7090
:1023880000F01AFA054B186038BD00BFCC040020D5
:10239800C5040020D80C0020DC0C0020C804002054
:1023A8002DE9F84F2F4B1B78002B53D02E4B1B7861
:1023B800002B4FD108290E464CD82C4DDFF8BCB065
:1023C8002A68DBF800309A42824645D3002E3AD07C
:1023D800DFF8AC80DFF8AC900AF1FF37002402E0A8
:1023E8000134A6422FD02B68DBF80020934203F17A
:1023F800010027D2D8F8002017F801CF09F802C049
:10240800531CB3F5006FC8F800302860E8D1FFF717
:1024180077FC0028E4D1164D5146621C2868FEF767
:1024280079FC0346FF202B60FFF7ECFC0E4A0123E2
:102438001370FFF7D7F9BDE8F84F0E4A04210220C0
:10244800FFF72CBA26460A4C324620685146FEF75A
:1024580061FC2060BDE8F88F00F0AEF9064B18600B
:10246800B4E700BFCC040020C5040020FC0C002009
:1024780008000020DC410008C8040020040D0020EA
:10248800D4040020D80400202DE9F04F8C4C237888
:10249800BBB013B18B4D2B7813B13BB0BDE8F08FB7
:1024A800814600F089F9884B1860884B1B68002B1F
:1024B80040F0AB80864B874E1A6833689A4203D146
:1024C800854B1F78042F10D00120FFF7DFFB002277
:1024D800012322702B70FFF785F9804A042102201E
:1024E8003BB0BDE8F04FFFF7D9B97D4BD9F8008074
:1024F8001868D9F804300393B9F804B0B9F806A0FD
:10250800FEF74CFC81460620FFF77CFC98FA88F819
:10251800FFF768F9734A10210020FFF7BFF9C1459A
:102528007DD10DF11008CDF800806F4A6F483368EF
:102538002021FEF7B1FA6E4920224046FEF7D2FB71
:10254800002879D01CA8FEF733FD9BFA9BFB9AFA6A
:102558009AFA1FFA8BFB1FFA8AF310B11D9A012A07
:102568007AD0CDE90FB3634BCDF848901B680E9332
:102578003368119350A3D3E90023CDE90C23B8E8BD
:102588000F0013AF0FC798E80F0087E80F000CA8DB
:10259800FEF73AFD50B30720FFF734FCFFF722F9A6
:1025A800504A04210020FFF779F90020FFF734FA98
:1025B8004D4932685048FEF799FCB8B164200CAE1A
:1025C800FFF72AFA0FCE2BAF0FC70FCE0FC70FCECC
:1025D8000FC796E807004FF0010C87E807002BA803
:1025E800CDF8B0C0FEF710FD002847D1FF20FFF757
:1025F80009FC0022012322702B70FFF7F3F8374AF9
:1026080004210220FFF74AF947E7FFF779FB002882
:102618007FF450AFFF20FFF7F5FB01235AE70220B4
:10262800FFF734FB0022012322702B70FFF7DAF842
:102638002A4A0220394653E703900320FFF726FB76
:10264800039B237001222A70FFF7CCF8234A02204B
:102658003946FFF723F920E7039991FA81FCDDE970
:102668001F0141EA004161457FF67BAF05200392D7
:10267800FFF70CFB0023039A2370E4E7FFF7B2F897
:102688001E4A10210220FFF709F90420FFF7BAFBC0
:102698004FF4167000F096F8BFF34F8F1849194B96
:1026A800CA6802F4E0621343CB60BFF34F8F00BFE8
:1026B800FDE700BFAFF30080415041550200000024
:1026C800CC040020C5040020C8040020D404002045
:1026D800FC0C0020040D0020D80C0020DC41000870
:1026E80008000020E841000800400208BC4100083A
:1026F800DC0C0020000D002000800008F4410008D8
:1027080000ED00E00400FA05704700BF704700BF05
:1027180010B5074B4FF0FF3200241A611C61DA60D4
:10272800DC609A629C62FFF7F1FF204610BD00BF93
:102738000010024038B50E4A0E4B1278054618684C
:102748004FF47A73B3FBF2F3B0FBF3F000F018FB2D
:1027580008B90F2D01D9012038BD04460246294683
:102768004FF0FF3000F0BEFA034B20461D6038BD25
:102778000C0000200000002010000020074A08B5C7
:10278800136843F010031360032000F099FA0F2038
:10279800FFF7D0FFFFF7B8FF002008BD0020024078
:1027A800034A044B11681B780B441360704700BF41
:1027B800080D00200C000020014B1868704700BF6E
:1027C800080D002038B50446FFF7F6FF631C0546E0
:1027D80002D0044B1B781C44FFF7EEFF401BA042BD
:1027E800FAD338BD0C000020704700BF00287BD00A
:1027F80038B590F820300446002B72D02268136850
:1028080043F001031360FFF7D7FF054604E0FFF725
:10281800D3FF401B0A285BD823685A68D107F6D52E
:102828001A6822F002021A60FFF7C6FF054604E0A4
:10283800FFF7C2FF401B0A284AD823685A68920744
:10284800F6D4227E012A1A680CBF42F0800222F0D8
:1028580080021A60627E012A1A680CBF42F04002A8
:1028680022F040021A60A27E012A1A680CBF42F0C8
:10287800200222F020021A60E27E012A1A680CBFA8
:1028880022F0100242F010021A60227F012A1A6810
:102898000CBF42F0080222F008021A60627F012A87
:1028A8001A680CBF42F0040222F004021A60D4E94C
:1028B8000220216902430A436069616802430139C1
:1028C8000A4300200121DA61606284F8201038BDD3
:1028D800636A052243F40033636284F820200120F0
:1028E80038BDFFF781FF89E701207047704700BFB7
:1028F80070B490F820200468013A012A07D9426A86
:10290800034642F48022012070BC5A627047D4F812
:1029180000324A69CD6943F00103C4F8003202F07D
:102928001F0001238340D4F81C0220EA0300C4F8E6
:102938001C02D843002D3DD1D4F80C52CE68054076
:10294800C4F80C528D8804EBC20245EA0645C2F869
:1029580040528E680D8845EA0645C2F844528A6995
:1029680012BBD4F804220240C4F804220A69AAB9A6
:10297800D4F814221040C4F814020A6A012A04D1B7
:10298800D4F81C221343C4F81C32D4F8003223F0C4
:1029980001030020C4F8003270BC7047D4F8142238
:1029A8001A43C4F81422E8E7D4F804221A43C4F8F6
:1029B8000422DBE7012DD2D1D4F80C520E681D4356
:1029C800C4F80C528D8804EBC20245EA0645C2F8E9
:1029D80040528E688D8945EA0645C2F84452BEE7E2
:1029E80038B590F82030012B044605D0436A43F4EB
:1029F80000234362012038BD0268022380F820309A
:102A0800136823F001031360FFF7D6FE054604E0C0
:102A1800FFF7D2FE431B0A2B07D823685B6813F025
:102A28000103F5D16362184638BD636A052243F491
:102A38000033636284F82020DCE700BF38B590F8E3
:102A48002030022B044605D0436A43F480134362C6
:102A5800012038BD0268136843F001031360FFF7D3
:102A6800ABFE054604E0FFF7A7FE431B0A2B0CD874
:102A780023685A68D207F6D51A68012122F00202A3
:102A88001A6084F82010002038BD636A052243F4D8
:102A98000033636284F82020DAE700BF88B110B5FC
:102AA8000446FFF7CBFF2046FFF720FF21680A689E
:102AB800002342F400420A60636284F8203018461A
:102AC80010BD0120704700BF30B490F820C00568E1
:102AD8000CF1FF3CBCF1010FAC6839D814F0E05F91
:102AE80006D1436A43F400134362012030BC7047A7
:102AF800C4F301640120A04018608B686BB3C868F8
:102B08000343486843EAC00304F1180000012B504E
:102B180005EB041C0B69CCF884310B7D012B4FEAC3
:102B2800041105D1DCF8843143F48073CCF8843186
:102B38006B185168C3F88C111268C3F88821DCF847
:102B4800803143F00103002030BCCCF8803170475D
:102B5800436A43F480234362C7E7CB68086843EAC3
:102B6800405004F118031B01E850D1E790F82030D9
:102B7800013B012B01D900207047036898689A68C7
:102B88009B681201C0F3806048BF0130DB00F3D5B9
:102B98000130704790F820C00CF1FF3CBCF1010FE8
:102BA8006BD870B5046841B9E568AD0708D1436AC8
:102BB80043F400134362012070BD2569AE07F6D0C7
:102BC80004EB011C4FEA011EDCF8B05105F00405C6
:102BD8009560002D57D0DCF8B051ED085560DCF851
:102BE800B05105F00205D560DCF8B4512D0758BF87
:102BF800DCF8B451DCF8B46154BF05F00F050825C2
:102C080015617444DCF8B451C6F3072696612D0C9F
:102C1800D4F8B86155611E7002687244D2F8B821C0
:102C2800120A5A7002687244D2F8B821120C9A70CB
:102C380002687244D2F8B821120EDA70026872443F
:102C4800D2F8BC211A7102687244D2F8BC21120A67
:102C58005A7102687244D2F8BC21120C9A71026847
:102C68007244D2F8BC21120EDA71026881B9D368B5
:102C780043F02003D360002070BD436A43F48023EF
:102C8800436201207047DCF8B0516D0D1560A6E76E
:102C9800136943F020031361EDE700BF90F820307B
:102CA800013B012B01D900207047036819B9D86886
:102CB80000F003007047186900F00300704700BF78
:102CC8000749CA6803024FF6FF0003F4E0630240B5
:102CD800134343F0BF6343F40033CB60704700BF36
:102CE80000ED00E01B4BDB68C3F3022300B5C3F122
:102CF800070EBEF1040F03F1040C28BF4FF0040EB9
:102D0800BCF1060F1CD9A3F1030C4FF0FF3303FAF3
:102D18000CF322EA03024FF0FF3303FA0EF321EA21
:102D2800030303FA0CF313431B010028DBB20ADB8D
:102D380000F1604000F5614080F800335DF804FB65
:102D480000229446E7E7044A00F00F000244137695
:102D58005DF804FB00ED00E0FCEC00E000280CDB73
:102D68004309064900F01F0020330122824041F840
:102D78002320BFF34F8FBFF36F8F704700E100E050
:102D88000138B0F1807F01D30120704710B44FF0B3
:102D9800E023074C58614FF0F00C84F823C0002260
:102DA800072110469A615DF8044B1961704700BF0E
:102DB80000ED00E00C4BDB6813F0100305D00B4965
:102DC800CA6942F002021023CA61074AD268520750
:102DD80006D50649CA6942F0010243F00403CA61F4
:102DE800014AD360704700BF00200240100D002048
:102DF800064B186910F0800006D00549054A59604D
:102E08005A601869C0F3C010704700BF0020024024
:102E180023016745AB89EFCD034A136943F080036B
:102E280000201361704700BF0020024070B50446BF
:102E3800FFF7C2FC124E0546F368D80705D5631C98
:102E480012D10F4AD368DC07FCD40D4BDA6891061F
:102E580044BF2022DA600A4BDA68D2060CD4D8685C
:102E680010F0040008D170BD24B1FFF7A5FC401B89
:102E7800A042E1D9032070BDFFF79CFF012070BD7F
:102E8800002002402DE9F84F274E1C46337E012BC7
:102E980047D0054601234CF250308A461746337610
:102EA800FFF7C4FFC8BB012D03D0022D14BF0425B2
:102EB80002254FF00009DFF874B00AEB4505C84653
:102EC80001E0AA4529D0C9F12003C6F81C80A9F160
:102ED800200227FA09FC04FA03F34CEA030C24FA4B
:102EE80002F2DBF810304CEA020C43F001031FFA3F
:102EF8008CFCCBF810304CF25030AAF800C0FFF729
:102F080095FFDBF8103023F001030AF1020A09F1FA
:102F18001009CBF810300028D3D000233376BDE851
:102F2800F88F0220BDE8F88F100D00200020024025
:102F38002DE9F8432D4E337E012B54D001233376EF
:102F48000368012B814631D04CF250308846FFF798
:102F58006DFF074678BB4FF0FF33C8F80030D9E95A
:102F6800015305EBC3239D4225D2214C07E0D9E943
:102F7800013205F5006503EBC223AB421CD9F761AA
:102F8800236943F0020323616561236943F0400329
:102F980023614CF25030FFF749FF236923F0020305
:102FA80023610028E3D0C8F8005005E04CF2503007
:102FB800FFF73CFF20B1012000233376BDE8F883FA
:102FC8000B4CF061236943F004032361236943F048
:102FD800400323614CF25030FFF728FF236923F0A8
:102FE80004032361E8E70220BDE8F883100D002000
:102FF800002002402DE9F04F0C6885B0002C00F04D
:10300800828000234FF0010B0BFA03FE1EEA040A2C
:1030180075D04D6805F0030C5A0003260CF1FF38F3
:1030280006FA02F7B8F1010F6FEA07076ED9BCF18B
:10303800030F40F0BF800CFA02F2D0F800C00CEA8F
:1030480007073A4315F4403F026058D05F4FBA690A
:1030580042F00102BA61BA6902F001020392039ACE
:1030680023F0030202F1804202F5803203F0030CE0
:1030780097684FEA8C0C0F2606FA0CFEB0F1904FB9
:1030880027EA0E0717D0524EB04200F08580514E05
:10309800B04200F08880DFF844E1704575D0DFF871
:1030A80040E170450CBF4FF0040E4FF0050E0EFACC
:1030B8000CFC47EA0C079760474A9268EE026FEAF1
:1030C8000A07454E54BF3A404AEA0202B260F26823
:1030D800AE02414E54BF3A404AEA0202F2607268B8
:1030E800AE033D4E54BF3A404AEA0202726032686B
:1030F800ED03394D54BF3A404AEA02022A600133CF
:1031080034FA03F280D105B0BDE8F08FD0F808900A
:10311800CE6809EA070906FA02F848EA0908C0F879
:103128000880D0F804808E6828EA0E08C5F3001ECF
:103138000EFA03FE4EEA080EC0F804E0D0F80C8040
:1031480006FA02FE08EA07084EEA080EBCF1020F6A
:10315800C0F80CE07FF46FAF0E694FEAD30803F0B4
:10316800070E00EB88084FEA8E0E06FA0EF6D8F81E
:10317800209001960F2606FA0EFE019E29EA0E09F6
:1031880046EA090EC8F820E055E74FF0030E0EFA9C
:103198000CFC47EA0C078EE74FF0010E0EFA0CFC08
:1031A80047EA0C0787E74FF0020E0EFA0CFC47EAD5
:1031B8000C0780E7D0F80C808E6808EA070806FA42
:1031C80002FE4EEA080EC0F80CE034E70010024098
:1031D800000400480008004800040140000C0048B2
:1031E80000100048F8B503689C6914F0100C0546F7
:1031F80041D0164610220F46DA619C6914F020046B
:1032080079D1781C4DD19A699106FCD52022DA61D2
:103218009A6944F0040CD4054FF001002FD45705E7
:103228003AD54FF48061D9614CF0080C960504D565
:103238004FF400724CF0020CDA619A69910744BFAE
:1032480000229A629A69D20703D49A6942F001026D
:103258009A615A6829490A405A606B6C002243EA0D
:103268000C0320216B6485F8402085F8411085F80F
:1032780042200120F8BD9A69D4056046CFD54FF4A5
:103288008071D96151054CF0010CCFD54FF48061A4
:10329800D9614CF0080CC9E79405C9D40028CCD1F1
:1032A800F8BDFFF789FA801BB8422B6804D81FB114
:1032B8009A699206A5D5A9E7586895F842209969B0
:1032C8000C04D2B20BD5410409D4202A07D05A687D
:1032D80042F480425A60FFF76FFA2B6806469A69F3
:1032E80092068AD4FFF768FA831B192B2B68F6D944
:1032F8009A6920248CE7002488E700BF00E800FED4
:1033080070B5036804460D46164605E0FFF76AFFE8
:1033180000BB6A1C08D123689B699B073246294673
:103328002046F3D5002070BDFFF746FA801BA8425F
:10333800236801D8002DEFD19A6912F00202EBD16F
:10334800636C84F8402020210B43636484F84110A7
:1033580084F84220012070BD2DE9F843DDF8209063
:103368001E46054603688846174605E0FFF73AFFFC
:1033780068BB731C0ED12B689C6938EA04040CBF27
:1033880001230023BB424A4631462846EED000209E
:10339800BDE8F883FFF710FAA0EB0900B0422B68EC
:1033A80001D8002EE8D19A6938EA02020CBF01223E
:1033B8000022BA42E0D16B6C002243F020032021A6
:1033C8006B6485F8402085F8411085F8422001207B
:1033D800DEE700BF03689B699B0629D470B50546E4
:1033E8000C4616460DE0FFF7E7F9801BA042296856
:1033F80000D81CB98B6913F020030DD08B699B068C
:1034080008D4324621462846FFF7ECFE0028EAD0C9
:10341800012070BD002070BD6A6C85F84030202105
:103428000A436A64012085F8411085F84230F0E7C4
:1034380000207047704700BF002854D010B590F89E
:103448004130044603F0FF02002B47D023682422B2
:1034580084F841201968626821F0010122F0706245
:1034680019601A619A68E16822F4004201299A6099
:10347800A26809D042F4044202299A6007D15A6826
:1034880042F400625A6006E042F400429A605A68C8
:1034980022F400625A605968226941F0007141F4CF
:1034A800004159606169D8680A43A16920F4004065
:1034B80042EA0122E169D860206ADA6001431960B2
:1034C800196841F00101196000222023626484F820
:1034D8004130226384F84220104610BD80F8402015
:1034E800FFF7A8FFB2E70120704700BF704700BF91
:1034F800B0B10268242310B580F84130136823F076
:10350800010304461360FFF7F1FF0023636484F8A6
:10351800403084F84130236384F84230184610BDA7
:10352800012070472DE9F047994690F8413082B064
:10353800202B0A9E40F0908090F84030012B0446E2
:1035480000F08A804FF0010A80F840A00F469046AC
:10355800FFF732F952460546009019234FF400410F
:103568002046FFF7F9FE002872D1212384F8413064
:10357800102384F842306064A4F82A90638D22688E
:10358800C4F824809BB2FF2B6063C7F3090767D890
:10359800638D9BB22385002B40F08D8053684A4988
:1035A8000B403B4343F0007343F400535360638D77
:1035B8009BB22A4631462046002B38D0FFF7A0FEA2
:1035C800002845D1616A236811F8012B9A62638D3E
:1035D800228D6162013B9BB26385638D013A92B291
:1035E8009BB22285002BE2D0002AE0D180210095F1
:1035F80033462046FFF7B0FEFF2148BB638DDFF856
:10360800D0C022689BB28B42604647D95368218557
:1036180003EA0C033B4343F0FF7343F480335360E6
:10362800638D9BB22A4631462046002BC6D1FFF750
:10363800D1FE68B92368254D2021D9615A682A40EE
:103648005A6084F8411084F8400084F8420000E091
:10365800012002B0BDE8F087022002B0BDE8F08783
:10366800FF232385FE214FF47F034FF0807018F865
:1036780001CBC2F828C02185618DDFF84CC0C4F8A1
:103688002480013989B2618551683B4301EA0C0104
:103698000B43034343F40053536088E7638D516839
:1036A8009BB22385DBB247EA034301400B4343F057
:1036B800007353607BE7013B99B24B1CDBB21B04E0
:1036C8004FF00070D3E700BF009800FC00E800FE50
:1036D800009C00FC2DE9F04784B0044600200390CC
:1036E80094F84100202867D11746226899469369C3
:1036F80013F4004360D194F8400001285CD0C1F372
:103708000906012184F8401046F00078242184F845
:10371800411048F420586364E368012B06BF46F063
:10372800007343F4005343465360FFF745F80546DA
:1037380020688369826903F0200302F010021343B2
:103748001CD1B9F1FF3F11D0FFF736F8401B4845AF
:1037580045D8B9F1000F08D141E0B9F1FF3F05D0D4
:10376800FFF72AF8401B484539D8206881698369E2
:1037780001F0200103F010031943EED0836913F020
:10378800100A1DD100954B46524620212046FFF7CE
:10379800E3FD002831D0636C042B04D12368202278
:1037A800DA61C4F844A0039B01330393039B039B92
:1037B800BB4214D22268AFE7022004B0BDE8F0870C
:1037C8001023C361002200954B4620212046FFF7B5
:1037D800C3FD0028E7D123682022DA61E3E720232C
:1037E80084F84130636C43F02003636401200023B4
:1037F80084F8403004B0BDE8F08722682023D36104
:1038080084F8413084F84000D7E700BF28B338B5C2
:10381800D0E90031826804464CF6CC40186045F285
:103828005550186059609A60FEF7C6FF2368054630
:10383800DA6851070AD0FEF7BFFF401B2728236824
:10384800F6D9DA685207F3D0032038BD1969E2685F
:10385800914204D01A61002038BD012070474AF611
:10386800AA221A60F7E700BF03684AF6AA220020D6
:103878001A60704770B5334C236843F00103236026
:10388800FEF79AFF054604E0FEF796FF401B022864
:1038980028D823689B07F7D523682B4A294D23F09E
:1038A800F80343F08003236063681A406260FEF700
:1038B80083FF41F28836044604E0FEF77DFF001BD3
:1038C800B0420FD86B6813F00C0FF6D11F49204B8C
:1038D800204A08681A60FEF72DFF044628B1012423
:1038E800204670BD0324204670BD2B6823F08473E6
:1038F80023F480332B602B6823F480232B60FEF79E
:103908005BFF104D064604E0FEF756FF831B022BB3
:10391800E8D82B6813F00073F6D16B60EB622B6369
:10392800A96841F41F01A9604FF08072AB6092FA58
:10393800A2F2094BB2FA82F213449B0001221A60E8
:10394800D1E700BF001002400CC0FFF810000020B3
:103958000000002000127A0020819010002800F05A
:10396800BB822DE9F0430368D90783B004464BD5E1
:10397800AC494A6802F00C02042A00F05D814A68EA
:1039880002F00C02082A00F05381D4E90132B3F5A1
:10399800803F15D0002B00F08981B3F5A02F00F0EF
:1039A8003682A04B196821F480311960196821F416
:1039B80080211960D96A21F00F010A43DA6209E00F
:1039C80098490B6843F480330B60CB6A23F00F03EC
:1039D8001343CB62FEF7F0FE924F05464FF40038D2
:1039E800012605E0FEF7E8FE401B642800F25A8134
:1039F80098FAA8F33A6898FAA8F3B3FA83F306FAA0
:103A080003F31342EED023689F073FD5854A5168D8
:103A180011F00C0F00F0CB80516801F00C0108295F
:103A280000F0C1802269002A00F09481012595FAEE
:103A3800A5F3B3FA83F303F1845303F584139B00CE
:103A4800784F1D60FEF7B8FE4FF00208064605E005
:103A5800FEF7B2FE801B022800F2248198FAA8F330
:103A68003A6898FAA8F3B3FA83F305FA03F3134212
:103A7800EED03968F82292FAA2F26369B2FA82F2B9
:103A8800934021F0F80213433B6023681D0729D4B3
:103A9800580753D5634BDA69D10000F1C180DA6960
:103AA80042F08052DA61DB6903F080530193019B95
:103AB80001255D4E3368DA0540F1E480E368012BA7
:103AC80000F06C81002B00F01781052B554B1A6A0A
:103AD80000F0A98122F001021A621A6A22F0040297
:103AE8001A6260E1A269002A74D0012696FAA6F249
:103AF8004E4BDFF83081B2FA82F213449B00022564
:103B08001E60FEF759FE074605E0FEF755FEC01B8E
:103B1800022800F2C78095FAA5F395FAA5F395FA5D
:103B2800A5F3D8F8242095FAA5F3B3FA83F306FA97
:103B380003F31342E9D023685807ABD4E36973B39E
:103B4800384D6A6802F00C02082A00F04F81022BF7
:103B58004FF0807300F06F8193FAA3F3B3FA83F305
:103B680003F1845303F584139B0000221A60FEF7C7
:103B780023FE4FF000770446012605E0FEF71CFE01
:103B8800001B022800F28E8097FAA7F32A6897FA9A
:103B9800A7F3B3FA83F306FA03F31342EED1002036
:103BA80003B0BDE8F0835268D6033FF53BAF02226D
:103BB80092FAA2F11B49086892FAA2F20121B2FA1C
:103BC80082F201FA02F202424BD022698A4248D0BC
:103BD8000120E5E7012797FAA7F1144BDFF84480A5
:103BE800B1FA81F10B449B0002251A60FEF7E4FD4F
:103BF800064604E0FEF7E0FD801B022852D895FA3D
:103C0800A5F395FAA5F395FAA5F3D8F8242095FA23
:103C1800A5F3B3FA83F307FA03F31342EAD18AE769
:103C2800002546E7001002400070004020819010F7
:103C38004A68D2037FF5A9AE4FF4003292FAA2F196
:103C4800A649086892FAA2F20121B2FA82F201FAB0
:103C580002F202423FF4D8AE6268002A7FF4D4AE82
:103C6800B6E79E4DF821286891FAA1F16269B1FA88
:103C780081F120F0F8008A4002432A601D077FF591
:103C880007AF2FE7336843F480733360FEF794FD82
:103C980007463368DB053FF511AFFEF78DFDC01B06
:103CA8006428F6D9032003B0BDE8F0838B4D2B6858
:103CB80023F480332B602B6823F480232B60EB6A7A
:103CC80023F00F031343EB62FEF776FD4FF4003841
:103CD8000646012704E0FEF76FFD801B6428E1D843
:103CE80098FAA8F32A6898FAA8F3B3FA83F307FABC
:103CF80003F31342EFD186E6784E336A23F00103CB
:103D08003362336A23F004033362FEF755FD4FF044
:103D1800020907464FF0010806E0FEF74DFD41F2A3
:103D28008833C01B9842BDD899FAA9F399FAA9F328
:103D3800326A99FAA9F3B3FA83F308FA03F3134240
:103D4800EBD1002D3FF4FAAE644AD36923F08053D7
:103D5800D361F3E6012696FAA6F3B3FA83F303F1E7
:103D6800845303F584139B005C4F1A60FEF724FD0F
:103D78004FF00208054604E0FEF71EFD401B02282E
:103D880090D898FAA8F33A6898FAA8F3B3FA83F3A4
:103D980006FA03F31342EFD1236877E64F4A136A12
:103DA80043F001031362FEF707FDDFF83081064692
:103DB8004FF00209012707E0FEF7FEFC41F28833C5
:103DC800801B98423FF66EAF99FAA9F399FAA9F3C6
:103DD800D8F8202099FAA9F3B3FA83F307FA03F382
:103DE8001342E9D0002D3FF4A9AEADE7012B3FF413
:103DF800EFAE6B68226A03F4803191427FF4E8AE3B
:103E0800606A03F47013181A18BF0120C8E603F19A
:103E18008043A3F53C33196841F48021196019687F
:103E280041F48031C5E542F004021A621A6A42F090
:103E380001021A62B7E793FAA3F3B3FA83F303F123
:103E4800845303F584139B0000221A60FEF7B4FC28
:103E58004FF000780646012705E0FEF7ADFC801B11
:103E680002283FF61FAF98FAA8F32A6898FAA8F331
:103E7800B3FA83F307FA03F31342EED1D4E9081334
:103E88006A680B4322F4741213436B604FF080731B
:103E980093FAA3F3B3FA83F303F1845303F584137A
:103EA8009B000E4E1F60FEF787FC4FF0007704461C
:103EB800012505E0FEF780FC001B02283FF6F2AE64
:103EC80097FAA7F3326897FAA7F3B3FA83F305FAD8
:103ED80003F31342EED062E601207047001002405F
:103EE8000E4A536803F00C01082901D00C487047AA
:103EF800C3F383410B48D26A405CDB0309D50A4906
:103F0800074B02F00F028A5CB3FBF2F303FB00F0ED
:103F18007047064B03FB00F0704700BF00100240DB
:103F280000127A00D8420008C842000800093D0083
:103F3800002800F08D80504A136803F007038B4275
:103F48002DE9F0410D4604460CD2136823F007030F
:103F58000B431360136803F007038B4202D0012060
:103F6800BDE8F0812368980706D54449A0684A68E7
:103F780022F0F00202434A60D9072CD56268012A70
:103F880068D0022A0CBF4FF00073022393FAA3F102
:103F98003A49086893FAA3F30121B3FA83F301FAC3
:103FA80003F30342DBD0354E736823F00303134356
:103FB8007360FEF701FC41F28838074604E0FEF71B
:103FC800FBFBC01B404554D87368626803F00C03C0
:103FD800B3EB820FF3D1284A136803F00703AB420F
:103FE80009D9136823F007032B431360136803F000
:103FF8000703AB42B3D123685A0706D51F49E068C7
:104008004A6822F4E06202434A601B0707D51B4A4C
:104018002169536823F4605343EAC1035360FFF7EF
:104028005FFF164BF0225B6892FAA2F2B2FA82F2B4
:1040380003F0F003124C1349D340134AE35C20FA0F
:1040480003F308681360FEF775FB0020BDE8F081F4
:10405800012070474FF4003393FAA3F10749096828
:1040680093FAA3F3B3FA83F302FA03F30B429AD158
:1040780075E7032074E700BF0020024000100240EB
:10408800AC4000081000002000000020F8B500BF78
:10409800F8BC08BC9E467047F8B500BFF8BC08BC21
:0440A8009E46704779
:1040AC0000000000000000000102030406070809DC
:1040BC00982F8A4291443771CFFBC0B5A5DBB5E987
:1040CC005BC25639F111F159A4823F92D55E1CABFB
:1040DC0098AA07D8015B8312BE853124C37D0C5589
:1040EC00745DBE72FEB1DE80A706DC9B74F19BC1D1
:1040FC00C1699BE48647BEEFC69DC10FCCA10C24C1
:10410C006F2CE92DAA84744ADCA9B05CDA88F976A4
:10411C0052513E986DC631A8C82703B0C77F59BF0E
:10412C00F30BE0C64791A7D55163CA06672929143A
:10413C00850AB72738211B2EFC6D2C4D130D3853D7
:10414C0054730A65BB0A6A762EC9C281852C729299
:10415C00A1E8BFA24B661AA8708B4BC2A3516CC7C7
:10416C0019E892D1240699D685350EF470A06A1000
:10417C0016C1A419086C371E4C774827B5BCB0344F
:10418C00B30C1C394AAAD84E4FCA9C5BF36F2E68ED
:10419C00EE828F746F63A5781478C8840802C78C7C
:1041AC00FAFFBE90EB6C50A4F7A3F9BEF27871C67F
:1041BC00555254432D48594452412D554D432D329F
:1041CC003032362D4348414E47452D4D452D21214A
:1041DC004552524F5200000001010100555044411C
:1041EC0054494E4700000000464C415348204F4B69
:1041FC0000000000010000000000000000020003AD
:10420C000405060708090A0B0C000000000000005A
:10421C000D00000E0F1011121300141500161718B4
:10422C0000191A1B1C0000000000000000231308DA
:10423C006462006060000000427F400000447E40E9
:10424C0000006251494600224949361814127F1069
:10425C000027454539003E494932006111090700E4
:10426C0036494936002649493E7E1111117E7F415F
:10427C0041221C7F494949417F090909013E4141BD
:10428C00493A7F0808087F00417F41007F081422CB
:10429C00417F404040407F0408107F3E4141413EF9
:1042AC007F09090F007F0919294600264949320167
:1042BC00017F01013F4040403F0000000102030428
:1042CC0005060708090A0B0C0D0E0F100203040556
:0C42DC00060708090A0B0C0D0E0F10104D
:0842E80058BFFF7F0100000038
:0442F000F1010008D0
:0442F400C9010008F4
:1042F80000127A0018FCFFFFFFFFFFFF010000001B
:0443080010000000A1
:040000050800078563
:00000001FF
