:020000040800F2
:1000000000A0002085070008D5070008D5070008D4
:10001000D5070008D5070008D50700080000000034
:10002000000000000000000000000000D5070008EC
:10003000D507000800000000D5070008D507000814
:10004000D5070008D5070008D5070008D507000820
:10005000D5070008D5070008D5070008D507000810
:10006000D5070008D5070008D5070008D507000800
:10007000D5070008D5070008D5070008D5070008F0
:10008000D5070008D5070008D5070008D5070008E0
:10009000D5070008D5070008D5070008D5070008D0
:1000A000D5070008D5070008D5070008D5070008C0
:1000B000D5070008D5070008D507000879170008FC
:1000C00085170008D5070008D5070008D5070008E0
:1000D000D5070008D5070008D5070008D507000890
:1000E000D5070008D5070008D5070008D507000880
:1000F000D5070008D5070008D5070008D507000870
:10010000000000000000000000000000D50700080B
:10011000D5070008D5070008D5070008D50700084F
:10012000D5070008D5070008D5070008D50700083F
:10013000D5070008D50700080000000000000000F7
:10014000D5070008D5070008D50700080000000003
:10015000000000000000000000000000000000009F
:100160000000000000000000D5070008D5070008C7
:10017000D50700080000000000000000000000009B
:0801800000000000D507000893
:100188000348044B834202D0034B03B1184770471E
:100198001400002014000020000000000548064B51
:1001A8001B1AD90F01EBA301491002D0034B03B16D
:1001B80018477047140000201400002000000000B9
:1001C80010B5064C237843B9FFF7DAFF044B13B197
:1001D8000448AFF300800123237010BD18000020ED
:1001E800000000003832000808B5044B1BB1044970
:1001F8000448AFF30080BDE80840CFE700000000E6
:100208001C0000203832000853B94AB9002908BF39
:1002180000281CBF4FF0FF314FF0FF3000F06AB9E3
:10022800ADF1080C6DE904CE00F006F8DDF804E045
:10023800DDE9022304B070472DE9F047089D0E461A
:1002480004460F46002B4AD194468C45B2FA82F2F6
:1002580060D942B1C2F12003974020FA03F30CFAA7
:1002680002FC1F4394404FEA1C4E1FFA8CF6B7FB62
:10027800FEF1230C0EFB117743EA074301FB06F05E
:1002880098420AD91CEB030301F1FF3780F015816E
:10029800984240F21281023963441B1AA4B2B3FB9C
:1002A800FEF00EFB103344EA034400FB06F6A642B8
:1002B8000AD91CEB040400F1FF3380F00081A64248
:1002C80040F2FD806444023840EA0140A41B00214A
:1002D8001DB1D4400023C5E90043BDE8F0878B4237
:1002E80005D90DB1C5E9000100210846F5E7B3FAC3
:1002F80083F1002946D1B34202D3824200F2F5804D
:10030800841A66EB030201201746002DE5D0C5E9E3
:100318000047E2E7002A40F09380A1EB0C034FEA84
:100328001C471FFA8CFE0121B3FBF7F607FB1630BA
:10033800230C43EA00430EFB06F0984208D91CEB55
:10034800030306F1FF3802D2984200F2D0804646F5
:100358001B1AA4B2B3FBF7F007FB103344EA0344BB
:100368000EFB00FEA64508D91CEB040400F1FF3380
:1003780002D2A64500F2B6801846A4EB0E0440EA65
:100388000640A5E7C1F120078B4022FA07FC4CEA9A
:10039800030C06FA01FE20FA07F426FA07F344EAEA
:1003A8000E0400FA01F84FEA1C404FEA1449B3FB67
:1003B800F0FE1FFA8CF600FB1E3349EA03430EFBDE
:1003C80006F9994502FA01F20BD91CEB03030EF169
:1003D800FF3A80F08580994540F28280AEF1020EA6
:1003E8006344A3EB0909A4B2B9FBF0F300FB13992A
:1003F80044EA094403FB06F6A64208D91CEB0404A8
:1004080003F1FF3068D2A64266D9023B644443EA4E
:100418000E40A41BA0FB02E6B4427346B14652D379
:100428004FD05DB1B8EB030264EB090404FA07F797
:1004380022FA01F31F43CC40C5E9007400214CE7C0
:10044800C2F1200120FA01F30CFA02FC26FA01F1AC
:10045800964033434FEA1C471FFA8CFEB1FBF7F076
:1004680007FB1016190C41EA064100FB0EF68E42F6
:1004780004FA02F408D91CEB010100F1FF382DD26F
:100488008E422BD902386144891B9BB2B1FBF7F627
:1004980007FB161143EA014306FB0EF1994208D9FE
:1004A8001CEB030306F1FF3814D2994212D9023E1D
:1004B80063445B1A46EA004136E73946EDE61846DA
:1004C80002E7F045ADD2BEEB020366EB0C0601383D
:1004D800B146A6E74646ECE7034698E74046D3E729
:1004E800D6467EE76444023847E708460DE7023EF1
:1004F80063442DE7704700BF70B50F4B0F4DAB42FB
:10050800A3EB050607D0B610002455F8043B0134C8
:100518009847A642F9D802F08BFE094D094B5E1B9D
:10052800AB424FEAA60606D0002455F8043B013436
:100538009847A642F9D870BDA8330008A833000828
:10054800A8330008AC330008830730B547D0541EE1
:10055800002A3ED0CAB2034601E0013C39D303F871
:10056800012B9D07F9D1032C2CD9CDB205EB05251C
:100578000F2C05EB054535D9A4F1100222F00F0C1C
:1005880003F1100EE6444FEA121C1A46C2E9005560
:10059800C2E9025510327245F8D10CF1010214F08B
:1005A8000C0F03EB021204F00F0C13D0ACF1040390
:1005B80023F003030433134442F8045B9342FBD152
:1005C8000CF003042CB1C9B21C4403F8011BA3426C
:1005D800FBD130BD64461346002CF4D1F9E703463D
:1005E8001446C0E71A46A446E0E700BF844641EA3D
:1005F800000313F003036DD1403A41D351F8043B93
:1006080040F8043B51F8043B40F8043B51F8043BE4
:1006180040F8043B51F8043B40F8043B51F8043BD4
:1006280040F8043B51F8043B40F8043B51F8043BC4
:1006380040F8043B51F8043B40F8043B51F8043BB4
:1006480040F8043B51F8043B40F8043B51F8043BA4
:1006580040F8043B51F8043B40F8043B51F8043B94
:1006680040F8043B51F8043B40F8043B51F8043B84
:1006780040F8043B51F8043B40F8043B403ABDD2F3
:10068800303211D351F8043B40F8043B51F8043B95
:1006980040F8043B51F8043B40F8043B51F8043B54
:1006A80040F8043B103AEDD20C3205D351F8043B24
:1006B80040F8043B043AF9D2043208D0D2071CBFF0
:1006C80011F8013B00F8013B01D30B880380604619
:1006D800704700BF082A13D38B078DD010F003038F
:1006E8008AD0C3F10403D21ADB071CBF11F8013BFF
:1006F80000F8013B80D331F8023B20F8023B7BE74E
:10070800043AD9D3013A11F8013B00F8013BF9D278
:100718000B7803704B7843708B7883706046704712
:10072800032A30B415D941EA0004A40784460B46CD
:1007380004D0541E0FE0043A032A08D9194660462B
:1007480053F8044B5CF8045BA542F4D0F1E760462B
:100758001946541E7AB1431E0139021901E09A4222
:1007680009D013F8010F11F801CF6045F7D0A0EBBD
:100778000C0030BC7047002030BC7047DFF834D024
:1007880000F026F80C480D490D4A002302E0D45821
:10079800C4500433C4188C42F9D30A4A0A4C0023C3
:1007A80001E013600432A242FBD3FFF7A5FE01F07B
:1007B8004DF8FEE700A000200000002014000020F3
:1007C800B033000818000020380D0020FEE70000B4
:1007D800034AD2F8883043F47003C2F8883070476F
:1007E80000ED00E02DE9F04FCDB00DF12C09834666
:1007F8001BAF0CA84A464B780E78CD788C781B0432
:1008080043EA06632B4343EA042342F8043FBA420F
:1008180001F10401EFD10CAE1A9B1B9C56F8C01BCA
:100828001F46D0F824C00D4650F8041F4FEAF7427F
:1008380082EA77424FEAB14382EA972283EAF113C8
:10084800624483EAD1031A442746B04205EB020406
:10085800C463E6D1DBE90012DBF80830DBF81C5092
:10086800DBF80C400395DBF81000DBF81470DBF8BC
:10087800186005940194CDE90912314DDDF80CA0FA
:1008880004930690079708969E4614468C46CDF822
:100898002CB005E03E46A6460746644640469C46C0
:1008A80055F8042F59F8041F4FEAF02383EAB013D0
:1008B8000A4483EA7063134426EA000800EA070240
:1008C80088EA02084FEA7C3282EABC0282EABC5219
:1008D80002924344019ACDF804E053441A4484EA4E
:1008E8000E0101EA0C01904604EA0E0B029A81EA15
:1008F8000B010A441344134A9542B246CAD1DDE9B2
:1009080009121944049B059DDDF82CB023441C46AC
:10091800069B434462449C46079B03441846089B35
:100928003B441F46039B75443344CBE90012CBE993
:100938000245CBE904C0CBE906734DB0BDE8F08FA2
:100948005C3200085C330008B2B30A442DE9F84F62
:100958001A4F04464D1E02F1FF3AC1F1010B00F196
:1009680028094FF0000801E0554514D0A36EE2189D
:1009780001330BEB0506402B15F8011F82F82810F0
:10098800A3660AD0C6F30B06002EEDD1384602F056
:100998003DF85545EAD1BDE8F88F49462046FFF7AE
:1009A80021FFD4E9083213F5007342F10002C4E9CB
:1009B8000832C4F86880E5E7704700BF000D0020E2
:1009C800F8B5866E82190D46372E4FF08001044621
:1009D80006F1010382F8281045D8382B07D006F114
:1009E8002900C6F1370220440021FFF7ADFD04F1CC
:1009F8002807D4E908230820E6FB0023226212BA5C
:100A08001E0E6266002266F307021E0C66F30F22B2
:100A18001E0A66F3174263F31F6239466362204673
:100A28002266FFF7DFFE1823691E2268DA4001F804
:100A3800012F6268DA400A71A268DA400A72E26835
:100A4800DA400A732269DA400A746269DA400A7580
:100A5800A269DA400A76E269DA40083B13F1080F26
:100A68000A77E2D1F8BD3F2B07D806F12900C6F175
:100A78003F0220440021FFF767FD04F128073946AB
:100A88002046FFF7AFFE382200213846FFF75CFD0D
:100A9800AFE700BF000000002DE9F04FD7B02AAD46
:100AA8000E46074601920021402228469946FFF744
:100AB8004BFD402E3246394640F2FA8081A7D7E9ED
:100AC8000067CDE93A6781A7D7E90067CDE93C67B8
:100AD80080A7D7E90067CDE93E6780A7D7E9006717
:100AE8000DF1E808CDE940670023404600260027BD
:100AF800CDE942675493FFF727FF29464046FFF7A1
:100B08005FFF1AAE29A909AA334651F8040F80F0ED
:100B1800363780F05C3042F8047F43F8040BAB4270
:100B2800F3D168A1D1E90001CDE93A0167A1D1E982
:100B38000001CDE93C0167A1D1E90001CDE93E0101
:100B480066A1D1E900010AAFCDE9400100230020E8
:100B58000021CDE94201DFF868A13C469B4602E04E
:100B6800A64214D0549B14F8010B03F5AC720DEB9C
:100B780002010133402B01F8480C549369D0E31B60
:100B8800012BEDD1504601F041FFA642EAD14A4679
:100B98000199DFF82CA140460DF10809FFF7D4FEB2
:100BA80049464046FFF70CFF46A1D1E90001CDE9CF
:100BB8003A0146A1D1E90001CDE93C0145A1D1E9BD
:100BC8000001CDE93E0145A1D1E90001CDE940018F
:100BD80000200021CDE942010024B34601E05D4533
:100BE80014D004F5AC730DEB030201341BF8011BA0
:100BF80002F8481C402C54943AD0ABEB0602012A68
:100C0800EDD1504601F002FF5D45EAD12C4E4D462C
:100C18004FF0000A02E0AF4214D0549C15F8012BA3
:100C280004F5AC736B440134402C03F8482C5494FD
:100C38002FD0A5EB0903012BEDD1304601F0E6FEDC
:100C4800AF42EAD160994046FFF7BAFE57B0BDE817
:100C5800F08F44A94046FFF7C5FDDDE9423113F5A1
:100C6800007341F10001CDE94231CDF850B186E77A
:100C780044A94046FFF7B6FDDDE9422112F50072AE
:100C88004FF0000341F10001CDE9422154931C4685
:100C9800B3E744A94046FFF7A5FDDDE9423213F565
:100CA800007342F10002CDE94232CDF850A1C0E70D
:100CB8002846FFF79BFC0DF1E80822E7AFF3008018
:100CC800000D002067E6096A85AE67BB72F36E3CCB
:100CD8003AF54FA57F520E518C68059BABD9831FFF
:100CE80019CDE05BA2B100B500F1FF3C01396244C7
:100CF80000201CF8013F11F801EF944583EA0E0328
:100D080040EA0300F5D1B0FA80F040095DF804FB31
:100D1800012070472DE9F0411C4D2B7806460F46FF
:100D28009046A3B1B8F1000F2DD007EB0801184C7D
:100D38007A1E0139304612F8013F4340DBB28A423D
:100D480054F8233083EA1020F5D1BDE8F08111482A
:100D580011499E4600F580647246082342F3000C50
:100D6800013B0CEA010C13F0FF038CEA5202F5D1A7
:100D780040F8042F84420EF1010EEDD101232B70AF
:100D8800B8F1000FD1D13046BDE8F0813400002021
:100D980038000020340000202083B8EDC04370479D
:100DA80081B32DE9F0470026DFF85CA0DFF85C90FE
:100DB80084B005460F46B04609E0009B013319D1BF
:100DC800013601F023FEB74205F5006516D0012370
:100DD8000393CDE9018500F0F7FE3423CAF80C30FF
:100DE800694601A800F090FF044600F001FF48465C
:100DF800002CE2D0002004B0BDE8F087012004B048
:100E0800BDE8F0870120704700200240000D002057
:100E18002DE9F843164680460F4600F0D5FE314BC3
:100E28003422DA60002E57D00137DFF8BC903D46F7
:100E3800002404E00234A64205F102051DD9631C12
:100E48009E4288BF2B7815F8012C4FF001008CBF0B
:100E580042EA032242F47F42002308EB040100F037
:100E6800FDFEA0BBE3B2002BE4D14846023401F0FA
:100E7800CDFDA64205F10205E1D800F0B9FEBFF3A9
:100E88004F8F194D002404E00234A64207F10207EF
:100E98001AD9631C9E4217F8012C84BF3B7842EA9A
:100EA800032238F8043098BF42F47F429BB29A423A
:100EB800E1B20ED10029E7D12846023401F0A6FD9F
:100EC800A64207F10207E4D80120BDE8F88300F044
:100ED8008FFE0020BDE8F88300F08AFEBFF34F8F35
:100EE800F2E700BF00200240000D00202DE9F04F7E
:100EF80002F2FF7E5FEADE2E89B04CD04FEACE23A5
:100F08004FF00008CDE9000191460293642445465C
:100F1800CDF80CE018E0049B013338D1FFF778FFD7
:100F2800002834D01E4801F071FD33462046414662
:100F3800039AFFF769F91B4BC0B21870029B64341F
:100F480048F100089D4226D0009B4FF4006B5F19C2
:100F5800AA4600215D44A945CDE905174FF00101D6
:100F680038BFA9EB0A0B079100F02EFE0E4B342177
:100F7800D96005A804A900F0C7FE064600F038FEAF
:100F8800019B5A4603EB0A013846002EC3D00020C5
:100F980009B0BDE8F08F012009B0BDE8F08F00BFAF
:100FA800000D0020040000200020024070B5124C03
:100FB800124E05468446A646BEE80F00B6450CF11B
:100FC800100C04F110044CF8100C4CF80C1C4CF8E4
:100FD800082C4CF8043CEED1234607CBCCF8000093
:100FE800CCF80410CCF808202868054BC01AB0FAD1
:100FF80080F0400970BD00BF004800083048000874
:101008004150415570B5234C234D06460FCC94B042
:101018000DF1140CACE80F000FCCACE80F000FCCAE
:10102800ACE80F0094E80700059BAB428CE807008A
:1010380005D13C22314605A8FFF772FB28B31549B4
:1010480001230020CDE90201049300F0BDFD134BFC
:101058003422DA6001A902A800F056FE044600F026
:10106800C7FD2CB9019B013306D0204614B070BDD2
:101078000024204614B070BD3C2231460548FFF7D5
:10108800C7FE0446204614B070BD0124204614B0A3
:1010980070BD00BF00480008415041550020024083
:1010A800F8B51A4D1A4E2868326800F58030253098
:1010B800B2F5006F4FEAC02406D21648FF2110444B
:1010C800C2F50062FFF740FA204612494FF4006269
:1010D800FFF79EFE044608B92046F8BD2A680E4868
:1010E800013200272A60376001F090FC0B4B1A6828
:1010F80042B10B4B19686420A1FB00013B46FFF786
:1011080083F8C2B2074B1A702046F8BD3C04002091
:101118004004002044040020000D0020700C002032
:10112800680C00200400002070B590B0044601A8A7
:10113800FFF73CFFE8B1DDE90331059A180EC3F368
:101148000746C3F30725C1F3072EC2F3072CDBB20A
:10115800C9B2D2B2237101236070A670E57084F819
:1011680005E0A17184F807C022722370637210B081
:1011780070BD024684460146864603460546064635
:10118800E8E700BF0000000030B5A3B003A8FFF7F0
:101198000DFF00283CD1504B1B6803F16042A2F5BB
:1011A8008072B2F51F4F2AD82C22002116A8FFF70B
:1011B800CBF945A3D3E900239FED457B4FF4584471
:1011C800CDE912234449179422464FF0FF308DEDA4
:1011D800147BFFF79FFDFFF7E1FD19AB3E4A009333
:1011E800054623463D4818952021FFF755FC12A8CF
:1011F800FFF708FF003818BF012023B030BD03F106
:101208007043A3F58073B3F5F85FCDD923B030BD33
:10121800049B022B26D0324B059A9A4204D1089A95
:10122800531EB3F5584F02D3002023B030BD2A49CE
:101238004FF0FF30FFF76EFDFFF7B0FD099B8342CB
:10124800F2D112AC089B244A244800942021FFF7CD
:1012580023FC20220AA92046FFF744FD003818BFC6
:101268000120CAE71F4B089A1F49072018701A481F
:10127800FFF73CFE0028D7D00DF10C0CBCE80F009E
:1012880012AC0FC4BCE80F000FC4BCE80F000FC4B9
:101298009CE80700012584E8070012A81395FFF7CA
:1012A800B1FE0028C0D012AC0FCC0DF10C0CACE88C
:1012B8000F000FCCACE80F000FCCACE80F0094E89F
:1012C80007008CE80700A6E74150415501000000DF
:1012D80001CB030301000000005000086033000840
:1012E80001CB03030C00002000280108254B70B532
:1012F8001C685D6804F16043A3F58073B3F51F4F64
:1013080006D904F17043A3F58073B3F5F85F38D8B4
:1013180014F0030635D1EB0733D505F17843A3F56F
:10132800A043B3F5584F2CD21F2000F0DFFB20203C
:1013380000F0DCFB144800F09FFE01F06DFB00F0AC
:1013480019FB4FF090436FF0A0521A604FF0FF3234
:10135800C3F800244FF0E0220C4B166156619661E9
:101368005A6842F000725A6072B6064A9A60BFF331
:101378004F8FBFF36F8F84F308882B46BDE870400A
:10138800184770BD00500008A80C002000ED00E0D0
:1013980038B50168224A4368224809BA11604A1ED2
:1013A8001CBAB2F5584F046018D21F4A934203D0B2
:1013B8001E4B05221A7038BD1C4C1D4801F2FF71E6
:1013C8000223C90A2370FFF7EBFC58B9FF21194A19
:1013D800194B217001211170187038BD134BFF2271
:1013E8001A7038BD4FF40062FF211448144DFFF7FE
:1013F800ABF814491448154A00230B7014490360CC
:101408000B600D492B60012008700A4811490370D0
:101418000B70032323704FF0FF33136038BD00BFF8
:10142800700C00206C0C00200303CB010C00002082
:101438000028010838040020390400204404002052
:10144800680C0020440C0020400400200800002004
:101458003C04002004000020104B1B78E3B1104B23
:101468001B78CBB910B484460E4C0068DCF8041025
:10147800DCF80820DCF80C300FC4DCF81820DCF8A5
:101488001C30DCF81000DCF814100FC4064B0122E5
:101498001A705DF8044B7047704700BF390400208C
:1014A80038040020480C0020440C00202DE9F84F97
:1014B800234B1B78002B37D0224B1C78002C33D1C0
:1014C80020290D4630D8834689B31F4EDFF888A0FF
:1014D8001E4FDFF8889000F1FF3802E00134A54282
:1014E80025D03368DAF80020934203F101001DD2B9
:1014F8003A6818F801CF09F802C0531CB3F5006F19
:101508003B603060EAD1FFF7CBFD0028E6D1104DF3
:10151800621C28685946FFF7FDFB0E4B2860FF2226
:101528001A70084A01231370BDE8F88F2546084C45
:101538002A4620685946FFF7EDFB2060BDE8F88F82
:101548003904002038040020680C002040040020E2
:10155800080000200C000020700C0020440400202B
:101568002DE9F04F724C2378BBB063B3714D2B78E3
:101578004BBB714B1B68074693BB704B704E1A6888
:1015880033689A4222D16F4B1B78FBB16E4BD7F868
:10159800009018687B68B7F804B0B7F806A0039302
:1015A800FFF7FCFBDFF8A48199FA89F9062348457F
:1015B800074688F800301DD00523002288F800303F
:1015C800012322702B703BB0BDE8F08F5F4B0521E3
:1015D80000221970012322702B703BB0BDE8F08FF8
:1015E800FFF75EFD0028C8D1584AFF21012311707A
:1015F8002B70E8E70DF11009CDF80090544A5548D2
:1016080033682021FFF748FA534920224846FFF75C
:1016180069FB30B9052388F80030012320702B704E
:10162800D1E71CA8FFF7C2FC9BFA9BFB9AFA9AFA2F
:101638001FFA8BF21FFA8AF320B1DDF874E0BEF1CD
:10164800010F48D0CDE90F23444B12971B680E9326
:101658003368119334A3D3E90023CDE90C23B9E807
:101668000F0013AF0FC799E80F0087E80F000CA809
:10167800FFF7C8FC40B30723DFF8F09088F8003084
:10168800326833493648002389F80030FFF72EFCCA
:10169800D0B10CAE0FCE2BAF0FC70FCE0FC70FCEEA
:1016A8000FC796E807004FF0010A87E807002BA844
:1016B800CDF8B0A0FFF7A6FCF0B9FF23207085F89D
:1016C80000A088F800307EE7FF2388F80030012367
:1016D80020702B7077E7039991FA81FCDDE91F01EF
:1016E80041EA00416145ADD9052388F8003000235F
:1016F800237085F800E066E704226423C82088F890
:10170800002089F8003000F083F9BFF34F8F1549A6
:10171800154BCA6802F4E0621343CB60BFF34F8FE6
:1017280000BFFDE7AFF300804150415502000000C3
:10173800390400203804002040040020680C0020F0
:10174800700C0020440C0020080000200C00002031
:101758000028010860330008480C00206C0C0020A9
:101768000050000800ED00E00400FA050400002025
:10177800014800F0B1BD00BFA80C0020014800F0EE
:101788004BBF00BFA80C0020012914D010B5104B86
:101798001B78052B044619D0062B12D00D4A0E4B88
:1017A80012781A70012220460B49BDE810404FF00C
:1017B800007300F07BBC09494FF00073212200F050
:1017C800F5BC0548FFF7B0FC0A22ECE7044AE6E757
:1017D8000D0000200C000020740C0020800C00205C
:1017E80004000020418D89B2D1F121020CD0114BA7
:1017F800012A1B7809D0013B032B05D8DFE803F049
:10180800120D0802092A12D070470B4A137070474C
:101818000A48C1F12001FFF749BE212AF4D107483F
:10182800FFF71ABE092AEFD10448FFF7B1BD0348F4
:10183800FFF796BE800C00200D000020810C0020D0
:10184800704700BF00F034BD00F032BD00B591B064
:1018580000F0C6F80021202207A8FEF775FE012235
:10186800102300240225CDE90A2306A84FF46013AB
:1018780006950D950F93CDE90244CDE904440194F2
:1018880001F03EF929460F230295314D019301A835
:101898004FF48063CDE90343059401F01BFC6B69A9
:1018A8002C4843F480236B616B69089403F480230C
:1018B8000193C022122306A9CDE906230326042397
:1018C800CDE90963019A00F081FA2348234B0360AC
:1018D80040F2E733C0E9016301F06AF82048214A81
:1018E800214B0126C0E900238423C0E90236C0E960
:1018F8000444C0E9074400F063FBEB6943F40013B8
:10190800EB61EB6903F400132246314606931F206E
:10191800069B00F0A1F81F2000F0DAF822463146B5
:10192800202000F099F8202000F0D2F8FFF72CFCD6
:1019380050B90B48084C00F0BBFC204601F066F893
:10194800322000F065F8F8E7FFF7D0FCF1E700BFB8
:101958000010024000040048000D00200030004044
:10196800A80C0020005400400E090020704700BF5A
:10197800704700BF10B5074B4FF0FF3200241A61C3
:101988001C61DA60DC609A629C62FFF7F1FF204616
:1019980010BD00BF0010024038B50E4A0E4B127839
:1019A800054618684FF47A73B3FBF2F3B0FBF3F013
:1019B80000F0AEF808B90F2D01D9012038BD044652
:1019C800024629464FF0FF3000F046F8034B204608
:1019D8001D6038BD0E00002000000020100000200F
:1019E800074A08B5136843F010031360032000F09A
:1019F80021F80F20FFF7D0FFFFF7B8FF002008BD40
:101A080000200240014B1868704700BF100D0020ED
:101A180038B50446FFF7F6FF631C054602D0044BB1
:101A28001B781C44FFF7EEFF401BA042FAD338BDD9
:101A38000E0000200749CA6803024FF6FF0003F4AE
:101A4800E0630240134343F0BF6343F40033CB60C9
:101A5800704700BF00ED00E01B4BDB68C3F30223B7
:101A680000B5C3F1070EBEF1040F03F1040C28BF43
:101A78004FF0040EBCF1060F1CD9A3F1030C4FF074
:101A8800FF3303FA0CF322EA03024FF0FF3303FAA1
:101A98000EF321EA030303FA0CF313431B01002896
:101AA800DBB20ADB00F1604000F5614080F80033EA
:101AB8005DF804FB00229446E7E7044A00F00F00B3
:101AC800024413765DF804FB00ED00E0FCEC00E056
:101AD800002807DB4109044A00F01F000123834066
:101AE80042F82130704700BF00E100E000280CDB1D
:101AF8004309064900F01F0020330122824041F8C3
:101B08002320BFF34F8FBFF36F8F704700E100E0D2
:101B18000138B0F1807F01D30120704710B44FF035
:101B2800E023074C58614FF0F00C84F823C00022E2
:101B3800072110469A615DF8044B1961704700BF90
:101B480000ED00E090F82120022A03D004228263ED
:101B5800012070470268116821F00E0110B5C46BAE
:101B68001160116821F001011160016C01228A40A5
:101B7800416B62604FF4807CA0F820C001B18847B7
:101B8800002010BD90F82100704700BF0C4BDB68A7
:101B980013F0100305D00B49CA6942F00202102362
:101BA800CA61074AD268520706D50649CA6942F08F
:101BB800010243F00403CA61014AD360704700BFC1
:101BC80000200240180D0020064B186910F0800014
:101BD80006D00549054A59605A601869C0F3C01013
:101BE800704700BF0020024023016745AB89EFCD55
:101BF800034A136943F0800300201361704700BF54
:101C08000020024070B50446FFF7FCFE124E054660
:101C1800F368D80705D5631C12D10F4AD368DC07CF
:101C2800FCD40D4BDA68910644BF2022DA600A4BD7
:101C3800DA68D2060CD4D86810F0040008D170BD58
:101C480024B1FFF7DFFE401BA042E1D9032070BD9D
:101C5800FFF79CFF012070BD002002402DE9F84FDE
:101C6800274E1C46337E012B47D0054601234CF2F4
:101C780050308A4617463376FFF7C4FFC8BB012D9C
:101C880003D0022D14BF042502254FF00009DFF808
:101C980074B00AEB4505C84601E0AA4529D0C9F148
:101CA8002003C6F81C80A9F1200227FA09FC04FACF
:101CB80003F34CEA030C24FA02F2DBF810304CEA86
:101CC800020C43F001031FFA8CFCCBF810304CF2E5
:101CD8005030AAF800C0FFF795FFDBF8103023F06A
:101CE80001030AF1020A09F11009CBF810300028A3
:101CF800D3D000233376BDE8F88F0220BDE8F88FF3
:101D0800180D0020002002402DE9F8432D4E337EA7
:101D1800012B54D0012333760368012B814631D03F
:101D28004CF250308846FFF76DFF074678BB4FF0FE
:101D3800FF33C8F80030D9E9015305EBC3239D42AE
:101D480025D2214C07E0D9E9013205F5006503EBFE
:101D5800C223AB421CD9F761236943F00203236114
:101D68006561236943F0400323614CF25030FFF76B
:101D780049FF236923F0020323610028E3D0C8F850
:101D8800005005E04CF25030FFF73CFF20B1012035
:101D980000233376BDE8F8830B4CF061236943F0E8
:101DA80004032361236943F0400323614CF250305C
:101DB800FFF728FF236923F004032361E8E70220E3
:101DC800BDE8F883180D0020002002402DE9F04FEF
:101DD8000C6885B0002C00F0828000234FF0010BC6
:101DE8000BFA03FE1EEA040A75D04D6805F0030CD1
:101DF8005A0003260CF1FF3806FA02F7B8F1010F72
:101E08006FEA07076ED9BCF1030F40F0BF800CFAE8
:101E180002F2D0F800C00CEA07073A4315F4403F35
:101E2800026058D05F4FBA6942F00102BA61BA69DC
:101E380002F001020392039A23F0030202F18042A6
:101E480002F5803203F0030C97684FEA8C0C0F26DA
:101E580006FA0CFEB0F1904F27EA0E0717D0524E43
:101E6800B04200F08580514EB04200F08880DFF823
:101E780044E1704575D0DFF840E170450CBF4FF084
:101E8800040E4FF0050E0EFA0CFC47EA0C0797609B
:101E9800474A9268EE026FEA0A07454E54BF3A4035
:101EA8004AEA0202B260F268AE02414E54BF3A40BA
:101EB8004AEA0202F2607268AE033D4E54BF3A40ED
:101EC8004AEA020272603268ED03394D54BF3A4063
:101ED8004AEA02022A60013334FA03F280D105B0DB
:101EE800BDE8F08FD0F80890CE6809EA070906FA2D
:101EF80002F848EA0908C0F80880D0F804808E681B
:101F080028EA0E08C5F3001E0EFA03FE4EEA080E74
:101F1800C0F804E0D0F80C8006FA02FE08EA0708C8
:101F28004EEA080EBCF1020FC0F80CE07FF46FAF68
:101F38000E694FEAD30803F0070E00EB88084FEA52
:101F48008E0E06FA0EF6D8F8209001960F2606FA9D
:101F58000EFE019E29EA0E0946EA090EC8F820E09D
:101F680055E74FF0030E0EFA0CFC47EA0C078EE714
:101F78004FF0010E0EFA0CFC47EA0C0787E74FF00A
:101F8800020E0EFA0CFC47EA0C0780E7D0F80C802A
:101F98008E6808EA070806FA02FE4EEA080EC0F83C
:101FA8000CE034E700100240000400480008004834
:101FB80000040140000C004800100048704700BFB2
:101FC800002854D010B590F84130044603F0FF02C1
:101FD800002B47D02368242284F8412019686268BE
:101FE80021F0010122F0706219601A619A68E168B3
:101FF80022F4004201299A60A26809D042F40442FE
:1020080002299A6007D15A6842F400625A6006E0D1
:1020180042F400429A605A6822F400625A60596891
:10202800226941F0007141F4004159606169D86842
:102038000A43A16920F4004042EA0122E169D8601C
:10204800206ADA6001431960196841F001011960DA
:1020580000222023626484F84130226384F84220FD
:10206800104610BD80F84020FFF7A8FFB2E7012016
:10207800704700BF704700BFB0B10268242310B595
:1020880080F84130136823F0010304461360FFF71A
:10209800F1FF0023636484F8403084F841302363FF
:1020A80084F84230184610BD0120704770B50446C8
:1020B80090F8410000F02800282884B002D00120C0
:1020C80004B070BD002938D0002A36D0256894F8AD
:1020D8004100286820F0FA00286094F840000128A0
:1020E8002FD094F841004FF0010C2A2884F840C002
:1020F80029D0292084F84100202084F842000020BB
:102108006064686820F4004068606285608DE362FE
:102118006162A969AB69234A6263DA03208503D542
:102128000B0744BF0823EB61002084F840002B68AC
:1021380043F0FA032B6004B070BD4FF4007363647E
:10214800BDE70220BCE794F841002E6800F02800A3
:10215800282814BF6FF0F4006FF044003040286066
:1021680028680004C5D5286820F400402860E06B82
:102178000028BED00C4D4563CDE902230191FFF73D
:10218800E1FCDDE90112039B08B92568B1E7E06BC2
:102198000191456BCDE90223A847DDE902232568B3
:1021A8000199A6E7812800087924000830B504467B
:1021B80090F8410000F02800282885B002D00120BE
:1021C80005B030BD002938D0002A36D0256894F8EB
:1021D8004100286820F0FC00286094F8400001289D
:1021E80054D094F841004FF0010C292884F840C0DD
:1021F80027D02A2084F84100202084F842000020BB
:102208006064686820F4004068606285608DE362FD
:102218006162A969AB69244A6263DA03208503D441
:102228000B0744BF0823EB61002084F840002B68AB
:1022380043F0FC032B6005B030BD4FF400736364BA
:10224800BDE794F8410000F028002828286814BF4A
:102258006FF0F20C6FF0420C00EA0C00286028685E
:102268004004C6D5286820F480402860A06B002868
:10227800BFD00E4D4563CDE902230191FFF762FC03
:10228800DDE90112039B18B92568B2E7022097E738
:10229800A06B0191456BCDE90223A847DDE9022334
:1022A80025680199A5E700BF81280008792400085E
:1022B80090F84130202B01D0022070470268054970
:1022C800282380F841301368416343F0B8030020A5
:1022D80013607047812800080268436B916912688F
:1022E80003B11847704700BF016808B50B680022A2
:1022F80080F842205A040CD50B6823F480430B6005
:1023080090F84130292B0ED090F841302A2B22D05A
:1023180008BD1B04F4D50B6823F400430B6090F848
:102328004130292BF0D12822212380F84120036352
:1023380090F841300A6803F02803282B14BF6FF087
:10234800F2036FF04203134000220B6080F8402034
:10235800FFF776FA08BD2822222380F8412003637C
:1023680090F841300A6803F02803282B14BF6FF057
:10237800F4036FF04403134000220B6080F8402000
:10238800FFF730FA08BD00BF90F8412002F028029C
:10239800282AF8B50468034605D008210022E1611F
:1023A80080F84020F8BDA169C768A269A568E668F9
:1023B800120C022FC1F3004102F0FE0216D182EA8C
:1023C800D51C1CF00607C5F309020DD1856C013533
:1023D8008564856C022DE5D108258764E56180F860
:1023E8004070FFF7D1F9F8BD06F0FE02256825F028
:1023F800B8052560002483F84040FFF7C5F9F8BD0B
:102408000022202310B5184CC4624263026380F88E
:10241800413080F842204A07036812D5426A5B6A55
:102428001370436A028D01334362D2B1438D013B7D
:102438009BB24385416C0368013A41F0040102856F
:10244800416490F8412090F841201A68102422F045
:10245800FE0200211A60DC6180F84010FFF7F2F9F3
:1024680010BD0368EDE700BF0000FFFF704700BF25
:10247800406A08B5836B0BB100225A63C36B0BB17A
:1024880000225A6390F84130602B4FF0000305D0CA
:10249800036380F84030FFF7D7F908BD202280F8A1
:1024A800412080F840300363FFF7E0FF08BD00BF1C
:1024B80010B50446554A94F84130002084F842008B
:1024C800E2626085626C1143A3F12802022A236844
:1024D800616462D894F8411094F8412001F0280111
:1024E800282902F0280214BFF6214621282A1A6852
:1024F8000CBFC9436FF0F6010A40282044491A600E
:1025080084F84100A06B226B616318B1112A14D0C2
:10251800212A12D0E06B18B1122A24D0222A22D004
:1025280094F84130602B4FF0000365D0236384F8A2
:1025380040302046FFF788F910BD1A68510456D478
:10254800FFF720FB0128EBD0A06B324A426300233F
:1025580084F84030FFF7F6FA0028EDD0A06BBDE80C
:102568001040436B18471A68120403D51A6822F4FE
:1025780000421A60FFF706FB0128D1D0E06B254A1C
:102588004263002384F84030FFF7DCFA0028D3D0F8
:10259800E06BBDE81040436B184794F8412094F86D
:1025A80041201A6822F0FE021A609A69920748BF11
:1025B80098629A69D10703D49A6942F001029A6134
:1025C80094F84120602A10D0202284F841209A698A
:1025D80092060AD59A69D00605D51022DA61626C8E
:1025E80042F0040262642022DA6100218AE71A6854
:1025F80022F480421A60A3E7202284F8412084F85C
:10260800403023632046FFF731FF10BD0000FFFF75
:10261800812800087924000803689A69196810B4A9
:10262800D40529D50C0606D4416C11F00B0F1FD127
:102638005DF8044B7047416C41F0010141644FF46F
:1026480080745105DC6121D5416C4FF4806441F000
:10265800080192054164DC61E6D5426C4FF40071D3
:1026680042F002024264D961416C11F00B0FDFD0D5
:102678005DF8044BFFF71CBF540502D50906E3D4E7
:10268800D2E79405D0D50906E7D4CDE79205E4D47E
:10269800CAE700BF70B5036804460D461968C06AEA
:1026A80094F841202026213ADE61092A0ED8DFE875
:1026B80002F077050D0D0D0D0DAA770594F8412050
:1026C8001A6822F0FC021A60222222635A68684EB5
:1026D80042F400425A605A6832405A609A69920736
:1026E80044BF00229A629A69D60703D49A6942F0D5
:1026F80001029A614A043BD51A6822F480421A60A2
:10270800A26B1AB11268526892B262856A070AD53A
:102718005A6A636A1A70636A01336362238D25F00B
:102728000405002B68D1638D9BB21BB1636C43F029
:1027380004036364EB0601D5CE063AD4002384F87B
:102748004230666C6363002E68D1E36A494DAB4240
:1027580018D194F8413084F84060222B4FF02003C0
:1027680084F841302046266376D0FFF769F870BDBB
:102778000E04CBD51A6822F400421A60E26B002AD4
:10278800C0D1C3E72046FFF7AFFD2023E56284F8F8
:10279800406084F8413020462663FFF753F870BD47
:1027A80094F841201A6822F0FA021A602122226362
:1027B8008CE7638D9BB2002B3ED194F84130282BD7
:1027C8004DD094F841202368292A4FF01002DA618D
:1027D800B4D110F5803FB1D09A69910744BF002267
:1027E8009A629A69D20703D49A6942F001029A61FF
:1027F8002046FFF779FDA1E7013B2385638D013B67
:102808009BB263858FE794F8412094F841201A68B9
:1028180022F0FE021A600022226357E7616C20460C
:10282800FFF746FE94F84130282BA0D129462046D0
:10283800BDE87040FFF7E4BD23681022DA61636CDD
:1028480043F00403636430F080737FF477AF616C06
:102858002046FFF72DFE71E7FEF7C4FF70BDB0F10B
:10286800007FAED129462046FFF7CAFD66E700BFC4
:1028780000E800FE0000FFFF38B590F840C0C56AC8
:10288800BCF1010F67D04FF0010C11F0200F044686
:102898000B4680F840C002D012F0200F51D1D80664
:1028A80015D5D10613D5628D92B2002A55D194F868
:1028B8004120282A74D094F841202368292A4FF00F
:1028C8001002DA615CD0002084F8400038BD590756
:1028D80019D4190701D5100739D49907F3D59307E7
:1028E800F1D5638D9BB2002B46D0616A236811F83D
:1028F800012B9A62638D228D6162013B9BB2013A82
:1029080063852285DFE75007E3D5638D9BB26BB102
:102918002268636A526A1A70638D616A228D013B6C
:102928000131013A9BB2616222856385638D9BB256
:10293800002BC8D115F5803FC5D02046FFF7D4FC41
:10294800C1E7FFF7A7FE002084F84000BEE7204655
:10295800FFF71AFDB7E7022038BD23681022DA61B5
:10296800636C43F00403636435F08073ABD1616C2E
:102978002046FFF79DFDA6E735F08073A3D1DCE77D
:1029880015F5803F9FD09A69950744BF00229A6247
:102998009A69D007D1D49A6942F001029A61CCE7CA
:1029A800B5F1007F87D119462046FFF729FD8AE750
:1029B80028B338B5D0E90031826804464CF6CC40DB
:1029C800186045F25550186059609A60FFF71AF878
:1029D80023680546DA6851070AD0FFF713F8401B49
:1029E80027282368F6D9DA685207F3D0032038BDC0
:1029F8001969E268914204D01A61002038BD0120AB
:102A080070474AF6AA221A60F7E700BF03684AF639
:102A1800AA2200201A60704770B5334C236843F02F
:102A280001032360FEF7EEFF054604E0FEF7EAFF28
:102A3800401B022828D823689B07F7D523682B4A10
:102A4800294D23F0F80343F08003236063681A409C
:102A58006260FEF7D7FF41F28836044604E0FEF7CD
:102A6800D1FF001BB0420FD86B6813F00C0FF6D1E2
:102A78001F49204B204A08681A60FEF78DFF04465C
:102A880028B10124204670BD0324204670BD2B6860
:102A980023F0847323F480332B602B6823F4802382
:102AA8002B60FEF7AFFF104D064604E0FEF7AAFFC5
:102AB800831B022BE8D82B6813F00073F6D16B60E8
:102AC800EB622B63A96841F41F01A9604FF0807283
:102AD800AB6092FAA2F2094BB2FA82F213449B005D
:102AE80001221A60D1E700BF001002400CC0FFF8B5
:102AF800100000200000002000127A0020819010B1
:102B0800002800F0BB822DE9F0430368D90783B0A1
:102B180004464BD5AC494A6802F00C02042A00F07E
:102B28005D814A6802F00C02082A00F05381D4E95A
:102B38000132B3F5803F15D0002B00F08981B3F541
:102B4800A02F00F03682A04B196821F4803119605B
:102B5800196821F480211960D96A21F00F010A430C
:102B6800DA6209E098490B6843F480330B60CB6A5A
:102B780023F00F031343CB62FEF744FF924F054641
:102B88004FF40038012605E0FEF73CFF401B64289F
:102B980000F25A8198FAA8F33A6898FAA8F3B3FAB7
:102BA80083F306FA03F31342EED023689F073FD559
:102BB800854A516811F00C0F00F0CB80516801F084
:102BC8000C01082900F0C1802269002A00F09481D4
:102BD800012595FAA5F3B3FA83F303F1845303F5BA
:102BE80084139B00784F1D60FEF70CFF4FF002081E
:102BF800064605E0FEF706FF801B022800F2248146
:102C080098FAA8F33A6898FAA8F3B3FA83F305FA9E
:102C180003F31342EED03968F82292FAA2F26369FC
:102C2800B2FA82F2934021F0F80213433B60236822
:102C38001D0729D4580753D5634BDA69D10000F131
:102C4800C180DA6942F08052DA61DB6903F08053AF
:102C58000193019B01255D4E3368DA0540F1E4805C
:102C6800E368012B00F06C81002B00F01781052B25
:102C7800554B1A6A00F0A98122F001021A621A6AF9
:102C880022F004021A6260E1A269002A74D00126C7
:102C980096FAA6F24E4BDFF83081B2FA82F213446C
:102CA8009B0002251E60FEF7ADFE074605E0FEF715
:102CB800A9FEC01B022800F2C78095FAA5F395FA71
:102CC800A5F395FAA5F3D8F8242095FAA5F3B3FA55
:102CD80083F306FA03F31342E9D023685807ABD409
:102CE800E36973B3384D6A6802F00C02082A00F0F1
:102CF8004F81022B4FF0807300F06F8193FAA3F39A
:102D0800B3FA83F303F1845303F584139B00002281
:102D18001A60FEF777FE4FF000770446012605E0BB
:102D2800FEF770FE001B022800F28E8097FAA7F3C8
:102D38002A6897FAA7F3B3FA83F306FA03F3134260
:102D4800EED1002003B0BDE8F0835268D6033FF50A
:102D58003BAF022292FAA2F11B49086892FAA2F24A
:102D68000121B2FA82F201FA02F202424BD0226940
:102D78008A4248D00120E5E7012797FAA7F1144BCA
:102D8800DFF84480B1FA81F10B449B0002251A60F8
:102D9800FEF738FE064604E0FEF734FE801B0228E4
:102DA80052D895FAA5F395FAA5F395FAA5F3D8F8AC
:102DB800242095FAA5F3B3FA83F307FA03F3134231
:102DC800EAD18AE7002546E700100240007000407B
:102DD800208190104A68D2037FF5A9AE4FF40032E3
:102DE80092FAA2F1A649086892FAA2F20121B2FA6F
:102DF80082F201FA02F202423FF4D8AE6268002A77
:102E08007FF4D4AEB6E79E4DF821286891FAA1F177
:102E18006269B1FA81F120F0F8008A4002432A6021
:102E28001D077FF507AF2FE7336843F480733360DE
:102E3800FEF7E8FD07463368DB053FF511AFFEF7FF
:102E4800E1FDC01B6428F6D9032003B0BDE8F08378
:102E58008B4D2B6823F480332B602B6823F480235D
:102E68002B60EB6A23F00F031343EB62FEF7CAFDF6
:102E78004FF400380646012704E0FEF7C3FD801B27
:102E88006428E1D898FAA8F32A6898FAA8F3B3FA5C
:102E980083F307FA03F31342EFD186E6784E336AD9
:102EA80023F001033362336A23F004033362FEF72D
:102EB800A9FD4FF0020907464FF0010806E0FEF7AA
:102EC800A1FD41F28833C01B9842BDD899FAA9F3F5
:102ED80099FAA9F3326A99FAA9F3B3FA83F308FACB
:102EE80003F31342EBD1002D3FF4FAAE644AD369E1
:102EF80023F08053D361F3E6012696FAA6F3B3FADA
:102F080083F303F1845303F584139B005C4F1A6029
:102F1800FEF778FD4FF00208054604E0FEF772FD63
:102F2800401B022890D898FAA8F33A6898FAA8F3B0
:102F3800B3FA83F306FA03F31342EFD1236877E673
:102F48004F4A136A43F001031362FEF75BFDDFF893
:102F5800308106464FF00209012707E0FEF752FDCF
:102F680041F28833801B98423FF66EAF99FAA9F375
:102F780099FAA9F3D8F8202099FAA9F3B3FA83F3B8
:102F880007FA03F31342E9D0002D3FF4A9AEADE7E9
:102F9800012B3FF4EFAE6B68226A03F48031914253
:102FA8007FF4E8AE606A03F47013181A18BF0120A2
:102FB800C8E603F18043A3F53C33196841F4802146
:102FC8001960196841F48031C5E542F004021A62BB
:102FD8001A6A42F001021A62B7E793FAA3F3B3FA46
:102FE80083F303F1845303F584139B0000221A60D2
:102FF800FEF708FD4FF000780646012705E0FEF7CA
:1030080001FD801B02283FF61FAF98FAA8F32A6833
:1030180098FAA8F3B3FA83F307FA03F31342EED14D
:10302800D4E908136A680B4322F4741213436B60E3
:103038004FF0807393FAA3F3B3FA83F303F1845345
:1030480003F584139B000E4E1F60FEF7DBFC4FF068
:1030580000770446012505E0FEF7D4FC001B022892
:103068003FF6F2AE97FAA7F3326897FAA7F3B3FAE6
:1030780083F305FA03F31342EED062E601207047AA
:10308800001002400E4A536803F00C01082901D0D1
:103098000C487047C3F383410B48D26A405CDB039A
:1030A80009D50A49074B02F00F028A5CB3FBF2F319
:1030B80003FB00F07047064B03FB00F0704700BFAE
:1030C8000010024000127A00903300088033000894
:1030D80000093D00002800F08D80504A136803F075
:1030E80007038B422DE9F0410D4604460CD21368C4
:1030F80023F007030B431360136803F007038B42A5
:1031080002D00120BDE8F0812368980706D544491C
:10311800A0684A6822F0F00202434A60D9072CD519
:103128006268012A68D0022A0CBF4FF0007302239C
:1031380093FAA3F13A49086893FAA3F30121B3FA81
:1031480083F301FA03F30342DBD0354E736823F0AF
:10315800030313437360FEF755FC41F288380746B2
:1031680004E0FEF74FFCC01B404554D87368626802
:1031780003F00C03B3EB820FF3D1284A136803F072
:103188000703AB4209D9136823F007032B431360E5
:10319800136803F00703AB42B3D123685A0706D577
:1031A8001F49E0684A6822F4E06202434A601B074C
:1031B80007D51B4A2169536823F4605343EAC103C6
:1031C8005360FFF75FFF164BF0225B6892FAA2F29A
:1031D800B2FA82F203F0F003124C1349D340134AB7
:1031E800E35C20FA03F308681360FEF7D5FB0020C0
:1031F800BDE8F081012070474FF4003393FAA3F142
:103208000749096893FAA3F3B3FA83F302FA03F3BD
:103218000B429AD175E7032074E700BF00200240F3
:10322800001002405032000810000020000000206A
:10323800F8B500BFF8BC08BC9E467047F8B500BF9B
:08324800F8BC08BC9E4670476B
:103250000000000000000000010203040607080946
:10326000982F8A4291443771CFFBC0B5A5DBB5E9F1
:103270005BC25639F111F159A4823F92D55E1CAB65
:1032800098AA07D8015B8312BE853124C37D0C55F3
:10329000745DBE72FEB1DE80A706DC9B74F19BC13B
:1032A000C1699BE48647BEEFC69DC10FCCA10C242B
:1032B0006F2CE92DAA84744ADCA9B05CDA88F9760F
:1032C00052513E986DC631A8C82703B0C77F59BF79
:1032D000F30BE0C64791A7D55163CA0667292914A5
:1032E000850AB72738211B2EFC6D2C4D130D385342
:1032F00054730A65BB0A6A762EC9C281852C729204
:10330000A1E8BFA24B661AA8708B4BC2A3516CC731
:1033100019E892D1240699D685350EF470A06A106A
:1033200016C1A419086C371E4C774827B5BCB034B9
:10333000B30C1C394AAAD84E4FCA9C5BF36F2E6857
:10334000EE828F746F63A5781478C8840802C78CE6
:10335000FAFFBE90EB6C50A4F7A3F9BEF27871C6E9
:10336000555254432D48594452412D554D432D3209
:103370003032362D4348414E47452D4D452D2121B4
:103380000102030405060708090A0B0C0D0E0F10B5
:1033900002030405060708090A0B0C0D0E0F101096
:0833A000A0CEFF7F0100000038
:0433A800F101000827
:0433AC00C90100084B
:1033B00000127A00FF000000FFFFFFFF01FF010085
:0433C00010000000F9
:040000050800078563
:00000001FF
