:020000040800F2
:1080000000A0002085870008D58700084DA900083A
:10801000D5870008D5870008D58700080000000034
:10802000000000000000000000000000D5870008EC
:10803000D587000800000000D5870008A1AA000825
:10804000D5870008D5870008D5870008D5870008A0
:10805000D5870008D5870008D5870008D587000890
:10806000D587000891AA0008D5870008D5870008A1
:10807000D587000885AF0008D5870008D587000898
:10808000D5870008D5870008D5870008D587000860
:1080900041A90008D5870008D587000899AA0008DB
:1080A000D5870008D5870008D5870008D587000840
:1080B000D5870008A5AA0008D5870008D58700083D
:1080C000D5870008D5870008D5870008D587000820
:1080D000D5870008D5870008D5870008D587000810
:1080E000D5870008D5870008D5870008D587000800
:1080F000D5870008D5870008D5870008D5870008F0
:10810000000000000000000000000000D58700080B
:10811000D5870008D5870008D5870008D5870008CF
:10812000D5870008D5870008D5870008D5870008BF
:10813000D5870008D5870008000000000000000077
:10814000D5870008D5870008D58700080000000003
:10815000000000000000000000000000000000001F
:108160000000000000000000D5870008D587000847
:10817000D58700080000000000000000000000009B
:0881800000000000D587000893
:108188000348044B834202D0034B03B1184770479E
:108198001400002014000020000000000548064BD1
:1081A8001B1AD90F01EBA301491002D0034B03B1ED
:1081B8001847704714000020140000200000000039
:1081C80010B5064C237843B9FFF7DAFF044B13B117
:1081D8000448AFF300800123237010BD180000206D
:1081E80000000000B003010808B5044B1BB10449A6
:1081F8000448AFF30080BDE80840CFE70000000066
:108208001C000020B003010853B94AB9002908BF6F
:1082180000281CBF4FF0FF314FF0FF3000F06AB963
:10822800ADF1080C6DE904CE00F006F8DDF804E0C5
:10823800DDE9022304B070472DE9F047089D0E469A
:1082480004460F46002B4AD194468C45B2FA82F276
:1082580060D942B1C2F12003974020FA03F30CFA27
:1082680002FC1F4394404FEA1C4E1FFA8CF6B7FBE2
:10827800FEF1230C0EFB117743EA074301FB06F0DE
:1082880098420AD91CEB030301F1FF3780F01581EE
:10829800984240F21281023963441B1AA4B2B3FB1C
:1082A800FEF00EFB103344EA034400FB06F6A64238
:1082B8000AD91CEB040400F1FF3380F00081A642C8
:1082C80040F2FD806444023840EA0140A41B0021CA
:1082D8001DB1D4400023C5E90043BDE8F0878B42B7
:1082E80005D90DB1C5E9000100210846F5E7B3FA43
:1082F80083F1002946D1B34202D3824200F2F580CD
:10830800841A66EB030201201746002DE5D0C5E963
:108318000047E2E7002A40F09380A1EB0C034FEA04
:108328001C471FFA8CFE0121B3FBF7F607FB16303A
:10833800230C43EA00430EFB06F0984208D91CEBD5
:10834800030306F1FF3802D2984200F2D080464675
:108358001B1AA4B2B3FBF7F007FB103344EA03443B
:108368000EFB00FEA64508D91CEB040400F1FF3300
:1083780002D2A64500F2B6801846A4EB0E0440EAE5
:108388000640A5E7C1F120078B4022FA07FC4CEA1A
:10839800030C06FA01FE20FA07F426FA07F344EA6A
:1083A8000E0400FA01F84FEA1C404FEA1449B3FBE7
:1083B800F0FE1FFA8CF600FB1E3349EA03430EFB5E
:1083C80006F9994502FA01F20BD91CEB03030EF1E9
:1083D800FF3A80F08580994540F28280AEF1020E26
:1083E8006344A3EB0909A4B2B9FBF0F300FB1399AA
:1083F80044EA094403FB06F6A64208D91CEB040428
:1084080003F1FF3068D2A64266D9023B644443EACE
:108418000E40A41BA0FB02E6B4427346B14652D3F9
:108428004FD05DB1B8EB030264EB090404FA07F717
:1084380022FA01F31F43CC40C5E9007400214CE740
:10844800C2F1200120FA01F30CFA02FC26FA01F12C
:10845800964033434FEA1C471FFA8CFEB1FBF7F0F6
:1084680007FB1016190C41EA064100FB0EF68E4276
:1084780004FA02F408D91CEB010100F1FF382DD2EF
:108488008E422BD902386144891B9BB2B1FBF7F6A7
:1084980007FB161143EA014306FB0EF1994208D97E
:1084A8001CEB030306F1FF3814D2994212D9023E9D
:1084B80063445B1A46EA004136E73946EDE618465A
:1084C80002E7F045ADD2BEEB020366EB0C060138BD
:1084D800B146A6E74646ECE7034698E74046D3E7A9
:1084E800D6467EE76444023847E708460DE7023E71
:1084F80063442DE7704700BF70B50F4B0F4DAB427B
:10850800A3EB050607D0B610002455F8043B013448
:108518009847A642F9D807F047FF094D094B5E1B5B
:10852800AB424FEAA60606D0002455F8043B0134B6
:108538009847A642F9D870BDA8210108A8210108CA
:10854800A8210108AC210108830730B547D0541E83
:10855800002A3ED0CAB2034601E0013C39D303F8F1
:10856800012B9D07F9D1032C2CD9CDB205EB05259C
:108578000F2C05EB054535D9A4F1100222F00F0C9C
:1085880003F1100EE6444FEA121C1A46C2E90055E0
:10859800C2E9025510327245F8D10CF1010214F00B
:1085A8000C0F03EB021204F00F0C13D0ACF1040310
:1085B80023F003030433134442F8045B9342FBD1D2
:1085C8000CF003042CB1C9B21C4403F8011BA342EC
:1085D800FBD130BD64461346002CF4D1F9E70346BD
:1085E8001446C0E71A46A446E0E700BF844641EABD
:1085F800000313F003036DD1403A41D351F8043B13
:1086080040F8043B51F8043B40F8043B51F8043B64
:1086180040F8043B51F8043B40F8043B51F8043B54
:1086280040F8043B51F8043B40F8043B51F8043B44
:1086380040F8043B51F8043B40F8043B51F8043B34
:1086480040F8043B51F8043B40F8043B51F8043B24
:1086580040F8043B51F8043B40F8043B51F8043B14
:1086680040F8043B51F8043B40F8043B51F8043B04
:1086780040F8043B51F8043B40F8043B403ABDD273
:10868800303211D351F8043B40F8043B51F8043B15
:1086980040F8043B51F8043B40F8043B51F8043BD4
:1086A80040F8043B103AEDD20C3205D351F8043BA4
:1086B80040F8043B043AF9D2043208D0D2071CBF70
:1086C80011F8013B00F8013B01D30B880380604699
:1086D800704700BF082A13D38B078DD010F003030F
:1086E8008AD0C3F10403D21ADB071CBF11F8013B7F
:1086F80000F8013B80D331F8023B20F8023B7BE7CE
:10870800043AD9D3013A11F8013B00F8013BF9D2F8
:108718000B7803704B7843708B7883706046704792
:10872800032A30B415D941EA0004A40784460B464D
:1087380004D0541E0FE0043A032A08D919466046AB
:1087480053F8044B5CF8045BA542F4D0F1E76046AB
:108758001946541E7AB1431E0139021901E09A42A2
:1087680009D013F8010F11F801CF6045F7D0A0EB3D
:108778000C0030BC7047002030BC7047DFF834D0A4
:1087880000F026F80C480D490D4A002302E0D458A1
:10879800C4500433C4188C42F9D30A4A0A4C002343
:1087A80001E013600432A242FBD3FFF7A5FE00F0FC
:1087B8001BF8FEE700A000200000002014000020A5
:1087C800B0210108180000209C040020FEE70000EA
:1087D800034AD2F8883043F47003C2F888307047EF
:1087E80000ED00E0000000002DE9F04F2DED028BB8
:1087F800AF4BB04AB04D9A60B1B004F04FF901F0F8
:1088080033FE01F065FE02F031FC01F08BFC01F053
:10881800D3FE01F0C3FD01F0A3FF01F05FFD01F0FD
:108828008FFD2A7800230321CDE90B31CDE90D33E3
:108838000F937AB12B78042B02D02B780A2B09D10D
:1088480001239E480B930BA905F0C4FB0B2002F0F3
:108858002BF809E001244FF090400BA90B9405F088
:10886800B9FB204602F020F82B780A2B00F09782FB
:108878002B78052B08D02B78092B05D02B78122BB9
:1088880002D02B78132B03D140F67F4001F096FFDE
:1088980006AB039310AB13AC02932B780B2B00F0B1
:1088A8006F822B78012B20D02B78022B1DD02B78B0
:1088B800032B1AD02B78062B17D02B78072B14D024
:1088C8002B780A2B11D02B780C2B0ED02B78102B51
:1088D8000BD00023CDE913331193082201237748E5
:1088E80002991092129305F075FB7549754FDFF8E0
:1088F80008820323C7E90013384640F2E733BB6018
:1089080006F09AF902F0D4FB02F026FD01F0FCFA19
:1089180001F07EFB002003F069FADDF808A00026CC
:10892800384606F0B7F9002E00F06E817207F3B2F0
:1089380000F0968103F08AFF013603F0B1FF04F0DE
:108948001DF803F0D9FF03F0F9FF01F047F901F032
:1089580005FA642004F0C6F8322EE1D15A4B0024FF
:108968001C70E0B2013402F027FF082CF9D19FED0A
:108978004E8B0026DFF884B1544CDFF884A1B14651
:10898800B04637464F4806F085F99BF80030002B73
:1089980052D104F0A1F84E4B1B78002BA0EB070036
:1089A8000CBF4FF4FA736423984280F0238104F0DB
:1089B80093F8A0EB0900132800F2068104F08CF864
:1089C800801BB0F5FA7F80F0F98004F085F8A0EB01
:1089D8000800952800F2A2803E4B1B78002B40F03F
:1089E8009A8002F0CBF83C4B1B78002B40F08A8031
:1089F8002B78082B27D09AF80030002BC2D004F02F
:108A08006BF8364B1B68C01A0028BBDB00228AF8BB
:108A18000020114602EB42030132E1542344082AA4
:108A280059709970F6D102F03FF9264806F032F9EC
:108A38009BF80030002BACD0002329488BF800307D
:108A480004F0DAFEA5E7274B1B78002BD3D0254B83
:108A580000221A70244B198889B2012938BF0121D4
:108A6800B1F5FA7F28BF4FF4FA71204B187802EB62
:108A78004203C0B2E0541E4800782344C0B2587084
:108A88001C4800780132C0B2082A9870EDD10191D3
:108A980002F00AF904F020F80199104B014419601A
:108AA80001238AF80030A6E700000000000000005B
:108AB80000ED00E000800008A50300200004004845
:108AC80000300040D800002004000020B80000203A
:108AD8009200002052000020500000205400002086
:108AE8003C0300204C0000205A0000204F000020CA
:108AF8004E0000204D000020000F010891000020CA
:108B08005800002002F092F810B1B94A00231370FF
:108B180002F0CAF86CE703F0B9F962E703F0DCFF8A
:108B2800804601F00BF801F033F803F055FE03F02E
:108B380071FE03F049FFAF4A13780133DBB2022B11
:108B480007D9AD4A1378013303F003031370A94A18
:108B58000023137003F0CAF92B7800228DED128BD5
:108B68008DF85420002B62D02B780A2B00F09380CC
:108B78002B78042B00F0C8802B78052B00F0D480CC
:108B88002B78092B00F0E7802B78082B7FF424AF93
:108B98009A4B1B788DF8143040F25513109398486F
:108BA8000123149304F0CCFE00283FF415AF039B77
:108BB8000299934805AA04F04DFE0DE703F08CFFD7
:108BC800064602F063FC00E703F086FF814601F0E9
:108BD80005F801F0C3F803F039FE03F061FE03F075
:108BE800CDFE03F00DFF03F087FE03F0A7FE00F0B3
:108BF80087FFE3E603F070FF4FF4004107464FF0AC
:108C0800904005F0EBFAD2E603F020FE03F048FEB0
:108C180003F0B4FE03F070FE03F090FE00F0DEFFF8
:108C280001F09CF8642003F05DFF012678E6754AA0
:108C38001388C3F307238DF8143013888DF8153083
:108C48006E4B1B788DF8163040F2351310936C4834
:108C58000323149304F074FE00283FF4BDAEA6E786
:108C6800C3F3C10303EB830308EBC3190224802277
:108C780049465046FFF7BAFC20460021013402F06D
:108C8800D5F9E4B28021504602F0B2F9072C09F177
:108C98008009ECD14EE65B4A59481388C3F3072391
:108CA8008DF8143013888DF8153040F27513109331
:108CB8000223149304F044FE00285AD1524A504823
:108CC80013681B0A8DF8143013688DF8153040F2BC
:108CD800771310930223149304F032FE002841D135
:108CE8004A4A474813681B0A8DF8143013688DF8F0
:108CF800153040F2791310930223149304F020FEE8
:108D080000283FF469AE52E7414A1388C3F30723AA
:108D18008DF8143013888DF815303E4B1B788DF87C
:108D2800163040F2451391E740F24713109303239E
:108D3800149372B6384B1B6862B65BBAADF8143040
:108D48002E4B2F481B788DF8163004F0F9FD0028BB
:108D58003FF442AE2BE7294B1B788DF8143040F2D4
:108D680065131BE7039B0299254805AA04F072FDC9
:108D7800B6E7039B0299224805AA04F06BFD9DE71C
:108D880000231393082263604FF40413CDE91023E2
:108D9800224802990123129305F01CF9A5E540F633
:108DA800FF1001F00BFD06A8032100262022022354
:108DB800039009910127014613AC4FF09040CDE98B
:108DC800062308960A9705F005F901F037FD10AB60
:108DD800139602936660194640224FF404134FF02D
:108DE8009040CDE91023129705F0F4F855E500BF3F
:108DF80050000020340000203500002044000020EE
:108E08003C030020AE000020940000206C000020ED
:108E1800AA000020A9000020A000002000040048AB
:108E2800274B1A68B2F5A87F00D070471B69022B40
:108E3800FBD92449244AB1F8013024480978117033
:108E48005BBA03801378012BD9B214D01378022BA4
:108E580014D000231E4A194603EB430C02EB0C0006
:108E68000133082B02F80C1041708170F4D1194BB2
:108E780001221A707047184B1970704700B572B606
:108E88001649174A174B91F800E092F800C0187875
:108E98005FFA8EFE5FFA8CFCC0B262B60C4A002103
:108EA80001EB4103013102F803E01344082983F878
:108EB80001C09870F4D1074B01221A705DF804FBC9
:108EC80020030020180300205C0000205A00002026
:108ED800B8000020500000204C0000204F00002067
:108EE8004E0000204D00002038B53D4C3D4B224639
:108EF800002104F039FD00B138BD03F0EDFD3A4D15
:108F08003A4B186000F040FA2B781BB12368B3F590
:108F1800807FF1D100F0DCF82B78002BECD1344BBA
:108F28001B78182BE8D801A252F823F0A98F000863
:108F3800998F0008998F0008998F0008018F000801
:108F4800E18F0008998F0008998F0008D98F0008D1
:108F5800D18F0008C98F0008018F0008998F000879
:108F6800B18F0008A18F0008018F0008998F0008B1
:108F7800018F0008C18F0008B98F0008018F000811
:108F8800018F0008018F0008018F0008A18F0008D9
:108F9800BDE8384000F01EBCBDE8384000F04ABDCE
:108FA800BDE8384000F004BDBDE8384000F072B8B4
:108FB800BDE8384000F098BBBDE8384000F014BD6B
:108FC800BDE8384000F052BCBDE8384000F0BEBBF8
:108FD800BDE83840FFF724BFBDE8384000F00AB8C4
:108FE80020030020180300209200002040000020E9
:108FF800A503002038B51F4B1A68B2F5A07F00D032
:1090080038BD1B69012BFBD91B4B1B78002BF7D1F3
:109018001A4D1B4C2B78237003F05EFD6A78194BB0
:10902800A2F10102B2FA82F21860520910214FF03F
:10903800904005F0CDF82378134A144940F67F4054
:1090480000FB03F3A2FB032309681148DB094B6308
:10905800237803F0FF0233B1BDE8384001224FF412
:10906800007105F0B5B8BDE838404FF4007105F05F
:10907800AFB800BF20030020040000201803002020
:10908800A80000207C0000208180808080020020D1
:10909800000400480B4B1A68B2F5D87F00D070471F
:1090A8001B69002BFBD0084B1B78002BF7D1074B13
:1090B8001A78003A4FF002014FF0904018BF012291
:1090C80005F086B8200300200400002018030020C3
:1090D8002DE9F041994D2B68B3F5C07F92B03ED091
:1090E800B3F5C17F6FD0B3F5C97F09D0B3F5807FE1
:1090F80003D12B69082B00F0AC8012B0BDE8F081D9
:109108002B69042BF9D18E4B1A78E32AF5D15A78BA
:10911800A52AF2D19A78E02AEFD1DE78FF2EECD199
:109128001D2231460AA8FFF70FFA1D220AA90020BE
:1091380000F0B0FF0024834B83481C701D22214699
:10914800FFF702FA81481D223146FFF7FDF98048F2
:1091580004F0F6FB002840F0DC802B68C6E72B699A
:10916800012BCAD9764A1478072CA04603F1FF339D
:1091780028BF4FF0070898452BD8002204214FF04C
:1091880090408DF8108005F023F8002C00F09C80AA
:109198006B4F04AE002417F8010F00F0F5FE013400
:1091A800E4B2444506F8010FF5D34FF09040012290
:1091B800042105F00DF8664804F0C2FB98BB2B6843
:1091C800B3F5C17F8FD1624804F0BAFB60B92B6850
:1091D80089E75FFA83F8002204214FF090408DF868
:1091E800108004F0F5FFD3E74FF40041594804F02C
:1091F800E9FFA0F10100B0FA80F0400940F28312C3
:1092080001230021002600278DF808000A920E93FA
:109218008DF83C1004AB02AA0AA94D48CDE90C67A9
:1092280004F018FBD3E708F101085FFA88F240F26E
:1092380081100021002600270A900E928DF83C101C
:1092480002AB04AA0AA94248CDE90C6704F002FB64
:10925800B5E73B4F404B414A79783878187001247C
:109268005970B9789970147003F036FC3C4B3D493D
:10927800FA783D4E3D4D00F51C50103008601A70CC
:109288003B4A3B79147033703A4C7B792B703A4ADD
:10929800BB7923701278FB79082A17D037496BB34A
:1092A8000022307802EB4203C0B2C85428780B443D
:1092B800C0B2587020780132C0B2082A9870F0D134
:1092C8002F4B01221A7018E7A0466EE72D4B1B782A
:1092D800022BF5D172B632782B782078D5B2DCB271
:1092E800C0B262B62549002202EB42030132CD54D6
:1092F8000B44082A5C709870F6D1E1E71A4603EB34
:10930800430408190133082B0A5542708270F6D1BC
:10931800D6E740F29113049300220023CDE90623F7
:109328000822089201AB6A4404A9094802948DF8FE
:109338002440039404F08EFA0FE700BF20030020B6
:109348001803002084030020880300206403002001
:109358003C03002000080048D00000203C0000200A
:1093680051000020380000204F0000204E0000204F
:10937800520000204D000020A5030020B800002066
:10938800500000205C00002010B59C4C2368B3F509
:10939800FE6F8AB000F0BA80B3F5FF6F1CD0B3F54A
:1093A800887F23D0B3F5C87F2AD0B3F5D07F66D0A5
:1093B80040F2A11293426AD0B3F5D17F71D040F246
:1093C800A312934275D0B3F5D27F7BD040F2A51299
:1093D80093427DD00AB010BD894804F0B1FA002844
:1093E80040F056812368B3F5887FDBD1844804F0C8
:1093F800A7FA002840F022812368B3F5C87FD4D1AA
:109408007F4804F09DFA002835D07E4B7E49DA88E3
:10941800097858798DF80810197E8DF809008DF8AB
:109428000A1002B91A89987A8DF80C20110A8DF859
:109438000B1000B9187BDA7A597B93F80EC08DF8B7
:109448000D000A434FF000010CBF0B460123082012
:109458008DF80E3040F29113CDE9061104930DEB0F
:10946800000208908DF8241065488DF80FC001ABF4
:1094780004A904F0EFF92368B3F5D07F98D12369E4
:109488002BB1624B1B78042B01D8614A13705C48DE
:1094980004F056FA002840F09B802368B3F5D17F8A
:1094A8008DD123692BB1594B1B780C2B01D8594A04
:1094B8001370534804F044FA002870D12368B3F5B8
:1094C800D27F83D123691BB1504A534B12781A704B
:1094D8004B4804F035FA00283FF47CAF4E4B00218E
:1094E8001B788DF80530032040F2A512CDE906114E
:1094F80002248DF8040004928DF8241002AB01AA0E
:1095080004A93F48089404F0A5F963E72269042AEE
:109518007FF45CAF3D4A1178B0297FF450AF5178A1
:1095280007297FF445AF91781D297FF441AFD278A0
:109538005A2A7FF43DAF394A394B12681B683948BB
:109548000024546340215C63012204F041FE354845
:1095580022464FF4007104F03BFE224602214FF0F0
:10956800904004F035FE304B1B78092B00F0A580A5
:1095780000232E4A049302E0049B01330493049BC6
:109588009342F9D9BFF34F8F29492A4BCA6802F48D
:10959800E0621343CB60BFF34F8F00BFFDE7264A5D
:1095A8001C4B12781B788DF80420002140F2A31080
:1095B8000222CDE906118DF80530049008928DF845
:1095C800241002AB01AA04A90D4804F043F975E779
:1095D8000F4B00211A788DF8042040F2A1130120C6
:1095E800CDE90611049308908DF8241002AB01AA66
:1095F80004A9034804F02EF94FE700BF2003002018
:109608003C03002088030020840300201803002066
:1096180083030020820300208103002080020020B1
:109628003402002000040048A5030020FFE10400E4
:1096380000ED00E00400FA050C0000202248234950
:10964800234A0078234B097812781B788DF8040098
:10965800003918BF0121003A18BF0122003B18BF8A
:1096680001238DF8051040F2111000218DF8062015
:109678000422CDE906118DF80730049008928DF880
:10968800241002AB6A4404A9134804F0E3F8B3E6D3
:10969800124A134B0021CDE9022340F2F970082247
:1096A800CDE90611049008928DF8241001AB6A44A4
:1096B80004A9094804F0CEF894E60A482246402155
:1096C80004F086FD54E700BFA503002092000020A7
:1096D80091000020040000203C030020000303CC7C
:1096E8000100010100040048114B1A68B2F5F07F2F
:1096F80000D070471B69022BFBD90E4B1B78002B3F
:10970800F7D110B50C4C0D4A23885BBA138003F0CF
:10971800E3F9A3780A4A0B4C40F67F4101FB03F3B7
:10972800A2FB0323084922680860DB09536310BDC4
:10973800200300200400002018030020AC000020B3
:10974800818080808002002064000020194B1A6804
:10975800B2F5B07F00D070471B69012BFBD970B5FB
:10976800154B1B7803F0FF0403B170BD134D144E65
:109778002B78337003F0B0F96A78124B012A18601D
:109788000DD0114B11481B68A2F10102B2FA82F206
:109798005C635209BDE87040402104F019BD34787B
:1097A8000B4B40F67F4101FB04F4A3FB0434E409AE
:1097B800E7E700BF20030020040000201803002072
:1097C800900000208C000020800200200004004847
:1097D80081808080F8B51E4B1A68B2F5907F00D062
:1097E800F8BD1B69042BFBD91A4B1B7803F0FF0546
:1097F800002BF5D172B6184E18483478184F20212E
:1098080004F0E0FCA4F10104B4FA84F46409A04271
:109818002246124818BF3D60202104F0D9FCD6F832
:10982800013013B93B6062B6F8BD0E4A0E4D0B48C5
:1098380000241BBA1360082122463B602C7004F0F8
:10984800C7FC06482246402104F0C2FCEBE700BFF3
:109858002003002004000020180300200004004812
:10986800B400002008000020B0000020404AF8B5ED
:109878001368B3F5B87F22D040F273118B4203D13D
:109888001369002B4DD1F8BDB3F5BC7FFBD113692B
:10989800002BF8D0374A384B12781A701B78374AA1
:1098A800374903EB8300C3EB40230968A2FB03237A
:1098B800DB094B6303F010F9324B1860F8BD1369EC
:1098C800052BE0D92B4C304A23885BBA138003F070
:1098D80003F92E4A2E4B10601B7803F0FF06002B6D
:1098E800D1D172B6A5782B482B4F202104F06AFC01
:1098F800A5F10105B5FA85F56D09A8422A464FF08C
:109908002001244818BF3E6004F062FC2379E17806
:1099180062791B0243EA0143134317D13B6062B6E5
:10992800F8BD144A1D4B12781A701B78134A1C494B
:1099380003EB8300C3EB40230968A2FB0323DB0985
:109948004B6303F0C9F8174B1860F8BD164A174D5A
:109958001360002422460F483B6008212C7004F055
:1099680037FC0C482246402104F032FCD7E700BF00
:1099780020030020180300207400002081808080CC
:109988003402002068000020AC00002060000020A5
:109998000400002000040048B40000209C000020BF
:1099A800800200207800002008000020B00000207D
:1099B80008B5094B1A68B2F5987F00D008BD1B6935
:1099C800012BFBD9054B064A1B885BBA138003F0B1
:1099D80083F8044B186008BD2003002018030020FA
:1099E800AC000020640000200D4B1A68B2F5E87F37
:1099F80000D070471B69002BFBD00A4B1B78002B4B
:109A0800F7D1094B094A1B78094940F67F4000FB0A
:109A180003F30968A2FB0323DB094B63E9E700BFF3
:109A2800200300200400002018030020818080808B
:109A38008002002070B52A4C23788BB9294B1A680C
:109A4800B2F5E07F0DD0B2F5007F09D11B69022B7A
:109A580006D9254B1B781BB9244B1B78182B28D00B
:109A680070BD1B69022BFBD91F4B1B78002BF7D14C
:109A78001E4B1B780E2BF3D11D4D2B78012BEFD1EC
:109A88001C48082104F09EFB01280646E8D1B5F8D9
:109A98000130194A5BBA138003F01EF8174B18609F
:109AA800267032460221BDE870404FF0904004F025
:109AB8008FBB0F4B1D78012DD2D1B3F801300E4A60
:109AC8005BBA138003F008F80C4B186025702A461F
:109AD8000221BDE870404FF0904004F079BB00BF10
:109AE800880000202003002004000020A503002097
:109AF8001803002000040048800000208400002093
:109B080010B50B4C237803B910BD02F0E5FF094AE4
:109B1800094B12681B88801A9BB29842F4D3002222
:109B280002214FF0904004F053FB0023237010BD36
:109B380088000020840000208000002008B50F4B1A
:109B48001B78042B00D008BD0D4803F001FA0C481F
:109B5800022103F0B1FA48B1094803F089FA09482B
:109B6800082104F02FFB084B187008BD044803F0C7
:109B78003BFB064B80B21880EEE700BFA503002030
:109B8800E800002000040048A9000020AA000020E6
:109B980008B50E4B1A784AB11A78052A06D01A78F1
:109BA800092A03D01B78082B00D008BD08480821D3
:109BB80004F008FB074BB0FA80F01A78400982429B
:109BC80008BF054A187008BF107008BDA50300201B
:109BD800000400480D00002044000020564B1A786D
:109BE80012B11B78132B49D12DE9F043002283B021
:109BF80002214FF0904004F0EBFA00230193019BFF
:109C0800B3F5207F06D2019B01330193019BB3F585
:109C1800207FF8D3494803F09BF94848022103F014
:109C28004BFA002854D0464E01233370454D434823
:109C380003F01EFA2B889BB2B3F5DF7F1FD233786F
:109C480003F0FF0423BB404F97F80080B8F1000FE2
:109C580020D03E4B3E491C600A882B889BB292B2AA
:109C6800023B9A424FDA01243C70224602214FF00F
:109C7800904003B0BDE8F04304F0AABA704701234E
:109C880000222A803370337803F0FF04002BDAD0E7
:109C98000022EBE7DFF8B490D9F80030002B3CD075
:109CA80002F01AFFD9F800302949C01A40F6B83333
:109CB8009842D1D9274B0A881B8892B205339A4219
:109CC800CADD0123424602214FF090403370D0E7AD
:109CD8001A4803F089FA40F6E973A0F110029A4293
:109CE800A1D84FF4E17202FB00F01B4B1849144E47
:109CF80000F2FF70A3FB0023C01A03EB5003C3F369
:109D0800CF230B8092E70A882B889BB292B202334A
:109D18009A420BDD00233B70A7E702F0DDFE0C49F9
:109D28000C4B0A88C9F800001A8095E73C78003C7B
:109D380018BF012499E700BFA5030020E800002010
:109D480092000020AC000020B4030020B0030020E3
:109D5800AE000020AE030020010110002DE9F843F9
:109D6800604B1B780A2B01D0BDE8F8835E4803F0EE
:109D7800EFF85D48022103F09FF9044600284AD015
:109D88005A4E012333705A4D574803F071F92B8806
:109D98009BB2B3F5967F29D8337803F0FF04002BE4
:109DA8005FD1544F97F80090B9F1000F23D1DFF835
:109DB8005081D8F80030002B5BD102F08DFE4E495F
:109DC8004E4B0A88C8F800001A800A882B889BB274
:109DD80092B2023B9A4212DA01243C7022460221D6
:109DE800BDE8F8434FF0904004F0F2B90022012397
:109DF8002A803370D0E7424B3F491C60E5E70A8868
:109E08002B889BB292B202339A424DDC3C78003CDC
:109E180018BF0124E2E7344803F0E6F940F6E97395
:109E2800A0F110029A42ABD883B2742B3FD940F606
:109E3800C67293423ED8334A05B22346171D32F9FB
:109E48002310A94202EB830603DC37F92340AC4216
:109E580032DA0133202BF2D100232749234E0B801D
:109E680091E7BDE8F843002202214FF0904004F04A
:109E7800AFB902F031FED8F800301F49C01A40F6D9
:109E8800B8339842A1D91D4B0A881B8892B2053372
:109E98009A429ADD012333704A460221BDE8F8430D
:109EA8004FF0904004F094B900233B7096E74FF4CC
:109EB800A073D2E72346D0E7B6F90250B6F90630C8
:109EC800641A5B1B401A03FB00F004EBD4735B10AD
:109ED8000028B8BF5B42034493FBF4F32B449BB2C6
:109EE800BBE700BFA5030020E80000209200002087
:109EF800AC000020AC030020AE000020A603002028
:109F0800A8030020E00501081C4B30B55A691C4D18
:109F180042F480225A615B6989B003F480234FF4CC
:109F280040601121CDE90201002401931448019AEF
:109F38000494032302A9CDE9053404F04BF8104832
:109F480001224FF4806104F043F94FF4FA6400E011
:109F580084B14FF48061284604F034F9013C0128AB
:109F6800A4B2F5D1064801224FF4006104F030F99B
:109F780009B030BD034B01221A70F3E7001002400C
:109F880000040048B50300202DE9F04100241F4ECD
:109F980082B080460725274648FA05F212F00102EA
:109FA80018BF01224FF40041304604F011F9002295
:109FB8000421304604F00CF90097009B132B05D8B8
:109FC800009B01330093009B132BF9D90122042134
:109FD800304604F0FDF84FF48071304604F0F2F892
:109FE80064000128E4B201D144F001040197019B07
:109FF800132B05D8019B01330193019B132BF9D92E
:10A00800013DC9D2204602B0BDE8F08100040048F5
:10A01800F0B51E4D87B00024012204214FF0904076
:10A02800CDE90044CDE90244049404F0D1F80122BA
:10A038002846042104F0CCF80127032304266946A6
:10A048004FF0904003930096CDE9017403F0C2FFEE
:10A0580069462846009603F0BDFF4FF4004669465E
:10A068002846009603F0B6FF4FF480720023694635
:10A078002846CDE90023029703F0ACFF0448009678
:10A088006946029403F0A6FF07B0F0BD000400483B
:10A09800000800485AB32DE9F043DFF8588085B02E
:10A0A80081460E461546322706E02D1BA144ADB267
:10A0B8001FFA89F92644B5B109F01F04C4F1200438
:10A0C800A4B2AC4228BF2C46CDE901470096022332
:10A0D8004A46A021404604F00FFB0028E5D00020A6
:10A0E80005B0BDE8F083012005B0BDE8F08301208C
:10A0F800704700BF3801002000B585B08446322380
:10A10800CDE90123009102236246A021044804F00E
:10A11800F3FBB0FA80F0400905B05DF804FB00BF1E
:10A12800380100202DE9F047DFF85C81514FDFF856
:10A138005C9188B00A254FF0FF0A002601214046AD
:10A1480004F040F80221B0FA80F44046640904F0B3
:10A1580039F808B944F002041021384604F032F8FE
:10A1680008B944F004048021384604F02BF808B9F3
:10A1780044F008044FF40051484604F023F808B9A5
:10A1880044F0100454450CD10136F6B2032E0AD01F
:10A19800022002F0A7FC6B1E13F0FF0503D0A246B5
:10A1A800CCE70126F4E7344B182C1C7004D8334B49
:10A1B8001C7008B0BDE8F0871F2C1DD02F49304B0C
:10A1C8002C4819240C70012240211A7004F000F860
:10A1D800284800224FF4007103F0FAFF25480022B6
:10A1E800402103F0F5FF002202214FF0904008B013
:10A1F800BDE8F04703F0ECBF1D2269460020FFF7D9
:10A208007BFF18B11F4B009A9A421DD01B491C4B6B
:10A21800184819240C70012240211A7003F0D8FF45
:10A22800144800224FF4007103F0D2FF11480022B5
:10A23800402103F0CDFF002202214FF0904003F0AF
:10A24800C7FF08B0BDE8F0879DF80430052BDDD1C5
:10A25800684601F065F89DF81C308342D6D19DF818
:10A268001A20013AD2B2182AD0D8044B1A7008B072
:10A27800BDE8F087000400480C000020A50300207A
:10A28800920000204354525500140048000800482A
:10A298000E4A0F48D16930B441F48001D161D269C6
:10A2A8000C4C0D4982B002F480020192019D0023FA
:10A2B8000122C0E90041C0E90232C0E90433C0E923
:10A2C8000633036202B030BC04F0C8B80010024084
:10A2D80038010020005800402A231000144B15496B
:10A2E8005A6930B542F001025A615B69124C83B079
:10A2F80003F00103019300258023019810222046D2
:10A30800C4E90253C4E90012C4E90455C4E9065576
:10A3180003F094FD2A4603210D2003F02BFD0D20A8
:10A3280003F064FD054B63625C6503B030BD00BF9C
:10A3380000100240300002408C010020D0010020B3
:10A34800134A1448916930B441F48051916192697B
:10A35800114982B002F4805201924FF48272C0E92E
:10A368000012019D4FF4007200234FF4E064202195
:10A3780082610722C0E90234C0E90433C0E9071347
:10A38800C0E90933C26202B030BC05F049BA00BF67
:10A3980000100240D0010020003001402F4BF0B5E2
:10A3A800DA692F4C42F00072DA61DB6991B003F090
:10A3B8000073009302274FF4C0510126CDE901171D
:10A3C800009801A9032209234FF09040CDE90362C8
:10A3D800059303F0FFFD234A04230025C4E9002365
:10A3E8004FF080734FF44022C4E902534FF48013B6
:10A3F800C4E904234FF00123A36120464FF480737E
:10A40800A38303F001F906A92046CDE90B55CDE950
:10A418000655CDE908550D960A950E9603F074F980
:10A42800204603F0E9F93946204603F021FB4FF4B2
:10A438000441204603F01CFB2A463146142003F051
:10A4480099FC142003F0D2FC2A463146162003F06A
:10A4580091FC162003F0CAFC11B0F0BD00100240B8
:10A468003C0300200064004030B5A1B00024202245
:10A47800002107A8FEF768F821463C2210A8CDE97C
:10A488000144CDE903440594FEF75EF80122102348
:10A49800CDE90A2302254FF4601306A80F93069509
:10A4A8000D9504F005FC0F23019329464FF48063B2
:10A4B80001A8CDE903430295059404F0E3FE602367
:10A4C80010A8CDE91744109304F08AFF21B030BDDD
:10A4D80070B500258CB0CDE90655CDE90855324C4C
:10A4E8000A95A36943F00103A361A36903F001037B
:10A4F8000093009B636943F400336361636903F469
:10A5080000330193019B636943F4802363616369AA
:10A5180003F480230293029B636943F4800363611D
:10A52800636903F480032A4603934FF400414FF014
:10A538009040039B012603F04BFE4FF4004306A90D
:10A548004FF09040CDE90636CDE9085503F042FDBD
:10A558000322002306A915480896CDE9062303F02F
:10A5680039FD06A912489023069303F033FDE369E9
:10A5780043F08053E361E36903F080530493049B41
:10A5880004F08EFB63690B4843F40023636163693D
:10A5980003F400234FF40052059306A9059B069285
:10A5A80003F018FD0CB070BD001002400014004804
:10A5B800000400480008004870B5002486B0664DC5
:10A5C8006648049422462021CDE90044CDE902449E
:10A5D80003F0FEFD2B78092B00F0B0802B78052BBB
:10A5E80000F0B2802B78192B00F09C805B48012288
:10A5F800402103F0EDFD4FF418710123CDE900135C
:10A608000022032355486946CDE9022303F0E2FC02
:10A618002B78012B14D02B78022B11D02B78032BFD
:10A628000ED02B78062B0BD02B78072B08D02B7845
:10A638000A2B05D02B780C2B02D02B78102B10D19D
:10A6480046480022082103F0C3FD08200121CDE976
:10A6580000010022032341486946CDE9022303F0A3
:10A66800B9FC00223D48022103F0B2FD02256946EB
:10A678003A48009503F0AEFC002229464FF090407E
:10A6880003F0A6FD69464FF09040009503F0A2FC48
:10A6980080230024CDE900350326052369464FF0C1
:10A6A80090400493CDE9024603F094FC4FF4807384
:10A6B8000093694606234FF09040CDE90363CDE946
:10A6C800015403F087FC0125224610214FF09040E9
:10A6D800CDE90154CDE9034403F07AFD102369461E
:10A6E8004FF09040009303F075FC4FF40413694653
:10A6F80008224FF09040CDE90023029503F06AFC50
:10A7080022462146092003F035FB092003F06EFBA1
:10A7180022463146172003F02DFB172003F066FB75
:10A7280006B070BD22460D48402103F051FD0B488C
:10A7380022464FF4007103F04BFD5CE707482246C0
:10A74800402103F045FD56E7044822464FF40071C6
:10A7580003F03EFD4FE700BFA503002000040048BA
:10A76800134B1449DA6930B542F00202DA61DB6949
:10A77800114C83B003F00203019300254FF47A7360
:10A78800019825613F222046C4E90012C4E902531A
:10A7980005F0DAFC2A4602211D2003F0EBFA1D2001
:10A7A80003F024FB204603B0BDE8304005F0E4BACE
:10A7B8000010024000040040CC02002030B5002404
:10A7C8008BB0CDE90244CDE90444CDE90644184BE9
:10A7D80008949A69174D42F400629A619B696C610A
:10A7E80003F40063014601932846134B019A2B603A
:10A7F800C5E90314C5E9014405F0D8FC60230293B8
:10A8080000220023CDE9062302A922462846CDE9E5
:10A8180003440594089405F03DFD2146284605F0BB
:10A8280079FB2A68536C43F4004353640BB030BD82
:10A838000010024080020020002C014030B50024A6
:10A848008BB0CDE90244CDE90444CDE90644144B6C
:10A858000894DA69134D42F00102DA61DB696C6031
:10A8680003F0010301934FF0804240F6FF1328469E
:10A87800C5E9024301992A602C6105F097FC002381
:10A888006022CDE9022302A92246284604940694B0
:10A8980005F000FD2146284605F03CFB0BB030BD15
:10A8A8000010024034020020F0B5002489B0CDE940
:10A8B8000244CDE90444CDE906441A4B1A4D5A69BD
:10A8C80042F080525A615B692C8303F080530193F4
:10A8D8004FF0A0432B604FF40033012607466B600E
:10A8E80028460423019AEE61C5E90443C5E90244F8
:10A8F80085F82040AE6285F830406C6302F0E2F9DA
:10A90800052302A92846CDE90363CDE9054402974A
:10A91800079402F0B7FC2146284602F069FC09B00A
:10A92800F0BD00BF00100240E8000020014B0122EA
:10A938001A70704791000020014803F0C1B800BFA9
:10A948003C030020044B4FF090416FF0A0504FF0B3
:10A95800FF3208601A60FEE70004004800000000AB
:10A9680030B5082889B014D0402801D009B030BDCE
:10A978003B4B1B780A2BF9D102F0AEF8394A136821
:10A98800C31A012BF2D9384910600B6801330B60E8
:10A99800ECE7334B1A780B2A12D01A78052A33D0F1
:10A9A8001B780A2BE2D102F097F8304A1368C31AD1
:10A9B800012BDBD92E4910600B6801330B60D5E7FA
:10A9C80002F08AF82B4A1368C31A012BCED99FEDDF
:10A9D800227B952301241060029327488DF80040BC
:10A9E80000238DED047B06948DF81C3002F0A8FF3F
:10A9F800B8B101AB6A46204802A902F02BFF1F4AF2
:10AA0800136801331360B1E702F066F81C4A136853
:10AA1800C31A012BAAD91B4910600B6801330B60BC
:10AA2800A4E721461448144D02F066FF022112489B
:10AA380002F062FF1048042102F05EFF4FF47A74BE
:10AA480003E0013CA4B2002CD3D0284602F078FFE2
:10AA58000028F6D0CDE700BF00000000000000008D
:10AA6800A5030020B803002070000020BC030020CC
:10AA780098000020C40300203C0300204800002068
:10AA8800C0030020A4000020082003F0B1BB00BFD1
:10AA9800402003F0ADBB00BF02F012B8014805F03A
:10AAA80043BA00BFCC0200202D4B02689A4200D066
:10AAB800704770B52B4B1B7803F0FF056BB92A4C18
:10AAC80023684BB1294E337813BB2948012208214A
:10AAD80003F07EFB0123337070BD234B2448002410
:10AAE800012240211C6003F073FB224B1B6803B159
:10AAF8005C63214C2378092B2CD02378052BEBD1D0
:10AB0800BDE870401A4800224FF4007103F060BBA2
:10AB180017482A46082103F05BFB357072B6236894
:10AB2800013B236062B62368002BD5D12368002B34
:10AB3800D2D1114B1A78072ACED01A78062ACBD050
:10AB48001B780A2BC8D0BDE8704009480122402173
:10AB580003F03EBB06480022402103F039FBCCE756
:10AB68000004004092000020B4000020B000002043
:10AB78000004004880020020A50300202DE9F843C6
:10AB8800244C254B25786178A2781B78EDB2CEB29B
:10AB9800D7B273B1FF23214A237000236370A370D7
:10ABA80013702378AB4226D01D4B01221A70BDE8E2
:10ABB800F883DFF8689099F8003033B101F08CFF22
:10ABC800184B1B68C01A0028EBDB4FF0000889F807
:10ABD800008001F081FF144B1B68C01A40F2DB5360
:10ABE80098420FD8FF2384F8008084F80180A3706E
:10ABF8002378AB42D8D16378B342D5D1A378BB428E
:10AC0800D2D1D4E7FF2384F80080637084F80280EF
:10AC1800C7E700BFD0000020920000203C000020C1
:10AC280050000020380000204000002038B51A48A5
:10AC380004F080FF012802D00024204638BD174ABE
:10AC4800174B184D044650781178927800EB400065
:10AC580000EB030C185A288001EB41019CF8020014
:10AC6800A870C81802EB4202595AA5F80310817857
:10AC78006971D018995AE98083782B72642200216F
:10AC880005F10900FDF760FC6D222946024804F031
:10AC980067FE204638BD00BFD0010020D00000204C
:10ACA800A4070108C803002070B582B072B6824DAF
:10ACB800824A0024022304EB440C05EB0C00072114
:10ACC800467815F80CE090F802C0F6B25FFA8EFEEE
:10ACD8005FFA8CFC46FA01F0C007936119D500BFF2
:10ACE80000BF00BF00BF00BF00BF00BF00BF00BF64
:10ACF80000BF00BF00BF00BF00BF00BF00BF00BF54
:10AD080000BF00BF00BF00BF00BF00BF00BF00BF43
:10AD180000BF00BF00BF00BF00BF00BF00BF00BF33
:10AD280000BF00BF00BF00BF00BF00BF00BF00BF23
:10AD380000BF00BF00BF00BF00BF936200BF00BFDD
:10AD480000BF00BF00BF00BF00BF00BF00BF00BF03
:10AD580000BF00BF00BF00BF00BF00BF00BF00BFF3
:10AD680000BF00BF00BF00BF00BF00BF00BF00BFE3
:10AD780000BF00BF00BF00BF00BF00BF00BF00BFD3
:10AD880000BF00BF00BF00BF00BF00BF00BF00BFC3
:10AD980000BF00BF00BF00BF00BF00BF00BF00BFB3
:10ADA800013997D207214EFA01F0C607936119D5E8
:10ADB80000BF00BF00BF00BF00BF00BF00BF00BF93
:10ADC80000BF00BF00BF00BF00BF00BF00BF00BF83
:10ADD80000BF00BF00BF00BF00BF00BF00BF00BF73
:10ADE80000BF00BF00BF00BF00BF00BF00BF00BF63
:10ADF80000BF00BF00BF00BF00BF00BF00BF00BF53
:10AE080000BF00BF00BF00BF00BF00BF936200BF0C
:10AE180000BF00BF00BF00BF00BF00BF00BF00BF32
:10AE280000BF00BF00BF00BF00BF00BF00BF00BF22
:10AE380000BF00BF00BF00BF00BF00BF00BF00BF12
:10AE480000BF00BF00BF00BF00BF00BF00BF00BF02
:10AE580000BF00BF00BF00BF00BF00BF00BF00BFF2
:10AE680000BF00BF00BF00BF00BF00BF00BF00BFE2
:10AE780000BF013997D207214CFA01F0C00793614E
:10AE88001ED500BF00BF00BF00BF00BF00BF00BF8E
:10AE980000BF00BF00BF00BF00BF00BF00BF00BFB2
:10AEA80000BF00BF00BF00BF00BF00BF00BF00BFA2
:10AEB80000BF00BF00BF03E0B80000200004004846
:10AEC80000BF00BF00BF00BF00BF00BF00BF00BF82
:10AED80000BF00BF00BF00BF00BF00BF00BF00BF72
:10AEE80000BF00BF00BF00BF936200BF00BF00BF2C
:10AEF80000BF00BF00BF00BF00BF00BF00BF00BF52
:10AF080000BF00BF00BF00BF00BF00BF00BF00BF41
:10AF180000BF00BF00BF00BF00BF00BF00BF00BF31
:10AF280000BF00BF00BF00BF00BF00BF00BF00BF21
:10AF380000BF00BF00BF00BF00BF00BF00BF00BF11
:10AF480000BF00BF00BF00BF00BF00BF00BF013986
:10AF580092D20134082C7FF4AEAE62B6002301937E
:10AF6800019BB3F57A6F06D2019B01330193019BD4
:10AF7800B3F57A6FF8D302B070BD00BF014802F094
:10AF8800DFBF00BF8C01002070B582B032260446B6
:10AF98000D460B46024600960948782103F0D4FA7C
:10AFA80058B1074803F0B6FAFFF772F9044800965B
:10AFB80078212B46224603F0C7FA02B070BD00BFC5
:10AFC80038010020094B1A7802B9704700B583B0E0
:10AFD80003460022022101A88DF804208DF80530CF
:10AFE800FFF7D2FF03B05DF804FB00BF0E0000209E
:10AFF8000D4B1B7803B101B9704710B58029A2B079
:10B0080028BF802140230A460C4601460DF1050061
:10B018008DF80430FDF7EAFA611C89B201A8FFF740
:10B02800B3FF22B010BD00BF0E0000200E4B1B78EE
:10B0380003B9704700B583B001F00F030A0950380F
:10B0480004214FF0000C10328DF805000DEB0100C3
:10B058008DF804C08DF806308DF80720FFF794FFAF
:10B0680003B05DF804FB00BF0E0000200F4B10B5C5
:10B078005A6942F400325A615B6988B04FF4C06083
:10B08800122103F40033CDE902010193012202A940
:10B098004FF0904004240323CDE904230694019B38
:10B0A80002F098FFFFF7F4F808B010BD0010024056
:10B0B80030B583B0FFF7DAFF322001F013FD052326
:10B0C8009548964C0222782103F01AFD051E0CBF04
:10B0D80001230023237001D003B030BD4FF42E4369
:10B0E800022101A8ADF80430FFF74EFF2378002BAA
:10B0F800F2D04FF45543022101A8ADF80430FFF710
:10B1080043FF2378002BE7D04FF40043022101A826
:10B11800ADF80430FFF738FF2378002BDCD04FF46C
:10B128002843022101A8ADF80430FFF72DFF23784A
:10B13800002BD1D04FF47C53022101A8ADF8043084
:10B14800FFF722FF2378002BC6D04FF45343022188
:10B1580001A8ADF80430FFF717FF2378002BBBD008
:10B16800022101A8ADF80450FFF70EFF2378002B49
:10B17800B2D04FF48043022101A8ADF80430FFF7A4
:10B1880003FF2378002BA7D04FF40D43022101A819
:10B19800ADF80430FFF7F8FE2378002B9CD04FF46D
:10B1A800A053022101A8ADF80430FFF7EDFE237883
:10B1B800002B91D04FF40053022101A8ADF80430C0
:10B1C800FFF7E2FE2378002B86D04FF400730221AC
:10B1D80001A8ADF80430FFF7D7FE2378002B3FF421
:10B1E8007BAF4FF42143022101A8ADF80430FFF7EB
:10B1F800CBFE2378002B3FF46FAF4FF44843022176
:10B2080001A8ADF80430FFF7BFFE2378002B3FF408
:10B2180063AF4FF45A43022101A8ADF80430FFF799
:10B22800B3FE2378002B3FF457AF4FF4905302211D
:10B2380001A8ADF80430FFF7A7FE2378002B3FF4F0
:10B248004BAF4FF40143022101A8ADF80430FFF7DA
:10B258009BFE2378002B3FF43FAF4FF44F4302216E
:10B2680001A8ADF80430FFF78FFE2378002B3FF4D8
:10B2780033AF4FF45943022101A8ADF80430FFF76A
:10B2880083FE2378002B3FF427AF4FF4714302214C
:10B2980001A8ADF80430FFF777FE2378002B3FF4C0
:10B2A8001BAF4FF45B43022101A8ADF80430FFF750
:10B2B8006BFE2378002B3FF40FAF4FF4804302213D
:10B2C80001A8ADF80430FFF75FFE2378002B3FF4A8
:10B2D80003AF4FF42443022101A8ADF80430FFF76F
:10B2E80053FE2378002B3FF4F7AE4FF42643022198
:10B2F80001A8ADF80430FFF747FE2378002B3FF490
:10B30800EBAE4FF42F43022101A8ADF80430FFF74C
:10B318003BFE03B030BD00BF380100200E00002006
:10B32800411E00F11B0C002011F8012F082350408A
:10B3380042B2002AB8BF52004FEA4000B8BF82F0BC
:10B34800070203F1FF33ACBFC0B2D0B213F0FF0362
:10B35800EED18C45E8D170472DE9F041002488B042
:10B36800404D1D22694620462C70FEF7C5FE18B1D7
:10B378003D4B009A9A4202D008B0BDE8F0819DF892
:10B388000430052BF8D10DF1FF300DF11B0C2246CE
:10B3980010F8011F08234A4051B20029B8BF4900DC
:10B3A8004FEA4202B8BF81F0070103F1FF33ACBF97
:10B3B800D2B2CAB213F0FF03EED18445E8D19DF8AA
:10B3C8001C109142D8D16C469C4601232B70A6468E
:10B3D8000FCC264F264E38607960BA6007CCFB60E8
:10B3E800237838617961BA613B773377BEE80F001B
:10B3F80030607160B260BEE80700DFF88C80F360EF
:10B4080030617161B2619DF810209DF8113088F8A3
:10B418000020184D88F801309DF813009DF812306F
:10B428009DF814109DF8152088F802300CEB4C0399
:10B438000CF1010CE8542B44BCF1080F59709A70B8
:10B44800F4D10D480D4A9DF8174004700C490D4B76
:10B458009DF8194014709DF81A009DF81B2008707B
:10B468001A7089E78403002043545255880300204A
:10B4780064030020B800002053000020830300204C
:10B488008203002081030020D0000020F0B589B09D
:10B498001D2200216846FDF757F872B6734C7449AF
:10B4A80022782378009105208DF804008DF8052076
:10B4B800002B40F09E806F4B1B889BB22278ADF822
:10B4C80006300A2A04BF6B4B1B8822780CBF9BB23C
:10B4D8000023052AADF8083004BF674B1B78227893
:10B4E8000CBFDBB20023052A8DF80A3000F0B280C9
:10B4F800002322788DF80B30092A04BF5F4B1B7894
:10B5080022780CBFDBB20023092A8DF80C3000F03A
:10B518009780002322788DF80D300A2A04BF584BF3
:10B528001B7822780CBFDBB200230A2A8DF80E3074
:10B5380008BF544B544A08BF1978544B14785078B4
:10B548008DF811000CBFC9B200218DF80F10917849
:10B558001A788DF8121058788DF8132099781A787F
:10B568008DF810408DF814008DF8151012B95A781E
:10B57800002A40D00123464A8DF8163012788DF8FB
:10B58800172044484449454A454B007809781278C1
:10B598001B788DF818008DF819108DF81A208DF881
:10B5A8001B3062B600210DF1FF320DF11B0012F8BD
:10B5B800013F082459404BB2002BBCBF5B0083F00D
:10B5C80007034FEA4101B8BFD9B204F1FF33A8BF5E
:10B5D800C9B213F0FF04EED18242E8D1314D8DF8A3
:10B5E8001C101C2229466846FDF79AF840B909B094
:10B5F800F0BD002362E79B78003B18BF0123BAE740
:10B60800294F01F069FA3B6840F6B732C31A9342F2
:10B618000646ECD920461D226946FEF73BFD002868
:10B62800E5D06C460FCC28606960AA6007CCEB6057
:10B6380023783E6028616961AA612B7709B0F0BD63
:10B648001A48402102F0BEFDA0F10103B3FA83F3CA
:10B658005B095FE710214FF0904002F0B3FDA0F1C5
:10B668000103B3FA83F35B0943E700BFA503002096
:10B6780043545255AC000020A80000209000002040
:10B688009C00002074000020D0000020B80000209A
:10B698005300002092000020830300208203002032
:10B6A8008103002064030020900400200004004867
:10B6B800F0B5152A1C4F85B0054628BF152200266F
:10B6C800A7FB0103DB0806F1100003EB830CA1EBD9
:10B6D8004C0C0DEB000E084634460CF1300C0136CC
:10B6E80009280EF80CCCF6B21946E9D8B24211D89E
:10B6F80000206EB101AA01341444034614F801CDA8
:10B7080005F803C0591CA242CBB2F7D13044C0B2ED
:10B7180005B0F0BD921B02F0FF073A4620212846EB
:10B72800FCF712FF3846E4E7CDCCCCCC70B5144614
:10B73800A0B0FFF77BFC2178684681B34FF0000C7E
:10B748001C4E8646654613E03F2B2CD9CEF8005098
:10B758008EF8045014F8011F8EF805500CF1010CF6
:10B768000EF1060E5FFA8CFCA9B1BCF1150F1CD0C6
:10B77800A1F16102A1F12003192ADBB2E4D8203B30
:10B7880003EB83039BB29919F2580B798EF80430B6
:10B79800CEF80020DEE70CEB4C0C4FEA4C01FFF72B
:10B7A80027FC20B070BD0B46E9E77E21FFF720FC9F
:10B7B80020B070BD6406010808B50021FFF736FC0B
:10B7C800BDE8084001488021FFF712BC800E01083F
:10B7D800F0B5642B28BF6423802A144628BF802430
:10B7E8000D06A1B002D40D19802D2CDC1D4D14FBC3
:10B7F80003F3A5FB0335C5F347157AB36E46B44684
:10B808000023671E0CE0BB420DD001335FFA83FEB4
:10B81800AA4294BF5E224222A6450CF8012B0AD206
:10B82800DAB2002BEFD101335FFA83FE7E22A64500
:10B838000CF8012BF4D3FFF7F9FB21463046FFF74C
:10B84800D7FB21B0F0BDC1F18004064AE4B214FB75
:10B8580003F3A2FB0325C5F34715CFE714466E464D
:10B86800E9E700BF1F85EB51F0B5154F154E3B7842
:10B878000C2828BF002003EB800306EB4313840049
:10B888000FCB85B06D4685E80F006C210520FFF7CA
:10B89800CDFB28461021FFF7ABFB3B78E01806EB01
:10B8A800401310330FCB85E80F006C210620FFF7FB
:10B8B800BDFB10212846FFF79BFB05B0F0BD00BF7C
:10B8C80035000020801B0108F0B589B001F004F9AB
:10B8D800A14B1B68C01AC72825D8A04B93E80300C2
:10B8E8006C4684E8030000210846FFF79FFB2046CA
:10B8F8009B4C0821FFF77CFB2378102B00F2DC819E
:10B90800DFE813F015026A006A002402EF01F7016C
:10B9180016001600DC01E701FF012C020D02DA0116
:10B92800DA01DA0116006C46002300936360DAE757
:10B938008C4B8D4A19688D4B002908BF1A460A217D
:10B948000020FFF7F3FE2478E4B20B2C0DD8DFE8D3
:10B9580014F088010C000C000C005C0131010C0093
:10B968000C00D600A20076004B0000268049532424
:10B978003346721C20336B44D6B203F8184C8C5DE6
:10B988003346002CF5D1774B7A491A687A4F8A42A8
:10B9980002AD98BF1968A8190522FFF789FE30443F
:10B9A8002022C0B2811800230DEB0106611C33442C
:10B9B800CCB203F8182C3A5D2346002AF6D120446D
:10B9C80008AB53FA80F000F8182C2A460021012011
:10B9D800FFF7ACFE09B0F0BD624B684A1968634BCB
:10B9E800002908BF1A46AAE70026654948243346B5
:10B9F800721C20336B44D6B203F8184C8C5D334666
:10BA0800002CF5D15F4B5B491A685F4F8A4202AD43
:10BA180098BF1968A8190522FFF74AFE304420226A
:10BA2800C0B2811800230DEB0106611C3344CCB26F
:10BA380003F8182C3A5D2346002AF6D1BFE7002602
:10BA4800524948243346721C20336B44D6B203F85B
:10BA5800184C8C5D3346002CF5D14D4B4D4F198851
:10BA680002AD0322A81989B2FFF722FE3044202331
:10BA7800C0B2C2180DEB0206621C3119D4B201F82B
:10BA8800183C3B5D002BF7D1204408AA52FA80F0FD
:10BA980000F8183C99E700263F494C243346721CAD
:10BAA80020336B44D6B203F8184C8C5D3346002C17
:10BAB800F5D13A4B3A4A1B783A4F03EB830303EB31
:10BAC80083018900A2FB012102AD0322A819C9093B
:10BAD800FFF7EEFD30442023C0B2C2180DEB02067A
:10BAE800621C3119D4B201F8183C3B5D002BF7D128
:10BAF800204408AA52FA80F000F8183C65E70026AE
:10BB0800294953243346721C20336B44D6B203F8B8
:10BB1800184C8C5D3346002CF5D1244B244F1988E2
:10BB280002AD0422A81989B2FFF7C2FD3044C0B2A1
:10BB38002023C2180DEB0206621C3119D4B201F899
:10BB4800183C3B5D002BF7D1204408AA52FA80F03C
:10BB580000F8183C39E700BF40000020C80301087E
:10BB6800A5030020B4000020940B0108A40A0108D2
:10BB78002C0C01089F860100340C0108C40A010836
:10BB8800180C010848000020200C0108E00B0108EF
:10BB9800AE000020EC0B0108CC0B0108900000203F
:10BBA80081808080D80B01080C0C01085A00002005
:10BBB800040C01080026704952243346721C2033B5
:10BBC8006B44D6B203F8184C8C5D3346002CF5D183
:10BBD8006A4B6B4F196802AD0522A819FFF768FD7B
:10BBE80030442023C0B2C2180DEB0206621C311982
:10BBF800D4B201F8183C3B5D002BF7D1204408AAC9
:10BC080052FA80F000F8183CDFE600265D49562419
:10BC18003346721C20336B44D6B203F8184C8C5D43
:10BC28003346002CF5D1584B584F198802AD0422E1
:10BC3800A81989B2FFF73CFD30442023C0B2C218CE
:10BC48000DEB0206621C3119D4B201F8183C3B5DB9
:10BC5800002BF7D1204408AA52FA80F000F8183CCB
:10BC6800B3E64B4A54260023013420336B44E4B234
:10BC780003F8186C165D2346002EF5D1454B464F48
:10BC8800198802AD0322281989B2FFF711FD204453
:10BC98002023C0B2C2180DEB0204721CA119D6B23F
:10BCA80001F8183CBB5D002BF7D1304408AA52FAC2
:10BCB80080F000F8183C88E6384A40E6384B1A7895
:10BCC800022A57D01978374A344B012918BF1A4627
:10BCD80035E6354B354A1978304B002908BF1A46E6
:10BCE8002DE6334B334A1978334B002918BF1A46CF
:10BCF80025E6324B324A1978324B002918BF1A46CA
:10BD08001DE6314A13889BB2002B29D0214B198894
:10BD180013888AB29BB29A4222D22C4A0FE62C4B45
:10BD28002C4A19682C4B002908BF1A4607E62649F1
:10BD38000B889BB2E3B1174B244A18880B88264D11
:10BD480081B29BB2994228BF2A46F8E5204B234A84
:10BD58001968214B002908BF1A46F0E5204AEEE58C
:10BD68001B4B204A19681C4B002908BF1A46E6E5F8
:10BD7800194AE4E51C4AE2E5B80B0108A0000020D6
:10BD8800C00B0108F80B0108AA000020040C0108E8
:10BD9800A40B0108AE000020AC0B0108240B01081D
:10BDA8005C000020B40A010890000020840B010800
:10BDB800A9000020E40A0108640B0108A80000207B
:10BDC800F40A0108540B0108AC000020340B0108E8
:10BDD800B4000020040B0108A40A0108D40A0108D1
:10BDE800440B0108740B0108140B010870B5234DAE
:10BDF800A0B006460024E0B20021FFF717F901348D
:10BE080080212846FFF7F4F8082CF4D180221C4939
:10BE18001C4D6846FCF7EAFB00210846FFF706F9C7
:10BE280080216846FFF7E4F8802217496846FCF746
:10BE3800DDFB00210120FFF7F9F880216846FFF7B4
:10BE4800D7F8042E28BF002606EB8606022405EB49
:10BE5800C615802229466846FCF7C8FB2046002103
:10BE68000134FFF7E3F8E4B280216846FFF7C0F831
:10BE7800072C05F18005ECD120B070BD800E0108BB
:10BE8800D0030108000F01085004010808B5144A3E
:10BE9800144B002111701B78134ADBB2137013780E
:10BEA800012B11D013780F2B4FF0AE0008D0FFF7FD
:10BEB80089F88120FFF786F8CF20FFF783F8AF20B5
:10BEC800BDE80840FFF77EB8AF20FFF77BF8812078
:10BED800FFF778F8BDE808400F20FFF773B800BFF8
:10BEE8005200002051000020530000202DE9F041AD
:10BEF800A44D2B78192BA0B040D0FFF7E5FCA24B3E
:10BF08001B7803F0FF04002B40F0A4822B78102B41
:10BF180017D8DFE813F01100B8023B0335032F03ED
:10BF2800E202DC02D602B202C402BE02AC02D002B5
:10BF3800160016001600CA02944A10210220FFF7C4
:10BF4800F5FB934A00210320FFF7F0FB2E78F6B2A9
:10BF5800102E00F2A680DFE816F0A8006400640046
:10BF680064001F03B3036400640041026E034301CD
:10BF780016026400A400A400A40064006D46802298
:10BF88008449854E2846FCF731FB00210846FFF717
:10BF98004DF880212846FFF72BF880227F49284654
:10BFA800FCF724FB00210120FFF740F880212846F8
:10BFB800FFF71EF80224204600210134FFF736F867
:10BFC800E4B280213046FFF713F8082CF3D1DFF8EC
:10BFD8000882734F02240CE0FCF708FB002130466E
:10BFE800FFF724F8013480212846FFF701F8072CD1
:10BFF8000FD098F8003013F0010FE6B24FF080022E
:10C0080007EBC4112846E7D080220021FCF79CFAF0
:10C01800E4E7644A0421204620B0BDE8F041FFF778
:10C0280085BB72B6604A614B1768D3F8008062B668
:10C03800002F00F09A835E495E4BB94228BF39460B
:10C0480053260022013480326A44E4B202F8806C3C
:10C058001E5D2246002EF5D105220DEB0400FFF7E8
:10C0680027FB20AA031952FA83F3052103F8806CF1
:10C078006A460846FFF75AFBB8F1000F09D064205A
:10C088003346A7FB00014246FCF7BEF8C0F1640640
:10C09800F6B23346552205210720FFF799FB287889
:10C0A8006BE0454A0A210520B6E7444A13889BB24B
:10C0B800B3F57A7F38BFB2F80080414A34BF1FFA1F
:10C0C80088F840F2E73854240023013680336B4463
:10C0D800F6B203F8804C945D3346002CF5D1394F05
:10C0E80039886D4689B20322A819FFF7E1FA831946
:10C0F800DBB25E1C80336B44F6B22F2203F8802C2F
:10C108004146A8190322FFF7D3FA0644F1B201F118
:10C118008003DFF8C8C020260DEB0300631C02195A
:10C12800DCB202F8806C1CF80460002EF6D12144C1
:10C1380020AB53FA81F3052108462A4603F8806CA0
:10C14800FFF7F4FA204B214A1978214B06200029E1
:10C1580018BF1A460521FFF7E9FA3B881D496420F4
:10C168009BB200FB03F3A1FB031307205522C3F383
:10C1780007230521FFF72CFB304620B0BDE8F0412E
:10C18800FFF772BBA503002092000020D80C01081D
:10C19800B80D0108D0040108800E010850050108F7
:10C1A800001801089C0C0108B400002008000020B9
:10C1B8009F860100D40D0108700E0108AC00002014
:10C1C800A40B0108AE00002044000020500C010818
:10C1D800400C0108C5B3A29135000020D00D01081C
:10C1E800C14A13889BB2B3F57A7F38BF1788BF4A14
:10C1F80034BFBFB240F2E7374E2600230134803304
:10C208006B44E4B203F8806C165D2346002EF5D12A
:10C21800B74B19886D4689B203222819FFF748FAE7
:10C228000444E4B204F180036B440134E4B22F22E5
:10C23800394603F8802C28190322FFF739FA0444F9
:10C24800E4B204F1800320A901346B4451FA84F468
:10C258004322052103F8802C08462A4604F8806CFE
:10C26800FFF764FAA34A4C2706F1800301366B44B2
:10C27800F6B203F8807C975D002FF5D19E4B9F4A5C
:10C288001B78DFF8EC8203EB830303EB830189005F
:10C29800A2FB0121C9090322A819FFF709FA0644DC
:10C2A800F6B206F180036B44252203F8802C013690
:10C2B800934BF6B219680422A819FFF7F9F9064456
:10C2C800F6B206F1800352240DEB03027B1C1744DF
:10C2D80007F8804CDFB218F80740002CF6D120ABE5
:10C2E8003E4453FA86F62A4606F8804C0521062075
:10C2F800FFF71CFA834A482604F18001631C0DEB02
:10C30800010404F8806CDCB2165D002EF4D17E4B7B
:10C318001B7803EB830303EB8301784B8900A3FBB2
:10C328000131C90903222819FFF7C2F90444E4B20C
:10C33800764A04F180036B4401341168E4B2252283
:10C3480003F8802C28190422FFF7B2F90444E4B258
:10C3580004F1800252230DEB0201721C0E4406F810
:10C36800803CD6B218F80630002BF6D120AA344407
:10C3780052FA84F407202A46052104F8803CFFF786
:10C38800D5F90A20F9E60521614A0846FFF7CEF9F2
:10C39800604949220023013480336B44E4B203F836
:10C3A800802C0A5D2346002AF5D15B4B5B491A684D
:10C3B8006D468A4298BF196805222819FFF778F94F
:10C3C80020AA031952FA83F3002607202A460521DA
:10C3D80003F8806CFFF7AAF90B20CEE6504B1A78C9
:10C3E800012A00F0C08119784E4A4F4B022908BF34
:10C3F8001A4605210846FFF799F94C4B4C4A18781C
:10C408004C4B0521002818BF1A460620FFF78EF965
:10C41800494A50250023013480336B44E4B203F8C1
:10C42800805C155D2346002DF5D1444B1988042204
:10C4380089B20DEB0400FFF73BF920AA031952FA61
:10C4480083F3072005216A4603F8805CFFF76EF93D
:10C45800082092E63A4A0A210220FFF767F9394A8A
:10C468000A21032020B0BDE8F041FFF75FB9364A42
:10C4780010210220FFF75AF963E5344A10210220FF
:10C48800FFF754F95DE5324A10210220FFF74EF913
:10C4980057E5304A10210220FFF748F951E52E4AA6
:10C4A80010210220FFF742F94BE52C4A1021022007
:10C4B800FFF73CF945E52A4A10210220FFF736F933
:10C4C8003FE5284A10210220FFF730F939E5264ACE
:10C4D80010210220FFF72AF933E5244A102102200F
:10C4E800FFF724F92DE500BFAC0000202C0E010851
:10C4F800AE000020340E01089C000020818080805E
:10C5080094000020400E0108740000206C000020F8
:10C51800540E0108640E0108480000209F8601009F
:10C528005C0000206C0C01088C0C01084400002001
:10C53800500C0108400C0108480E01085A00002060
:10C54800B00C0108C40C0108A80D0108780D0108F9
:10C55800E80C0108980D0108880D0108580D01081C
:10C56800680D0108480D0108380D0108280D01085B
:10C578003C0E0108834A10210220FFF7D7F8E0E4B7
:10C58800814A10210220FFF7D1F8DAE47F4A10210E
:10C598000220FFF7CBF8D4E47D4B56260022013465
:10C5A80080326A44E4B202F8806C1E5D2246002E96
:10C5B800F5D1784B19886D46032289B22819FFF7FF
:10C5C80077F820AA031952FA83F3052103F8806C3F
:10C5D80008462A46FFF7AAF86F494F2306F180025A
:10C5E80001366A44F6B202F8803C8B5D002BF5D127
:10C5F8006A4A6B491278002A6A4A06F180000ABF23
:10C6080011464F2446241A46684401330244DBB2DB
:10C6180002F8804CCC5C1A46002CF6D120AA334490
:10C6280052FA83F307202A46052103F8804CFFF7C6
:10C638007DF80420A1E55C4A5025002301348033AD
:10C648006B44E4B203F8805C155D2346002DF5D1F8
:10C65800564E032231780DEB0400FFF729F8031931
:10C66800DBB203F180020DEB0200013320AA52FA7B
:10C6780083F30521252400F8804C6A46084603F810
:10C68800805CFFF753F84A4B4A4A18784A4B052111
:10C69800002818BF1A460620FFF748F8337847489D
:10C6A80003EB830303EB83039B00A0FB03035522E7
:10C6B80007200521C3F3C713FFF78AF809205CE5B3
:10C6C8003F4A52260023013480336B44E4B203F816
:10C6D800806C165D2346002EF5D13A4B6D461968DD
:10C6E80005222819FEF7E4FF20AA031952FA83F35A
:10C6F800052108462A4603F8806CFFF717F82C4BEB
:10C708002C4A19782C4B0620002918BF1A460521F7
:10C71800FFF70CF82C4953243346721C80336B44C2
:10C72800D6B203F8804C8C5D3346002CF5D1274BEC
:10C7380003221978A819FEF7BBFF8319DBB203F1AE
:10C7480080020DEB0201013320AA52FA83F3252758
:10C7580001F8807C07202A46052103F8804CFEF763
:10C76800E5FF052009E51A4A43E605210846194A66
:10C77800FEF7DCFF6423552205210720FFF728F880
:10C788008DE400BF180D0108080D0108F80C010818
:10C79800F00D0108AA000020000E0108A9000020E1
:10C7A800680C0108600C0108200E010890000020A8
:10C7B80044000020500C0108400C01088180808052
:10C7C800080E0108A0000020140E0108A80000208F
:10C7D8007C0C0108E00D01080B4B1B78052B11D1CF
:10C7E80072B60A4A00211368116062B6084A4FF40B
:10C7F800C87101FB03F31360116842F20F73994289
:10C8080088BF1360704700BFA5030020A400002064
:10C81800A00000200A4B1B780A2B10D172B6094AD7
:10C8280000211368116062B6074AC82101FB03F3AF
:10C838001360116842F20F73994288BF1360704702
:10C84800A503002098000020940000200E4B1B78C0
:10C85800092B04D110B50D4C23780BB910BD7047C6
:10C8680000F03AF90A4B1B68C01AFA28F6D9094BA6
:10C8780009481B680022227040215A6301F0A8FC75
:10C88800064B01221A7010BDA5030020900000205D
:10C898008C00002080020020000400489200002044
:10C8A8000F4B1B78052B04D110B50E4C23780BB910
:10C8B80010BD704700F010F90B4B1B68C01AFA281E
:10C8C800F6D90A4B0A481B68002222704FF40071FF
:10C8D8005A6301F07DFC074B01221A7010BD00BF9E
:10C8E800A5030020A80000207C0000208002002072
:10C8F80000040048920000200C4B1A781AB11B78EB
:10C90800132B00D0704710B5094C23889BB203B98C
:10C9180010BD00F0E1F8074B1B68C01AFA28F7D9D8
:10C92800054B0021012221801A7010BDA5030020AB
:10C93800AC00002064000020920000200B4B1B7804
:10C948000A2B05D110B50A4C23889BB20BB910BD30
:10C95800704700F0C1F8074B1B68C01AFA28F6D9CF
:10C96800054B0021012221801A7010BDA50300206B
:10C97800AC00002060000020920000200D4B1B78C6
:10C988000A2B04D110B50C4C23780BB910BD704795
:10C9980000F0A2F8094B1B68C01AB0F57A7FF5D9E8
:10C9A800074B084A1868012100232370436311705C
:10C9B80010BD00BFA50300209C00002078000020C7
:10C9C80080020020920000200A4B1B780A2B10D10D
:10C9D80072B6094A00211368116062B6074AC82175
:10C9E80001FB03F31360116842F20F73994288BF89
:10C9F80013607047A5030020700000206C00002021
:10CA080008B50E4B1B780A2B12D10D4B1B780A2B3D
:10CA18000FD90C4B1B6863B900F05EF80A4A12681C
:10CA280040F6B833801A984202D9084B01221A708E
:10CA380008BD00F051F8044B186008BDA50300209C
:10CA4800740000206C000020940400209200002054
:10CA5800704700BF38B50E4A0E4B12780546186865
:10CA68004FF47A73B3FBF2F3B0FBF3F001F0CCF9B7
:10CA780008B90F2D01D9012038BD044602462946C0
:10CA88004FF0FF3001F076F9034B20461D6038BDAA
:10CA98000F0000200000002010000020074A08B501
:10CAA800136843F010031360032001F051F90F20BD
:10CAB800FFF7D0FFFFF7CCFF002008BD00200240A1
:10CAC800034A044B11681B780B441360704700BF7E
:10CAD800980400200F000020014B1868704700BF21
:10CAE8009804002038B50446FFF7F6FF631C054696
:10CAF80002D0044B1B781C44FFF7EEFF401BA042FA
:10CB0800FAD338BD0F000020704700BF026838B55F
:10CB1800936803F00303012B01D0002038BD13688C
:10CB2800DC07FAD5936803F00D03012B044609D0FE
:10CB3800236C43F010032364636C43F001036364C4
:10CB4800012038BD9368032143F00203936011600C
:10CB5800FFF7C2FF23689B68D9070546DDD5FFF7B5
:10CB6800BBFF401B0228236802D99A68D207DFD48A
:10CB78009B68DB07F3D4D0E703689A6812F00C0FC0
:10CB880001D100207047DA6870B59501044604D5D4
:10CB9800008B40F20112904234D060299A6844D048
:10CBA800500706D59A68920703D49A6842F0100293
:10CBB8009A600C2935D09A68100706D59A689207AA
:10CBC80003D49A6842F020029A606C2929D10C2576
:10CBD800FFF782FF236806469B681D4223D0FFF7B4
:10CBE8007BFF831B0B2B2368F6D99A682A42F3D064
:10CBF800236C43F010032364636C43F00103636404
:10CC0800012070BD1A68500606D4124A01E0013AA4
:10CC1800EED019684906FAD540221A609A68560774
:10CC28000FD40425D4E7002070BD160701D40825C9
:10CC3800CEE79A689507FAD49A6842F020029A607B
:10CC4800F5E79A689507ECD49A6842F010029A6062
:10CC5800E7E700BF00940900026838B5936803F05D
:10CC68000303012B044626D09168154B194209D0BD
:10CC7800236C43F010032364636C43F00103636483
:10CC8800012038BD936843F001039360FFF724FF48
:10CC9800236805461B68D9070BD4FFF71DFF431B04
:10CCA800022B2368F6D91A68D207E1D51B68D90781
:10CCB800F3D5002038BD1368D807D5D50020F9E78B
:10CCC8003F00008030B597B000230193D0B1036CCA
:10CCD80013F01003044618D1056C002D00F099805C
:10CCE80002689168CD0040F18280916888007ED406
:10CCF800216CC90600D463B1236C23F0120343F0FE
:10CD080010032364012017B030BD036CDA06F3D496
:10CD1800026893685B07EFD4236C23F4817343F0B4
:10CD28000203B2F1A04F2364814B00F0DE809A42E7
:10CD380000F0E28003F540739A4277D07D498A4239
:10CD480000F0EC80936803F00303012B00F0E88007
:10CD580079488368616823F440330B438360D4E9DE
:10CD680002130B43616B607E013918BF012143EA4E
:10CD7800403343EA013394F82010012900F09980E8
:10CD8800A16A01290CD06D48824200F0A28000F50A
:10CD98008070824200F09D80E06A184340EA0103F7
:10CDA800916811F00C0F0CD1D16821F4804121F069
:10CDB8000201D16094F83010207E490041EA8031A8
:10CDC8000B43D0685E490140206919430128D160AE
:10CDD80077D0136B23F00F03136300206064236C78
:10CDE80023F0030343F00103236417B030BD236C21
:10CDF80023F0120343F010032364636C43F0010330
:10CE08006364236C236C23F0120343F01003236440
:10CE180078E7C0E91255456480F83C50FFF774FE86
:10CE280022689368DB0012D52B465AE7414B4248EB
:10CE38009168029301F00301012958D0996801F023
:10CE48000301012985D11B68DD0788D481E72046C5
:10CE5800FFF75CFE226C12F0100F034622687FF485
:10CE680040AF00287FF43DAF216C364D21F4885146
:10CE780021F0020141F0020121649068296820F044
:10CE880040509060906840F0805090602E48A0FB21
:10CE98000101890C01EB81014900019101990029E7
:10CEA8003FF41FAF01990139019101990029F9D186
:10CEB80017E728BB616A013943EA414141F48033ED
:10CEC8005EE7116BE36921F00F01013B0B4313632C
:10CED80083E7B1F5307F1ED0B1F5807F25D0B1F55D
:10CEE800E07F08BF4FF4807156E71848A0E7116843
:10CEF800C9073FF534AFA1E714484FF0A04397E7BF
:10CF0800216C21F0220141F020012164616C41F083
:10CF18000101616434E74FF4E0713DE7064887E7B3
:10CF28001368DB073FF51BAF12E74FF4307133E7A7
:10CF38000001005000050050000700500004005098
:10CF480007C0F0FF0000002083DE1B4300030050F1
:10CF580038B503689D6815F004052BD190F83C306E
:10CF6800012B044626D0012380F83C30FFF774FEDD
:10CF7800E8B9226C236822F4706222F0010242F4BC
:10CF88008072B3F1A04F226416D0354A93425DD027
:10CF9800344A9268D10611D033498B420ED0226CA4
:10CFA80042F480122264CA68920114D50DE084F814
:10CFB8003C5038BD022038BD2C4A9268226C22F4BD
:10CFC80080122264DA68950105D5226C22F4405259
:10CFD80042F480522264226C12F480521CBF626CAC
:10CFE80022F00602626400211C22B3F1A04F84F8EB
:10CFF8003C101A6018D01A4A934215D0194A916801
:10D00800C9060CD0916801F01F01052907D0926864
:10D0180002F01F02092A02D0134A9342C9D19A6822
:10D0280042F004029A6038BD104A9168CC06F6D0E6
:10D03800916801F01F010529F1D0926802F01F02E2
:10D04800092AECD0B3F1A04FE9D038BD02F500723F
:10D058009268D506B2D0226C4FF0A041A0E700BF7D
:10D068000001005000070050000400500003005069
:10D0780090F83C30012B1DD0012310B56C2180F8AD
:10D088003C300446FFF778FD18B1002384F83C30A3
:10D0980010BD2046FFF73AFD0028F6D1236C23F493
:10D0A800885323F0010343F001032364002384F829
:10D0B8003C3010BD022070472DE9F04144690368F7
:10D0C800082C05460E460FD0B3F1A04F5CD042485D
:10D0D800424A4349834218BF0A469168CC063AD16E
:10D0E800DA68D0073BD40C24B3F1A04F49D03A4AB0
:10D0F800934250D03A4A9268D20647D1DF68FFF788
:10D10800EBFC2A6880461368234204D1731C16D1AD
:10D1180013682342FCD02B6C43F400732B64D36850
:10D1280007F4005103F440630B4302D11368180756
:10D1380039D47B0400D414600020BDE8F081C6B95E
:10D1480013682340DFD12A6C85F83C3042F0040292
:10D158002A640320F1E7926812F4404FC3D02B6C85
:10D1680043F020032B64002385F83C300120BDE800
:10D17800F081FFF7B1FCA0EB0800B0422A68C2D9E1
:10D18800DEE7164A9268B9E7144AA6E7154A9342B9
:10D19800B4D0D768B3E702F500729268D106ADD073
:10D1A8004FF0A042F5E7936813F0040F2B6C0AD1F7
:10D1B80023F480732B642B6CD904BAD42B6C43F002
:10D1C80001032B64B5E743F020032B646B6C43F039
:10D1D80001036B64ADE700BF00010050000300507D
:10D1E80000070050000400500368186C704700BF27
:10D1F800F8B590F83C30012B40D0012780F83C70FE
:10D2080004460D46FFF782FC0646002831D1236804
:10D2180027649A68BD4222F080429A6003D19A68D6
:10D2280042F080429A609A6842F000429A60FFF7A2
:10D2380053FC236805469B68002B14DAFFF74CFC67
:10D24800431B0A2B2368F6D99A68002AF3DA236C61
:10D25800002223F0120343F01003012684F83C2037
:10D2680023643046F8BD236C23F0030343F0010325
:10D278002364002384F83C303046F8BD022630464B
:10D28800F8BD00BF70B490F83C2097B00346012A5F
:10D298004FF00000019000F0EA8001201A6883F83E
:10D2A8003C00906840073ED44D680C6805EB45008B
:10D2B800042D4FEA400000F28D80156B4FF01F0CD3
:10D2C8000CFA00FC25EA0C0504FA00F02843106368
:10D2D800906810F00C0F3AD1092C886804EB4405CB
:10D2E80000F2888056694FF0070CA8400CFA05F543
:10D2F80026EA050528435061D0680D694E69C0F3D8
:10D30800C1004000013D86404FEA846C032D00F2C5
:10D318003F81DFE815F013000F010501FB001568D8
:10D32800ED0740F18D801A6C42F020021A6401204A
:10D33800002283F83C2017B070BC7047156EA648D1
:10D34800284040EA0C00304340F0004010669068E6
:10D3580000F00300012800F08580CD680120012D30
:10D3680000FA04F000F08780D2F8B01021EA00013A
:10D37800C2F8B010B2F1A04F00F0998097498A42E4
:10D388004FD0102C00F09C809549112C40F08980DA
:10D398008868C5011CD4B2F1A04F904849D0824298
:10D3A80045D09048824200F0F1808F4DAA4240D08B
:10D3B800906800F00300012848D11268D207B2D45F
:10D3C800102C05D0112C03D08A6842F480028A60A0
:10D3D8000020ADE7092D19D90E2D00F28C80956B30
:10D3E8003C381F26864025EA060504FA00F0284343
:10D3F80090636DE796691E3D4FF0070CA8400CFA44
:10D4080005F526EA05052843906175E7556B1E3832
:10D418001F26864025EA060504FA00F028435063D3
:10D4280056E7102C7149B0D188680002D0D44FF06B
:10D43800A0409568029005F00305012D3FF46FAFF9
:10D44800856805F00305012D00F09B80102C7BD02A
:10D45800112CB9D1B2F1A04FBAD18A6842F08072CA
:10D468008A60B5E71068C6077FF577AFB0E7022096
:10D4780017B070BC70478D68D2F8B010092C41EA1B
:10D488000001C2F8B01021D904EB440091691B389F
:10D498000726854006FA00F021EA00012943916138
:10D4A80068E7122C94D18868400291D473E7102C55
:10D4B8004E497FF46AAF8868050289D44748B8E7BF
:10D4C8004749886806027FF56CAF81E7601C51699F
:10D4D80000EB40000726854006FA00F021EA00012B
:10D4E8002943B2F1A04F51613FF472AF3B498A42E0
:10D4F8007FF44AAF6CE7D56B5A381F26864025EA79
:10D50800060504FA00F02843D063E1E6D56E3248F8
:10D51800284040EA0C00304340F00040D06616E74F
:10D52800956E2D48284040EA0C00304340F00040FA
:10D5380090660CE7556E2848284040EA0C003043B6
:10D5480040F00040506602E7B2F1A04F7FF440AFD0
:10D55800274A284C12688868A4FB0242920C02EB06
:10D568008202520040F4000088600192019A002A69
:10D578003FF42EAF019A013A0192019A002AF9D19B
:10D5880026E70068C6073FF5CEAE5FE7164850E7C6
:10D59800106E00F0F840604514D0506E00F0F8406E
:10D5A800604514D0906E00F0F840604524D0D06EED
:10D5B80000F0F84060457FF4CAAED06E20F000401D
:10D5C800D066C4E6106E20F000401066E5E7506EA5
:10D5D80020F000405066E5E700F0FF8300010050AE
:10D5E80000070050000400500005005000030050E0
:10D5F8000000002083DE1B43906E20F00040906600
:10D60800D5E700BF704700BF00287BD038B590F839
:10D6180020300446002B72D02268136843F00103BF
:10D628001360FFF759FA054604E0FFF755FA401B67
:10D638000A285BD823685A68D107F6D51A6822F0F9
:10D6480002021A60FFF748FA054604E0FFF744FAB9
:10D65800401B0A284AD823685A689207F6D4227EC3
:10D66800012A1A680CBF42F0800222F080021A6078
:10D67800627E012A1A680CBF42F0400222F0400282
:10D688001A60A27E012A1A680CBF42F0200222F01A
:10D6980020021A60E27E012A1A680CBF22F01002EA
:10D6A80042F010021A60227F012A1A680CBF42F069
:10D6B800080222F008021A60627F012A1A680CBF69
:10D6C80042F0040222F004021A60D4E9022021691F
:10D6D80002430A4360696168024301390A43002032
:10D6E8000121DA61606284F8201038BD636A05227E
:10D6F80043F40033636284F82020012038BDFFF72B
:10D7080081FF89E70120704770B490F820200468F1
:10D71800013A012A07D9426A034642F480220120CD
:10D7280070BC5A627047D4F800324A69CD6943F038
:10D738000103C4F8003202F01F0001238340D4F82B
:10D748001C0220EA0300C4F81C02D843002D3DD176
:10D75800D4F80C52CE680540C4F80C528D8804EBFE
:10D76800C20245EA0645C2F840528E680D8845EA6D
:10D778000645C2F844528A6912BBD4F80422024012
:10D78800C4F804220A69AAB9D4F814221040C4F8CB
:10D7980014020A6A012A04D1D4F81C221343C4F8DB
:10D7A8001C32D4F8003223F001030020C4F8003200
:10D7B80070BC7047D4F814221A43C4F81422E8E75E
:10D7C800D4F804221A43C4F80422DBE7012DD2D18D
:10D7D800D4F80C520E681D43C4F80C528D8804EB23
:10D7E800C20245EA0645C2F840528E688D8945EA6C
:10D7F8000645C2F84452BEE738B590F82030012BF0
:10D80800044605D0436A43F400234362012038BD2F
:10D818000268022380F82030136823F001031360A4
:10D82800FFF75AF9054604E0FFF756F9431B0A2BA0
:10D8380007D823685B6813F00103F5D163621846C3
:10D8480038BD636A052243F40033636284F82020FC
:10D85800DCE700BF30B490F820C005680CF1FF3C4D
:10D86800BCF1010FAC6839D814F0E05F06D1436A07
:10D8780043F400134362012030BC7047C4F30164D1
:10D888000120A04018608B686BB3C86803434868E0
:10D8980043EAC00304F1180000012B5005EB041CF7
:10D8A8000B69CCF884310B7D012B4FEA041105D1AB
:10D8B800DCF8843143F48073CCF884316B185168F8
:10D8C800C3F88C111268C3F88821DCF8803143F062
:10D8D8000103002030BCCCF880317047436A43F420
:10D8E80080234362C7E7CB68086843EA405004F1E5
:10D8F80018031B01E850D1E790F82020013A012ACB
:10D90800034605D9426A42F4802201205A627047D0
:10D91800CA0704D50068826842F0800282608807DE
:10D9280004D51868826842F4004282604A0704D528
:10D938001A68936843F4000393600020704700BF9F
:10D9480090F82030013B012B01D900207047036873
:10D9580098689A689B681201C0F3806048BF0130DC
:10D96800DB00F3D50130704790F820C00CF1FF3C84
:10D97800BCF1010F6BD870B5046841B9E568AD0713
:10D9880008D1436A43F400134362012070BD25693E
:10D99800AE07F6D004EB011C4FEA011EDCF8B051CB
:10D9A80005F004059560002D57D0DCF8B051ED085E
:10D9B8005560DCF8B05105F00205D560DCF8B451CB
:10D9C8002D0758BFDCF8B451DCF8B46154BF05F03A
:10D9D8000F05082515617444DCF8B451C6F3072611
:10D9E80096612D0CD4F8B86155611E7002687244B6
:10D9F800D2F8B821120A5A7002687244D2F8B821D3
:10DA0800120C9A7002687244D2F8B821120EDA70B9
:10DA180002687244D2F8BC211A7102687244D2F8C2
:10DA2800BC21120A5A7102687244D2F8BC21120C45
:10DA38009A7102687244D2F8BC21120EDA71026837
:10DA480081B9D36843F02003D360002070BD436AD6
:10DA580043F48023436201207047DCF8B0516D0D18
:10DA68001560A6E7136943F020031361EDE700BFD3
:10DA780090F82020013A012A034605D9426A42F467
:10DA8800802201205A627047026853690B430020C4
:10DA980053617047704700BF704700BF704700BFB1
:10DAA800704700BF704700BF704700BF704700BF96
:10DAB800704700BF704700BF704700BF704700BF86
:10DAC8002DE9F84F03685C69D3F804809F68D3F8A0
